{
	"contracts/MathOperations.sol": {
		"MathAndCryptoFunctions": {
			"abi": [
				{
					"inputs": [
						{
							"internalType": "uint256",
							"name": "_a",
							"type": "uint256"
						},
						{
							"internalType": "uint256",
							"name": "_b",
							"type": "uint256"
						}
					],
					"name": "add",
					"outputs": [
						{
							"internalType": "uint256",
							"name": "",
							"type": "uint256"
						}
					],
					"stateMutability": "pure",
					"type": "function"
				},
				{
					"inputs": [
						{
							"internalType": "string",
							"name": "_input",
							"type": "string"
						}
					],
					"name": "calculateHash",
					"outputs": [
						{
							"internalType": "bytes32",
							"name": "",
							"type": "bytes32"
						}
					],
					"stateMutability": "pure",
					"type": "function"
				},
				{
					"inputs": [
						{
							"internalType": "uint256",
							"name": "_a",
							"type": "uint256"
						},
						{
							"internalType": "uint256",
							"name": "_b",
							"type": "uint256"
						}
					],
					"name": "divide",
					"outputs": [
						{
							"internalType": "uint256",
							"name": "",
							"type": "uint256"
						}
					],
					"stateMutability": "pure",
					"type": "function"
				},
				{
					"inputs": [
						{
							"internalType": "uint256",
							"name": "_a",
							"type": "uint256"
						},
						{
							"internalType": "uint256",
							"name": "_b",
							"type": "uint256"
						}
					],
					"name": "multiply",
					"outputs": [
						{
							"internalType": "uint256",
							"name": "",
							"type": "uint256"
						}
					],
					"stateMutability": "pure",
					"type": "function"
				},
				{
					"inputs": [
						{
							"internalType": "uint256",
							"name": "_a",
							"type": "uint256"
						},
						{
							"internalType": "uint256",
							"name": "_b",
							"type": "uint256"
						}
					],
					"name": "remainder",
					"outputs": [
						{
							"internalType": "uint256",
							"name": "",
							"type": "uint256"
						}
					],
					"stateMutability": "pure",
					"type": "function"
				},
				{
					"inputs": [
						{
							"internalType": "uint256",
							"name": "_a",
							"type": "uint256"
						},
						{
							"internalType": "uint256",
							"name": "_b",
							"type": "uint256"
						}
					],
					"name": "subtract",
					"outputs": [
						{
							"internalType": "uint256",
							"name": "",
							"type": "uint256"
						}
					],
					"stateMutability": "pure",
					"type": "function"
				}
			],
			"devdoc": {
				"kind": "dev",
				"methods": {},
				"version": 1
			},
			"evm": {
				"assembly": "    /* \"contracts/MathOperations.sol\":94:1349  contract MathAndCryptoFunctions {... */\n  mstore(0x40, 0x80)\n  callvalue\n  dup1\n  iszero\n  tag_1\n  jumpi\n  0x00\n  dup1\n  revert\ntag_1:\n  pop\n  dataSize(sub_0)\n  dup1\n  dataOffset(sub_0)\n  0x00\n  codecopy\n  0x00\n  return\nstop\n\nsub_0: assembly {\n        /* \"contracts/MathOperations.sol\":94:1349  contract MathAndCryptoFunctions {... */\n      mstore(0x40, 0x80)\n      callvalue\n      dup1\n      iszero\n      tag_1\n      jumpi\n      0x00\n      dup1\n      revert\n    tag_1:\n      pop\n      jumpi(tag_2, lt(calldatasize, 0x04))\n      shr(0xe0, calldataload(0x00))\n      dup1\n      0x165c4a16\n      eq\n      tag_3\n      jumpi\n      dup1\n      0x216ea5ec\n      eq\n      tag_4\n      jumpi\n      dup1\n      0x3ef5e445\n      eq\n      tag_5\n      jumpi\n      dup1\n      0x771602f7\n      eq\n      tag_6\n      jumpi\n      dup1\n      0xa8cbcecd\n      eq\n      tag_7\n      jumpi\n      dup1\n      0xf88e9fbf\n      eq\n      tag_8\n      jumpi\n    tag_2:\n      0x00\n      dup1\n      revert\n        /* \"contracts/MathOperations.sol\":799:904  function multiply(uint256 _a, uint256 _b) public pure returns (uint256) {... */\n    tag_3:\n      tag_9\n      0x04\n      dup1\n      calldatasize\n      sub\n      dup2\n      add\n      swap1\n      tag_10\n      swap2\n      swap1\n      tag_11\n      jump\t// in\n    tag_10:\n      tag_12\n      jump\t// in\n    tag_9:\n      mload(0x40)\n      tag_13\n      swap2\n      swap1\n      tag_14\n      jump\t// in\n    tag_13:\n      mload(0x40)\n      dup1\n      swap2\n      sub\n      swap1\n      return\n        /* \"contracts/MathOperations.sol\":1193:1346  function remainder(uint256 _a, uint256 _b) public pure returns (uint256) {... */\n    tag_4:\n      tag_15\n      0x04\n      dup1\n      calldatasize\n      sub\n      dup2\n      add\n      swap1\n      tag_16\n      swap2\n      swap1\n      tag_11\n      jump\t// in\n    tag_16:\n      tag_17\n      jump\t// in\n    tag_15:\n      mload(0x40)\n      tag_18\n      swap2\n      swap1\n      tag_14\n      jump\t// in\n    tag_18:\n      mload(0x40)\n      dup1\n      swap2\n      sub\n      swap1\n      return\n        /* \"contracts/MathOperations.sol\":559:733  function subtract(uint256 _a, uint256 _b) public pure returns (uint256) {... */\n    tag_5:\n      tag_19\n      0x04\n      dup1\n      calldatasize\n      sub\n      dup2\n      add\n      swap1\n      tag_20\n      swap2\n      swap1\n      tag_11\n      jump\t// in\n    tag_20:\n      tag_21\n      jump\t// in\n    tag_19:\n      mload(0x40)\n      tag_22\n      swap2\n      swap1\n      tag_14\n      jump\t// in\n    tag_22:\n      mload(0x40)\n      dup1\n      swap2\n      sub\n      swap1\n      return\n        /* \"contracts/MathOperations.sol\":396:496  function add(uint256 _a, uint256 _b) public pure returns (uint256) {... */\n    tag_6:\n      tag_23\n      0x04\n      dup1\n      calldatasize\n      sub\n      dup2\n      add\n      swap1\n      tag_24\n      swap2\n      swap1\n      tag_11\n      jump\t// in\n    tag_24:\n      tag_25\n      jump\t// in\n    tag_23:\n      mload(0x40)\n      tag_26\n      swap2\n      swap1\n      tag_14\n      jump\t// in\n    tag_26:\n      mload(0x40)\n      dup1\n      swap2\n      sub\n      swap1\n      return\n        /* \"contracts/MathOperations.sol\":200:336  function calculateHash(string memory _input) public pure returns (bytes32) {... */\n    tag_7:\n      tag_27\n      0x04\n      dup1\n      calldatasize\n      sub\n      dup2\n      add\n      swap1\n      tag_28\n      swap2\n      swap1\n      tag_29\n      jump\t// in\n    tag_28:\n      tag_30\n      jump\t// in\n    tag_27:\n      mload(0x40)\n      tag_31\n      swap2\n      swap1\n      tag_32\n      jump\t// in\n    tag_31:\n      mload(0x40)\n      dup1\n      swap2\n      sub\n      swap1\n      return\n        /* \"contracts/MathOperations.sol\":964:1114  function divide(uint256 _a, uint256 _b) public pure returns (uint256) {... */\n    tag_8:\n      tag_33\n      0x04\n      dup1\n      calldatasize\n      sub\n      dup2\n      add\n      swap1\n      tag_34\n      swap2\n      swap1\n      tag_11\n      jump\t// in\n    tag_34:\n      tag_35\n      jump\t// in\n    tag_33:\n      mload(0x40)\n      tag_36\n      swap2\n      swap1\n      tag_14\n      jump\t// in\n    tag_36:\n      mload(0x40)\n      dup1\n      swap2\n      sub\n      swap1\n      return\n        /* \"contracts/MathOperations.sol\":799:904  function multiply(uint256 _a, uint256 _b) public pure returns (uint256) {... */\n    tag_12:\n        /* \"contracts/MathOperations.sol\":862:869  uint256 */\n      0x00\n        /* \"contracts/MathOperations.sol\":894:896  _b */\n      dup2\n        /* \"contracts/MathOperations.sol\":889:891  _a */\n      dup4\n        /* \"contracts/MathOperations.sol\":889:896  _a * _b */\n      tag_38\n      swap2\n      swap1\n      tag_39\n      jump\t// in\n    tag_38:\n        /* \"contracts/MathOperations.sol\":882:896  return _a * _b */\n      swap1\n      pop\n        /* \"contracts/MathOperations.sol\":799:904  function multiply(uint256 _a, uint256 _b) public pure returns (uint256) {... */\n      swap3\n      swap2\n      pop\n      pop\n      jump\t// out\n        /* \"contracts/MathOperations.sol\":1193:1346  function remainder(uint256 _a, uint256 _b) public pure returns (uint256) {... */\n    tag_17:\n        /* \"contracts/MathOperations.sol\":1257:1264  uint256 */\n      0x00\n        /* \"contracts/MathOperations.sol\":1291:1292  0 */\n      dup1\n        /* \"contracts/MathOperations.sol\":1285:1287  _b */\n      dup3\n        /* \"contracts/MathOperations.sol\":1285:1292  _b != 0 */\n      sub\n        /* \"contracts/MathOperations.sol\":1277:1313  require(_b != 0, \"Division by zero\") */\n      tag_41\n      jumpi\n      mload(0x40)\n      0x08c379a000000000000000000000000000000000000000000000000000000000\n      dup2\n      mstore\n      0x04\n      add\n      tag_42\n      swap1\n      tag_43\n      jump\t// in\n    tag_42:\n      mload(0x40)\n      dup1\n      swap2\n      sub\n      swap1\n      revert\n    tag_41:\n        /* \"contracts/MathOperations.sol\":1336:1338  _b */\n      dup2\n        /* \"contracts/MathOperations.sol\":1331:1333  _a */\n      dup4\n        /* \"contracts/MathOperations.sol\":1331:1338  _a % _b */\n      tag_44\n      swap2\n      swap1\n      tag_45\n      jump\t// in\n    tag_44:\n        /* \"contracts/MathOperations.sol\":1324:1338  return _a % _b */\n      swap1\n      pop\n        /* \"contracts/MathOperations.sol\":1193:1346  function remainder(uint256 _a, uint256 _b) public pure returns (uint256) {... */\n      swap3\n      swap2\n      pop\n      pop\n      jump\t// out\n        /* \"contracts/MathOperations.sol\":559:733  function subtract(uint256 _a, uint256 _b) public pure returns (uint256) {... */\n    tag_21:\n        /* \"contracts/MathOperations.sol\":622:629  uint256 */\n      0x00\n        /* \"contracts/MathOperations.sol\":656:658  _b */\n      dup2\n        /* \"contracts/MathOperations.sol\":650:652  _a */\n      dup4\n        /* \"contracts/MathOperations.sol\":650:658  _a >= _b */\n      lt\n      iszero\n        /* \"contracts/MathOperations.sol\":642:700  require(_a >= _b, \"Subtraction result cannot be negative\") */\n      tag_47\n      jumpi\n      mload(0x40)\n      0x08c379a000000000000000000000000000000000000000000000000000000000\n      dup2\n      mstore\n      0x04\n      add\n      tag_48\n      swap1\n      tag_49\n      jump\t// in\n    tag_48:\n      mload(0x40)\n      dup1\n      swap2\n      sub\n      swap1\n      revert\n    tag_47:\n        /* \"contracts/MathOperations.sol\":723:725  _b */\n      dup2\n        /* \"contracts/MathOperations.sol\":718:720  _a */\n      dup4\n        /* \"contracts/MathOperations.sol\":718:725  _a - _b */\n      tag_50\n      swap2\n      swap1\n      tag_51\n      jump\t// in\n    tag_50:\n        /* \"contracts/MathOperations.sol\":711:725  return _a - _b */\n      swap1\n      pop\n        /* \"contracts/MathOperations.sol\":559:733  function subtract(uint256 _a, uint256 _b) public pure returns (uint256) {... */\n      swap3\n      swap2\n      pop\n      pop\n      jump\t// out\n        /* \"contracts/MathOperations.sol\":396:496  function add(uint256 _a, uint256 _b) public pure returns (uint256) {... */\n    tag_25:\n        /* \"contracts/MathOperations.sol\":454:461  uint256 */\n      0x00\n        /* \"contracts/MathOperations.sol\":486:488  _b */\n      dup2\n        /* \"contracts/MathOperations.sol\":481:483  _a */\n      dup4\n        /* \"contracts/MathOperations.sol\":481:488  _a + _b */\n      tag_53\n      swap2\n      swap1\n      tag_54\n      jump\t// in\n    tag_53:\n        /* \"contracts/MathOperations.sol\":474:488  return _a + _b */\n      swap1\n      pop\n        /* \"contracts/MathOperations.sol\":396:496  function add(uint256 _a, uint256 _b) public pure returns (uint256) {... */\n      swap3\n      swap2\n      pop\n      pop\n      jump\t// out\n        /* \"contracts/MathOperations.sol\":200:336  function calculateHash(string memory _input) public pure returns (bytes32) {... */\n    tag_30:\n        /* \"contracts/MathOperations.sol\":266:273  bytes32 */\n      0x00\n        /* \"contracts/MathOperations.sol\":320:326  _input */\n      dup2\n        /* \"contracts/MathOperations.sol\":303:327  abi.encodePacked(_input) */\n      add(0x20, mload(0x40))\n      tag_56\n      swap2\n      swap1\n      tag_57\n      jump\t// in\n    tag_56:\n      mload(0x40)\n      0x20\n      dup2\n      dup4\n      sub\n      sub\n      dup2\n      mstore\n      swap1\n      0x40\n      mstore\n        /* \"contracts/MathOperations.sol\":293:328  keccak256(abi.encodePacked(_input)) */\n      dup1\n      mload\n      swap1\n      0x20\n      add\n      keccak256\n        /* \"contracts/MathOperations.sol\":286:328  return keccak256(abi.encodePacked(_input)) */\n      swap1\n      pop\n        /* \"contracts/MathOperations.sol\":200:336  function calculateHash(string memory _input) public pure returns (bytes32) {... */\n      swap2\n      swap1\n      pop\n      jump\t// out\n        /* \"contracts/MathOperations.sol\":964:1114  function divide(uint256 _a, uint256 _b) public pure returns (uint256) {... */\n    tag_35:\n        /* \"contracts/MathOperations.sol\":1025:1032  uint256 */\n      0x00\n        /* \"contracts/MathOperations.sol\":1059:1060  0 */\n      dup1\n        /* \"contracts/MathOperations.sol\":1053:1055  _b */\n      dup3\n        /* \"contracts/MathOperations.sol\":1053:1060  _b != 0 */\n      sub\n        /* \"contracts/MathOperations.sol\":1045:1081  require(_b != 0, \"Division by zero\") */\n      tag_59\n      jumpi\n      mload(0x40)\n      0x08c379a000000000000000000000000000000000000000000000000000000000\n      dup2\n      mstore\n      0x04\n      add\n      tag_60\n      swap1\n      tag_43\n      jump\t// in\n    tag_60:\n      mload(0x40)\n      dup1\n      swap2\n      sub\n      swap1\n      revert\n    tag_59:\n        /* \"contracts/MathOperations.sol\":1104:1106  _b */\n      dup2\n        /* \"contracts/MathOperations.sol\":1099:1101  _a */\n      dup4\n        /* \"contracts/MathOperations.sol\":1099:1106  _a / _b */\n      tag_61\n      swap2\n      swap1\n      tag_62\n      jump\t// in\n    tag_61:\n        /* \"contracts/MathOperations.sol\":1092:1106  return _a / _b */\n      swap1\n      pop\n        /* \"contracts/MathOperations.sol\":964:1114  function divide(uint256 _a, uint256 _b) public pure returns (uint256) {... */\n      swap3\n      swap2\n      pop\n      pop\n      jump\t// out\n        /* \"#utility.yul\":7:82   */\n    tag_63:\n        /* \"#utility.yul\":40:46   */\n      0x00\n        /* \"#utility.yul\":73:75   */\n      0x40\n        /* \"#utility.yul\":67:76   */\n      mload\n        /* \"#utility.yul\":57:76   */\n      swap1\n      pop\n        /* \"#utility.yul\":7:82   */\n      swap1\n      jump\t// out\n        /* \"#utility.yul\":88:205   */\n    tag_64:\n        /* \"#utility.yul\":197:198   */\n      0x00\n        /* \"#utility.yul\":194:195   */\n      dup1\n        /* \"#utility.yul\":187:199   */\n      revert\n        /* \"#utility.yul\":211:328   */\n    tag_65:\n        /* \"#utility.yul\":320:321   */\n      0x00\n        /* \"#utility.yul\":317:318   */\n      dup1\n        /* \"#utility.yul\":310:322   */\n      revert\n        /* \"#utility.yul\":334:411   */\n    tag_66:\n        /* \"#utility.yul\":371:378   */\n      0x00\n        /* \"#utility.yul\":400:405   */\n      dup2\n        /* \"#utility.yul\":389:405   */\n      swap1\n      pop\n        /* \"#utility.yul\":334:411   */\n      swap2\n      swap1\n      pop\n      jump\t// out\n        /* \"#utility.yul\":417:539   */\n    tag_67:\n        /* \"#utility.yul\":490:514   */\n      tag_99\n        /* \"#utility.yul\":508:513   */\n      dup2\n        /* \"#utility.yul\":490:514   */\n      tag_66\n      jump\t// in\n    tag_99:\n        /* \"#utility.yul\":483:488   */\n      dup2\n        /* \"#utility.yul\":480:515   */\n      eq\n        /* \"#utility.yul\":470:533   */\n      tag_100\n      jumpi\n        /* \"#utility.yul\":529:530   */\n      0x00\n        /* \"#utility.yul\":526:527   */\n      dup1\n        /* \"#utility.yul\":519:531   */\n      revert\n        /* \"#utility.yul\":470:533   */\n    tag_100:\n        /* \"#utility.yul\":417:539   */\n      pop\n      jump\t// out\n        /* \"#utility.yul\":545:684   */\n    tag_68:\n        /* \"#utility.yul\":591:596   */\n      0x00\n        /* \"#utility.yul\":629:635   */\n      dup2\n        /* \"#utility.yul\":616:636   */\n      calldataload\n        /* \"#utility.yul\":607:636   */\n      swap1\n      pop\n        /* \"#utility.yul\":645:678   */\n      tag_102\n        /* \"#utility.yul\":672:677   */\n      dup2\n        /* \"#utility.yul\":645:678   */\n      tag_67\n      jump\t// in\n    tag_102:\n        /* \"#utility.yul\":545:684   */\n      swap3\n      swap2\n      pop\n      pop\n      jump\t// out\n        /* \"#utility.yul\":690:1164   */\n    tag_11:\n        /* \"#utility.yul\":758:764   */\n      0x00\n        /* \"#utility.yul\":766:772   */\n      dup1\n        /* \"#utility.yul\":815:817   */\n      0x40\n        /* \"#utility.yul\":803:812   */\n      dup4\n        /* \"#utility.yul\":794:801   */\n      dup6\n        /* \"#utility.yul\":790:813   */\n      sub\n        /* \"#utility.yul\":786:818   */\n      slt\n        /* \"#utility.yul\":783:902   */\n      iszero\n      tag_104\n      jumpi\n        /* \"#utility.yul\":821:900   */\n      tag_105\n      tag_64\n      jump\t// in\n    tag_105:\n        /* \"#utility.yul\":783:902   */\n    tag_104:\n        /* \"#utility.yul\":941:942   */\n      0x00\n        /* \"#utility.yul\":966:1019   */\n      tag_106\n        /* \"#utility.yul\":1011:1018   */\n      dup6\n        /* \"#utility.yul\":1002:1008   */\n      dup3\n        /* \"#utility.yul\":991:1000   */\n      dup7\n        /* \"#utility.yul\":987:1009   */\n      add\n        /* \"#utility.yul\":966:1019   */\n      tag_68\n      jump\t// in\n    tag_106:\n        /* \"#utility.yul\":956:1019   */\n      swap3\n      pop\n        /* \"#utility.yul\":912:1029   */\n      pop\n        /* \"#utility.yul\":1068:1070   */\n      0x20\n        /* \"#utility.yul\":1094:1147   */\n      tag_107\n        /* \"#utility.yul\":1139:1146   */\n      dup6\n        /* \"#utility.yul\":1130:1136   */\n      dup3\n        /* \"#utility.yul\":1119:1128   */\n      dup7\n        /* \"#utility.yul\":1115:1137   */\n      add\n        /* \"#utility.yul\":1094:1147   */\n      tag_68\n      jump\t// in\n    tag_107:\n        /* \"#utility.yul\":1084:1147   */\n      swap2\n      pop\n        /* \"#utility.yul\":1039:1157   */\n      pop\n        /* \"#utility.yul\":690:1164   */\n      swap3\n      pop\n      swap3\n      swap1\n      pop\n      jump\t// out\n        /* \"#utility.yul\":1170:1288   */\n    tag_69:\n        /* \"#utility.yul\":1257:1281   */\n      tag_109\n        /* \"#utility.yul\":1275:1280   */\n      dup2\n        /* \"#utility.yul\":1257:1281   */\n      tag_66\n      jump\t// in\n    tag_109:\n        /* \"#utility.yul\":1252:1255   */\n      dup3\n        /* \"#utility.yul\":1245:1282   */\n      mstore\n        /* \"#utility.yul\":1170:1288   */\n      pop\n      pop\n      jump\t// out\n        /* \"#utility.yul\":1294:1516   */\n    tag_14:\n        /* \"#utility.yul\":1387:1391   */\n      0x00\n        /* \"#utility.yul\":1425:1427   */\n      0x20\n        /* \"#utility.yul\":1414:1423   */\n      dup3\n        /* \"#utility.yul\":1410:1428   */\n      add\n        /* \"#utility.yul\":1402:1428   */\n      swap1\n      pop\n        /* \"#utility.yul\":1438:1509   */\n      tag_111\n        /* \"#utility.yul\":1506:1507   */\n      0x00\n        /* \"#utility.yul\":1495:1504   */\n      dup4\n        /* \"#utility.yul\":1491:1508   */\n      add\n        /* \"#utility.yul\":1482:1488   */\n      dup5\n        /* \"#utility.yul\":1438:1509   */\n      tag_69\n      jump\t// in\n    tag_111:\n        /* \"#utility.yul\":1294:1516   */\n      swap3\n      swap2\n      pop\n      pop\n      jump\t// out\n        /* \"#utility.yul\":1522:1639   */\n    tag_70:\n        /* \"#utility.yul\":1631:1632   */\n      0x00\n        /* \"#utility.yul\":1628:1629   */\n      dup1\n        /* \"#utility.yul\":1621:1633   */\n      revert\n        /* \"#utility.yul\":1645:1762   */\n    tag_71:\n        /* \"#utility.yul\":1754:1755   */\n      0x00\n        /* \"#utility.yul\":1751:1752   */\n      dup1\n        /* \"#utility.yul\":1744:1756   */\n      revert\n        /* \"#utility.yul\":1768:1870   */\n    tag_72:\n        /* \"#utility.yul\":1809:1815   */\n      0x00\n        /* \"#utility.yul\":1860:1862   */\n      0x1f\n        /* \"#utility.yul\":1856:1863   */\n      not\n        /* \"#utility.yul\":1851:1853   */\n      0x1f\n        /* \"#utility.yul\":1844:1849   */\n      dup4\n        /* \"#utility.yul\":1840:1854   */\n      add\n        /* \"#utility.yul\":1836:1864   */\n      and\n        /* \"#utility.yul\":1826:1864   */\n      swap1\n      pop\n        /* \"#utility.yul\":1768:1870   */\n      swap2\n      swap1\n      pop\n      jump\t// out\n        /* \"#utility.yul\":1876:2056   */\n    tag_73:\n        /* \"#utility.yul\":1924:2001   */\n      0x4e487b7100000000000000000000000000000000000000000000000000000000\n        /* \"#utility.yul\":1921:1922   */\n      0x00\n        /* \"#utility.yul\":1914:2002   */\n      mstore\n        /* \"#utility.yul\":2021:2025   */\n      0x41\n        /* \"#utility.yul\":2018:2019   */\n      0x04\n        /* \"#utility.yul\":2011:2026   */\n      mstore\n        /* \"#utility.yul\":2045:2049   */\n      0x24\n        /* \"#utility.yul\":2042:2043   */\n      0x00\n        /* \"#utility.yul\":2035:2050   */\n      revert\n        /* \"#utility.yul\":2062:2343   */\n    tag_74:\n        /* \"#utility.yul\":2145:2172   */\n      tag_117\n        /* \"#utility.yul\":2167:2171   */\n      dup3\n        /* \"#utility.yul\":2145:2172   */\n      tag_72\n      jump\t// in\n    tag_117:\n        /* \"#utility.yul\":2137:2143   */\n      dup2\n        /* \"#utility.yul\":2133:2173   */\n      add\n        /* \"#utility.yul\":2275:2281   */\n      dup2\n        /* \"#utility.yul\":2263:2273   */\n      dup2\n        /* \"#utility.yul\":2260:2282   */\n      lt\n        /* \"#utility.yul\":2239:2257   */\n      0xffffffffffffffff\n        /* \"#utility.yul\":2227:2237   */\n      dup3\n        /* \"#utility.yul\":2224:2258   */\n      gt\n        /* \"#utility.yul\":2221:2283   */\n      or\n        /* \"#utility.yul\":2218:2306   */\n      iszero\n      tag_118\n      jumpi\n        /* \"#utility.yul\":2286:2304   */\n      tag_119\n      tag_73\n      jump\t// in\n    tag_119:\n        /* \"#utility.yul\":2218:2306   */\n    tag_118:\n        /* \"#utility.yul\":2326:2336   */\n      dup1\n        /* \"#utility.yul\":2322:2324   */\n      0x40\n        /* \"#utility.yul\":2315:2337   */\n      mstore\n        /* \"#utility.yul\":2105:2343   */\n      pop\n        /* \"#utility.yul\":2062:2343   */\n      pop\n      pop\n      jump\t// out\n        /* \"#utility.yul\":2349:2478   */\n    tag_75:\n        /* \"#utility.yul\":2383:2389   */\n      0x00\n        /* \"#utility.yul\":2410:2430   */\n      tag_121\n      tag_63\n      jump\t// in\n    tag_121:\n        /* \"#utility.yul\":2400:2430   */\n      swap1\n      pop\n        /* \"#utility.yul\":2439:2472   */\n      tag_122\n        /* \"#utility.yul\":2467:2471   */\n      dup3\n        /* \"#utility.yul\":2459:2465   */\n      dup3\n        /* \"#utility.yul\":2439:2472   */\n      tag_74\n      jump\t// in\n    tag_122:\n        /* \"#utility.yul\":2349:2478   */\n      swap2\n      swap1\n      pop\n      jump\t// out\n        /* \"#utility.yul\":2484:2792   */\n    tag_76:\n        /* \"#utility.yul\":2546:2550   */\n      0x00\n        /* \"#utility.yul\":2636:2654   */\n      0xffffffffffffffff\n        /* \"#utility.yul\":2628:2634   */\n      dup3\n        /* \"#utility.yul\":2625:2655   */\n      gt\n        /* \"#utility.yul\":2622:2678   */\n      iszero\n      tag_124\n      jumpi\n        /* \"#utility.yul\":2658:2676   */\n      tag_125\n      tag_73\n      jump\t// in\n    tag_125:\n        /* \"#utility.yul\":2622:2678   */\n    tag_124:\n        /* \"#utility.yul\":2696:2725   */\n      tag_126\n        /* \"#utility.yul\":2718:2724   */\n      dup3\n        /* \"#utility.yul\":2696:2725   */\n      tag_72\n      jump\t// in\n    tag_126:\n        /* \"#utility.yul\":2688:2725   */\n      swap1\n      pop\n        /* \"#utility.yul\":2780:2784   */\n      0x20\n        /* \"#utility.yul\":2774:2778   */\n      dup2\n        /* \"#utility.yul\":2770:2785   */\n      add\n        /* \"#utility.yul\":2762:2785   */\n      swap1\n      pop\n        /* \"#utility.yul\":2484:2792   */\n      swap2\n      swap1\n      pop\n      jump\t// out\n        /* \"#utility.yul\":2798:2946   */\n    tag_77:\n        /* \"#utility.yul\":2896:2902   */\n      dup3\n        /* \"#utility.yul\":2891:2894   */\n      dup2\n        /* \"#utility.yul\":2886:2889   */\n      dup4\n        /* \"#utility.yul\":2873:2903   */\n      calldatacopy\n        /* \"#utility.yul\":2937:2938   */\n      0x00\n        /* \"#utility.yul\":2928:2934   */\n      dup4\n        /* \"#utility.yul\":2923:2926   */\n      dup4\n        /* \"#utility.yul\":2919:2935   */\n      add\n        /* \"#utility.yul\":2912:2939   */\n      mstore\n        /* \"#utility.yul\":2798:2946   */\n      pop\n      pop\n      pop\n      jump\t// out\n        /* \"#utility.yul\":2952:3377   */\n    tag_78:\n        /* \"#utility.yul\":3030:3035   */\n      0x00\n        /* \"#utility.yul\":3055:3121   */\n      tag_129\n        /* \"#utility.yul\":3071:3120   */\n      tag_130\n        /* \"#utility.yul\":3113:3119   */\n      dup5\n        /* \"#utility.yul\":3071:3120   */\n      tag_76\n      jump\t// in\n    tag_130:\n        /* \"#utility.yul\":3055:3121   */\n      tag_75\n      jump\t// in\n    tag_129:\n        /* \"#utility.yul\":3046:3121   */\n      swap1\n      pop\n        /* \"#utility.yul\":3144:3150   */\n      dup3\n        /* \"#utility.yul\":3137:3142   */\n      dup2\n        /* \"#utility.yul\":3130:3151   */\n      mstore\n        /* \"#utility.yul\":3182:3186   */\n      0x20\n        /* \"#utility.yul\":3175:3180   */\n      dup2\n        /* \"#utility.yul\":3171:3187   */\n      add\n        /* \"#utility.yul\":3220:3223   */\n      dup5\n        /* \"#utility.yul\":3211:3217   */\n      dup5\n        /* \"#utility.yul\":3206:3209   */\n      dup5\n        /* \"#utility.yul\":3202:3218   */\n      add\n        /* \"#utility.yul\":3199:3224   */\n      gt\n        /* \"#utility.yul\":3196:3308   */\n      iszero\n      tag_131\n      jumpi\n        /* \"#utility.yul\":3227:3306   */\n      tag_132\n      tag_71\n      jump\t// in\n    tag_132:\n        /* \"#utility.yul\":3196:3308   */\n    tag_131:\n        /* \"#utility.yul\":3317:3371   */\n      tag_133\n        /* \"#utility.yul\":3364:3370   */\n      dup5\n        /* \"#utility.yul\":3359:3362   */\n      dup3\n        /* \"#utility.yul\":3354:3357   */\n      dup6\n        /* \"#utility.yul\":3317:3371   */\n      tag_77\n      jump\t// in\n    tag_133:\n        /* \"#utility.yul\":3036:3377   */\n      pop\n        /* \"#utility.yul\":2952:3377   */\n      swap4\n      swap3\n      pop\n      pop\n      pop\n      jump\t// out\n        /* \"#utility.yul\":3397:3737   */\n    tag_79:\n        /* \"#utility.yul\":3453:3458   */\n      0x00\n        /* \"#utility.yul\":3502:3505   */\n      dup3\n        /* \"#utility.yul\":3495:3499   */\n      0x1f\n        /* \"#utility.yul\":3487:3493   */\n      dup4\n        /* \"#utility.yul\":3483:3500   */\n      add\n        /* \"#utility.yul\":3479:3506   */\n      slt\n        /* \"#utility.yul\":3469:3591   */\n      tag_135\n      jumpi\n        /* \"#utility.yul\":3510:3589   */\n      tag_136\n      tag_70\n      jump\t// in\n    tag_136:\n        /* \"#utility.yul\":3469:3591   */\n    tag_135:\n        /* \"#utility.yul\":3627:3633   */\n      dup2\n        /* \"#utility.yul\":3614:3634   */\n      calldataload\n        /* \"#utility.yul\":3652:3731   */\n      tag_137\n        /* \"#utility.yul\":3727:3730   */\n      dup5\n        /* \"#utility.yul\":3719:3725   */\n      dup3\n        /* \"#utility.yul\":3712:3716   */\n      0x20\n        /* \"#utility.yul\":3704:3710   */\n      dup7\n        /* \"#utility.yul\":3700:3717   */\n      add\n        /* \"#utility.yul\":3652:3731   */\n      tag_78\n      jump\t// in\n    tag_137:\n        /* \"#utility.yul\":3643:3731   */\n      swap2\n      pop\n        /* \"#utility.yul\":3459:3737   */\n      pop\n        /* \"#utility.yul\":3397:3737   */\n      swap3\n      swap2\n      pop\n      pop\n      jump\t// out\n        /* \"#utility.yul\":3743:4252   */\n    tag_29:\n        /* \"#utility.yul\":3812:3818   */\n      0x00\n        /* \"#utility.yul\":3861:3863   */\n      0x20\n        /* \"#utility.yul\":3849:3858   */\n      dup3\n        /* \"#utility.yul\":3840:3847   */\n      dup5\n        /* \"#utility.yul\":3836:3859   */\n      sub\n        /* \"#utility.yul\":3832:3864   */\n      slt\n        /* \"#utility.yul\":3829:3948   */\n      iszero\n      tag_139\n      jumpi\n        /* \"#utility.yul\":3867:3946   */\n      tag_140\n      tag_64\n      jump\t// in\n    tag_140:\n        /* \"#utility.yul\":3829:3948   */\n    tag_139:\n        /* \"#utility.yul\":4015:4016   */\n      0x00\n        /* \"#utility.yul\":4004:4013   */\n      dup3\n        /* \"#utility.yul\":4000:4017   */\n      add\n        /* \"#utility.yul\":3987:4018   */\n      calldataload\n        /* \"#utility.yul\":4045:4063   */\n      0xffffffffffffffff\n        /* \"#utility.yul\":4037:4043   */\n      dup2\n        /* \"#utility.yul\":4034:4064   */\n      gt\n        /* \"#utility.yul\":4031:4148   */\n      iszero\n      tag_141\n      jumpi\n        /* \"#utility.yul\":4067:4146   */\n      tag_142\n      tag_65\n      jump\t// in\n    tag_142:\n        /* \"#utility.yul\":4031:4148   */\n    tag_141:\n        /* \"#utility.yul\":4172:4235   */\n      tag_143\n        /* \"#utility.yul\":4227:4234   */\n      dup5\n        /* \"#utility.yul\":4218:4224   */\n      dup3\n        /* \"#utility.yul\":4207:4216   */\n      dup6\n        /* \"#utility.yul\":4203:4225   */\n      add\n        /* \"#utility.yul\":4172:4235   */\n      tag_79\n      jump\t// in\n    tag_143:\n        /* \"#utility.yul\":4162:4235   */\n      swap2\n      pop\n        /* \"#utility.yul\":3958:4245   */\n      pop\n        /* \"#utility.yul\":3743:4252   */\n      swap3\n      swap2\n      pop\n      pop\n      jump\t// out\n        /* \"#utility.yul\":4258:4335   */\n    tag_80:\n        /* \"#utility.yul\":4295:4302   */\n      0x00\n        /* \"#utility.yul\":4324:4329   */\n      dup2\n        /* \"#utility.yul\":4313:4329   */\n      swap1\n      pop\n        /* \"#utility.yul\":4258:4335   */\n      swap2\n      swap1\n      pop\n      jump\t// out\n        /* \"#utility.yul\":4341:4459   */\n    tag_81:\n        /* \"#utility.yul\":4428:4452   */\n      tag_146\n        /* \"#utility.yul\":4446:4451   */\n      dup2\n        /* \"#utility.yul\":4428:4452   */\n      tag_80\n      jump\t// in\n    tag_146:\n        /* \"#utility.yul\":4423:4426   */\n      dup3\n        /* \"#utility.yul\":4416:4453   */\n      mstore\n        /* \"#utility.yul\":4341:4459   */\n      pop\n      pop\n      jump\t// out\n        /* \"#utility.yul\":4465:4687   */\n    tag_32:\n        /* \"#utility.yul\":4558:4562   */\n      0x00\n        /* \"#utility.yul\":4596:4598   */\n      0x20\n        /* \"#utility.yul\":4585:4594   */\n      dup3\n        /* \"#utility.yul\":4581:4599   */\n      add\n        /* \"#utility.yul\":4573:4599   */\n      swap1\n      pop\n        /* \"#utility.yul\":4609:4680   */\n      tag_148\n        /* \"#utility.yul\":4677:4678   */\n      0x00\n        /* \"#utility.yul\":4666:4675   */\n      dup4\n        /* \"#utility.yul\":4662:4679   */\n      add\n        /* \"#utility.yul\":4653:4659   */\n      dup5\n        /* \"#utility.yul\":4609:4680   */\n      tag_81\n      jump\t// in\n    tag_148:\n        /* \"#utility.yul\":4465:4687   */\n      swap3\n      swap2\n      pop\n      pop\n      jump\t// out\n        /* \"#utility.yul\":4693:4873   */\n    tag_82:\n        /* \"#utility.yul\":4741:4818   */\n      0x4e487b7100000000000000000000000000000000000000000000000000000000\n        /* \"#utility.yul\":4738:4739   */\n      0x00\n        /* \"#utility.yul\":4731:4819   */\n      mstore\n        /* \"#utility.yul\":4838:4842   */\n      0x11\n        /* \"#utility.yul\":4835:4836   */\n      0x04\n        /* \"#utility.yul\":4828:4843   */\n      mstore\n        /* \"#utility.yul\":4862:4866   */\n      0x24\n        /* \"#utility.yul\":4859:4860   */\n      0x00\n        /* \"#utility.yul\":4852:4867   */\n      revert\n        /* \"#utility.yul\":4879:5289   */\n    tag_39:\n        /* \"#utility.yul\":4919:4926   */\n      0x00\n        /* \"#utility.yul\":4942:4962   */\n      tag_151\n        /* \"#utility.yul\":4960:4961   */\n      dup3\n        /* \"#utility.yul\":4942:4962   */\n      tag_66\n      jump\t// in\n    tag_151:\n        /* \"#utility.yul\":4937:4962   */\n      swap2\n      pop\n        /* \"#utility.yul\":4976:4996   */\n      tag_152\n        /* \"#utility.yul\":4994:4995   */\n      dup4\n        /* \"#utility.yul\":4976:4996   */\n      tag_66\n      jump\t// in\n    tag_152:\n        /* \"#utility.yul\":4971:4996   */\n      swap3\n      pop\n        /* \"#utility.yul\":5031:5032   */\n      dup3\n        /* \"#utility.yul\":5028:5029   */\n      dup3\n        /* \"#utility.yul\":5024:5033   */\n      mul\n        /* \"#utility.yul\":5053:5083   */\n      tag_153\n        /* \"#utility.yul\":5071:5082   */\n      dup2\n        /* \"#utility.yul\":5053:5083   */\n      tag_66\n      jump\t// in\n    tag_153:\n        /* \"#utility.yul\":5042:5083   */\n      swap2\n      pop\n        /* \"#utility.yul\":5232:5233   */\n      dup3\n        /* \"#utility.yul\":5223:5230   */\n      dup3\n        /* \"#utility.yul\":5219:5234   */\n      div\n        /* \"#utility.yul\":5216:5217   */\n      dup5\n        /* \"#utility.yul\":5213:5235   */\n      eq\n        /* \"#utility.yul\":5193:5194   */\n      dup4\n        /* \"#utility.yul\":5186:5195   */\n      iszero\n        /* \"#utility.yul\":5166:5249   */\n      or\n        /* \"#utility.yul\":5143:5282   */\n      tag_154\n      jumpi\n        /* \"#utility.yul\":5262:5280   */\n      tag_155\n      tag_82\n      jump\t// in\n    tag_155:\n        /* \"#utility.yul\":5143:5282   */\n    tag_154:\n        /* \"#utility.yul\":4927:5289   */\n      pop\n        /* \"#utility.yul\":4879:5289   */\n      swap3\n      swap2\n      pop\n      pop\n      jump\t// out\n        /* \"#utility.yul\":5295:5464   */\n    tag_83:\n        /* \"#utility.yul\":5379:5390   */\n      0x00\n        /* \"#utility.yul\":5413:5419   */\n      dup3\n        /* \"#utility.yul\":5408:5411   */\n      dup3\n        /* \"#utility.yul\":5401:5420   */\n      mstore\n        /* \"#utility.yul\":5453:5457   */\n      0x20\n        /* \"#utility.yul\":5448:5451   */\n      dup3\n        /* \"#utility.yul\":5444:5458   */\n      add\n        /* \"#utility.yul\":5429:5458   */\n      swap1\n      pop\n        /* \"#utility.yul\":5295:5464   */\n      swap3\n      swap2\n      pop\n      pop\n      jump\t// out\n        /* \"#utility.yul\":5470:5636   */\n    tag_84:\n        /* \"#utility.yul\":5610:5628   */\n      0x4469766973696f6e206279207a65726f00000000000000000000000000000000\n        /* \"#utility.yul\":5606:5607   */\n      0x00\n        /* \"#utility.yul\":5598:5604   */\n      dup3\n        /* \"#utility.yul\":5594:5608   */\n      add\n        /* \"#utility.yul\":5587:5629   */\n      mstore\n        /* \"#utility.yul\":5470:5636   */\n      pop\n      jump\t// out\n        /* \"#utility.yul\":5642:6008   */\n    tag_85:\n        /* \"#utility.yul\":5784:5787   */\n      0x00\n        /* \"#utility.yul\":5805:5872   */\n      tag_159\n        /* \"#utility.yul\":5869:5871   */\n      0x10\n        /* \"#utility.yul\":5864:5867   */\n      dup4\n        /* \"#utility.yul\":5805:5872   */\n      tag_83\n      jump\t// in\n    tag_159:\n        /* \"#utility.yul\":5798:5872   */\n      swap2\n      pop\n        /* \"#utility.yul\":5881:5974   */\n      tag_160\n        /* \"#utility.yul\":5970:5973   */\n      dup3\n        /* \"#utility.yul\":5881:5974   */\n      tag_84\n      jump\t// in\n    tag_160:\n        /* \"#utility.yul\":5999:6001   */\n      0x20\n        /* \"#utility.yul\":5994:5997   */\n      dup3\n        /* \"#utility.yul\":5990:6002   */\n      add\n        /* \"#utility.yul\":5983:6002   */\n      swap1\n      pop\n        /* \"#utility.yul\":5642:6008   */\n      swap2\n      swap1\n      pop\n      jump\t// out\n        /* \"#utility.yul\":6014:6433   */\n    tag_43:\n        /* \"#utility.yul\":6180:6184   */\n      0x00\n        /* \"#utility.yul\":6218:6220   */\n      0x20\n        /* \"#utility.yul\":6207:6216   */\n      dup3\n        /* \"#utility.yul\":6203:6221   */\n      add\n        /* \"#utility.yul\":6195:6221   */\n      swap1\n      pop\n        /* \"#utility.yul\":6267:6276   */\n      dup2\n        /* \"#utility.yul\":6261:6265   */\n      dup2\n        /* \"#utility.yul\":6257:6277   */\n      sub\n        /* \"#utility.yul\":6253:6254   */\n      0x00\n        /* \"#utility.yul\":6242:6251   */\n      dup4\n        /* \"#utility.yul\":6238:6255   */\n      add\n        /* \"#utility.yul\":6231:6278   */\n      mstore\n        /* \"#utility.yul\":6295:6426   */\n      tag_162\n        /* \"#utility.yul\":6421:6425   */\n      dup2\n        /* \"#utility.yul\":6295:6426   */\n      tag_85\n      jump\t// in\n    tag_162:\n        /* \"#utility.yul\":6287:6426   */\n      swap1\n      pop\n        /* \"#utility.yul\":6014:6433   */\n      swap2\n      swap1\n      pop\n      jump\t// out\n        /* \"#utility.yul\":6439:6619   */\n    tag_86:\n        /* \"#utility.yul\":6487:6564   */\n      0x4e487b7100000000000000000000000000000000000000000000000000000000\n        /* \"#utility.yul\":6484:6485   */\n      0x00\n        /* \"#utility.yul\":6477:6565   */\n      mstore\n        /* \"#utility.yul\":6584:6588   */\n      0x12\n        /* \"#utility.yul\":6581:6582   */\n      0x04\n        /* \"#utility.yul\":6574:6589   */\n      mstore\n        /* \"#utility.yul\":6608:6612   */\n      0x24\n        /* \"#utility.yul\":6605:6606   */\n      0x00\n        /* \"#utility.yul\":6598:6613   */\n      revert\n        /* \"#utility.yul\":6625:6801   */\n    tag_45:\n        /* \"#utility.yul\":6657:6658   */\n      0x00\n        /* \"#utility.yul\":6674:6694   */\n      tag_165\n        /* \"#utility.yul\":6692:6693   */\n      dup3\n        /* \"#utility.yul\":6674:6694   */\n      tag_66\n      jump\t// in\n    tag_165:\n        /* \"#utility.yul\":6669:6694   */\n      swap2\n      pop\n        /* \"#utility.yul\":6708:6728   */\n      tag_166\n        /* \"#utility.yul\":6726:6727   */\n      dup4\n        /* \"#utility.yul\":6708:6728   */\n      tag_66\n      jump\t// in\n    tag_166:\n        /* \"#utility.yul\":6703:6728   */\n      swap3\n      pop\n        /* \"#utility.yul\":6747:6748   */\n      dup3\n        /* \"#utility.yul\":6737:6772   */\n      tag_167\n      jumpi\n        /* \"#utility.yul\":6752:6770   */\n      tag_168\n      tag_86\n      jump\t// in\n    tag_168:\n        /* \"#utility.yul\":6737:6772   */\n    tag_167:\n        /* \"#utility.yul\":6793:6794   */\n      dup3\n        /* \"#utility.yul\":6790:6791   */\n      dup3\n        /* \"#utility.yul\":6786:6795   */\n      mod\n        /* \"#utility.yul\":6781:6795   */\n      swap1\n      pop\n        /* \"#utility.yul\":6625:6801   */\n      swap3\n      swap2\n      pop\n      pop\n      jump\t// out\n        /* \"#utility.yul\":6807:7031   */\n    tag_87:\n        /* \"#utility.yul\":6947:6981   */\n      0x5375627472616374696f6e20726573756c742063616e6e6f74206265206e6567\n        /* \"#utility.yul\":6943:6944   */\n      0x00\n        /* \"#utility.yul\":6935:6941   */\n      dup3\n        /* \"#utility.yul\":6931:6945   */\n      add\n        /* \"#utility.yul\":6924:6982   */\n      mstore\n        /* \"#utility.yul\":7016:7023   */\n      0x6174697665000000000000000000000000000000000000000000000000000000\n        /* \"#utility.yul\":7011:7013   */\n      0x20\n        /* \"#utility.yul\":7003:7009   */\n      dup3\n        /* \"#utility.yul\":6999:7014   */\n      add\n        /* \"#utility.yul\":6992:7024   */\n      mstore\n        /* \"#utility.yul\":6807:7031   */\n      pop\n      jump\t// out\n        /* \"#utility.yul\":7037:7403   */\n    tag_88:\n        /* \"#utility.yul\":7179:7182   */\n      0x00\n        /* \"#utility.yul\":7200:7267   */\n      tag_171\n        /* \"#utility.yul\":7264:7266   */\n      0x25\n        /* \"#utility.yul\":7259:7262   */\n      dup4\n        /* \"#utility.yul\":7200:7267   */\n      tag_83\n      jump\t// in\n    tag_171:\n        /* \"#utility.yul\":7193:7267   */\n      swap2\n      pop\n        /* \"#utility.yul\":7276:7369   */\n      tag_172\n        /* \"#utility.yul\":7365:7368   */\n      dup3\n        /* \"#utility.yul\":7276:7369   */\n      tag_87\n      jump\t// in\n    tag_172:\n        /* \"#utility.yul\":7394:7396   */\n      0x40\n        /* \"#utility.yul\":7389:7392   */\n      dup3\n        /* \"#utility.yul\":7385:7397   */\n      add\n        /* \"#utility.yul\":7378:7397   */\n      swap1\n      pop\n        /* \"#utility.yul\":7037:7403   */\n      swap2\n      swap1\n      pop\n      jump\t// out\n        /* \"#utility.yul\":7409:7828   */\n    tag_49:\n        /* \"#utility.yul\":7575:7579   */\n      0x00\n        /* \"#utility.yul\":7613:7615   */\n      0x20\n        /* \"#utility.yul\":7602:7611   */\n      dup3\n        /* \"#utility.yul\":7598:7616   */\n      add\n        /* \"#utility.yul\":7590:7616   */\n      swap1\n      pop\n        /* \"#utility.yul\":7662:7671   */\n      dup2\n        /* \"#utility.yul\":7656:7660   */\n      dup2\n        /* \"#utility.yul\":7652:7672   */\n      sub\n        /* \"#utility.yul\":7648:7649   */\n      0x00\n        /* \"#utility.yul\":7637:7646   */\n      dup4\n        /* \"#utility.yul\":7633:7650   */\n      add\n        /* \"#utility.yul\":7626:7673   */\n      mstore\n        /* \"#utility.yul\":7690:7821   */\n      tag_174\n        /* \"#utility.yul\":7816:7820   */\n      dup2\n        /* \"#utility.yul\":7690:7821   */\n      tag_88\n      jump\t// in\n    tag_174:\n        /* \"#utility.yul\":7682:7821   */\n      swap1\n      pop\n        /* \"#utility.yul\":7409:7828   */\n      swap2\n      swap1\n      pop\n      jump\t// out\n        /* \"#utility.yul\":7834:8028   */\n    tag_51:\n        /* \"#utility.yul\":7874:7878   */\n      0x00\n        /* \"#utility.yul\":7894:7914   */\n      tag_176\n        /* \"#utility.yul\":7912:7913   */\n      dup3\n        /* \"#utility.yul\":7894:7914   */\n      tag_66\n      jump\t// in\n    tag_176:\n        /* \"#utility.yul\":7889:7914   */\n      swap2\n      pop\n        /* \"#utility.yul\":7928:7948   */\n      tag_177\n        /* \"#utility.yul\":7946:7947   */\n      dup4\n        /* \"#utility.yul\":7928:7948   */\n      tag_66\n      jump\t// in\n    tag_177:\n        /* \"#utility.yul\":7923:7948   */\n      swap3\n      pop\n        /* \"#utility.yul\":7972:7973   */\n      dup3\n        /* \"#utility.yul\":7969:7970   */\n      dup3\n        /* \"#utility.yul\":7965:7974   */\n      sub\n        /* \"#utility.yul\":7957:7974   */\n      swap1\n      pop\n        /* \"#utility.yul\":7996:7997   */\n      dup2\n        /* \"#utility.yul\":7990:7994   */\n      dup2\n        /* \"#utility.yul\":7987:7998   */\n      gt\n        /* \"#utility.yul\":7984:8021   */\n      iszero\n      tag_178\n      jumpi\n        /* \"#utility.yul\":8001:8019   */\n      tag_179\n      tag_82\n      jump\t// in\n    tag_179:\n        /* \"#utility.yul\":7984:8021   */\n    tag_178:\n        /* \"#utility.yul\":7834:8028   */\n      swap3\n      swap2\n      pop\n      pop\n      jump\t// out\n        /* \"#utility.yul\":8034:8225   */\n    tag_54:\n        /* \"#utility.yul\":8074:8077   */\n      0x00\n        /* \"#utility.yul\":8093:8113   */\n      tag_181\n        /* \"#utility.yul\":8111:8112   */\n      dup3\n        /* \"#utility.yul\":8093:8113   */\n      tag_66\n      jump\t// in\n    tag_181:\n        /* \"#utility.yul\":8088:8113   */\n      swap2\n      pop\n        /* \"#utility.yul\":8127:8147   */\n      tag_182\n        /* \"#utility.yul\":8145:8146   */\n      dup4\n        /* \"#utility.yul\":8127:8147   */\n      tag_66\n      jump\t// in\n    tag_182:\n        /* \"#utility.yul\":8122:8147   */\n      swap3\n      pop\n        /* \"#utility.yul\":8170:8171   */\n      dup3\n        /* \"#utility.yul\":8167:8168   */\n      dup3\n        /* \"#utility.yul\":8163:8172   */\n      add\n        /* \"#utility.yul\":8156:8172   */\n      swap1\n      pop\n        /* \"#utility.yul\":8191:8194   */\n      dup1\n        /* \"#utility.yul\":8188:8189   */\n      dup3\n        /* \"#utility.yul\":8185:8195   */\n      gt\n        /* \"#utility.yul\":8182:8218   */\n      iszero\n      tag_183\n      jumpi\n        /* \"#utility.yul\":8198:8216   */\n      tag_184\n      tag_82\n      jump\t// in\n    tag_184:\n        /* \"#utility.yul\":8182:8218   */\n    tag_183:\n        /* \"#utility.yul\":8034:8225   */\n      swap3\n      swap2\n      pop\n      pop\n      jump\t// out\n        /* \"#utility.yul\":8231:8330   */\n    tag_89:\n        /* \"#utility.yul\":8283:8289   */\n      0x00\n        /* \"#utility.yul\":8317:8322   */\n      dup2\n        /* \"#utility.yul\":8311:8323   */\n      mload\n        /* \"#utility.yul\":8301:8323   */\n      swap1\n      pop\n        /* \"#utility.yul\":8231:8330   */\n      swap2\n      swap1\n      pop\n      jump\t// out\n        /* \"#utility.yul\":8336:8484   */\n    tag_90:\n        /* \"#utility.yul\":8438:8449   */\n      0x00\n        /* \"#utility.yul\":8475:8478   */\n      dup2\n        /* \"#utility.yul\":8460:8478   */\n      swap1\n      pop\n        /* \"#utility.yul\":8336:8484   */\n      swap3\n      swap2\n      pop\n      pop\n      jump\t// out\n        /* \"#utility.yul\":8490:8629   */\n    tag_91:\n        /* \"#utility.yul\":8579:8585   */\n      dup3\n        /* \"#utility.yul\":8574:8577   */\n      dup2\n        /* \"#utility.yul\":8569:8572   */\n      dup4\n        /* \"#utility.yul\":8563:8586   */\n      mcopy\n        /* \"#utility.yul\":8620:8621   */\n      0x00\n        /* \"#utility.yul\":8611:8617   */\n      dup4\n        /* \"#utility.yul\":8606:8609   */\n      dup4\n        /* \"#utility.yul\":8602:8618   */\n      add\n        /* \"#utility.yul\":8595:8622   */\n      mstore\n        /* \"#utility.yul\":8490:8629   */\n      pop\n      pop\n      pop\n      jump\t// out\n        /* \"#utility.yul\":8635:9025   */\n    tag_92:\n        /* \"#utility.yul\":8741:8744   */\n      0x00\n        /* \"#utility.yul\":8769:8808   */\n      tag_189\n        /* \"#utility.yul\":8802:8807   */\n      dup3\n        /* \"#utility.yul\":8769:8808   */\n      tag_89\n      jump\t// in\n    tag_189:\n        /* \"#utility.yul\":8824:8913   */\n      tag_190\n        /* \"#utility.yul\":8906:8912   */\n      dup2\n        /* \"#utility.yul\":8901:8904   */\n      dup6\n        /* \"#utility.yul\":8824:8913   */\n      tag_90\n      jump\t// in\n    tag_190:\n        /* \"#utility.yul\":8817:8913   */\n      swap4\n      pop\n        /* \"#utility.yul\":8922:8987   */\n      tag_191\n        /* \"#utility.yul\":8980:8986   */\n      dup2\n        /* \"#utility.yul\":8975:8978   */\n      dup6\n        /* \"#utility.yul\":8968:8972   */\n      0x20\n        /* \"#utility.yul\":8961:8966   */\n      dup7\n        /* \"#utility.yul\":8957:8973   */\n      add\n        /* \"#utility.yul\":8922:8987   */\n      tag_91\n      jump\t// in\n    tag_191:\n        /* \"#utility.yul\":9012:9018   */\n      dup1\n        /* \"#utility.yul\":9007:9010   */\n      dup5\n        /* \"#utility.yul\":9003:9019   */\n      add\n        /* \"#utility.yul\":8996:9019   */\n      swap2\n      pop\n        /* \"#utility.yul\":8745:9025   */\n      pop\n        /* \"#utility.yul\":8635:9025   */\n      swap3\n      swap2\n      pop\n      pop\n      jump\t// out\n        /* \"#utility.yul\":9031:9306   */\n    tag_57:\n        /* \"#utility.yul\":9163:9166   */\n      0x00\n        /* \"#utility.yul\":9185:9280   */\n      tag_193\n        /* \"#utility.yul\":9276:9279   */\n      dup3\n        /* \"#utility.yul\":9267:9273   */\n      dup5\n        /* \"#utility.yul\":9185:9280   */\n      tag_92\n      jump\t// in\n    tag_193:\n        /* \"#utility.yul\":9178:9280   */\n      swap2\n      pop\n        /* \"#utility.yul\":9297:9300   */\n      dup2\n        /* \"#utility.yul\":9290:9300   */\n      swap1\n      pop\n        /* \"#utility.yul\":9031:9306   */\n      swap3\n      swap2\n      pop\n      pop\n      jump\t// out\n        /* \"#utility.yul\":9312:9497   */\n    tag_62:\n        /* \"#utility.yul\":9352:9353   */\n      0x00\n        /* \"#utility.yul\":9369:9389   */\n      tag_195\n        /* \"#utility.yul\":9387:9388   */\n      dup3\n        /* \"#utility.yul\":9369:9389   */\n      tag_66\n      jump\t// in\n    tag_195:\n        /* \"#utility.yul\":9364:9389   */\n      swap2\n      pop\n        /* \"#utility.yul\":9403:9423   */\n      tag_196\n        /* \"#utility.yul\":9421:9422   */\n      dup4\n        /* \"#utility.yul\":9403:9423   */\n      tag_66\n      jump\t// in\n    tag_196:\n        /* \"#utility.yul\":9398:9423   */\n      swap3\n      pop\n        /* \"#utility.yul\":9442:9443   */\n      dup3\n        /* \"#utility.yul\":9432:9467   */\n      tag_197\n      jumpi\n        /* \"#utility.yul\":9447:9465   */\n      tag_198\n      tag_86\n      jump\t// in\n    tag_198:\n        /* \"#utility.yul\":9432:9467   */\n    tag_197:\n        /* \"#utility.yul\":9489:9490   */\n      dup3\n        /* \"#utility.yul\":9486:9487   */\n      dup3\n        /* \"#utility.yul\":9482:9491   */\n      div\n        /* \"#utility.yul\":9477:9491   */\n      swap1\n      pop\n        /* \"#utility.yul\":9312:9497   */\n      swap3\n      swap2\n      pop\n      pop\n      jump\t// out\n\n    auxdata: 0xa264697066735822122093906bfaeceab9e6d7c5230ed79583a7063e45127bcbd062a1ec56dc3084a33764736f6c634300081a0033\n}\n",
				"bytecode": {
					"linkReferences": {},
					"object": "6080604052348015600e575f80fd5b506108468061001c5f395ff3fe608060405234801561000f575f80fd5b5060043610610060575f3560e01c8063165c4a1614610064578063216ea5ec146100945780633ef5e445146100c4578063771602f7146100f4578063a8cbcecd14610124578063f88e9fbf14610154575b5f80fd5b61007e60048036038101906100799190610327565b610184565b60405161008b9190610374565b60405180910390f35b6100ae60048036038101906100a99190610327565b610199565b6040516100bb9190610374565b60405180910390f35b6100de60048036038101906100d99190610327565b6101f0565b6040516100eb9190610374565b60405180910390f35b61010e60048036038101906101099190610327565b610248565b60405161011b9190610374565b60405180910390f35b61013e600480360381019061013991906104c9565b61025d565b60405161014b9190610528565b60405180910390f35b61016e60048036038101906101699190610327565b61028c565b60405161017b9190610374565b60405180910390f35b5f8183610191919061056e565b905092915050565b5f8082036101dc576040517f08c379a00000000000000000000000000000000000000000000000000000000081526004016101d390610609565b60405180910390fd5b81836101e89190610654565b905092915050565b5f81831015610234576040517f08c379a000000000000000000000000000000000000000000000000000000000815260040161022b906106f4565b60405180910390fd5b81836102409190610712565b905092915050565b5f81836102559190610745565b905092915050565b5f8160405160200161026f91906107ca565b604051602081830303815290604052805190602001209050919050565b5f8082036102cf576040517f08c379a00000000000000000000000000000000000000000000000000000000081526004016102c690610609565b60405180910390fd5b81836102db91906107e0565b905092915050565b5f604051905090565b5f80fd5b5f80fd5b5f819050919050565b610306816102f4565b8114610310575f80fd5b50565b5f81359050610321816102fd565b92915050565b5f806040838503121561033d5761033c6102ec565b5b5f61034a85828601610313565b925050602061035b85828601610313565b9150509250929050565b61036e816102f4565b82525050565b5f6020820190506103875f830184610365565b92915050565b5f80fd5b5f80fd5b5f601f19601f8301169050919050565b7f4e487b71000000000000000000000000000000000000000000000000000000005f52604160045260245ffd5b6103db82610395565b810181811067ffffffffffffffff821117156103fa576103f96103a5565b5b80604052505050565b5f61040c6102e3565b905061041882826103d2565b919050565b5f67ffffffffffffffff821115610437576104366103a5565b5b61044082610395565b9050602081019050919050565b828183375f83830152505050565b5f61046d6104688461041d565b610403565b90508281526020810184848401111561048957610488610391565b5b61049484828561044d565b509392505050565b5f82601f8301126104b0576104af61038d565b5b81356104c084826020860161045b565b91505092915050565b5f602082840312156104de576104dd6102ec565b5b5f82013567ffffffffffffffff8111156104fb576104fa6102f0565b5b6105078482850161049c565b91505092915050565b5f819050919050565b61052281610510565b82525050565b5f60208201905061053b5f830184610519565b92915050565b7f4e487b71000000000000000000000000000000000000000000000000000000005f52601160045260245ffd5b5f610578826102f4565b9150610583836102f4565b9250828202610591816102f4565b915082820484148315176105a8576105a7610541565b5b5092915050565b5f82825260208201905092915050565b7f4469766973696f6e206279207a65726f000000000000000000000000000000005f82015250565b5f6105f36010836105af565b91506105fe826105bf565b602082019050919050565b5f6020820190508181035f830152610620816105e7565b9050919050565b7f4e487b71000000000000000000000000000000000000000000000000000000005f52601260045260245ffd5b5f61065e826102f4565b9150610669836102f4565b92508261067957610678610627565b5b828206905092915050565b7f5375627472616374696f6e20726573756c742063616e6e6f74206265206e65675f8201527f6174697665000000000000000000000000000000000000000000000000000000602082015250565b5f6106de6025836105af565b91506106e982610684565b604082019050919050565b5f6020820190508181035f83015261070b816106d2565b9050919050565b5f61071c826102f4565b9150610727836102f4565b925082820390508181111561073f5761073e610541565b5b92915050565b5f61074f826102f4565b915061075a836102f4565b925082820190508082111561077257610771610541565b5b92915050565b5f81519050919050565b5f81905092915050565b8281835e5f83830152505050565b5f6107a482610778565b6107ae8185610782565b93506107be81856020860161078c565b80840191505092915050565b5f6107d5828461079a565b915081905092915050565b5f6107ea826102f4565b91506107f5836102f4565b92508261080557610804610627565b5b82820490509291505056fea264697066735822122093906bfaeceab9e6d7c5230ed79583a7063e45127bcbd062a1ec56dc3084a33764736f6c634300081a0033",
					"opcodes": "PUSH1 0x80 PUSH1 0x40 MSTORE CALLVALUE DUP1 ISZERO PUSH1 0xE JUMPI PUSH0 DUP1 REVERT JUMPDEST POP PUSH2 0x846 DUP1 PUSH2 0x1C PUSH0 CODECOPY PUSH0 RETURN INVALID PUSH1 0x80 PUSH1 0x40 MSTORE CALLVALUE DUP1 ISZERO PUSH2 0xF JUMPI PUSH0 DUP1 REVERT JUMPDEST POP PUSH1 0x4 CALLDATASIZE LT PUSH2 0x60 JUMPI PUSH0 CALLDATALOAD PUSH1 0xE0 SHR DUP1 PUSH4 0x165C4A16 EQ PUSH2 0x64 JUMPI DUP1 PUSH4 0x216EA5EC EQ PUSH2 0x94 JUMPI DUP1 PUSH4 0x3EF5E445 EQ PUSH2 0xC4 JUMPI DUP1 PUSH4 0x771602F7 EQ PUSH2 0xF4 JUMPI DUP1 PUSH4 0xA8CBCECD EQ PUSH2 0x124 JUMPI DUP1 PUSH4 0xF88E9FBF EQ PUSH2 0x154 JUMPI JUMPDEST PUSH0 DUP1 REVERT JUMPDEST PUSH2 0x7E PUSH1 0x4 DUP1 CALLDATASIZE SUB DUP2 ADD SWAP1 PUSH2 0x79 SWAP2 SWAP1 PUSH2 0x327 JUMP JUMPDEST PUSH2 0x184 JUMP JUMPDEST PUSH1 0x40 MLOAD PUSH2 0x8B SWAP2 SWAP1 PUSH2 0x374 JUMP JUMPDEST PUSH1 0x40 MLOAD DUP1 SWAP2 SUB SWAP1 RETURN JUMPDEST PUSH2 0xAE PUSH1 0x4 DUP1 CALLDATASIZE SUB DUP2 ADD SWAP1 PUSH2 0xA9 SWAP2 SWAP1 PUSH2 0x327 JUMP JUMPDEST PUSH2 0x199 JUMP JUMPDEST PUSH1 0x40 MLOAD PUSH2 0xBB SWAP2 SWAP1 PUSH2 0x374 JUMP JUMPDEST PUSH1 0x40 MLOAD DUP1 SWAP2 SUB SWAP1 RETURN JUMPDEST PUSH2 0xDE PUSH1 0x4 DUP1 CALLDATASIZE SUB DUP2 ADD SWAP1 PUSH2 0xD9 SWAP2 SWAP1 PUSH2 0x327 JUMP JUMPDEST PUSH2 0x1F0 JUMP JUMPDEST PUSH1 0x40 MLOAD PUSH2 0xEB SWAP2 SWAP1 PUSH2 0x374 JUMP JUMPDEST PUSH1 0x40 MLOAD DUP1 SWAP2 SUB SWAP1 RETURN JUMPDEST PUSH2 0x10E PUSH1 0x4 DUP1 CALLDATASIZE SUB DUP2 ADD SWAP1 PUSH2 0x109 SWAP2 SWAP1 PUSH2 0x327 JUMP JUMPDEST PUSH2 0x248 JUMP JUMPDEST PUSH1 0x40 MLOAD PUSH2 0x11B SWAP2 SWAP1 PUSH2 0x374 JUMP JUMPDEST PUSH1 0x40 MLOAD DUP1 SWAP2 SUB SWAP1 RETURN JUMPDEST PUSH2 0x13E PUSH1 0x4 DUP1 CALLDATASIZE SUB DUP2 ADD SWAP1 PUSH2 0x139 SWAP2 SWAP1 PUSH2 0x4C9 JUMP JUMPDEST PUSH2 0x25D JUMP JUMPDEST PUSH1 0x40 MLOAD PUSH2 0x14B SWAP2 SWAP1 PUSH2 0x528 JUMP JUMPDEST PUSH1 0x40 MLOAD DUP1 SWAP2 SUB SWAP1 RETURN JUMPDEST PUSH2 0x16E PUSH1 0x4 DUP1 CALLDATASIZE SUB DUP2 ADD SWAP1 PUSH2 0x169 SWAP2 SWAP1 PUSH2 0x327 JUMP JUMPDEST PUSH2 0x28C JUMP JUMPDEST PUSH1 0x40 MLOAD PUSH2 0x17B SWAP2 SWAP1 PUSH2 0x374 JUMP JUMPDEST PUSH1 0x40 MLOAD DUP1 SWAP2 SUB SWAP1 RETURN JUMPDEST PUSH0 DUP2 DUP4 PUSH2 0x191 SWAP2 SWAP1 PUSH2 0x56E JUMP JUMPDEST SWAP1 POP SWAP3 SWAP2 POP POP JUMP JUMPDEST PUSH0 DUP1 DUP3 SUB PUSH2 0x1DC JUMPI PUSH1 0x40 MLOAD PUSH32 0x8C379A000000000000000000000000000000000000000000000000000000000 DUP2 MSTORE PUSH1 0x4 ADD PUSH2 0x1D3 SWAP1 PUSH2 0x609 JUMP JUMPDEST PUSH1 0x40 MLOAD DUP1 SWAP2 SUB SWAP1 REVERT JUMPDEST DUP2 DUP4 PUSH2 0x1E8 SWAP2 SWAP1 PUSH2 0x654 JUMP JUMPDEST SWAP1 POP SWAP3 SWAP2 POP POP JUMP JUMPDEST PUSH0 DUP2 DUP4 LT ISZERO PUSH2 0x234 JUMPI PUSH1 0x40 MLOAD PUSH32 0x8C379A000000000000000000000000000000000000000000000000000000000 DUP2 MSTORE PUSH1 0x4 ADD PUSH2 0x22B SWAP1 PUSH2 0x6F4 JUMP JUMPDEST PUSH1 0x40 MLOAD DUP1 SWAP2 SUB SWAP1 REVERT JUMPDEST DUP2 DUP4 PUSH2 0x240 SWAP2 SWAP1 PUSH2 0x712 JUMP JUMPDEST SWAP1 POP SWAP3 SWAP2 POP POP JUMP JUMPDEST PUSH0 DUP2 DUP4 PUSH2 0x255 SWAP2 SWAP1 PUSH2 0x745 JUMP JUMPDEST SWAP1 POP SWAP3 SWAP2 POP POP JUMP JUMPDEST PUSH0 DUP2 PUSH1 0x40 MLOAD PUSH1 0x20 ADD PUSH2 0x26F SWAP2 SWAP1 PUSH2 0x7CA JUMP JUMPDEST PUSH1 0x40 MLOAD PUSH1 0x20 DUP2 DUP4 SUB SUB DUP2 MSTORE SWAP1 PUSH1 0x40 MSTORE DUP1 MLOAD SWAP1 PUSH1 0x20 ADD KECCAK256 SWAP1 POP SWAP2 SWAP1 POP JUMP JUMPDEST PUSH0 DUP1 DUP3 SUB PUSH2 0x2CF JUMPI PUSH1 0x40 MLOAD PUSH32 0x8C379A000000000000000000000000000000000000000000000000000000000 DUP2 MSTORE PUSH1 0x4 ADD PUSH2 0x2C6 SWAP1 PUSH2 0x609 JUMP JUMPDEST PUSH1 0x40 MLOAD DUP1 SWAP2 SUB SWAP1 REVERT JUMPDEST DUP2 DUP4 PUSH2 0x2DB SWAP2 SWAP1 PUSH2 0x7E0 JUMP JUMPDEST SWAP1 POP SWAP3 SWAP2 POP POP JUMP JUMPDEST PUSH0 PUSH1 0x40 MLOAD SWAP1 POP SWAP1 JUMP JUMPDEST PUSH0 DUP1 REVERT JUMPDEST PUSH0 DUP1 REVERT JUMPDEST PUSH0 DUP2 SWAP1 POP SWAP2 SWAP1 POP JUMP JUMPDEST PUSH2 0x306 DUP2 PUSH2 0x2F4 JUMP JUMPDEST DUP2 EQ PUSH2 0x310 JUMPI PUSH0 DUP1 REVERT JUMPDEST POP JUMP JUMPDEST PUSH0 DUP2 CALLDATALOAD SWAP1 POP PUSH2 0x321 DUP2 PUSH2 0x2FD JUMP JUMPDEST SWAP3 SWAP2 POP POP JUMP JUMPDEST PUSH0 DUP1 PUSH1 0x40 DUP4 DUP6 SUB SLT ISZERO PUSH2 0x33D JUMPI PUSH2 0x33C PUSH2 0x2EC JUMP JUMPDEST JUMPDEST PUSH0 PUSH2 0x34A DUP6 DUP3 DUP7 ADD PUSH2 0x313 JUMP JUMPDEST SWAP3 POP POP PUSH1 0x20 PUSH2 0x35B DUP6 DUP3 DUP7 ADD PUSH2 0x313 JUMP JUMPDEST SWAP2 POP POP SWAP3 POP SWAP3 SWAP1 POP JUMP JUMPDEST PUSH2 0x36E DUP2 PUSH2 0x2F4 JUMP JUMPDEST DUP3 MSTORE POP POP JUMP JUMPDEST PUSH0 PUSH1 0x20 DUP3 ADD SWAP1 POP PUSH2 0x387 PUSH0 DUP4 ADD DUP5 PUSH2 0x365 JUMP JUMPDEST SWAP3 SWAP2 POP POP JUMP JUMPDEST PUSH0 DUP1 REVERT JUMPDEST PUSH0 DUP1 REVERT JUMPDEST PUSH0 PUSH1 0x1F NOT PUSH1 0x1F DUP4 ADD AND SWAP1 POP SWAP2 SWAP1 POP JUMP JUMPDEST PUSH32 0x4E487B7100000000000000000000000000000000000000000000000000000000 PUSH0 MSTORE PUSH1 0x41 PUSH1 0x4 MSTORE PUSH1 0x24 PUSH0 REVERT JUMPDEST PUSH2 0x3DB DUP3 PUSH2 0x395 JUMP JUMPDEST DUP2 ADD DUP2 DUP2 LT PUSH8 0xFFFFFFFFFFFFFFFF DUP3 GT OR ISZERO PUSH2 0x3FA JUMPI PUSH2 0x3F9 PUSH2 0x3A5 JUMP JUMPDEST JUMPDEST DUP1 PUSH1 0x40 MSTORE POP POP POP JUMP JUMPDEST PUSH0 PUSH2 0x40C PUSH2 0x2E3 JUMP JUMPDEST SWAP1 POP PUSH2 0x418 DUP3 DUP3 PUSH2 0x3D2 JUMP JUMPDEST SWAP2 SWAP1 POP JUMP JUMPDEST PUSH0 PUSH8 0xFFFFFFFFFFFFFFFF DUP3 GT ISZERO PUSH2 0x437 JUMPI PUSH2 0x436 PUSH2 0x3A5 JUMP JUMPDEST JUMPDEST PUSH2 0x440 DUP3 PUSH2 0x395 JUMP JUMPDEST SWAP1 POP PUSH1 0x20 DUP2 ADD SWAP1 POP SWAP2 SWAP1 POP JUMP JUMPDEST DUP3 DUP2 DUP4 CALLDATACOPY PUSH0 DUP4 DUP4 ADD MSTORE POP POP POP JUMP JUMPDEST PUSH0 PUSH2 0x46D PUSH2 0x468 DUP5 PUSH2 0x41D JUMP JUMPDEST PUSH2 0x403 JUMP JUMPDEST SWAP1 POP DUP3 DUP2 MSTORE PUSH1 0x20 DUP2 ADD DUP5 DUP5 DUP5 ADD GT ISZERO PUSH2 0x489 JUMPI PUSH2 0x488 PUSH2 0x391 JUMP JUMPDEST JUMPDEST PUSH2 0x494 DUP5 DUP3 DUP6 PUSH2 0x44D JUMP JUMPDEST POP SWAP4 SWAP3 POP POP POP JUMP JUMPDEST PUSH0 DUP3 PUSH1 0x1F DUP4 ADD SLT PUSH2 0x4B0 JUMPI PUSH2 0x4AF PUSH2 0x38D JUMP JUMPDEST JUMPDEST DUP2 CALLDATALOAD PUSH2 0x4C0 DUP5 DUP3 PUSH1 0x20 DUP7 ADD PUSH2 0x45B JUMP JUMPDEST SWAP2 POP POP SWAP3 SWAP2 POP POP JUMP JUMPDEST PUSH0 PUSH1 0x20 DUP3 DUP5 SUB SLT ISZERO PUSH2 0x4DE JUMPI PUSH2 0x4DD PUSH2 0x2EC JUMP JUMPDEST JUMPDEST PUSH0 DUP3 ADD CALLDATALOAD PUSH8 0xFFFFFFFFFFFFFFFF DUP2 GT ISZERO PUSH2 0x4FB JUMPI PUSH2 0x4FA PUSH2 0x2F0 JUMP JUMPDEST JUMPDEST PUSH2 0x507 DUP5 DUP3 DUP6 ADD PUSH2 0x49C JUMP JUMPDEST SWAP2 POP POP SWAP3 SWAP2 POP POP JUMP JUMPDEST PUSH0 DUP2 SWAP1 POP SWAP2 SWAP1 POP JUMP JUMPDEST PUSH2 0x522 DUP2 PUSH2 0x510 JUMP JUMPDEST DUP3 MSTORE POP POP JUMP JUMPDEST PUSH0 PUSH1 0x20 DUP3 ADD SWAP1 POP PUSH2 0x53B PUSH0 DUP4 ADD DUP5 PUSH2 0x519 JUMP JUMPDEST SWAP3 SWAP2 POP POP JUMP JUMPDEST PUSH32 0x4E487B7100000000000000000000000000000000000000000000000000000000 PUSH0 MSTORE PUSH1 0x11 PUSH1 0x4 MSTORE PUSH1 0x24 PUSH0 REVERT JUMPDEST PUSH0 PUSH2 0x578 DUP3 PUSH2 0x2F4 JUMP JUMPDEST SWAP2 POP PUSH2 0x583 DUP4 PUSH2 0x2F4 JUMP JUMPDEST SWAP3 POP DUP3 DUP3 MUL PUSH2 0x591 DUP2 PUSH2 0x2F4 JUMP JUMPDEST SWAP2 POP DUP3 DUP3 DIV DUP5 EQ DUP4 ISZERO OR PUSH2 0x5A8 JUMPI PUSH2 0x5A7 PUSH2 0x541 JUMP JUMPDEST JUMPDEST POP SWAP3 SWAP2 POP POP JUMP JUMPDEST PUSH0 DUP3 DUP3 MSTORE PUSH1 0x20 DUP3 ADD SWAP1 POP SWAP3 SWAP2 POP POP JUMP JUMPDEST PUSH32 0x4469766973696F6E206279207A65726F00000000000000000000000000000000 PUSH0 DUP3 ADD MSTORE POP JUMP JUMPDEST PUSH0 PUSH2 0x5F3 PUSH1 0x10 DUP4 PUSH2 0x5AF JUMP JUMPDEST SWAP2 POP PUSH2 0x5FE DUP3 PUSH2 0x5BF JUMP JUMPDEST PUSH1 0x20 DUP3 ADD SWAP1 POP SWAP2 SWAP1 POP JUMP JUMPDEST PUSH0 PUSH1 0x20 DUP3 ADD SWAP1 POP DUP2 DUP2 SUB PUSH0 DUP4 ADD MSTORE PUSH2 0x620 DUP2 PUSH2 0x5E7 JUMP JUMPDEST SWAP1 POP SWAP2 SWAP1 POP JUMP JUMPDEST PUSH32 0x4E487B7100000000000000000000000000000000000000000000000000000000 PUSH0 MSTORE PUSH1 0x12 PUSH1 0x4 MSTORE PUSH1 0x24 PUSH0 REVERT JUMPDEST PUSH0 PUSH2 0x65E DUP3 PUSH2 0x2F4 JUMP JUMPDEST SWAP2 POP PUSH2 0x669 DUP4 PUSH2 0x2F4 JUMP JUMPDEST SWAP3 POP DUP3 PUSH2 0x679 JUMPI PUSH2 0x678 PUSH2 0x627 JUMP JUMPDEST JUMPDEST DUP3 DUP3 MOD SWAP1 POP SWAP3 SWAP2 POP POP JUMP JUMPDEST PUSH32 0x5375627472616374696F6E20726573756C742063616E6E6F74206265206E6567 PUSH0 DUP3 ADD MSTORE PUSH32 0x6174697665000000000000000000000000000000000000000000000000000000 PUSH1 0x20 DUP3 ADD MSTORE POP JUMP JUMPDEST PUSH0 PUSH2 0x6DE PUSH1 0x25 DUP4 PUSH2 0x5AF JUMP JUMPDEST SWAP2 POP PUSH2 0x6E9 DUP3 PUSH2 0x684 JUMP JUMPDEST PUSH1 0x40 DUP3 ADD SWAP1 POP SWAP2 SWAP1 POP JUMP JUMPDEST PUSH0 PUSH1 0x20 DUP3 ADD SWAP1 POP DUP2 DUP2 SUB PUSH0 DUP4 ADD MSTORE PUSH2 0x70B DUP2 PUSH2 0x6D2 JUMP JUMPDEST SWAP1 POP SWAP2 SWAP1 POP JUMP JUMPDEST PUSH0 PUSH2 0x71C DUP3 PUSH2 0x2F4 JUMP JUMPDEST SWAP2 POP PUSH2 0x727 DUP4 PUSH2 0x2F4 JUMP JUMPDEST SWAP3 POP DUP3 DUP3 SUB SWAP1 POP DUP2 DUP2 GT ISZERO PUSH2 0x73F JUMPI PUSH2 0x73E PUSH2 0x541 JUMP JUMPDEST JUMPDEST SWAP3 SWAP2 POP POP JUMP JUMPDEST PUSH0 PUSH2 0x74F DUP3 PUSH2 0x2F4 JUMP JUMPDEST SWAP2 POP PUSH2 0x75A DUP4 PUSH2 0x2F4 JUMP JUMPDEST SWAP3 POP DUP3 DUP3 ADD SWAP1 POP DUP1 DUP3 GT ISZERO PUSH2 0x772 JUMPI PUSH2 0x771 PUSH2 0x541 JUMP JUMPDEST JUMPDEST SWAP3 SWAP2 POP POP JUMP JUMPDEST PUSH0 DUP2 MLOAD SWAP1 POP SWAP2 SWAP1 POP JUMP JUMPDEST PUSH0 DUP2 SWAP1 POP SWAP3 SWAP2 POP POP JUMP JUMPDEST DUP3 DUP2 DUP4 MCOPY PUSH0 DUP4 DUP4 ADD MSTORE POP POP POP JUMP JUMPDEST PUSH0 PUSH2 0x7A4 DUP3 PUSH2 0x778 JUMP JUMPDEST PUSH2 0x7AE DUP2 DUP6 PUSH2 0x782 JUMP JUMPDEST SWAP4 POP PUSH2 0x7BE DUP2 DUP6 PUSH1 0x20 DUP7 ADD PUSH2 0x78C JUMP JUMPDEST DUP1 DUP5 ADD SWAP2 POP POP SWAP3 SWAP2 POP POP JUMP JUMPDEST PUSH0 PUSH2 0x7D5 DUP3 DUP5 PUSH2 0x79A JUMP JUMPDEST SWAP2 POP DUP2 SWAP1 POP SWAP3 SWAP2 POP POP JUMP JUMPDEST PUSH0 PUSH2 0x7EA DUP3 PUSH2 0x2F4 JUMP JUMPDEST SWAP2 POP PUSH2 0x7F5 DUP4 PUSH2 0x2F4 JUMP JUMPDEST SWAP3 POP DUP3 PUSH2 0x805 JUMPI PUSH2 0x804 PUSH2 0x627 JUMP JUMPDEST JUMPDEST DUP3 DUP3 DIV SWAP1 POP SWAP3 SWAP2 POP POP JUMP INVALID LOG2 PUSH5 0x6970667358 0x22 SLT KECCAK256 SWAP4 SWAP1 PUSH12 0xFAECEAB9E6D7C5230ED79583 0xA7 MOD RETURNDATACOPY GASLIMIT SLT PUSH28 0xCBD062A1EC56DC3084A33764736F6C634300081A0033000000000000 "
				},
				"gasEstimates": {
					"creation": {
						"codeDepositCost": "423600",
						"executionCost": "459",
						"totalCost": "424059"
					},
					"external": {
						"add(uint256,uint256)": "infinite",
						"calculateHash(string)": "infinite",
						"divide(uint256,uint256)": "infinite",
						"multiply(uint256,uint256)": "infinite",
						"remainder(uint256,uint256)": "infinite",
						"subtract(uint256,uint256)": "infinite"
					}
				},
				"methodIdentifiers": {
					"add(uint256,uint256)": "771602f7",
					"calculateHash(string)": "a8cbcecd",
					"divide(uint256,uint256)": "f88e9fbf",
					"multiply(uint256,uint256)": "165c4a16",
					"remainder(uint256,uint256)": "216ea5ec",
					"subtract(uint256,uint256)": "3ef5e445"
				}
			},
			"storageLayout": {
				"storage": [],
				"types": null
			},
			"userdoc": {
				"kind": "user",
				"methods": {},
				"version": 1
			}
		}
	}
}