{
	"contracts/TaskList.sol": {
		"TaskList": {
			"abi": [
				{
					"inputs": [
						{
							"internalType": "string",
							"name": "_description",
							"type": "string"
						}
					],
					"name": "addTask",
					"outputs": [],
					"stateMutability": "nonpayable",
					"type": "function"
				},
				{
					"inputs": [
						{
							"internalType": "uint256",
							"name": "_index",
							"type": "uint256"
						}
					],
					"name": "completeTask",
					"outputs": [],
					"stateMutability": "nonpayable",
					"type": "function"
				},
				{
					"inputs": [
						{
							"internalType": "uint256",
							"name": "_index",
							"type": "uint256"
						}
					],
					"name": "getTask",
					"outputs": [
						{
							"internalType": "string",
							"name": "",
							"type": "string"
						},
						{
							"internalType": "bool",
							"name": "",
							"type": "bool"
						}
					],
					"stateMutability": "view",
					"type": "function"
				},
				{
					"inputs": [],
					"name": "getTaskCount",
					"outputs": [
						{
							"internalType": "uint256",
							"name": "",
							"type": "uint256"
						}
					],
					"stateMutability": "view",
					"type": "function"
				},
				{
					"inputs": [
						{
							"internalType": "uint256",
							"name": "",
							"type": "uint256"
						}
					],
					"name": "tasks",
					"outputs": [
						{
							"internalType": "string",
							"name": "description",
							"type": "string"
						},
						{
							"internalType": "bool",
							"name": "completed",
							"type": "bool"
						}
					],
					"stateMutability": "view",
					"type": "function"
				}
			],
			"devdoc": {
				"kind": "dev",
				"methods": {},
				"version": 1
			},
			"evm": {
				"assembly": "    /* \"contracts/TaskList.sol\":92:1127  contract TaskList {... */\n  mstore(0x40, 0x80)\n  callvalue\n  dup1\n  iszero\n  tag_1\n  jumpi\n  0x00\n  dup1\n  revert\ntag_1:\n  pop\n  dataSize(sub_0)\n  dup1\n  dataOffset(sub_0)\n  0x00\n  codecopy\n  0x00\n  return\nstop\n\nsub_0: assembly {\n        /* \"contracts/TaskList.sol\":92:1127  contract TaskList {... */\n      mstore(0x40, 0x80)\n      callvalue\n      dup1\n      iszero\n      tag_1\n      jumpi\n      0x00\n      dup1\n      revert\n    tag_1:\n      pop\n      jumpi(tag_2, lt(calldatasize, 0x04))\n      shr(0xe0, calldataload(0x00))\n      dup1\n      0x1d65e77e\n      eq\n      tag_3\n      jumpi\n      dup1\n      0x67238562\n      eq\n      tag_4\n      jumpi\n      dup1\n      0x8d977672\n      eq\n      tag_5\n      jumpi\n      dup1\n      0xc17a340e\n      eq\n      tag_6\n      jumpi\n      dup1\n      0xe1e29558\n      eq\n      tag_7\n      jumpi\n    tag_2:\n      0x00\n      dup1\n      revert\n        /* \"contracts/TaskList.sol\":907:1124  function getTask(uint256 _index) public view returns (string memory, bool) {... */\n    tag_3:\n      tag_8\n      0x04\n      dup1\n      calldatasize\n      sub\n      dup2\n      add\n      swap1\n      tag_9\n      swap2\n      swap1\n      tag_10\n      jump\t// in\n    tag_9:\n      tag_11\n      jump\t// in\n    tag_8:\n      mload(0x40)\n      tag_12\n      swap3\n      swap2\n      swap1\n      tag_13\n      jump\t// in\n    tag_12:\n      mload(0x40)\n      dup1\n      swap2\n      sub\n      swap1\n      return\n        /* \"contracts/TaskList.sol\":349:457  function addTask(string memory _description) public {... */\n    tag_4:\n      tag_14\n      0x04\n      dup1\n      calldatasize\n      sub\n      dup2\n      add\n      swap1\n      tag_15\n      swap2\n      swap1\n      tag_16\n      jump\t// in\n    tag_15:\n      tag_17\n      jump\t// in\n    tag_14:\n      stop\n        /* \"contracts/TaskList.sol\":274:293  Task[] public tasks */\n    tag_5:\n      tag_18\n      0x04\n      dup1\n      calldatasize\n      sub\n      dup2\n      add\n      swap1\n      tag_19\n      swap2\n      swap1\n      tag_10\n      jump\t// in\n    tag_19:\n      tag_20\n      jump\t// in\n    tag_18:\n      mload(0x40)\n      tag_21\n      swap3\n      swap2\n      swap1\n      tag_13\n      jump\t// in\n    tag_21:\n      mload(0x40)\n      dup1\n      swap2\n      sub\n      swap1\n      return\n        /* \"contracts/TaskList.sol\":726:818  function getTaskCount() public view returns (uint256) {... */\n    tag_6:\n      tag_22\n      tag_23\n      jump\t// in\n    tag_22:\n      mload(0x40)\n      tag_24\n      swap2\n      swap1\n      tag_25\n      jump\t// in\n    tag_24:\n      mload(0x40)\n      dup1\n      swap2\n      sub\n      swap1\n      return\n        /* \"contracts/TaskList.sol\":510:668  function completeTask(uint256 _index) public {... */\n    tag_7:\n      tag_26\n      0x04\n      dup1\n      calldatasize\n      sub\n      dup2\n      add\n      swap1\n      tag_27\n      swap2\n      swap1\n      tag_10\n      jump\t// in\n    tag_27:\n      tag_28\n      jump\t// in\n    tag_26:\n      stop\n        /* \"contracts/TaskList.sol\":907:1124  function getTask(uint256 _index) public view returns (string memory, bool) {... */\n    tag_11:\n        /* \"contracts/TaskList.sol\":961:974  string memory */\n      0x60\n        /* \"contracts/TaskList.sol\":976:980  bool */\n      0x00\n        /* \"contracts/TaskList.sol\":1010:1015  tasks */\n      dup1\n        /* \"contracts/TaskList.sol\":1010:1022  tasks.length */\n      dup1\n      sload\n      swap1\n      pop\n        /* \"contracts/TaskList.sol\":1001:1007  _index */\n      dup4\n        /* \"contracts/TaskList.sol\":1001:1022  _index < tasks.length */\n      lt\n        /* \"contracts/TaskList.sol\":993:1046  require(_index < tasks.length, \"Index out of bounds\") */\n      tag_30\n      jumpi\n      mload(0x40)\n      0x08c379a000000000000000000000000000000000000000000000000000000000\n      dup2\n      mstore\n      0x04\n      add\n      tag_31\n      swap1\n      tag_32\n      jump\t// in\n    tag_31:\n      mload(0x40)\n      dup1\n      swap2\n      sub\n      swap1\n      revert\n    tag_30:\n        /* \"contracts/TaskList.sol\":1065:1070  tasks */\n      0x00\n        /* \"contracts/TaskList.sol\":1071:1077  _index */\n      dup4\n        /* \"contracts/TaskList.sol\":1065:1078  tasks[_index] */\n      dup2\n      sload\n      dup2\n      lt\n      tag_33\n      jumpi\n      tag_34\n      tag_35\n      jump\t// in\n    tag_34:\n    tag_33:\n      swap1\n      0x00\n      mstore\n      keccak256(0x00, 0x20)\n      swap1\n      0x02\n      mul\n      add\n        /* \"contracts/TaskList.sol\":1065:1090  tasks[_index].description */\n      0x00\n      add\n        /* \"contracts/TaskList.sol\":1092:1097  tasks */\n      0x00\n        /* \"contracts/TaskList.sol\":1098:1104  _index */\n      dup5\n        /* \"contracts/TaskList.sol\":1092:1105  tasks[_index] */\n      dup2\n      sload\n      dup2\n      lt\n      tag_37\n      jumpi\n      tag_38\n      tag_35\n      jump\t// in\n    tag_38:\n    tag_37:\n      swap1\n      0x00\n      mstore\n      keccak256(0x00, 0x20)\n      swap1\n      0x02\n      mul\n      add\n        /* \"contracts/TaskList.sol\":1092:1115  tasks[_index].completed */\n      0x01\n      add\n      0x00\n      swap1\n      sload\n      swap1\n      0x0100\n      exp\n      swap1\n      div\n      0xff\n      and\n        /* \"contracts/TaskList.sol\":1057:1116  return (tasks[_index].description, tasks[_index].completed) */\n      dup2\n      dup1\n      sload\n      tag_40\n      swap1\n      tag_41\n      jump\t// in\n    tag_40:\n      dup1\n      0x1f\n      add\n      0x20\n      dup1\n      swap2\n      div\n      mul\n      0x20\n      add\n      mload(0x40)\n      swap1\n      dup2\n      add\n      0x40\n      mstore\n      dup1\n      swap3\n      swap2\n      swap1\n      dup2\n      dup2\n      mstore\n      0x20\n      add\n      dup3\n      dup1\n      sload\n      tag_42\n      swap1\n      tag_41\n      jump\t// in\n    tag_42:\n      dup1\n      iszero\n      tag_43\n      jumpi\n      dup1\n      0x1f\n      lt\n      tag_44\n      jumpi\n      0x0100\n      dup1\n      dup4\n      sload\n      div\n      mul\n      dup4\n      mstore\n      swap2\n      0x20\n      add\n      swap2\n      jump(tag_43)\n    tag_44:\n      dup3\n      add\n      swap2\n      swap1\n      0x00\n      mstore\n      keccak256(0x00, 0x20)\n      swap1\n    tag_45:\n      dup2\n      sload\n      dup2\n      mstore\n      swap1\n      0x01\n      add\n      swap1\n      0x20\n      add\n      dup1\n      dup4\n      gt\n      tag_45\n      jumpi\n      dup3\n      swap1\n      sub\n      0x1f\n      and\n      dup3\n      add\n      swap2\n    tag_43:\n      pop\n      pop\n      pop\n      pop\n      pop\n      swap2\n      pop\n      swap2\n      pop\n      swap2\n      pop\n        /* \"contracts/TaskList.sol\":907:1124  function getTask(uint256 _index) public view returns (string memory, bool) {... */\n      swap2\n      pop\n      swap2\n      jump\t// out\n        /* \"contracts/TaskList.sol\":349:457  function addTask(string memory _description) public {... */\n    tag_17:\n        /* \"contracts/TaskList.sol\":412:417  tasks */\n      0x00\n        /* \"contracts/TaskList.sol\":423:448  Task(_description, false) */\n      mload(0x40)\n      dup1\n      0x40\n      add\n      0x40\n      mstore\n      dup1\n        /* \"contracts/TaskList.sol\":428:440  _description */\n      dup4\n        /* \"contracts/TaskList.sol\":423:448  Task(_description, false) */\n      dup2\n      mstore\n      0x20\n      add\n        /* \"contracts/TaskList.sol\":442:447  false */\n      0x00\n        /* \"contracts/TaskList.sol\":423:448  Task(_description, false) */\n      iszero\n      iszero\n      dup2\n      mstore\n      pop\n        /* \"contracts/TaskList.sol\":412:449  tasks.push(Task(_description, false)) */\n      swap1\n      dup1\n      0x01\n      dup2\n      sload\n      add\n      dup1\n      dup3\n      sstore\n      dup1\n      swap2\n      pop\n      pop\n      0x01\n      swap1\n      sub\n      swap1\n      0x00\n      mstore\n      keccak256(0x00, 0x20)\n      swap1\n      0x02\n      mul\n      add\n      0x00\n      swap1\n      swap2\n      swap1\n      swap2\n      swap1\n      swap2\n      pop\n      0x00\n      dup3\n      add\n      mload\n      dup2\n      0x00\n      add\n      swap1\n      dup2\n      tag_48\n      swap2\n      swap1\n      tag_49\n      jump\t// in\n    tag_48:\n      pop\n      0x20\n      dup3\n      add\n      mload\n      dup2\n      0x01\n      add\n      exp(0x0100, 0x00)\n      dup2\n      sload\n      dup2\n      0xff\n      mul\n      not\n      and\n      swap1\n      dup4\n      iszero\n      iszero\n      mul\n      or\n      swap1\n      sstore\n      pop\n      pop\n      pop\n        /* \"contracts/TaskList.sol\":349:457  function addTask(string memory _description) public {... */\n      pop\n      jump\t// out\n        /* \"contracts/TaskList.sol\":274:293  Task[] public tasks */\n    tag_20:\n      0x00\n      dup2\n      dup2\n      sload\n      dup2\n      lt\n      tag_50\n      jumpi\n      0x00\n      dup1\n      revert\n    tag_50:\n      swap1\n      0x00\n      mstore\n      keccak256(0x00, 0x20)\n      swap1\n      0x02\n      mul\n      add\n      0x00\n      swap2\n      pop\n      swap1\n      pop\n      dup1\n      0x00\n      add\n      dup1\n      sload\n      tag_52\n      swap1\n      tag_41\n      jump\t// in\n    tag_52:\n      dup1\n      0x1f\n      add\n      0x20\n      dup1\n      swap2\n      div\n      mul\n      0x20\n      add\n      mload(0x40)\n      swap1\n      dup2\n      add\n      0x40\n      mstore\n      dup1\n      swap3\n      swap2\n      swap1\n      dup2\n      dup2\n      mstore\n      0x20\n      add\n      dup3\n      dup1\n      sload\n      tag_53\n      swap1\n      tag_41\n      jump\t// in\n    tag_53:\n      dup1\n      iszero\n      tag_54\n      jumpi\n      dup1\n      0x1f\n      lt\n      tag_55\n      jumpi\n      0x0100\n      dup1\n      dup4\n      sload\n      div\n      mul\n      dup4\n      mstore\n      swap2\n      0x20\n      add\n      swap2\n      jump(tag_54)\n    tag_55:\n      dup3\n      add\n      swap2\n      swap1\n      0x00\n      mstore\n      keccak256(0x00, 0x20)\n      swap1\n    tag_56:\n      dup2\n      sload\n      dup2\n      mstore\n      swap1\n      0x01\n      add\n      swap1\n      0x20\n      add\n      dup1\n      dup4\n      gt\n      tag_56\n      jumpi\n      dup3\n      swap1\n      sub\n      0x1f\n      and\n      dup3\n      add\n      swap2\n    tag_54:\n      pop\n      pop\n      pop\n      pop\n      pop\n      swap1\n      dup1\n      0x01\n      add\n      0x00\n      swap1\n      sload\n      swap1\n      0x0100\n      exp\n      swap1\n      div\n      0xff\n      and\n      swap1\n      pop\n      dup3\n      jump\t// out\n        /* \"contracts/TaskList.sol\":726:818  function getTaskCount() public view returns (uint256) {... */\n    tag_23:\n        /* \"contracts/TaskList.sol\":771:778  uint256 */\n      0x00\n        /* \"contracts/TaskList.sol\":798:803  tasks */\n      dup1\n        /* \"contracts/TaskList.sol\":798:810  tasks.length */\n      dup1\n      sload\n      swap1\n      pop\n        /* \"contracts/TaskList.sol\":791:810  return tasks.length */\n      swap1\n      pop\n        /* \"contracts/TaskList.sol\":726:818  function getTaskCount() public view returns (uint256) {... */\n      swap1\n      jump\t// out\n        /* \"contracts/TaskList.sol\":510:668  function completeTask(uint256 _index) public {... */\n    tag_28:\n        /* \"contracts/TaskList.sol\":583:588  tasks */\n      0x00\n        /* \"contracts/TaskList.sol\":583:595  tasks.length */\n      dup1\n      sload\n      swap1\n      pop\n        /* \"contracts/TaskList.sol\":574:580  _index */\n      dup2\n        /* \"contracts/TaskList.sol\":574:595  _index < tasks.length */\n      lt\n        /* \"contracts/TaskList.sol\":566:619  require(_index < tasks.length, \"Index out of bounds\") */\n      tag_59\n      jumpi\n      mload(0x40)\n      0x08c379a000000000000000000000000000000000000000000000000000000000\n      dup2\n      mstore\n      0x04\n      add\n      tag_60\n      swap1\n      tag_32\n      jump\t// in\n    tag_60:\n      mload(0x40)\n      dup1\n      swap2\n      sub\n      swap1\n      revert\n    tag_59:\n        /* \"contracts/TaskList.sol\":656:660  true */\n      0x01\n        /* \"contracts/TaskList.sol\":630:635  tasks */\n      0x00\n        /* \"contracts/TaskList.sol\":636:642  _index */\n      dup3\n        /* \"contracts/TaskList.sol\":630:643  tasks[_index] */\n      dup2\n      sload\n      dup2\n      lt\n      tag_61\n      jumpi\n      tag_62\n      tag_35\n      jump\t// in\n    tag_62:\n    tag_61:\n      swap1\n      0x00\n      mstore\n      keccak256(0x00, 0x20)\n      swap1\n      0x02\n      mul\n      add\n        /* \"contracts/TaskList.sol\":630:653  tasks[_index].completed */\n      0x01\n      add\n      0x00\n        /* \"contracts/TaskList.sol\":630:660  tasks[_index].completed = true */\n      0x0100\n      exp\n      dup2\n      sload\n      dup2\n      0xff\n      mul\n      not\n      and\n      swap1\n      dup4\n      iszero\n      iszero\n      mul\n      or\n      swap1\n      sstore\n      pop\n        /* \"contracts/TaskList.sol\":510:668  function completeTask(uint256 _index) public {... */\n      pop\n      jump\t// out\n        /* \"#utility.yul\":7:82   */\n    tag_64:\n        /* \"#utility.yul\":40:46   */\n      0x00\n        /* \"#utility.yul\":73:75   */\n      0x40\n        /* \"#utility.yul\":67:76   */\n      mload\n        /* \"#utility.yul\":57:76   */\n      swap1\n      pop\n        /* \"#utility.yul\":7:82   */\n      swap1\n      jump\t// out\n        /* \"#utility.yul\":88:205   */\n    tag_65:\n        /* \"#utility.yul\":197:198   */\n      0x00\n        /* \"#utility.yul\":194:195   */\n      dup1\n        /* \"#utility.yul\":187:199   */\n      revert\n        /* \"#utility.yul\":211:328   */\n    tag_66:\n        /* \"#utility.yul\":320:321   */\n      0x00\n        /* \"#utility.yul\":317:318   */\n      dup1\n        /* \"#utility.yul\":310:322   */\n      revert\n        /* \"#utility.yul\":334:411   */\n    tag_67:\n        /* \"#utility.yul\":371:378   */\n      0x00\n        /* \"#utility.yul\":400:405   */\n      dup2\n        /* \"#utility.yul\":389:405   */\n      swap1\n      pop\n        /* \"#utility.yul\":334:411   */\n      swap2\n      swap1\n      pop\n      jump\t// out\n        /* \"#utility.yul\":417:539   */\n    tag_68:\n        /* \"#utility.yul\":490:514   */\n      tag_111\n        /* \"#utility.yul\":508:513   */\n      dup2\n        /* \"#utility.yul\":490:514   */\n      tag_67\n      jump\t// in\n    tag_111:\n        /* \"#utility.yul\":483:488   */\n      dup2\n        /* \"#utility.yul\":480:515   */\n      eq\n        /* \"#utility.yul\":470:533   */\n      tag_112\n      jumpi\n        /* \"#utility.yul\":529:530   */\n      0x00\n        /* \"#utility.yul\":526:527   */\n      dup1\n        /* \"#utility.yul\":519:531   */\n      revert\n        /* \"#utility.yul\":470:533   */\n    tag_112:\n        /* \"#utility.yul\":417:539   */\n      pop\n      jump\t// out\n        /* \"#utility.yul\":545:684   */\n    tag_69:\n        /* \"#utility.yul\":591:596   */\n      0x00\n        /* \"#utility.yul\":629:635   */\n      dup2\n        /* \"#utility.yul\":616:636   */\n      calldataload\n        /* \"#utility.yul\":607:636   */\n      swap1\n      pop\n        /* \"#utility.yul\":645:678   */\n      tag_114\n        /* \"#utility.yul\":672:677   */\n      dup2\n        /* \"#utility.yul\":645:678   */\n      tag_68\n      jump\t// in\n    tag_114:\n        /* \"#utility.yul\":545:684   */\n      swap3\n      swap2\n      pop\n      pop\n      jump\t// out\n        /* \"#utility.yul\":690:1019   */\n    tag_10:\n        /* \"#utility.yul\":749:755   */\n      0x00\n        /* \"#utility.yul\":798:800   */\n      0x20\n        /* \"#utility.yul\":786:795   */\n      dup3\n        /* \"#utility.yul\":777:784   */\n      dup5\n        /* \"#utility.yul\":773:796   */\n      sub\n        /* \"#utility.yul\":769:801   */\n      slt\n        /* \"#utility.yul\":766:885   */\n      iszero\n      tag_116\n      jumpi\n        /* \"#utility.yul\":804:883   */\n      tag_117\n      tag_65\n      jump\t// in\n    tag_117:\n        /* \"#utility.yul\":766:885   */\n    tag_116:\n        /* \"#utility.yul\":924:925   */\n      0x00\n        /* \"#utility.yul\":949:1002   */\n      tag_118\n        /* \"#utility.yul\":994:1001   */\n      dup5\n        /* \"#utility.yul\":985:991   */\n      dup3\n        /* \"#utility.yul\":974:983   */\n      dup6\n        /* \"#utility.yul\":970:992   */\n      add\n        /* \"#utility.yul\":949:1002   */\n      tag_69\n      jump\t// in\n    tag_118:\n        /* \"#utility.yul\":939:1002   */\n      swap2\n      pop\n        /* \"#utility.yul\":895:1012   */\n      pop\n        /* \"#utility.yul\":690:1019   */\n      swap3\n      swap2\n      pop\n      pop\n      jump\t// out\n        /* \"#utility.yul\":1025:1124   */\n    tag_70:\n        /* \"#utility.yul\":1077:1083   */\n      0x00\n        /* \"#utility.yul\":1111:1116   */\n      dup2\n        /* \"#utility.yul\":1105:1117   */\n      mload\n        /* \"#utility.yul\":1095:1117   */\n      swap1\n      pop\n        /* \"#utility.yul\":1025:1124   */\n      swap2\n      swap1\n      pop\n      jump\t// out\n        /* \"#utility.yul\":1130:1299   */\n    tag_71:\n        /* \"#utility.yul\":1214:1225   */\n      0x00\n        /* \"#utility.yul\":1248:1254   */\n      dup3\n        /* \"#utility.yul\":1243:1246   */\n      dup3\n        /* \"#utility.yul\":1236:1255   */\n      mstore\n        /* \"#utility.yul\":1288:1292   */\n      0x20\n        /* \"#utility.yul\":1283:1286   */\n      dup3\n        /* \"#utility.yul\":1279:1293   */\n      add\n        /* \"#utility.yul\":1264:1293   */\n      swap1\n      pop\n        /* \"#utility.yul\":1130:1299   */\n      swap3\n      swap2\n      pop\n      pop\n      jump\t// out\n        /* \"#utility.yul\":1305:1444   */\n    tag_72:\n        /* \"#utility.yul\":1394:1400   */\n      dup3\n        /* \"#utility.yul\":1389:1392   */\n      dup2\n        /* \"#utility.yul\":1384:1387   */\n      dup4\n        /* \"#utility.yul\":1378:1401   */\n      mcopy\n        /* \"#utility.yul\":1435:1436   */\n      0x00\n        /* \"#utility.yul\":1426:1432   */\n      dup4\n        /* \"#utility.yul\":1421:1424   */\n      dup4\n        /* \"#utility.yul\":1417:1433   */\n      add\n        /* \"#utility.yul\":1410:1437   */\n      mstore\n        /* \"#utility.yul\":1305:1444   */\n      pop\n      pop\n      pop\n      jump\t// out\n        /* \"#utility.yul\":1450:1552   */\n    tag_73:\n        /* \"#utility.yul\":1491:1497   */\n      0x00\n        /* \"#utility.yul\":1542:1544   */\n      0x1f\n        /* \"#utility.yul\":1538:1545   */\n      not\n        /* \"#utility.yul\":1533:1535   */\n      0x1f\n        /* \"#utility.yul\":1526:1531   */\n      dup4\n        /* \"#utility.yul\":1522:1536   */\n      add\n        /* \"#utility.yul\":1518:1546   */\n      and\n        /* \"#utility.yul\":1508:1546   */\n      swap1\n      pop\n        /* \"#utility.yul\":1450:1552   */\n      swap2\n      swap1\n      pop\n      jump\t// out\n        /* \"#utility.yul\":1558:1935   */\n    tag_74:\n        /* \"#utility.yul\":1646:1649   */\n      0x00\n        /* \"#utility.yul\":1674:1713   */\n      tag_124\n        /* \"#utility.yul\":1707:1712   */\n      dup3\n        /* \"#utility.yul\":1674:1713   */\n      tag_70\n      jump\t// in\n    tag_124:\n        /* \"#utility.yul\":1729:1800   */\n      tag_125\n        /* \"#utility.yul\":1793:1799   */\n      dup2\n        /* \"#utility.yul\":1788:1791   */\n      dup6\n        /* \"#utility.yul\":1729:1800   */\n      tag_71\n      jump\t// in\n    tag_125:\n        /* \"#utility.yul\":1722:1800   */\n      swap4\n      pop\n        /* \"#utility.yul\":1809:1874   */\n      tag_126\n        /* \"#utility.yul\":1867:1873   */\n      dup2\n        /* \"#utility.yul\":1862:1865   */\n      dup6\n        /* \"#utility.yul\":1855:1859   */\n      0x20\n        /* \"#utility.yul\":1848:1853   */\n      dup7\n        /* \"#utility.yul\":1844:1860   */\n      add\n        /* \"#utility.yul\":1809:1874   */\n      tag_72\n      jump\t// in\n    tag_126:\n        /* \"#utility.yul\":1899:1928   */\n      tag_127\n        /* \"#utility.yul\":1921:1927   */\n      dup2\n        /* \"#utility.yul\":1899:1928   */\n      tag_73\n      jump\t// in\n    tag_127:\n        /* \"#utility.yul\":1894:1897   */\n      dup5\n        /* \"#utility.yul\":1890:1929   */\n      add\n        /* \"#utility.yul\":1883:1929   */\n      swap2\n      pop\n        /* \"#utility.yul\":1650:1935   */\n      pop\n        /* \"#utility.yul\":1558:1935   */\n      swap3\n      swap2\n      pop\n      pop\n      jump\t// out\n        /* \"#utility.yul\":1941:2031   */\n    tag_75:\n        /* \"#utility.yul\":1975:1982   */\n      0x00\n        /* \"#utility.yul\":2018:2023   */\n      dup2\n        /* \"#utility.yul\":2011:2024   */\n      iszero\n        /* \"#utility.yul\":2004:2025   */\n      iszero\n        /* \"#utility.yul\":1993:2025   */\n      swap1\n      pop\n        /* \"#utility.yul\":1941:2031   */\n      swap2\n      swap1\n      pop\n      jump\t// out\n        /* \"#utility.yul\":2037:2146   */\n    tag_76:\n        /* \"#utility.yul\":2118:2139   */\n      tag_130\n        /* \"#utility.yul\":2133:2138   */\n      dup2\n        /* \"#utility.yul\":2118:2139   */\n      tag_75\n      jump\t// in\n    tag_130:\n        /* \"#utility.yul\":2113:2116   */\n      dup3\n        /* \"#utility.yul\":2106:2140   */\n      mstore\n        /* \"#utility.yul\":2037:2146   */\n      pop\n      pop\n      jump\t// out\n        /* \"#utility.yul\":2152:2563   */\n    tag_13:\n        /* \"#utility.yul\":2287:2291   */\n      0x00\n        /* \"#utility.yul\":2325:2327   */\n      0x40\n        /* \"#utility.yul\":2314:2323   */\n      dup3\n        /* \"#utility.yul\":2310:2328   */\n      add\n        /* \"#utility.yul\":2302:2328   */\n      swap1\n      pop\n        /* \"#utility.yul\":2374:2383   */\n      dup2\n        /* \"#utility.yul\":2368:2372   */\n      dup2\n        /* \"#utility.yul\":2364:2384   */\n      sub\n        /* \"#utility.yul\":2360:2361   */\n      0x00\n        /* \"#utility.yul\":2349:2358   */\n      dup4\n        /* \"#utility.yul\":2345:2362   */\n      add\n        /* \"#utility.yul\":2338:2385   */\n      mstore\n        /* \"#utility.yul\":2402:2480   */\n      tag_132\n        /* \"#utility.yul\":2475:2479   */\n      dup2\n        /* \"#utility.yul\":2466:2472   */\n      dup6\n        /* \"#utility.yul\":2402:2480   */\n      tag_74\n      jump\t// in\n    tag_132:\n        /* \"#utility.yul\":2394:2480   */\n      swap1\n      pop\n        /* \"#utility.yul\":2490:2556   */\n      tag_133\n        /* \"#utility.yul\":2552:2554   */\n      0x20\n        /* \"#utility.yul\":2541:2550   */\n      dup4\n        /* \"#utility.yul\":2537:2555   */\n      add\n        /* \"#utility.yul\":2528:2534   */\n      dup5\n        /* \"#utility.yul\":2490:2556   */\n      tag_76\n      jump\t// in\n    tag_133:\n        /* \"#utility.yul\":2152:2563   */\n      swap4\n      swap3\n      pop\n      pop\n      pop\n      jump\t// out\n        /* \"#utility.yul\":2569:2686   */\n    tag_77:\n        /* \"#utility.yul\":2678:2679   */\n      0x00\n        /* \"#utility.yul\":2675:2676   */\n      dup1\n        /* \"#utility.yul\":2668:2680   */\n      revert\n        /* \"#utility.yul\":2692:2809   */\n    tag_78:\n        /* \"#utility.yul\":2801:2802   */\n      0x00\n        /* \"#utility.yul\":2798:2799   */\n      dup1\n        /* \"#utility.yul\":2791:2803   */\n      revert\n        /* \"#utility.yul\":2815:2995   */\n    tag_79:\n        /* \"#utility.yul\":2863:2940   */\n      0x4e487b7100000000000000000000000000000000000000000000000000000000\n        /* \"#utility.yul\":2860:2861   */\n      0x00\n        /* \"#utility.yul\":2853:2941   */\n      mstore\n        /* \"#utility.yul\":2960:2964   */\n      0x41\n        /* \"#utility.yul\":2957:2958   */\n      0x04\n        /* \"#utility.yul\":2950:2965   */\n      mstore\n        /* \"#utility.yul\":2984:2988   */\n      0x24\n        /* \"#utility.yul\":2981:2982   */\n      0x00\n        /* \"#utility.yul\":2974:2989   */\n      revert\n        /* \"#utility.yul\":3001:3282   */\n    tag_80:\n        /* \"#utility.yul\":3084:3111   */\n      tag_138\n        /* \"#utility.yul\":3106:3110   */\n      dup3\n        /* \"#utility.yul\":3084:3111   */\n      tag_73\n      jump\t// in\n    tag_138:\n        /* \"#utility.yul\":3076:3082   */\n      dup2\n        /* \"#utility.yul\":3072:3112   */\n      add\n        /* \"#utility.yul\":3214:3220   */\n      dup2\n        /* \"#utility.yul\":3202:3212   */\n      dup2\n        /* \"#utility.yul\":3199:3221   */\n      lt\n        /* \"#utility.yul\":3178:3196   */\n      0xffffffffffffffff\n        /* \"#utility.yul\":3166:3176   */\n      dup3\n        /* \"#utility.yul\":3163:3197   */\n      gt\n        /* \"#utility.yul\":3160:3222   */\n      or\n        /* \"#utility.yul\":3157:3245   */\n      iszero\n      tag_139\n      jumpi\n        /* \"#utility.yul\":3225:3243   */\n      tag_140\n      tag_79\n      jump\t// in\n    tag_140:\n        /* \"#utility.yul\":3157:3245   */\n    tag_139:\n        /* \"#utility.yul\":3265:3275   */\n      dup1\n        /* \"#utility.yul\":3261:3263   */\n      0x40\n        /* \"#utility.yul\":3254:3276   */\n      mstore\n        /* \"#utility.yul\":3044:3282   */\n      pop\n        /* \"#utility.yul\":3001:3282   */\n      pop\n      pop\n      jump\t// out\n        /* \"#utility.yul\":3288:3417   */\n    tag_81:\n        /* \"#utility.yul\":3322:3328   */\n      0x00\n        /* \"#utility.yul\":3349:3369   */\n      tag_142\n      tag_64\n      jump\t// in\n    tag_142:\n        /* \"#utility.yul\":3339:3369   */\n      swap1\n      pop\n        /* \"#utility.yul\":3378:3411   */\n      tag_143\n        /* \"#utility.yul\":3406:3410   */\n      dup3\n        /* \"#utility.yul\":3398:3404   */\n      dup3\n        /* \"#utility.yul\":3378:3411   */\n      tag_80\n      jump\t// in\n    tag_143:\n        /* \"#utility.yul\":3288:3417   */\n      swap2\n      swap1\n      pop\n      jump\t// out\n        /* \"#utility.yul\":3423:3731   */\n    tag_82:\n        /* \"#utility.yul\":3485:3489   */\n      0x00\n        /* \"#utility.yul\":3575:3593   */\n      0xffffffffffffffff\n        /* \"#utility.yul\":3567:3573   */\n      dup3\n        /* \"#utility.yul\":3564:3594   */\n      gt\n        /* \"#utility.yul\":3561:3617   */\n      iszero\n      tag_145\n      jumpi\n        /* \"#utility.yul\":3597:3615   */\n      tag_146\n      tag_79\n      jump\t// in\n    tag_146:\n        /* \"#utility.yul\":3561:3617   */\n    tag_145:\n        /* \"#utility.yul\":3635:3664   */\n      tag_147\n        /* \"#utility.yul\":3657:3663   */\n      dup3\n        /* \"#utility.yul\":3635:3664   */\n      tag_73\n      jump\t// in\n    tag_147:\n        /* \"#utility.yul\":3627:3664   */\n      swap1\n      pop\n        /* \"#utility.yul\":3719:3723   */\n      0x20\n        /* \"#utility.yul\":3713:3717   */\n      dup2\n        /* \"#utility.yul\":3709:3724   */\n      add\n        /* \"#utility.yul\":3701:3724   */\n      swap1\n      pop\n        /* \"#utility.yul\":3423:3731   */\n      swap2\n      swap1\n      pop\n      jump\t// out\n        /* \"#utility.yul\":3737:3885   */\n    tag_83:\n        /* \"#utility.yul\":3835:3841   */\n      dup3\n        /* \"#utility.yul\":3830:3833   */\n      dup2\n        /* \"#utility.yul\":3825:3828   */\n      dup4\n        /* \"#utility.yul\":3812:3842   */\n      calldatacopy\n        /* \"#utility.yul\":3876:3877   */\n      0x00\n        /* \"#utility.yul\":3867:3873   */\n      dup4\n        /* \"#utility.yul\":3862:3865   */\n      dup4\n        /* \"#utility.yul\":3858:3874   */\n      add\n        /* \"#utility.yul\":3851:3878   */\n      mstore\n        /* \"#utility.yul\":3737:3885   */\n      pop\n      pop\n      pop\n      jump\t// out\n        /* \"#utility.yul\":3891:4316   */\n    tag_84:\n        /* \"#utility.yul\":3969:3974   */\n      0x00\n        /* \"#utility.yul\":3994:4060   */\n      tag_150\n        /* \"#utility.yul\":4010:4059   */\n      tag_151\n        /* \"#utility.yul\":4052:4058   */\n      dup5\n        /* \"#utility.yul\":4010:4059   */\n      tag_82\n      jump\t// in\n    tag_151:\n        /* \"#utility.yul\":3994:4060   */\n      tag_81\n      jump\t// in\n    tag_150:\n        /* \"#utility.yul\":3985:4060   */\n      swap1\n      pop\n        /* \"#utility.yul\":4083:4089   */\n      dup3\n        /* \"#utility.yul\":4076:4081   */\n      dup2\n        /* \"#utility.yul\":4069:4090   */\n      mstore\n        /* \"#utility.yul\":4121:4125   */\n      0x20\n        /* \"#utility.yul\":4114:4119   */\n      dup2\n        /* \"#utility.yul\":4110:4126   */\n      add\n        /* \"#utility.yul\":4159:4162   */\n      dup5\n        /* \"#utility.yul\":4150:4156   */\n      dup5\n        /* \"#utility.yul\":4145:4148   */\n      dup5\n        /* \"#utility.yul\":4141:4157   */\n      add\n        /* \"#utility.yul\":4138:4163   */\n      gt\n        /* \"#utility.yul\":4135:4247   */\n      iszero\n      tag_152\n      jumpi\n        /* \"#utility.yul\":4166:4245   */\n      tag_153\n      tag_78\n      jump\t// in\n    tag_153:\n        /* \"#utility.yul\":4135:4247   */\n    tag_152:\n        /* \"#utility.yul\":4256:4310   */\n      tag_154\n        /* \"#utility.yul\":4303:4309   */\n      dup5\n        /* \"#utility.yul\":4298:4301   */\n      dup3\n        /* \"#utility.yul\":4293:4296   */\n      dup6\n        /* \"#utility.yul\":4256:4310   */\n      tag_83\n      jump\t// in\n    tag_154:\n        /* \"#utility.yul\":3975:4316   */\n      pop\n        /* \"#utility.yul\":3891:4316   */\n      swap4\n      swap3\n      pop\n      pop\n      pop\n      jump\t// out\n        /* \"#utility.yul\":4336:4676   */\n    tag_85:\n        /* \"#utility.yul\":4392:4397   */\n      0x00\n        /* \"#utility.yul\":4441:4444   */\n      dup3\n        /* \"#utility.yul\":4434:4438   */\n      0x1f\n        /* \"#utility.yul\":4426:4432   */\n      dup4\n        /* \"#utility.yul\":4422:4439   */\n      add\n        /* \"#utility.yul\":4418:4445   */\n      slt\n        /* \"#utility.yul\":4408:4530   */\n      tag_156\n      jumpi\n        /* \"#utility.yul\":4449:4528   */\n      tag_157\n      tag_77\n      jump\t// in\n    tag_157:\n        /* \"#utility.yul\":4408:4530   */\n    tag_156:\n        /* \"#utility.yul\":4566:4572   */\n      dup2\n        /* \"#utility.yul\":4553:4573   */\n      calldataload\n        /* \"#utility.yul\":4591:4670   */\n      tag_158\n        /* \"#utility.yul\":4666:4669   */\n      dup5\n        /* \"#utility.yul\":4658:4664   */\n      dup3\n        /* \"#utility.yul\":4651:4655   */\n      0x20\n        /* \"#utility.yul\":4643:4649   */\n      dup7\n        /* \"#utility.yul\":4639:4656   */\n      add\n        /* \"#utility.yul\":4591:4670   */\n      tag_84\n      jump\t// in\n    tag_158:\n        /* \"#utility.yul\":4582:4670   */\n      swap2\n      pop\n        /* \"#utility.yul\":4398:4676   */\n      pop\n        /* \"#utility.yul\":4336:4676   */\n      swap3\n      swap2\n      pop\n      pop\n      jump\t// out\n        /* \"#utility.yul\":4682:5191   */\n    tag_16:\n        /* \"#utility.yul\":4751:4757   */\n      0x00\n        /* \"#utility.yul\":4800:4802   */\n      0x20\n        /* \"#utility.yul\":4788:4797   */\n      dup3\n        /* \"#utility.yul\":4779:4786   */\n      dup5\n        /* \"#utility.yul\":4775:4798   */\n      sub\n        /* \"#utility.yul\":4771:4803   */\n      slt\n        /* \"#utility.yul\":4768:4887   */\n      iszero\n      tag_160\n      jumpi\n        /* \"#utility.yul\":4806:4885   */\n      tag_161\n      tag_65\n      jump\t// in\n    tag_161:\n        /* \"#utility.yul\":4768:4887   */\n    tag_160:\n        /* \"#utility.yul\":4954:4955   */\n      0x00\n        /* \"#utility.yul\":4943:4952   */\n      dup3\n        /* \"#utility.yul\":4939:4956   */\n      add\n        /* \"#utility.yul\":4926:4957   */\n      calldataload\n        /* \"#utility.yul\":4984:5002   */\n      0xffffffffffffffff\n        /* \"#utility.yul\":4976:4982   */\n      dup2\n        /* \"#utility.yul\":4973:5003   */\n      gt\n        /* \"#utility.yul\":4970:5087   */\n      iszero\n      tag_162\n      jumpi\n        /* \"#utility.yul\":5006:5085   */\n      tag_163\n      tag_66\n      jump\t// in\n    tag_163:\n        /* \"#utility.yul\":4970:5087   */\n    tag_162:\n        /* \"#utility.yul\":5111:5174   */\n      tag_164\n        /* \"#utility.yul\":5166:5173   */\n      dup5\n        /* \"#utility.yul\":5157:5163   */\n      dup3\n        /* \"#utility.yul\":5146:5155   */\n      dup6\n        /* \"#utility.yul\":5142:5164   */\n      add\n        /* \"#utility.yul\":5111:5174   */\n      tag_85\n      jump\t// in\n    tag_164:\n        /* \"#utility.yul\":5101:5174   */\n      swap2\n      pop\n        /* \"#utility.yul\":4897:5184   */\n      pop\n        /* \"#utility.yul\":4682:5191   */\n      swap3\n      swap2\n      pop\n      pop\n      jump\t// out\n        /* \"#utility.yul\":5197:5315   */\n    tag_86:\n        /* \"#utility.yul\":5284:5308   */\n      tag_166\n        /* \"#utility.yul\":5302:5307   */\n      dup2\n        /* \"#utility.yul\":5284:5308   */\n      tag_67\n      jump\t// in\n    tag_166:\n        /* \"#utility.yul\":5279:5282   */\n      dup3\n        /* \"#utility.yul\":5272:5309   */\n      mstore\n        /* \"#utility.yul\":5197:5315   */\n      pop\n      pop\n      jump\t// out\n        /* \"#utility.yul\":5321:5543   */\n    tag_25:\n        /* \"#utility.yul\":5414:5418   */\n      0x00\n        /* \"#utility.yul\":5452:5454   */\n      0x20\n        /* \"#utility.yul\":5441:5450   */\n      dup3\n        /* \"#utility.yul\":5437:5455   */\n      add\n        /* \"#utility.yul\":5429:5455   */\n      swap1\n      pop\n        /* \"#utility.yul\":5465:5536   */\n      tag_168\n        /* \"#utility.yul\":5533:5534   */\n      0x00\n        /* \"#utility.yul\":5522:5531   */\n      dup4\n        /* \"#utility.yul\":5518:5535   */\n      add\n        /* \"#utility.yul\":5509:5515   */\n      dup5\n        /* \"#utility.yul\":5465:5536   */\n      tag_86\n      jump\t// in\n    tag_168:\n        /* \"#utility.yul\":5321:5543   */\n      swap3\n      swap2\n      pop\n      pop\n      jump\t// out\n        /* \"#utility.yul\":5549:5718   */\n    tag_87:\n        /* \"#utility.yul\":5689:5710   */\n      0x496e646578206f7574206f6620626f756e647300000000000000000000000000\n        /* \"#utility.yul\":5685:5686   */\n      0x00\n        /* \"#utility.yul\":5677:5683   */\n      dup3\n        /* \"#utility.yul\":5673:5687   */\n      add\n        /* \"#utility.yul\":5666:5711   */\n      mstore\n        /* \"#utility.yul\":5549:5718   */\n      pop\n      jump\t// out\n        /* \"#utility.yul\":5724:6090   */\n    tag_88:\n        /* \"#utility.yul\":5866:5869   */\n      0x00\n        /* \"#utility.yul\":5887:5954   */\n      tag_171\n        /* \"#utility.yul\":5951:5953   */\n      0x13\n        /* \"#utility.yul\":5946:5949   */\n      dup4\n        /* \"#utility.yul\":5887:5954   */\n      tag_71\n      jump\t// in\n    tag_171:\n        /* \"#utility.yul\":5880:5954   */\n      swap2\n      pop\n        /* \"#utility.yul\":5963:6056   */\n      tag_172\n        /* \"#utility.yul\":6052:6055   */\n      dup3\n        /* \"#utility.yul\":5963:6056   */\n      tag_87\n      jump\t// in\n    tag_172:\n        /* \"#utility.yul\":6081:6083   */\n      0x20\n        /* \"#utility.yul\":6076:6079   */\n      dup3\n        /* \"#utility.yul\":6072:6084   */\n      add\n        /* \"#utility.yul\":6065:6084   */\n      swap1\n      pop\n        /* \"#utility.yul\":5724:6090   */\n      swap2\n      swap1\n      pop\n      jump\t// out\n        /* \"#utility.yul\":6096:6515   */\n    tag_32:\n        /* \"#utility.yul\":6262:6266   */\n      0x00\n        /* \"#utility.yul\":6300:6302   */\n      0x20\n        /* \"#utility.yul\":6289:6298   */\n      dup3\n        /* \"#utility.yul\":6285:6303   */\n      add\n        /* \"#utility.yul\":6277:6303   */\n      swap1\n      pop\n        /* \"#utility.yul\":6349:6358   */\n      dup2\n        /* \"#utility.yul\":6343:6347   */\n      dup2\n        /* \"#utility.yul\":6339:6359   */\n      sub\n        /* \"#utility.yul\":6335:6336   */\n      0x00\n        /* \"#utility.yul\":6324:6333   */\n      dup4\n        /* \"#utility.yul\":6320:6337   */\n      add\n        /* \"#utility.yul\":6313:6360   */\n      mstore\n        /* \"#utility.yul\":6377:6508   */\n      tag_174\n        /* \"#utility.yul\":6503:6507   */\n      dup2\n        /* \"#utility.yul\":6377:6508   */\n      tag_88\n      jump\t// in\n    tag_174:\n        /* \"#utility.yul\":6369:6508   */\n      swap1\n      pop\n        /* \"#utility.yul\":6096:6515   */\n      swap2\n      swap1\n      pop\n      jump\t// out\n        /* \"#utility.yul\":6521:6701   */\n    tag_35:\n        /* \"#utility.yul\":6569:6646   */\n      0x4e487b7100000000000000000000000000000000000000000000000000000000\n        /* \"#utility.yul\":6566:6567   */\n      0x00\n        /* \"#utility.yul\":6559:6647   */\n      mstore\n        /* \"#utility.yul\":6666:6670   */\n      0x32\n        /* \"#utility.yul\":6663:6664   */\n      0x04\n        /* \"#utility.yul\":6656:6671   */\n      mstore\n        /* \"#utility.yul\":6690:6694   */\n      0x24\n        /* \"#utility.yul\":6687:6688   */\n      0x00\n        /* \"#utility.yul\":6680:6695   */\n      revert\n        /* \"#utility.yul\":6707:6887   */\n    tag_89:\n        /* \"#utility.yul\":6755:6832   */\n      0x4e487b7100000000000000000000000000000000000000000000000000000000\n        /* \"#utility.yul\":6752:6753   */\n      0x00\n        /* \"#utility.yul\":6745:6833   */\n      mstore\n        /* \"#utility.yul\":6852:6856   */\n      0x22\n        /* \"#utility.yul\":6849:6850   */\n      0x04\n        /* \"#utility.yul\":6842:6857   */\n      mstore\n        /* \"#utility.yul\":6876:6880   */\n      0x24\n        /* \"#utility.yul\":6873:6874   */\n      0x00\n        /* \"#utility.yul\":6866:6881   */\n      revert\n        /* \"#utility.yul\":6893:7213   */\n    tag_41:\n        /* \"#utility.yul\":6937:6943   */\n      0x00\n        /* \"#utility.yul\":6974:6975   */\n      0x02\n        /* \"#utility.yul\":6968:6972   */\n      dup3\n        /* \"#utility.yul\":6964:6976   */\n      div\n        /* \"#utility.yul\":6954:6976   */\n      swap1\n      pop\n        /* \"#utility.yul\":7021:7022   */\n      0x01\n        /* \"#utility.yul\":7015:7019   */\n      dup3\n        /* \"#utility.yul\":7011:7023   */\n      and\n        /* \"#utility.yul\":7042:7060   */\n      dup1\n        /* \"#utility.yul\":7032:7113   */\n      tag_178\n      jumpi\n        /* \"#utility.yul\":7098:7102   */\n      0x7f\n        /* \"#utility.yul\":7090:7096   */\n      dup3\n        /* \"#utility.yul\":7086:7103   */\n      and\n        /* \"#utility.yul\":7076:7103   */\n      swap2\n      pop\n        /* \"#utility.yul\":7032:7113   */\n    tag_178:\n        /* \"#utility.yul\":7160:7162   */\n      0x20\n        /* \"#utility.yul\":7152:7158   */\n      dup3\n        /* \"#utility.yul\":7149:7163   */\n      lt\n        /* \"#utility.yul\":7129:7147   */\n      dup2\n        /* \"#utility.yul\":7126:7164   */\n      sub\n        /* \"#utility.yul\":7123:7207   */\n      tag_179\n      jumpi\n        /* \"#utility.yul\":7179:7197   */\n      tag_180\n      tag_89\n      jump\t// in\n    tag_180:\n        /* \"#utility.yul\":7123:7207   */\n    tag_179:\n        /* \"#utility.yul\":6944:7213   */\n      pop\n        /* \"#utility.yul\":6893:7213   */\n      swap2\n      swap1\n      pop\n      jump\t// out\n        /* \"#utility.yul\":7219:7360   */\n    tag_90:\n        /* \"#utility.yul\":7268:7272   */\n      0x00\n        /* \"#utility.yul\":7291:7294   */\n      dup2\n        /* \"#utility.yul\":7283:7294   */\n      swap1\n      pop\n        /* \"#utility.yul\":7314:7317   */\n      dup2\n        /* \"#utility.yul\":7311:7312   */\n      0x00\n        /* \"#utility.yul\":7304:7318   */\n      mstore\n        /* \"#utility.yul\":7348:7352   */\n      0x20\n        /* \"#utility.yul\":7345:7346   */\n      0x00\n        /* \"#utility.yul\":7335:7353   */\n      keccak256\n        /* \"#utility.yul\":7327:7353   */\n      swap1\n      pop\n        /* \"#utility.yul\":7219:7360   */\n      swap2\n      swap1\n      pop\n      jump\t// out\n        /* \"#utility.yul\":7366:7459   */\n    tag_91:\n        /* \"#utility.yul\":7403:7409   */\n      0x00\n        /* \"#utility.yul\":7450:7452   */\n      0x20\n        /* \"#utility.yul\":7445:7447   */\n      0x1f\n        /* \"#utility.yul\":7438:7443   */\n      dup4\n        /* \"#utility.yul\":7434:7448   */\n      add\n        /* \"#utility.yul\":7430:7453   */\n      div\n        /* \"#utility.yul\":7420:7453   */\n      swap1\n      pop\n        /* \"#utility.yul\":7366:7459   */\n      swap2\n      swap1\n      pop\n      jump\t// out\n        /* \"#utility.yul\":7465:7572   */\n    tag_92:\n        /* \"#utility.yul\":7509:7517   */\n      0x00\n        /* \"#utility.yul\":7559:7564   */\n      dup3\n        /* \"#utility.yul\":7553:7557   */\n      dup3\n        /* \"#utility.yul\":7549:7565   */\n      shl\n        /* \"#utility.yul\":7528:7565   */\n      swap1\n      pop\n        /* \"#utility.yul\":7465:7572   */\n      swap3\n      swap2\n      pop\n      pop\n      jump\t// out\n        /* \"#utility.yul\":7578:7971   */\n    tag_93:\n        /* \"#utility.yul\":7647:7653   */\n      0x00\n        /* \"#utility.yul\":7697:7698   */\n      0x08\n        /* \"#utility.yul\":7685:7695   */\n      dup4\n        /* \"#utility.yul\":7681:7699   */\n      mul\n        /* \"#utility.yul\":7720:7817   */\n      tag_185\n        /* \"#utility.yul\":7750:7816   */\n      0xffffffffffffffffffffffffffffffffffffffffffffffffffffffffffffffff\n        /* \"#utility.yul\":7739:7748   */\n      dup3\n        /* \"#utility.yul\":7720:7817   */\n      tag_92\n      jump\t// in\n    tag_185:\n        /* \"#utility.yul\":7838:7877   */\n      tag_186\n        /* \"#utility.yul\":7868:7876   */\n      dup7\n        /* \"#utility.yul\":7857:7866   */\n      dup4\n        /* \"#utility.yul\":7838:7877   */\n      tag_92\n      jump\t// in\n    tag_186:\n        /* \"#utility.yul\":7826:7877   */\n      swap6\n      pop\n        /* \"#utility.yul\":7910:7914   */\n      dup1\n        /* \"#utility.yul\":7906:7915   */\n      not\n        /* \"#utility.yul\":7899:7904   */\n      dup5\n        /* \"#utility.yul\":7895:7916   */\n      and\n        /* \"#utility.yul\":7886:7916   */\n      swap4\n      pop\n        /* \"#utility.yul\":7959:7963   */\n      dup1\n        /* \"#utility.yul\":7949:7957   */\n      dup7\n        /* \"#utility.yul\":7945:7964   */\n      and\n        /* \"#utility.yul\":7938:7943   */\n      dup5\n        /* \"#utility.yul\":7935:7965   */\n      or\n        /* \"#utility.yul\":7925:7965   */\n      swap3\n      pop\n        /* \"#utility.yul\":7654:7971   */\n      pop\n      pop\n        /* \"#utility.yul\":7578:7971   */\n      swap4\n      swap3\n      pop\n      pop\n      pop\n      jump\t// out\n        /* \"#utility.yul\":7977:8037   */\n    tag_94:\n        /* \"#utility.yul\":8005:8008   */\n      0x00\n        /* \"#utility.yul\":8026:8031   */\n      dup2\n        /* \"#utility.yul\":8019:8031   */\n      swap1\n      pop\n        /* \"#utility.yul\":7977:8037   */\n      swap2\n      swap1\n      pop\n      jump\t// out\n        /* \"#utility.yul\":8043:8185   */\n    tag_95:\n        /* \"#utility.yul\":8093:8102   */\n      0x00\n        /* \"#utility.yul\":8126:8179   */\n      tag_189\n        /* \"#utility.yul\":8144:8178   */\n      tag_190\n        /* \"#utility.yul\":8153:8177   */\n      tag_191\n        /* \"#utility.yul\":8171:8176   */\n      dup5\n        /* \"#utility.yul\":8153:8177   */\n      tag_67\n      jump\t// in\n    tag_191:\n        /* \"#utility.yul\":8144:8178   */\n      tag_94\n      jump\t// in\n    tag_190:\n        /* \"#utility.yul\":8126:8179   */\n      tag_67\n      jump\t// in\n    tag_189:\n        /* \"#utility.yul\":8113:8179   */\n      swap1\n      pop\n        /* \"#utility.yul\":8043:8185   */\n      swap2\n      swap1\n      pop\n      jump\t// out\n        /* \"#utility.yul\":8191:8266   */\n    tag_96:\n        /* \"#utility.yul\":8234:8237   */\n      0x00\n        /* \"#utility.yul\":8255:8260   */\n      dup2\n        /* \"#utility.yul\":8248:8260   */\n      swap1\n      pop\n        /* \"#utility.yul\":8191:8266   */\n      swap2\n      swap1\n      pop\n      jump\t// out\n        /* \"#utility.yul\":8272:8541   */\n    tag_97:\n        /* \"#utility.yul\":8382:8421   */\n      tag_194\n        /* \"#utility.yul\":8413:8420   */\n      dup4\n        /* \"#utility.yul\":8382:8421   */\n      tag_95\n      jump\t// in\n    tag_194:\n        /* \"#utility.yul\":8443:8534   */\n      tag_195\n        /* \"#utility.yul\":8492:8533   */\n      tag_196\n        /* \"#utility.yul\":8516:8532   */\n      dup3\n        /* \"#utility.yul\":8492:8533   */\n      tag_96\n      jump\t// in\n    tag_196:\n        /* \"#utility.yul\":8484:8490   */\n      dup5\n        /* \"#utility.yul\":8477:8481   */\n      dup5\n        /* \"#utility.yul\":8471:8482   */\n      sload\n        /* \"#utility.yul\":8443:8534   */\n      tag_93\n      jump\t// in\n    tag_195:\n        /* \"#utility.yul\":8437:8441   */\n      dup3\n        /* \"#utility.yul\":8430:8535   */\n      sstore\n        /* \"#utility.yul\":8348:8541   */\n      pop\n        /* \"#utility.yul\":8272:8541   */\n      pop\n      pop\n      pop\n      jump\t// out\n        /* \"#utility.yul\":8547:8620   */\n    tag_98:\n        /* \"#utility.yul\":8592:8595   */\n      0x00\n        /* \"#utility.yul\":8547:8620   */\n      swap1\n      jump\t// out\n        /* \"#utility.yul\":8626:8815   */\n    tag_99:\n        /* \"#utility.yul\":8703:8735   */\n      tag_199\n      tag_98\n      jump\t// in\n    tag_199:\n        /* \"#utility.yul\":8744:8809   */\n      tag_200\n        /* \"#utility.yul\":8802:8808   */\n      dup2\n        /* \"#utility.yul\":8794:8800   */\n      dup5\n        /* \"#utility.yul\":8788:8792   */\n      dup5\n        /* \"#utility.yul\":8744:8809   */\n      tag_97\n      jump\t// in\n    tag_200:\n        /* \"#utility.yul\":8679:8815   */\n      pop\n        /* \"#utility.yul\":8626:8815   */\n      pop\n      pop\n      jump\t// out\n        /* \"#utility.yul\":8821:9007   */\n    tag_100:\n        /* \"#utility.yul\":8881:9001   */\n    tag_202:\n        /* \"#utility.yul\":8898:8901   */\n      dup2\n        /* \"#utility.yul\":8891:8896   */\n      dup2\n        /* \"#utility.yul\":8888:8902   */\n      lt\n        /* \"#utility.yul\":8881:9001   */\n      iszero\n      tag_204\n      jumpi\n        /* \"#utility.yul\":8952:8991   */\n      tag_205\n        /* \"#utility.yul\":8989:8990   */\n      0x00\n        /* \"#utility.yul\":8982:8987   */\n      dup3\n        /* \"#utility.yul\":8952:8991   */\n      tag_99\n      jump\t// in\n    tag_205:\n        /* \"#utility.yul\":8925:8926   */\n      0x01\n        /* \"#utility.yul\":8918:8923   */\n      dup2\n        /* \"#utility.yul\":8914:8927   */\n      add\n        /* \"#utility.yul\":8905:8927   */\n      swap1\n      pop\n        /* \"#utility.yul\":8881:9001   */\n      jump(tag_202)\n    tag_204:\n        /* \"#utility.yul\":8821:9007   */\n      pop\n      pop\n      jump\t// out\n        /* \"#utility.yul\":9013:9556   */\n    tag_101:\n        /* \"#utility.yul\":9114:9116   */\n      0x1f\n        /* \"#utility.yul\":9109:9112   */\n      dup3\n        /* \"#utility.yul\":9106:9117   */\n      gt\n        /* \"#utility.yul\":9103:9549   */\n      iszero\n      tag_207\n      jumpi\n        /* \"#utility.yul\":9148:9186   */\n      tag_208\n        /* \"#utility.yul\":9180:9185   */\n      dup2\n        /* \"#utility.yul\":9148:9186   */\n      tag_90\n      jump\t// in\n    tag_208:\n        /* \"#utility.yul\":9232:9261   */\n      tag_209\n        /* \"#utility.yul\":9250:9260   */\n      dup5\n        /* \"#utility.yul\":9232:9261   */\n      tag_91\n      jump\t// in\n    tag_209:\n        /* \"#utility.yul\":9222:9230   */\n      dup2\n        /* \"#utility.yul\":9218:9262   */\n      add\n        /* \"#utility.yul\":9415:9417   */\n      0x20\n        /* \"#utility.yul\":9403:9413   */\n      dup6\n        /* \"#utility.yul\":9400:9418   */\n      lt\n        /* \"#utility.yul\":9397:9446   */\n      iszero\n      tag_210\n      jumpi\n        /* \"#utility.yul\":9436:9444   */\n      dup2\n        /* \"#utility.yul\":9421:9444   */\n      swap1\n      pop\n        /* \"#utility.yul\":9397:9446   */\n    tag_210:\n        /* \"#utility.yul\":9459:9539   */\n      tag_211\n        /* \"#utility.yul\":9515:9537   */\n      tag_212\n        /* \"#utility.yul\":9533:9536   */\n      dup6\n        /* \"#utility.yul\":9515:9537   */\n      tag_91\n      jump\t// in\n    tag_212:\n        /* \"#utility.yul\":9505:9513   */\n      dup4\n        /* \"#utility.yul\":9501:9538   */\n      add\n        /* \"#utility.yul\":9488:9499   */\n      dup3\n        /* \"#utility.yul\":9459:9539   */\n      tag_100\n      jump\t// in\n    tag_211:\n        /* \"#utility.yul\":9118:9549   */\n      pop\n      pop\n        /* \"#utility.yul\":9103:9549   */\n    tag_207:\n        /* \"#utility.yul\":9013:9556   */\n      pop\n      pop\n      pop\n      jump\t// out\n        /* \"#utility.yul\":9562:9679   */\n    tag_102:\n        /* \"#utility.yul\":9616:9624   */\n      0x00\n        /* \"#utility.yul\":9666:9671   */\n      dup3\n        /* \"#utility.yul\":9660:9664   */\n      dup3\n        /* \"#utility.yul\":9656:9672   */\n      shr\n        /* \"#utility.yul\":9635:9672   */\n      swap1\n      pop\n        /* \"#utility.yul\":9562:9679   */\n      swap3\n      swap2\n      pop\n      pop\n      jump\t// out\n        /* \"#utility.yul\":9685:9854   */\n    tag_103:\n        /* \"#utility.yul\":9729:9735   */\n      0x00\n        /* \"#utility.yul\":9762:9813   */\n      tag_215\n        /* \"#utility.yul\":9810:9811   */\n      0x00\n        /* \"#utility.yul\":9806:9812   */\n      not\n        /* \"#utility.yul\":9798:9803   */\n      dup5\n        /* \"#utility.yul\":9795:9796   */\n      0x08\n        /* \"#utility.yul\":9791:9804   */\n      mul\n        /* \"#utility.yul\":9762:9813   */\n      tag_102\n      jump\t// in\n    tag_215:\n        /* \"#utility.yul\":9758:9814   */\n      not\n        /* \"#utility.yul\":9843:9847   */\n      dup1\n        /* \"#utility.yul\":9837:9841   */\n      dup4\n        /* \"#utility.yul\":9833:9848   */\n      and\n        /* \"#utility.yul\":9823:9848   */\n      swap2\n      pop\n        /* \"#utility.yul\":9736:9854   */\n      pop\n        /* \"#utility.yul\":9685:9854   */\n      swap3\n      swap2\n      pop\n      pop\n      jump\t// out\n        /* \"#utility.yul\":9859:10154   */\n    tag_104:\n        /* \"#utility.yul\":9935:9939   */\n      0x00\n        /* \"#utility.yul\":10081:10110   */\n      tag_217\n        /* \"#utility.yul\":10106:10109   */\n      dup4\n        /* \"#utility.yul\":10100:10104   */\n      dup4\n        /* \"#utility.yul\":10081:10110   */\n      tag_103\n      jump\t// in\n    tag_217:\n        /* \"#utility.yul\":10073:10110   */\n      swap2\n      pop\n        /* \"#utility.yul\":10143:10146   */\n      dup3\n        /* \"#utility.yul\":10140:10141   */\n      0x02\n        /* \"#utility.yul\":10136:10147   */\n      mul\n        /* \"#utility.yul\":10130:10134   */\n      dup3\n        /* \"#utility.yul\":10127:10148   */\n      or\n        /* \"#utility.yul\":10119:10148   */\n      swap1\n      pop\n        /* \"#utility.yul\":9859:10154   */\n      swap3\n      swap2\n      pop\n      pop\n      jump\t// out\n        /* \"#utility.yul\":10159:11554   */\n    tag_49:\n        /* \"#utility.yul\":10276:10313   */\n      tag_219\n        /* \"#utility.yul\":10309:10312   */\n      dup3\n        /* \"#utility.yul\":10276:10313   */\n      tag_70\n      jump\t// in\n    tag_219:\n        /* \"#utility.yul\":10378:10396   */\n      0xffffffffffffffff\n        /* \"#utility.yul\":10370:10376   */\n      dup2\n        /* \"#utility.yul\":10367:10397   */\n      gt\n        /* \"#utility.yul\":10364:10420   */\n      iszero\n      tag_220\n      jumpi\n        /* \"#utility.yul\":10400:10418   */\n      tag_221\n      tag_79\n      jump\t// in\n    tag_221:\n        /* \"#utility.yul\":10364:10420   */\n    tag_220:\n        /* \"#utility.yul\":10444:10482   */\n      tag_222\n        /* \"#utility.yul\":10476:10480   */\n      dup3\n        /* \"#utility.yul\":10470:10481   */\n      sload\n        /* \"#utility.yul\":10444:10482   */\n      tag_41\n      jump\t// in\n    tag_222:\n        /* \"#utility.yul\":10529:10596   */\n      tag_223\n        /* \"#utility.yul\":10589:10595   */\n      dup3\n        /* \"#utility.yul\":10581:10587   */\n      dup3\n        /* \"#utility.yul\":10575:10579   */\n      dup6\n        /* \"#utility.yul\":10529:10596   */\n      tag_101\n      jump\t// in\n    tag_223:\n        /* \"#utility.yul\":10623:10624   */\n      0x00\n        /* \"#utility.yul\":10647:10651   */\n      0x20\n        /* \"#utility.yul\":10634:10651   */\n      swap1\n      pop\n        /* \"#utility.yul\":10679:10681   */\n      0x1f\n        /* \"#utility.yul\":10671:10677   */\n      dup4\n        /* \"#utility.yul\":10668:10682   */\n      gt\n        /* \"#utility.yul\":10696:10697   */\n      0x01\n        /* \"#utility.yul\":10691:11309   */\n      dup2\n      eq\n      tag_225\n      jumpi\n        /* \"#utility.yul\":11353:11354   */\n      0x00\n        /* \"#utility.yul\":11370:11376   */\n      dup5\n        /* \"#utility.yul\":11367:11444   */\n      iszero\n      tag_226\n      jumpi\n        /* \"#utility.yul\":11419:11428   */\n      dup3\n        /* \"#utility.yul\":11414:11417   */\n      dup8\n        /* \"#utility.yul\":11410:11429   */\n      add\n        /* \"#utility.yul\":11404:11430   */\n      mload\n        /* \"#utility.yul\":11395:11430   */\n      swap1\n      pop\n        /* \"#utility.yul\":11367:11444   */\n    tag_226:\n        /* \"#utility.yul\":11470:11537   */\n      tag_227\n        /* \"#utility.yul\":11530:11536   */\n      dup6\n        /* \"#utility.yul\":11523:11528   */\n      dup3\n        /* \"#utility.yul\":11470:11537   */\n      tag_104\n      jump\t// in\n    tag_227:\n        /* \"#utility.yul\":11464:11468   */\n      dup7\n        /* \"#utility.yul\":11457:11538   */\n      sstore\n        /* \"#utility.yul\":11326:11548   */\n      pop\n        /* \"#utility.yul\":10661:11548   */\n      jump(tag_224)\n        /* \"#utility.yul\":10691:11309   */\n    tag_225:\n        /* \"#utility.yul\":10743:10747   */\n      0x1f\n        /* \"#utility.yul\":10739:10748   */\n      not\n        /* \"#utility.yul\":10731:10737   */\n      dup5\n        /* \"#utility.yul\":10727:10749   */\n      and\n        /* \"#utility.yul\":10777:10814   */\n      tag_228\n        /* \"#utility.yul\":10809:10813   */\n      dup7\n        /* \"#utility.yul\":10777:10814   */\n      tag_90\n      jump\t// in\n    tag_228:\n        /* \"#utility.yul\":10836:10837   */\n      0x00\n        /* \"#utility.yul\":10850:11058   */\n    tag_229:\n        /* \"#utility.yul\":10864:10871   */\n      dup3\n        /* \"#utility.yul\":10861:10862   */\n      dup2\n        /* \"#utility.yul\":10858:10872   */\n      lt\n        /* \"#utility.yul\":10850:11058   */\n      iszero\n      tag_231\n      jumpi\n        /* \"#utility.yul\":10943:10952   */\n      dup5\n        /* \"#utility.yul\":10938:10941   */\n      dup10\n        /* \"#utility.yul\":10934:10953   */\n      add\n        /* \"#utility.yul\":10928:10954   */\n      mload\n        /* \"#utility.yul\":10920:10926   */\n      dup3\n        /* \"#utility.yul\":10913:10955   */\n      sstore\n        /* \"#utility.yul\":10994:10995   */\n      0x01\n        /* \"#utility.yul\":10986:10992   */\n      dup3\n        /* \"#utility.yul\":10982:10996   */\n      add\n        /* \"#utility.yul\":10972:10996   */\n      swap2\n      pop\n        /* \"#utility.yul\":11041:11043   */\n      0x20\n        /* \"#utility.yul\":11030:11039   */\n      dup6\n        /* \"#utility.yul\":11026:11044   */\n      add\n        /* \"#utility.yul\":11013:11044   */\n      swap5\n      pop\n        /* \"#utility.yul\":10887:10891   */\n      0x20\n        /* \"#utility.yul\":10884:10885   */\n      dup2\n        /* \"#utility.yul\":10880:10892   */\n      add\n        /* \"#utility.yul\":10875:10892   */\n      swap1\n      pop\n        /* \"#utility.yul\":10850:11058   */\n      jump(tag_229)\n    tag_231:\n        /* \"#utility.yul\":11086:11092   */\n      dup7\n        /* \"#utility.yul\":11077:11084   */\n      dup4\n        /* \"#utility.yul\":11074:11093   */\n      lt\n        /* \"#utility.yul\":11071:11250   */\n      iszero\n      tag_232\n      jumpi\n        /* \"#utility.yul\":11144:11153   */\n      dup5\n        /* \"#utility.yul\":11139:11142   */\n      dup10\n        /* \"#utility.yul\":11135:11154   */\n      add\n        /* \"#utility.yul\":11129:11155   */\n      mload\n        /* \"#utility.yul\":11187:11235   */\n      tag_233\n        /* \"#utility.yul\":11229:11233   */\n      0x1f\n        /* \"#utility.yul\":11221:11227   */\n      dup10\n        /* \"#utility.yul\":11217:11234   */\n      and\n        /* \"#utility.yul\":11206:11215   */\n      dup3\n        /* \"#utility.yul\":11187:11235   */\n      tag_103\n      jump\t// in\n    tag_233:\n        /* \"#utility.yul\":11179:11185   */\n      dup4\n        /* \"#utility.yul\":11172:11236   */\n      sstore\n        /* \"#utility.yul\":11094:11250   */\n      pop\n        /* \"#utility.yul\":11071:11250   */\n    tag_232:\n        /* \"#utility.yul\":11296:11297   */\n      0x01\n        /* \"#utility.yul\":11292:11293   */\n      0x02\n        /* \"#utility.yul\":11284:11290   */\n      dup9\n        /* \"#utility.yul\":11280:11294   */\n      mul\n        /* \"#utility.yul\":11276:11298   */\n      add\n        /* \"#utility.yul\":11270:11274   */\n      dup9\n        /* \"#utility.yul\":11263:11299   */\n      sstore\n        /* \"#utility.yul\":10698:11309   */\n      pop\n      pop\n      pop\n        /* \"#utility.yul\":10661:11548   */\n    tag_224:\n      pop\n        /* \"#utility.yul\":10251:11554   */\n      pop\n      pop\n      pop\n        /* \"#utility.yul\":10159:11554   */\n      pop\n      pop\n      jump\t// out\n\n    auxdata: 0xa264697066735822122066f0ce3ed1388d00b6a3a0c327636cd4f3964641c78c7744a5a538727325205e64736f6c634300081a0033\n}\n",
				"bytecode": {
					"linkReferences": {},
					"object": "6080604052348015600e575f80fd5b50610a578061001c5f395ff3fe608060405234801561000f575f80fd5b5060043610610055575f3560e01c80631d65e77e14610059578063672385621461008a5780638d977672146100a6578063c17a340e146100d7578063e1e29558146100f5575b5f80fd5b610073600480360381019061006e9190610445565b610111565b6040516100819291906104fa565b60405180910390f35b6100a4600480360381019061009f9190610654565b61023d565b005b6100c060048036038101906100bb9190610445565b6102b3565b6040516100ce9291906104fa565b60405180910390f35b6100df610373565b6040516100ec91906106aa565b60405180910390f35b61010f600480360381019061010a9190610445565b61037e565b005b60605f8080549050831061015a576040517f08c379a00000000000000000000000000000000000000000000000000000000081526004016101519061070d565b60405180910390fd5b5f838154811061016d5761016c61072b565b5b905f5260205f2090600202015f015f848154811061018e5761018d61072b565b5b905f5260205f2090600202016001015f9054906101000a900460ff168180546101b690610785565b80601f01602080910402602001604051908101604052809291908181526020018280546101e290610785565b801561022d5780601f106102045761010080835404028352916020019161022d565b820191905f5260205f20905b81548152906001019060200180831161021057829003601f168201915b5050505050915091509150915091565b5f60405180604001604052808381526020015f1515815250908060018154018082558091505060019003905f5260205f2090600202015f909190919091505f820151815f01908161028e9190610952565b506020820151816001015f6101000a81548160ff021916908315150217905550505050565b5f81815481106102c1575f80fd5b905f5260205f2090600202015f91509050805f0180546102e090610785565b80601f016020809104026020016040519081016040528092919081815260200182805461030c90610785565b80156103575780601f1061032e57610100808354040283529160200191610357565b820191905f5260205f20905b81548152906001019060200180831161033a57829003601f168201915b505050505090806001015f9054906101000a900460ff16905082565b5f8080549050905090565b5f8054905081106103c4576040517f08c379a00000000000000000000000000000000000000000000000000000000081526004016103bb9061070d565b60405180910390fd5b60015f82815481106103d9576103d861072b565b5b905f5260205f2090600202016001015f6101000a81548160ff02191690831515021790555050565b5f604051905090565b5f80fd5b5f80fd5b5f819050919050565b61042481610412565b811461042e575f80fd5b50565b5f8135905061043f8161041b565b92915050565b5f6020828403121561045a5761045961040a565b5b5f61046784828501610431565b91505092915050565b5f81519050919050565b5f82825260208201905092915050565b8281835e5f83830152505050565b5f601f19601f8301169050919050565b5f6104b282610470565b6104bc818561047a565b93506104cc81856020860161048a565b6104d581610498565b840191505092915050565b5f8115159050919050565b6104f4816104e0565b82525050565b5f6040820190508181035f83015261051281856104a8565b905061052160208301846104eb565b9392505050565b5f80fd5b5f80fd5b7f4e487b71000000000000000000000000000000000000000000000000000000005f52604160045260245ffd5b61056682610498565b810181811067ffffffffffffffff8211171561058557610584610530565b5b80604052505050565b5f610597610401565b90506105a3828261055d565b919050565b5f67ffffffffffffffff8211156105c2576105c1610530565b5b6105cb82610498565b9050602081019050919050565b828183375f83830152505050565b5f6105f86105f3846105a8565b61058e565b9050828152602081018484840111156106145761061361052c565b5b61061f8482856105d8565b509392505050565b5f82601f83011261063b5761063a610528565b5b813561064b8482602086016105e6565b91505092915050565b5f602082840312156106695761066861040a565b5b5f82013567ffffffffffffffff8111156106865761068561040e565b5b61069284828501610627565b91505092915050565b6106a481610412565b82525050565b5f6020820190506106bd5f83018461069b565b92915050565b7f496e646578206f7574206f6620626f756e6473000000000000000000000000005f82015250565b5f6106f760138361047a565b9150610702826106c3565b602082019050919050565b5f6020820190508181035f830152610724816106eb565b9050919050565b7f4e487b71000000000000000000000000000000000000000000000000000000005f52603260045260245ffd5b7f4e487b71000000000000000000000000000000000000000000000000000000005f52602260045260245ffd5b5f600282049050600182168061079c57607f821691505b6020821081036107af576107ae610758565b5b50919050565b5f819050815f5260205f209050919050565b5f6020601f8301049050919050565b5f82821b905092915050565b5f600883026108117fffffffffffffffffffffffffffffffffffffffffffffffffffffffffffffffff826107d6565b61081b86836107d6565b95508019841693508086168417925050509392505050565b5f819050919050565b5f61085661085161084c84610412565b610833565b610412565b9050919050565b5f819050919050565b61086f8361083c565b61088361087b8261085d565b8484546107e2565b825550505050565b5f90565b61089761088b565b6108a2818484610866565b505050565b5b818110156108c5576108ba5f8261088f565b6001810190506108a8565b5050565b601f82111561090a576108db816107b5565b6108e4846107c7565b810160208510156108f3578190505b6109076108ff856107c7565b8301826108a7565b50505b505050565b5f82821c905092915050565b5f61092a5f198460080261090f565b1980831691505092915050565b5f610942838361091b565b9150826002028217905092915050565b61095b82610470565b67ffffffffffffffff81111561097457610973610530565b5b61097e8254610785565b6109898282856108c9565b5f60209050601f8311600181146109ba575f84156109a8578287015190505b6109b28582610937565b865550610a19565b601f1984166109c8866107b5565b5f5b828110156109ef578489015182556001820191506020850194506020810190506109ca565b86831015610a0c5784890151610a08601f89168261091b565b8355505b6001600288020188555050505b50505050505056fea264697066735822122066f0ce3ed1388d00b6a3a0c327636cd4f3964641c78c7744a5a538727325205e64736f6c634300081a0033",
					"opcodes": "PUSH1 0x80 PUSH1 0x40 MSTORE CALLVALUE DUP1 ISZERO PUSH1 0xE JUMPI PUSH0 DUP1 REVERT JUMPDEST POP PUSH2 0xA57 DUP1 PUSH2 0x1C PUSH0 CODECOPY PUSH0 RETURN INVALID PUSH1 0x80 PUSH1 0x40 MSTORE CALLVALUE DUP1 ISZERO PUSH2 0xF JUMPI PUSH0 DUP1 REVERT JUMPDEST POP PUSH1 0x4 CALLDATASIZE LT PUSH2 0x55 JUMPI PUSH0 CALLDATALOAD PUSH1 0xE0 SHR DUP1 PUSH4 0x1D65E77E EQ PUSH2 0x59 JUMPI DUP1 PUSH4 0x67238562 EQ PUSH2 0x8A JUMPI DUP1 PUSH4 0x8D977672 EQ PUSH2 0xA6 JUMPI DUP1 PUSH4 0xC17A340E EQ PUSH2 0xD7 JUMPI DUP1 PUSH4 0xE1E29558 EQ PUSH2 0xF5 JUMPI JUMPDEST PUSH0 DUP1 REVERT JUMPDEST PUSH2 0x73 PUSH1 0x4 DUP1 CALLDATASIZE SUB DUP2 ADD SWAP1 PUSH2 0x6E SWAP2 SWAP1 PUSH2 0x445 JUMP JUMPDEST PUSH2 0x111 JUMP JUMPDEST PUSH1 0x40 MLOAD PUSH2 0x81 SWAP3 SWAP2 SWAP1 PUSH2 0x4FA JUMP JUMPDEST PUSH1 0x40 MLOAD DUP1 SWAP2 SUB SWAP1 RETURN JUMPDEST PUSH2 0xA4 PUSH1 0x4 DUP1 CALLDATASIZE SUB DUP2 ADD SWAP1 PUSH2 0x9F SWAP2 SWAP1 PUSH2 0x654 JUMP JUMPDEST PUSH2 0x23D JUMP JUMPDEST STOP JUMPDEST PUSH2 0xC0 PUSH1 0x4 DUP1 CALLDATASIZE SUB DUP2 ADD SWAP1 PUSH2 0xBB SWAP2 SWAP1 PUSH2 0x445 JUMP JUMPDEST PUSH2 0x2B3 JUMP JUMPDEST PUSH1 0x40 MLOAD PUSH2 0xCE SWAP3 SWAP2 SWAP1 PUSH2 0x4FA JUMP JUMPDEST PUSH1 0x40 MLOAD DUP1 SWAP2 SUB SWAP1 RETURN JUMPDEST PUSH2 0xDF PUSH2 0x373 JUMP JUMPDEST PUSH1 0x40 MLOAD PUSH2 0xEC SWAP2 SWAP1 PUSH2 0x6AA JUMP JUMPDEST PUSH1 0x40 MLOAD DUP1 SWAP2 SUB SWAP1 RETURN JUMPDEST PUSH2 0x10F PUSH1 0x4 DUP1 CALLDATASIZE SUB DUP2 ADD SWAP1 PUSH2 0x10A SWAP2 SWAP1 PUSH2 0x445 JUMP JUMPDEST PUSH2 0x37E JUMP JUMPDEST STOP JUMPDEST PUSH1 0x60 PUSH0 DUP1 DUP1 SLOAD SWAP1 POP DUP4 LT PUSH2 0x15A JUMPI PUSH1 0x40 MLOAD PUSH32 0x8C379A000000000000000000000000000000000000000000000000000000000 DUP2 MSTORE PUSH1 0x4 ADD PUSH2 0x151 SWAP1 PUSH2 0x70D JUMP JUMPDEST PUSH1 0x40 MLOAD DUP1 SWAP2 SUB SWAP1 REVERT JUMPDEST PUSH0 DUP4 DUP2 SLOAD DUP2 LT PUSH2 0x16D JUMPI PUSH2 0x16C PUSH2 0x72B JUMP JUMPDEST JUMPDEST SWAP1 PUSH0 MSTORE PUSH1 0x20 PUSH0 KECCAK256 SWAP1 PUSH1 0x2 MUL ADD PUSH0 ADD PUSH0 DUP5 DUP2 SLOAD DUP2 LT PUSH2 0x18E JUMPI PUSH2 0x18D PUSH2 0x72B JUMP JUMPDEST JUMPDEST SWAP1 PUSH0 MSTORE PUSH1 0x20 PUSH0 KECCAK256 SWAP1 PUSH1 0x2 MUL ADD PUSH1 0x1 ADD PUSH0 SWAP1 SLOAD SWAP1 PUSH2 0x100 EXP SWAP1 DIV PUSH1 0xFF AND DUP2 DUP1 SLOAD PUSH2 0x1B6 SWAP1 PUSH2 0x785 JUMP JUMPDEST DUP1 PUSH1 0x1F ADD PUSH1 0x20 DUP1 SWAP2 DIV MUL PUSH1 0x20 ADD PUSH1 0x40 MLOAD SWAP1 DUP2 ADD PUSH1 0x40 MSTORE DUP1 SWAP3 SWAP2 SWAP1 DUP2 DUP2 MSTORE PUSH1 0x20 ADD DUP3 DUP1 SLOAD PUSH2 0x1E2 SWAP1 PUSH2 0x785 JUMP JUMPDEST DUP1 ISZERO PUSH2 0x22D JUMPI DUP1 PUSH1 0x1F LT PUSH2 0x204 JUMPI PUSH2 0x100 DUP1 DUP4 SLOAD DIV MUL DUP4 MSTORE SWAP2 PUSH1 0x20 ADD SWAP2 PUSH2 0x22D JUMP JUMPDEST DUP3 ADD SWAP2 SWAP1 PUSH0 MSTORE PUSH1 0x20 PUSH0 KECCAK256 SWAP1 JUMPDEST DUP2 SLOAD DUP2 MSTORE SWAP1 PUSH1 0x1 ADD SWAP1 PUSH1 0x20 ADD DUP1 DUP4 GT PUSH2 0x210 JUMPI DUP3 SWAP1 SUB PUSH1 0x1F AND DUP3 ADD SWAP2 JUMPDEST POP POP POP POP POP SWAP2 POP SWAP2 POP SWAP2 POP SWAP2 POP SWAP2 JUMP JUMPDEST PUSH0 PUSH1 0x40 MLOAD DUP1 PUSH1 0x40 ADD PUSH1 0x40 MSTORE DUP1 DUP4 DUP2 MSTORE PUSH1 0x20 ADD PUSH0 ISZERO ISZERO DUP2 MSTORE POP SWAP1 DUP1 PUSH1 0x1 DUP2 SLOAD ADD DUP1 DUP3 SSTORE DUP1 SWAP2 POP POP PUSH1 0x1 SWAP1 SUB SWAP1 PUSH0 MSTORE PUSH1 0x20 PUSH0 KECCAK256 SWAP1 PUSH1 0x2 MUL ADD PUSH0 SWAP1 SWAP2 SWAP1 SWAP2 SWAP1 SWAP2 POP PUSH0 DUP3 ADD MLOAD DUP2 PUSH0 ADD SWAP1 DUP2 PUSH2 0x28E SWAP2 SWAP1 PUSH2 0x952 JUMP JUMPDEST POP PUSH1 0x20 DUP3 ADD MLOAD DUP2 PUSH1 0x1 ADD PUSH0 PUSH2 0x100 EXP DUP2 SLOAD DUP2 PUSH1 0xFF MUL NOT AND SWAP1 DUP4 ISZERO ISZERO MUL OR SWAP1 SSTORE POP POP POP POP JUMP JUMPDEST PUSH0 DUP2 DUP2 SLOAD DUP2 LT PUSH2 0x2C1 JUMPI PUSH0 DUP1 REVERT JUMPDEST SWAP1 PUSH0 MSTORE PUSH1 0x20 PUSH0 KECCAK256 SWAP1 PUSH1 0x2 MUL ADD PUSH0 SWAP2 POP SWAP1 POP DUP1 PUSH0 ADD DUP1 SLOAD PUSH2 0x2E0 SWAP1 PUSH2 0x785 JUMP JUMPDEST DUP1 PUSH1 0x1F ADD PUSH1 0x20 DUP1 SWAP2 DIV MUL PUSH1 0x20 ADD PUSH1 0x40 MLOAD SWAP1 DUP2 ADD PUSH1 0x40 MSTORE DUP1 SWAP3 SWAP2 SWAP1 DUP2 DUP2 MSTORE PUSH1 0x20 ADD DUP3 DUP1 SLOAD PUSH2 0x30C SWAP1 PUSH2 0x785 JUMP JUMPDEST DUP1 ISZERO PUSH2 0x357 JUMPI DUP1 PUSH1 0x1F LT PUSH2 0x32E JUMPI PUSH2 0x100 DUP1 DUP4 SLOAD DIV MUL DUP4 MSTORE SWAP2 PUSH1 0x20 ADD SWAP2 PUSH2 0x357 JUMP JUMPDEST DUP3 ADD SWAP2 SWAP1 PUSH0 MSTORE PUSH1 0x20 PUSH0 KECCAK256 SWAP1 JUMPDEST DUP2 SLOAD DUP2 MSTORE SWAP1 PUSH1 0x1 ADD SWAP1 PUSH1 0x20 ADD DUP1 DUP4 GT PUSH2 0x33A JUMPI DUP3 SWAP1 SUB PUSH1 0x1F AND DUP3 ADD SWAP2 JUMPDEST POP POP POP POP POP SWAP1 DUP1 PUSH1 0x1 ADD PUSH0 SWAP1 SLOAD SWAP1 PUSH2 0x100 EXP SWAP1 DIV PUSH1 0xFF AND SWAP1 POP DUP3 JUMP JUMPDEST PUSH0 DUP1 DUP1 SLOAD SWAP1 POP SWAP1 POP SWAP1 JUMP JUMPDEST PUSH0 DUP1 SLOAD SWAP1 POP DUP2 LT PUSH2 0x3C4 JUMPI PUSH1 0x40 MLOAD PUSH32 0x8C379A000000000000000000000000000000000000000000000000000000000 DUP2 MSTORE PUSH1 0x4 ADD PUSH2 0x3BB SWAP1 PUSH2 0x70D JUMP JUMPDEST PUSH1 0x40 MLOAD DUP1 SWAP2 SUB SWAP1 REVERT JUMPDEST PUSH1 0x1 PUSH0 DUP3 DUP2 SLOAD DUP2 LT PUSH2 0x3D9 JUMPI PUSH2 0x3D8 PUSH2 0x72B JUMP JUMPDEST JUMPDEST SWAP1 PUSH0 MSTORE PUSH1 0x20 PUSH0 KECCAK256 SWAP1 PUSH1 0x2 MUL ADD PUSH1 0x1 ADD PUSH0 PUSH2 0x100 EXP DUP2 SLOAD DUP2 PUSH1 0xFF MUL NOT AND SWAP1 DUP4 ISZERO ISZERO MUL OR SWAP1 SSTORE POP POP JUMP JUMPDEST PUSH0 PUSH1 0x40 MLOAD SWAP1 POP SWAP1 JUMP JUMPDEST PUSH0 DUP1 REVERT JUMPDEST PUSH0 DUP1 REVERT JUMPDEST PUSH0 DUP2 SWAP1 POP SWAP2 SWAP1 POP JUMP JUMPDEST PUSH2 0x424 DUP2 PUSH2 0x412 JUMP JUMPDEST DUP2 EQ PUSH2 0x42E JUMPI PUSH0 DUP1 REVERT JUMPDEST POP JUMP JUMPDEST PUSH0 DUP2 CALLDATALOAD SWAP1 POP PUSH2 0x43F DUP2 PUSH2 0x41B JUMP JUMPDEST SWAP3 SWAP2 POP POP JUMP JUMPDEST PUSH0 PUSH1 0x20 DUP3 DUP5 SUB SLT ISZERO PUSH2 0x45A JUMPI PUSH2 0x459 PUSH2 0x40A JUMP JUMPDEST JUMPDEST PUSH0 PUSH2 0x467 DUP5 DUP3 DUP6 ADD PUSH2 0x431 JUMP JUMPDEST SWAP2 POP POP SWAP3 SWAP2 POP POP JUMP JUMPDEST PUSH0 DUP2 MLOAD SWAP1 POP SWAP2 SWAP1 POP JUMP JUMPDEST PUSH0 DUP3 DUP3 MSTORE PUSH1 0x20 DUP3 ADD SWAP1 POP SWAP3 SWAP2 POP POP JUMP JUMPDEST DUP3 DUP2 DUP4 MCOPY PUSH0 DUP4 DUP4 ADD MSTORE POP POP POP JUMP JUMPDEST PUSH0 PUSH1 0x1F NOT PUSH1 0x1F DUP4 ADD AND SWAP1 POP SWAP2 SWAP1 POP JUMP JUMPDEST PUSH0 PUSH2 0x4B2 DUP3 PUSH2 0x470 JUMP JUMPDEST PUSH2 0x4BC DUP2 DUP6 PUSH2 0x47A JUMP JUMPDEST SWAP4 POP PUSH2 0x4CC DUP2 DUP6 PUSH1 0x20 DUP7 ADD PUSH2 0x48A JUMP JUMPDEST PUSH2 0x4D5 DUP2 PUSH2 0x498 JUMP JUMPDEST DUP5 ADD SWAP2 POP POP SWAP3 SWAP2 POP POP JUMP JUMPDEST PUSH0 DUP2 ISZERO ISZERO SWAP1 POP SWAP2 SWAP1 POP JUMP JUMPDEST PUSH2 0x4F4 DUP2 PUSH2 0x4E0 JUMP JUMPDEST DUP3 MSTORE POP POP JUMP JUMPDEST PUSH0 PUSH1 0x40 DUP3 ADD SWAP1 POP DUP2 DUP2 SUB PUSH0 DUP4 ADD MSTORE PUSH2 0x512 DUP2 DUP6 PUSH2 0x4A8 JUMP JUMPDEST SWAP1 POP PUSH2 0x521 PUSH1 0x20 DUP4 ADD DUP5 PUSH2 0x4EB JUMP JUMPDEST SWAP4 SWAP3 POP POP POP JUMP JUMPDEST PUSH0 DUP1 REVERT JUMPDEST PUSH0 DUP1 REVERT JUMPDEST PUSH32 0x4E487B7100000000000000000000000000000000000000000000000000000000 PUSH0 MSTORE PUSH1 0x41 PUSH1 0x4 MSTORE PUSH1 0x24 PUSH0 REVERT JUMPDEST PUSH2 0x566 DUP3 PUSH2 0x498 JUMP JUMPDEST DUP2 ADD DUP2 DUP2 LT PUSH8 0xFFFFFFFFFFFFFFFF DUP3 GT OR ISZERO PUSH2 0x585 JUMPI PUSH2 0x584 PUSH2 0x530 JUMP JUMPDEST JUMPDEST DUP1 PUSH1 0x40 MSTORE POP POP POP JUMP JUMPDEST PUSH0 PUSH2 0x597 PUSH2 0x401 JUMP JUMPDEST SWAP1 POP PUSH2 0x5A3 DUP3 DUP3 PUSH2 0x55D JUMP JUMPDEST SWAP2 SWAP1 POP JUMP JUMPDEST PUSH0 PUSH8 0xFFFFFFFFFFFFFFFF DUP3 GT ISZERO PUSH2 0x5C2 JUMPI PUSH2 0x5C1 PUSH2 0x530 JUMP JUMPDEST JUMPDEST PUSH2 0x5CB DUP3 PUSH2 0x498 JUMP JUMPDEST SWAP1 POP PUSH1 0x20 DUP2 ADD SWAP1 POP SWAP2 SWAP1 POP JUMP JUMPDEST DUP3 DUP2 DUP4 CALLDATACOPY PUSH0 DUP4 DUP4 ADD MSTORE POP POP POP JUMP JUMPDEST PUSH0 PUSH2 0x5F8 PUSH2 0x5F3 DUP5 PUSH2 0x5A8 JUMP JUMPDEST PUSH2 0x58E JUMP JUMPDEST SWAP1 POP DUP3 DUP2 MSTORE PUSH1 0x20 DUP2 ADD DUP5 DUP5 DUP5 ADD GT ISZERO PUSH2 0x614 JUMPI PUSH2 0x613 PUSH2 0x52C JUMP JUMPDEST JUMPDEST PUSH2 0x61F DUP5 DUP3 DUP6 PUSH2 0x5D8 JUMP JUMPDEST POP SWAP4 SWAP3 POP POP POP JUMP JUMPDEST PUSH0 DUP3 PUSH1 0x1F DUP4 ADD SLT PUSH2 0x63B JUMPI PUSH2 0x63A PUSH2 0x528 JUMP JUMPDEST JUMPDEST DUP2 CALLDATALOAD PUSH2 0x64B DUP5 DUP3 PUSH1 0x20 DUP7 ADD PUSH2 0x5E6 JUMP JUMPDEST SWAP2 POP POP SWAP3 SWAP2 POP POP JUMP JUMPDEST PUSH0 PUSH1 0x20 DUP3 DUP5 SUB SLT ISZERO PUSH2 0x669 JUMPI PUSH2 0x668 PUSH2 0x40A JUMP JUMPDEST JUMPDEST PUSH0 DUP3 ADD CALLDATALOAD PUSH8 0xFFFFFFFFFFFFFFFF DUP2 GT ISZERO PUSH2 0x686 JUMPI PUSH2 0x685 PUSH2 0x40E JUMP JUMPDEST JUMPDEST PUSH2 0x692 DUP5 DUP3 DUP6 ADD PUSH2 0x627 JUMP JUMPDEST SWAP2 POP POP SWAP3 SWAP2 POP POP JUMP JUMPDEST PUSH2 0x6A4 DUP2 PUSH2 0x412 JUMP JUMPDEST DUP3 MSTORE POP POP JUMP JUMPDEST PUSH0 PUSH1 0x20 DUP3 ADD SWAP1 POP PUSH2 0x6BD PUSH0 DUP4 ADD DUP5 PUSH2 0x69B JUMP JUMPDEST SWAP3 SWAP2 POP POP JUMP JUMPDEST PUSH32 0x496E646578206F7574206F6620626F756E647300000000000000000000000000 PUSH0 DUP3 ADD MSTORE POP JUMP JUMPDEST PUSH0 PUSH2 0x6F7 PUSH1 0x13 DUP4 PUSH2 0x47A JUMP JUMPDEST SWAP2 POP PUSH2 0x702 DUP3 PUSH2 0x6C3 JUMP JUMPDEST PUSH1 0x20 DUP3 ADD SWAP1 POP SWAP2 SWAP1 POP JUMP JUMPDEST PUSH0 PUSH1 0x20 DUP3 ADD SWAP1 POP DUP2 DUP2 SUB PUSH0 DUP4 ADD MSTORE PUSH2 0x724 DUP2 PUSH2 0x6EB JUMP JUMPDEST SWAP1 POP SWAP2 SWAP1 POP JUMP JUMPDEST PUSH32 0x4E487B7100000000000000000000000000000000000000000000000000000000 PUSH0 MSTORE PUSH1 0x32 PUSH1 0x4 MSTORE PUSH1 0x24 PUSH0 REVERT JUMPDEST PUSH32 0x4E487B7100000000000000000000000000000000000000000000000000000000 PUSH0 MSTORE PUSH1 0x22 PUSH1 0x4 MSTORE PUSH1 0x24 PUSH0 REVERT JUMPDEST PUSH0 PUSH1 0x2 DUP3 DIV SWAP1 POP PUSH1 0x1 DUP3 AND DUP1 PUSH2 0x79C JUMPI PUSH1 0x7F DUP3 AND SWAP2 POP JUMPDEST PUSH1 0x20 DUP3 LT DUP2 SUB PUSH2 0x7AF JUMPI PUSH2 0x7AE PUSH2 0x758 JUMP JUMPDEST JUMPDEST POP SWAP2 SWAP1 POP JUMP JUMPDEST PUSH0 DUP2 SWAP1 POP DUP2 PUSH0 MSTORE PUSH1 0x20 PUSH0 KECCAK256 SWAP1 POP SWAP2 SWAP1 POP JUMP JUMPDEST PUSH0 PUSH1 0x20 PUSH1 0x1F DUP4 ADD DIV SWAP1 POP SWAP2 SWAP1 POP JUMP JUMPDEST PUSH0 DUP3 DUP3 SHL SWAP1 POP SWAP3 SWAP2 POP POP JUMP JUMPDEST PUSH0 PUSH1 0x8 DUP4 MUL PUSH2 0x811 PUSH32 0xFFFFFFFFFFFFFFFFFFFFFFFFFFFFFFFFFFFFFFFFFFFFFFFFFFFFFFFFFFFFFFFF DUP3 PUSH2 0x7D6 JUMP JUMPDEST PUSH2 0x81B DUP7 DUP4 PUSH2 0x7D6 JUMP JUMPDEST SWAP6 POP DUP1 NOT DUP5 AND SWAP4 POP DUP1 DUP7 AND DUP5 OR SWAP3 POP POP POP SWAP4 SWAP3 POP POP POP JUMP JUMPDEST PUSH0 DUP2 SWAP1 POP SWAP2 SWAP1 POP JUMP JUMPDEST PUSH0 PUSH2 0x856 PUSH2 0x851 PUSH2 0x84C DUP5 PUSH2 0x412 JUMP JUMPDEST PUSH2 0x833 JUMP JUMPDEST PUSH2 0x412 JUMP JUMPDEST SWAP1 POP SWAP2 SWAP1 POP JUMP JUMPDEST PUSH0 DUP2 SWAP1 POP SWAP2 SWAP1 POP JUMP JUMPDEST PUSH2 0x86F DUP4 PUSH2 0x83C JUMP JUMPDEST PUSH2 0x883 PUSH2 0x87B DUP3 PUSH2 0x85D JUMP JUMPDEST DUP5 DUP5 SLOAD PUSH2 0x7E2 JUMP JUMPDEST DUP3 SSTORE POP POP POP POP JUMP JUMPDEST PUSH0 SWAP1 JUMP JUMPDEST PUSH2 0x897 PUSH2 0x88B JUMP JUMPDEST PUSH2 0x8A2 DUP2 DUP5 DUP5 PUSH2 0x866 JUMP JUMPDEST POP POP POP JUMP JUMPDEST JUMPDEST DUP2 DUP2 LT ISZERO PUSH2 0x8C5 JUMPI PUSH2 0x8BA PUSH0 DUP3 PUSH2 0x88F JUMP JUMPDEST PUSH1 0x1 DUP2 ADD SWAP1 POP PUSH2 0x8A8 JUMP JUMPDEST POP POP JUMP JUMPDEST PUSH1 0x1F DUP3 GT ISZERO PUSH2 0x90A JUMPI PUSH2 0x8DB DUP2 PUSH2 0x7B5 JUMP JUMPDEST PUSH2 0x8E4 DUP5 PUSH2 0x7C7 JUMP JUMPDEST DUP2 ADD PUSH1 0x20 DUP6 LT ISZERO PUSH2 0x8F3 JUMPI DUP2 SWAP1 POP JUMPDEST PUSH2 0x907 PUSH2 0x8FF DUP6 PUSH2 0x7C7 JUMP JUMPDEST DUP4 ADD DUP3 PUSH2 0x8A7 JUMP JUMPDEST POP POP JUMPDEST POP POP POP JUMP JUMPDEST PUSH0 DUP3 DUP3 SHR SWAP1 POP SWAP3 SWAP2 POP POP JUMP JUMPDEST PUSH0 PUSH2 0x92A PUSH0 NOT DUP5 PUSH1 0x8 MUL PUSH2 0x90F JUMP JUMPDEST NOT DUP1 DUP4 AND SWAP2 POP POP SWAP3 SWAP2 POP POP JUMP JUMPDEST PUSH0 PUSH2 0x942 DUP4 DUP4 PUSH2 0x91B JUMP JUMPDEST SWAP2 POP DUP3 PUSH1 0x2 MUL DUP3 OR SWAP1 POP SWAP3 SWAP2 POP POP JUMP JUMPDEST PUSH2 0x95B DUP3 PUSH2 0x470 JUMP JUMPDEST PUSH8 0xFFFFFFFFFFFFFFFF DUP2 GT ISZERO PUSH2 0x974 JUMPI PUSH2 0x973 PUSH2 0x530 JUMP JUMPDEST JUMPDEST PUSH2 0x97E DUP3 SLOAD PUSH2 0x785 JUMP JUMPDEST PUSH2 0x989 DUP3 DUP3 DUP6 PUSH2 0x8C9 JUMP JUMPDEST PUSH0 PUSH1 0x20 SWAP1 POP PUSH1 0x1F DUP4 GT PUSH1 0x1 DUP2 EQ PUSH2 0x9BA JUMPI PUSH0 DUP5 ISZERO PUSH2 0x9A8 JUMPI DUP3 DUP8 ADD MLOAD SWAP1 POP JUMPDEST PUSH2 0x9B2 DUP6 DUP3 PUSH2 0x937 JUMP JUMPDEST DUP7 SSTORE POP PUSH2 0xA19 JUMP JUMPDEST PUSH1 0x1F NOT DUP5 AND PUSH2 0x9C8 DUP7 PUSH2 0x7B5 JUMP JUMPDEST PUSH0 JUMPDEST DUP3 DUP2 LT ISZERO PUSH2 0x9EF JUMPI DUP5 DUP10 ADD MLOAD DUP3 SSTORE PUSH1 0x1 DUP3 ADD SWAP2 POP PUSH1 0x20 DUP6 ADD SWAP5 POP PUSH1 0x20 DUP2 ADD SWAP1 POP PUSH2 0x9CA JUMP JUMPDEST DUP7 DUP4 LT ISZERO PUSH2 0xA0C JUMPI DUP5 DUP10 ADD MLOAD PUSH2 0xA08 PUSH1 0x1F DUP10 AND DUP3 PUSH2 0x91B JUMP JUMPDEST DUP4 SSTORE POP JUMPDEST PUSH1 0x1 PUSH1 0x2 DUP9 MUL ADD DUP9 SSTORE POP POP POP JUMPDEST POP POP POP POP POP POP JUMP INVALID LOG2 PUSH5 0x6970667358 0x22 SLT KECCAK256 PUSH7 0xF0CE3ED1388D00 0xB6 LOG3 LOG0 0xC3 0x27 PUSH4 0x6CD4F396 CHAINID COINBASE 0xC7 DUP13 PUSH24 0x44A5A538727325205E64736F6C634300081A003300000000 "
				},
				"gasEstimates": {
					"creation": {
						"codeDepositCost": "529400",
						"executionCost": "560",
						"totalCost": "529960"
					},
					"external": {
						"addTask(string)": "infinite",
						"completeTask(uint256)": "29057",
						"getTask(uint256)": "infinite",
						"getTaskCount()": "2484",
						"tasks(uint256)": "infinite"
					}
				},
				"methodIdentifiers": {
					"addTask(string)": "67238562",
					"completeTask(uint256)": "e1e29558",
					"getTask(uint256)": "1d65e77e",
					"getTaskCount()": "c17a340e",
					"tasks(uint256)": "8d977672"
				}
			},
			"storageLayout": {
				"storage": [
					{
						"astId": 10,
						"contract": "contracts/TaskList.sol:TaskList",
						"label": "tasks",
						"offset": 0,
						"slot": "0",
						"type": "t_array(t_struct(Task)6_storage)dyn_storage"
					}
				],
				"types": {
					"t_array(t_struct(Task)6_storage)dyn_storage": {
						"base": "t_struct(Task)6_storage",
						"encoding": "dynamic_array",
						"label": "struct TaskList.Task[]",
						"numberOfBytes": "32"
					},
					"t_bool": {
						"encoding": "inplace",
						"label": "bool",
						"numberOfBytes": "1"
					},
					"t_string_storage": {
						"encoding": "bytes",
						"label": "string",
						"numberOfBytes": "32"
					},
					"t_struct(Task)6_storage": {
						"encoding": "inplace",
						"label": "struct TaskList.Task",
						"members": [
							{
								"astId": 3,
								"contract": "contracts/TaskList.sol:TaskList",
								"label": "description",
								"offset": 0,
								"slot": "0",
								"type": "t_string_storage"
							},
							{
								"astId": 5,
								"contract": "contracts/TaskList.sol:TaskList",
								"label": "completed",
								"offset": 0,
								"slot": "1",
								"type": "t_bool"
							}
						],
						"numberOfBytes": "64"
					}
				}
			},
			"userdoc": {
				"kind": "user",
				"methods": {},
				"version": 1
			}
		}
	}
}