{
	"contracts/NumberListW6Lecture.sol": {
		"NumberList": {
			"abi": [
				{
					"inputs": [
						{
							"internalType": "uint256",
							"name": "_number",
							"type": "uint256"
						}
					],
					"name": "addNumber",
					"outputs": [],
					"stateMutability": "nonpayable",
					"type": "function"
				},
				{
					"inputs": [],
					"name": "clearList",
					"outputs": [],
					"stateMutability": "nonpayable",
					"type": "function"
				},
				{
					"inputs": [],
					"name": "getMax",
					"outputs": [
						{
							"internalType": "uint256",
							"name": "",
							"type": "uint256"
						}
					],
					"stateMutability": "view",
					"type": "function"
				},
				{
					"inputs": [],
					"name": "getSum",
					"outputs": [
						{
							"internalType": "uint256",
							"name": "",
							"type": "uint256"
						}
					],
					"stateMutability": "view",
					"type": "function"
				},
				{
					"inputs": [
						{
							"internalType": "uint256",
							"name": "",
							"type": "uint256"
						}
					],
					"name": "numbers",
					"outputs": [
						{
							"internalType": "uint256",
							"name": "",
							"type": "uint256"
						}
					],
					"stateMutability": "view",
					"type": "function"
				},
				{
					"inputs": [
						{
							"internalType": "uint256",
							"name": "_number",
							"type": "uint256"
						}
					],
					"name": "removeNumber",
					"outputs": [],
					"stateMutability": "nonpayable",
					"type": "function"
				}
			],
			"devdoc": {
				"kind": "dev",
				"methods": {},
				"version": 1
			},
			"evm": {
				"assembly": "    /* \"contracts/NumberListW6Lecture.sol\":61:1426  contract NumberList {... */\n  mstore(0x40, 0x80)\n  callvalue\n  dup1\n  iszero\n  tag_1\n  jumpi\n  0x00\n  dup1\n  revert\ntag_1:\n  pop\n  dataSize(sub_0)\n  dup1\n  dataOffset(sub_0)\n  0x00\n  codecopy\n  0x00\n  return\nstop\n\nsub_0: assembly {\n        /* \"contracts/NumberListW6Lecture.sol\":61:1426  contract NumberList {... */\n      mstore(0x40, 0x80)\n      callvalue\n      dup1\n      iszero\n      tag_1\n      jumpi\n      0x00\n      dup1\n      revert\n    tag_1:\n      pop\n      jumpi(tag_2, lt(calldatasize, 0x04))\n      shr(0xe0, calldataload(0x00))\n      dup1\n      0x3075f552\n      eq\n      tag_3\n      jumpi\n      dup1\n      0x569c5f6d\n      eq\n      tag_4\n      jumpi\n      dup1\n      0xd39fa233\n      eq\n      tag_5\n      jumpi\n      dup1\n      0xd4ddc588\n      eq\n      tag_6\n      jumpi\n      dup1\n      0xeea54fb6\n      eq\n      tag_7\n      jumpi\n      dup1\n      0xfce68023\n      eq\n      tag_8\n      jumpi\n    tag_2:\n      0x00\n      dup1\n      revert\n        /* \"contracts/NumberListW6Lecture.sol\":600:969  function getMax() public view returns (uint256) {... */\n    tag_3:\n      tag_9\n      tag_10\n      jump\t// in\n    tag_9:\n      mload(0x40)\n      tag_11\n      swap2\n      swap1\n      tag_12\n      jump\t// in\n    tag_11:\n      mload(0x40)\n      dup1\n      swap2\n      sub\n      swap1\n      return\n        /* \"contracts/NumberListW6Lecture.sol\":334:536  function getSum() public view returns (uint256) {... */\n    tag_4:\n      tag_13\n      tag_14\n      jump\t// in\n    tag_13:\n      mload(0x40)\n      tag_15\n      swap2\n      swap1\n      tag_12\n      jump\t// in\n    tag_15:\n      mload(0x40)\n      dup1\n      swap2\n      sub\n      swap1\n      return\n        /* \"contracts/NumberListW6Lecture.sol\":112:136  uint256[] public numbers */\n    tag_5:\n      tag_16\n      0x04\n      dup1\n      calldatasize\n      sub\n      dup2\n      add\n      swap1\n      tag_17\n      swap2\n      swap1\n      tag_18\n      jump\t// in\n    tag_17:\n      tag_19\n      jump\t// in\n    tag_16:\n      mload(0x40)\n      tag_20\n      swap2\n      swap1\n      tag_12\n      jump\t// in\n    tag_20:\n      mload(0x40)\n      dup1\n      swap2\n      sub\n      swap1\n      return\n        /* \"contracts/NumberListW6Lecture.sol\":1310:1423  function clearList() public {... */\n    tag_6:\n      tag_21\n      tag_22\n      jump\t// in\n    tag_21:\n      stop\n        /* \"contracts/NumberListW6Lecture.sol\":1046:1260  function removeNumber(uint256 _number) public {... */\n    tag_7:\n      tag_23\n      0x04\n      dup1\n      calldatasize\n      sub\n      dup2\n      add\n      swap1\n      tag_24\n      swap2\n      swap1\n      tag_18\n      jump\t// in\n    tag_24:\n      tag_25\n      jump\t// in\n    tag_23:\n      stop\n        /* \"contracts/NumberListW6Lecture.sol\":188:271  function addNumber(uint256 _number) public {... */\n    tag_8:\n      tag_26\n      0x04\n      dup1\n      calldatasize\n      sub\n      dup2\n      add\n      swap1\n      tag_27\n      swap2\n      swap1\n      tag_18\n      jump\t// in\n    tag_27:\n      tag_28\n      jump\t// in\n    tag_26:\n      stop\n        /* \"contracts/NumberListW6Lecture.sol\":600:969  function getMax() public view returns (uint256) {... */\n    tag_10:\n        /* \"contracts/NumberListW6Lecture.sol\":639:646  uint256 */\n      0x00\n        /* \"contracts/NumberListW6Lecture.sol\":681:682  0 */\n      dup1\n        /* \"contracts/NumberListW6Lecture.sol\":663:670  numbers */\n      0x00\n        /* \"contracts/NumberListW6Lecture.sol\":663:677  numbers.length */\n      dup1\n      sload\n      swap1\n      pop\n        /* \"contracts/NumberListW6Lecture.sol\":663:682  numbers.length == 0 */\n      sub\n        /* \"contracts/NumberListW6Lecture.sol\":659:752  if (numbers.length == 0) {... */\n      tag_30\n      jumpi\n        /* \"contracts/NumberListW6Lecture.sol\":706:707  0 */\n      0x00\n        /* \"contracts/NumberListW6Lecture.sol\":699:707  return 0 */\n      swap1\n      pop\n      jump(tag_29)\n        /* \"contracts/NumberListW6Lecture.sol\":659:752  if (numbers.length == 0) {... */\n    tag_30:\n        /* \"contracts/NumberListW6Lecture.sol\":762:773  uint256 max */\n      0x00\n        /* \"contracts/NumberListW6Lecture.sol\":776:783  numbers */\n      dup1\n        /* \"contracts/NumberListW6Lecture.sol\":784:785  0 */\n      0x00\n        /* \"contracts/NumberListW6Lecture.sol\":776:786  numbers[0] */\n      dup2\n      sload\n      dup2\n      lt\n      tag_31\n      jumpi\n      tag_32\n      tag_33\n      jump\t// in\n    tag_32:\n    tag_31:\n      swap1\n      0x00\n      mstore\n      keccak256(0x00, 0x20)\n      add\n      sload\n        /* \"contracts/NumberListW6Lecture.sol\":762:786  uint256 max = numbers[0] */\n      swap1\n      pop\n        /* \"contracts/NumberListW6Lecture.sol\":802:811  uint256 i */\n      0x00\n        /* \"contracts/NumberListW6Lecture.sol\":814:815  1 */\n      0x01\n        /* \"contracts/NumberListW6Lecture.sol\":802:815  uint256 i = 1 */\n      swap1\n      pop\n        /* \"contracts/NumberListW6Lecture.sol\":797:941  for (uint256 i = 1; i < numbers.length; i++) {... */\n    tag_35:\n        /* \"contracts/NumberListW6Lecture.sol\":821:828  numbers */\n      0x00\n        /* \"contracts/NumberListW6Lecture.sol\":821:835  numbers.length */\n      dup1\n      sload\n      swap1\n      pop\n        /* \"contracts/NumberListW6Lecture.sol\":817:818  i */\n      dup2\n        /* \"contracts/NumberListW6Lecture.sol\":817:835  i < numbers.length */\n      lt\n        /* \"contracts/NumberListW6Lecture.sol\":797:941  for (uint256 i = 1; i < numbers.length; i++) {... */\n      iszero\n      tag_36\n      jumpi\n        /* \"contracts/NumberListW6Lecture.sol\":874:877  max */\n      dup2\n        /* \"contracts/NumberListW6Lecture.sol\":861:868  numbers */\n      0x00\n        /* \"contracts/NumberListW6Lecture.sol\":869:870  i */\n      dup3\n        /* \"contracts/NumberListW6Lecture.sol\":861:871  numbers[i] */\n      dup2\n      sload\n      dup2\n      lt\n      tag_38\n      jumpi\n      tag_39\n      tag_33\n      jump\t// in\n    tag_39:\n    tag_38:\n      swap1\n      0x00\n      mstore\n      keccak256(0x00, 0x20)\n      add\n      sload\n        /* \"contracts/NumberListW6Lecture.sol\":861:877  numbers[i] > max */\n      gt\n        /* \"contracts/NumberListW6Lecture.sol\":857:930  if (numbers[i] > max) {... */\n      iszero\n      tag_41\n      jumpi\n        /* \"contracts/NumberListW6Lecture.sol\":904:911  numbers */\n      0x00\n        /* \"contracts/NumberListW6Lecture.sol\":912:913  i */\n      dup2\n        /* \"contracts/NumberListW6Lecture.sol\":904:914  numbers[i] */\n      dup2\n      sload\n      dup2\n      lt\n      tag_42\n      jumpi\n      tag_43\n      tag_33\n      jump\t// in\n    tag_43:\n    tag_42:\n      swap1\n      0x00\n      mstore\n      keccak256(0x00, 0x20)\n      add\n      sload\n        /* \"contracts/NumberListW6Lecture.sol\":898:914  max = numbers[i] */\n      swap2\n      pop\n        /* \"contracts/NumberListW6Lecture.sol\":857:930  if (numbers[i] > max) {... */\n    tag_41:\n        /* \"contracts/NumberListW6Lecture.sol\":837:840  i++ */\n      dup1\n      dup1\n      0x01\n      add\n      swap2\n      pop\n      pop\n        /* \"contracts/NumberListW6Lecture.sol\":797:941  for (uint256 i = 1; i < numbers.length; i++) {... */\n      jump(tag_35)\n    tag_36:\n      pop\n        /* \"contracts/NumberListW6Lecture.sol\":958:961  max */\n      dup1\n        /* \"contracts/NumberListW6Lecture.sol\":951:961  return max */\n      swap2\n      pop\n      pop\n        /* \"contracts/NumberListW6Lecture.sol\":600:969  function getMax() public view returns (uint256) {... */\n    tag_29:\n      swap1\n      jump\t// out\n        /* \"contracts/NumberListW6Lecture.sol\":334:536  function getSum() public view returns (uint256) {... */\n    tag_14:\n        /* \"contracts/NumberListW6Lecture.sol\":373:380  uint256 */\n      0x00\n        /* \"contracts/NumberListW6Lecture.sol\":393:404  uint256 sum */\n      dup1\n        /* \"contracts/NumberListW6Lecture.sol\":407:408  0 */\n      0x00\n        /* \"contracts/NumberListW6Lecture.sol\":393:408  uint256 sum = 0 */\n      swap1\n      pop\n        /* \"contracts/NumberListW6Lecture.sol\":424:433  uint256 i */\n      0x00\n        /* \"contracts/NumberListW6Lecture.sol\":419:508  for (uint256 i = 0; i < numbers.length; i++) {... */\n    tag_46:\n        /* \"contracts/NumberListW6Lecture.sol\":443:450  numbers */\n      0x00\n        /* \"contracts/NumberListW6Lecture.sol\":443:457  numbers.length */\n      dup1\n      sload\n      swap1\n      pop\n        /* \"contracts/NumberListW6Lecture.sol\":439:440  i */\n      dup2\n        /* \"contracts/NumberListW6Lecture.sol\":439:457  i < numbers.length */\n      lt\n        /* \"contracts/NumberListW6Lecture.sol\":419:508  for (uint256 i = 0; i < numbers.length; i++) {... */\n      iszero\n      tag_47\n      jumpi\n        /* \"contracts/NumberListW6Lecture.sol\":486:493  numbers */\n      0x00\n        /* \"contracts/NumberListW6Lecture.sol\":494:495  i */\n      dup2\n        /* \"contracts/NumberListW6Lecture.sol\":486:496  numbers[i] */\n      dup2\n      sload\n      dup2\n      lt\n      tag_49\n      jumpi\n      tag_50\n      tag_33\n      jump\t// in\n    tag_50:\n    tag_49:\n      swap1\n      0x00\n      mstore\n      keccak256(0x00, 0x20)\n      add\n      sload\n        /* \"contracts/NumberListW6Lecture.sol\":479:496  sum += numbers[i] */\n      dup3\n      tag_52\n      swap2\n      swap1\n      tag_53\n      jump\t// in\n    tag_52:\n      swap2\n      pop\n        /* \"contracts/NumberListW6Lecture.sol\":459:462  i++ */\n      dup1\n      dup1\n      0x01\n      add\n      swap2\n      pop\n      pop\n        /* \"contracts/NumberListW6Lecture.sol\":419:508  for (uint256 i = 0; i < numbers.length; i++) {... */\n      jump(tag_46)\n    tag_47:\n      pop\n        /* \"contracts/NumberListW6Lecture.sol\":525:528  sum */\n      dup1\n        /* \"contracts/NumberListW6Lecture.sol\":518:528  return sum */\n      swap2\n      pop\n      pop\n        /* \"contracts/NumberListW6Lecture.sol\":334:536  function getSum() public view returns (uint256) {... */\n      swap1\n      jump\t// out\n        /* \"contracts/NumberListW6Lecture.sol\":112:136  uint256[] public numbers */\n    tag_19:\n      0x00\n      dup2\n      dup2\n      sload\n      dup2\n      lt\n      tag_54\n      jumpi\n      0x00\n      dup1\n      revert\n    tag_54:\n      swap1\n      0x00\n      mstore\n      keccak256(0x00, 0x20)\n      add\n      0x00\n      swap2\n      pop\n      swap1\n      pop\n      sload\n      dup2\n      jump\t// out\n        /* \"contracts/NumberListW6Lecture.sol\":1310:1423  function clearList() public {... */\n    tag_22:\n        /* \"contracts/NumberListW6Lecture.sol\":1349:1416  while (numbers.length > 0) {... */\n    tag_57:\n        /* \"contracts/NumberListW6Lecture.sol\":1373:1374  0 */\n      0x00\n        /* \"contracts/NumberListW6Lecture.sol\":1356:1363  numbers */\n      dup1\n        /* \"contracts/NumberListW6Lecture.sol\":1356:1370  numbers.length */\n      dup1\n      sload\n      swap1\n      pop\n        /* \"contracts/NumberListW6Lecture.sol\":1356:1374  numbers.length > 0 */\n      gt\n        /* \"contracts/NumberListW6Lecture.sol\":1349:1416  while (numbers.length > 0) {... */\n      iszero\n      tag_58\n      jumpi\n        /* \"contracts/NumberListW6Lecture.sol\":1391:1398  numbers */\n      0x00\n        /* \"contracts/NumberListW6Lecture.sol\":1391:1404  numbers.pop() */\n      dup1\n      sload\n      dup1\n      tag_59\n      jumpi\n      tag_60\n      tag_61\n      jump\t// in\n    tag_60:\n    tag_59:\n      0x01\n      swap1\n      sub\n      dup2\n      dup2\n      swap1\n      0x00\n      mstore\n      keccak256(0x00, 0x20)\n      add\n      0x00\n      swap1\n      sstore\n      swap1\n      sstore\n        /* \"contracts/NumberListW6Lecture.sol\":1349:1416  while (numbers.length > 0) {... */\n      jump(tag_57)\n    tag_58:\n        /* \"contracts/NumberListW6Lecture.sol\":1310:1423  function clearList() public {... */\n      jump\t// out\n        /* \"contracts/NumberListW6Lecture.sol\":1046:1260  function removeNumber(uint256 _number) public {... */\n    tag_25:\n        /* \"contracts/NumberListW6Lecture.sol\":1108:1117  uint256 i */\n      0x00\n        /* \"contracts/NumberListW6Lecture.sol\":1103:1253  for (uint256 i = 0; i < numbers.length; i++) {... */\n    tag_64:\n        /* \"contracts/NumberListW6Lecture.sol\":1127:1134  numbers */\n      0x00\n        /* \"contracts/NumberListW6Lecture.sol\":1127:1141  numbers.length */\n      dup1\n      sload\n      swap1\n      pop\n        /* \"contracts/NumberListW6Lecture.sol\":1123:1124  i */\n      dup2\n        /* \"contracts/NumberListW6Lecture.sol\":1123:1141  i < numbers.length */\n      lt\n        /* \"contracts/NumberListW6Lecture.sol\":1103:1253  for (uint256 i = 0; i < numbers.length; i++) {... */\n      iszero\n      tag_65\n      jumpi\n        /* \"contracts/NumberListW6Lecture.sol\":1181:1188  _number */\n      dup2\n        /* \"contracts/NumberListW6Lecture.sol\":1167:1174  numbers */\n      0x00\n        /* \"contracts/NumberListW6Lecture.sol\":1175:1176  i */\n      dup3\n        /* \"contracts/NumberListW6Lecture.sol\":1167:1177  numbers[i] */\n      dup2\n      sload\n      dup2\n      lt\n      tag_67\n      jumpi\n      tag_68\n      tag_33\n      jump\t// in\n    tag_68:\n    tag_67:\n      swap1\n      0x00\n      mstore\n      keccak256(0x00, 0x20)\n      add\n      sload\n        /* \"contracts/NumberListW6Lecture.sol\":1167:1188  numbers[i] == _number */\n      sub\n        /* \"contracts/NumberListW6Lecture.sol\":1163:1242  if (numbers[i] == _number) {... */\n      tag_70\n      jumpi\n        /* \"contracts/NumberListW6Lecture.sol\":1216:1223  numbers */\n      0x00\n        /* \"contracts/NumberListW6Lecture.sol\":1224:1225  i */\n      dup2\n        /* \"contracts/NumberListW6Lecture.sol\":1216:1226  numbers[i] */\n      dup2\n      sload\n      dup2\n      lt\n      tag_71\n      jumpi\n      tag_72\n      tag_33\n      jump\t// in\n    tag_72:\n    tag_71:\n      swap1\n      0x00\n      mstore\n      keccak256(0x00, 0x20)\n      add\n        /* \"contracts/NumberListW6Lecture.sol\":1209:1226  delete numbers[i] */\n      0x00\n      swap1\n      sstore\n        /* \"contracts/NumberListW6Lecture.sol\":1163:1242  if (numbers[i] == _number) {... */\n    tag_70:\n        /* \"contracts/NumberListW6Lecture.sol\":1143:1146  i++ */\n      dup1\n      dup1\n      0x01\n      add\n      swap2\n      pop\n      pop\n        /* \"contracts/NumberListW6Lecture.sol\":1103:1253  for (uint256 i = 0; i < numbers.length; i++) {... */\n      jump(tag_64)\n    tag_65:\n      pop\n        /* \"contracts/NumberListW6Lecture.sol\":1046:1260  function removeNumber(uint256 _number) public {... */\n      pop\n      jump\t// out\n        /* \"contracts/NumberListW6Lecture.sol\":188:271  function addNumber(uint256 _number) public {... */\n    tag_28:\n        /* \"contracts/NumberListW6Lecture.sol\":242:249  numbers */\n      0x00\n        /* \"contracts/NumberListW6Lecture.sol\":255:262  _number */\n      dup2\n        /* \"contracts/NumberListW6Lecture.sol\":242:263  numbers.push(_number) */\n      swap1\n      dup1\n      0x01\n      dup2\n      sload\n      add\n      dup1\n      dup3\n      sstore\n      dup1\n      swap2\n      pop\n      pop\n      0x01\n      swap1\n      sub\n      swap1\n      0x00\n      mstore\n      keccak256(0x00, 0x20)\n      add\n      0x00\n      swap1\n      swap2\n      swap1\n      swap2\n      swap1\n      swap2\n      pop\n      sstore\n        /* \"contracts/NumberListW6Lecture.sol\":188:271  function addNumber(uint256 _number) public {... */\n      pop\n      jump\t// out\n        /* \"#utility.yul\":7:84   */\n    tag_76:\n        /* \"#utility.yul\":44:51   */\n      0x00\n        /* \"#utility.yul\":73:78   */\n      dup2\n        /* \"#utility.yul\":62:78   */\n      swap1\n      pop\n        /* \"#utility.yul\":7:84   */\n      swap2\n      swap1\n      pop\n      jump\t// out\n        /* \"#utility.yul\":90:208   */\n    tag_77:\n        /* \"#utility.yul\":177:201   */\n      tag_87\n        /* \"#utility.yul\":195:200   */\n      dup2\n        /* \"#utility.yul\":177:201   */\n      tag_76\n      jump\t// in\n    tag_87:\n        /* \"#utility.yul\":172:175   */\n      dup3\n        /* \"#utility.yul\":165:202   */\n      mstore\n        /* \"#utility.yul\":90:208   */\n      pop\n      pop\n      jump\t// out\n        /* \"#utility.yul\":214:436   */\n    tag_12:\n        /* \"#utility.yul\":307:311   */\n      0x00\n        /* \"#utility.yul\":345:347   */\n      0x20\n        /* \"#utility.yul\":334:343   */\n      dup3\n        /* \"#utility.yul\":330:348   */\n      add\n        /* \"#utility.yul\":322:348   */\n      swap1\n      pop\n        /* \"#utility.yul\":358:429   */\n      tag_89\n        /* \"#utility.yul\":426:427   */\n      0x00\n        /* \"#utility.yul\":415:424   */\n      dup4\n        /* \"#utility.yul\":411:428   */\n      add\n        /* \"#utility.yul\":402:408   */\n      dup5\n        /* \"#utility.yul\":358:429   */\n      tag_77\n      jump\t// in\n    tag_89:\n        /* \"#utility.yul\":214:436   */\n      swap3\n      swap2\n      pop\n      pop\n      jump\t// out\n        /* \"#utility.yul\":523:640   */\n    tag_79:\n        /* \"#utility.yul\":632:633   */\n      0x00\n        /* \"#utility.yul\":629:630   */\n      dup1\n        /* \"#utility.yul\":622:634   */\n      revert\n        /* \"#utility.yul\":769:891   */\n    tag_81:\n        /* \"#utility.yul\":842:866   */\n      tag_94\n        /* \"#utility.yul\":860:865   */\n      dup2\n        /* \"#utility.yul\":842:866   */\n      tag_76\n      jump\t// in\n    tag_94:\n        /* \"#utility.yul\":835:840   */\n      dup2\n        /* \"#utility.yul\":832:867   */\n      eq\n        /* \"#utility.yul\":822:885   */\n      tag_95\n      jumpi\n        /* \"#utility.yul\":881:882   */\n      0x00\n        /* \"#utility.yul\":878:879   */\n      dup1\n        /* \"#utility.yul\":871:883   */\n      revert\n        /* \"#utility.yul\":822:885   */\n    tag_95:\n        /* \"#utility.yul\":769:891   */\n      pop\n      jump\t// out\n        /* \"#utility.yul\":897:1036   */\n    tag_82:\n        /* \"#utility.yul\":943:948   */\n      0x00\n        /* \"#utility.yul\":981:987   */\n      dup2\n        /* \"#utility.yul\":968:988   */\n      calldataload\n        /* \"#utility.yul\":959:988   */\n      swap1\n      pop\n        /* \"#utility.yul\":997:1030   */\n      tag_97\n        /* \"#utility.yul\":1024:1029   */\n      dup2\n        /* \"#utility.yul\":997:1030   */\n      tag_81\n      jump\t// in\n    tag_97:\n        /* \"#utility.yul\":897:1036   */\n      swap3\n      swap2\n      pop\n      pop\n      jump\t// out\n        /* \"#utility.yul\":1042:1371   */\n    tag_18:\n        /* \"#utility.yul\":1101:1107   */\n      0x00\n        /* \"#utility.yul\":1150:1152   */\n      0x20\n        /* \"#utility.yul\":1138:1147   */\n      dup3\n        /* \"#utility.yul\":1129:1136   */\n      dup5\n        /* \"#utility.yul\":1125:1148   */\n      sub\n        /* \"#utility.yul\":1121:1153   */\n      slt\n        /* \"#utility.yul\":1118:1237   */\n      iszero\n      tag_99\n      jumpi\n        /* \"#utility.yul\":1156:1235   */\n      tag_100\n      tag_79\n      jump\t// in\n    tag_100:\n        /* \"#utility.yul\":1118:1237   */\n    tag_99:\n        /* \"#utility.yul\":1276:1277   */\n      0x00\n        /* \"#utility.yul\":1301:1354   */\n      tag_101\n        /* \"#utility.yul\":1346:1353   */\n      dup5\n        /* \"#utility.yul\":1337:1343   */\n      dup3\n        /* \"#utility.yul\":1326:1335   */\n      dup6\n        /* \"#utility.yul\":1322:1344   */\n      add\n        /* \"#utility.yul\":1301:1354   */\n      tag_82\n      jump\t// in\n    tag_101:\n        /* \"#utility.yul\":1291:1354   */\n      swap2\n      pop\n        /* \"#utility.yul\":1247:1364   */\n      pop\n        /* \"#utility.yul\":1042:1371   */\n      swap3\n      swap2\n      pop\n      pop\n      jump\t// out\n        /* \"#utility.yul\":1377:1557   */\n    tag_33:\n        /* \"#utility.yul\":1425:1502   */\n      0x4e487b7100000000000000000000000000000000000000000000000000000000\n        /* \"#utility.yul\":1422:1423   */\n      0x00\n        /* \"#utility.yul\":1415:1503   */\n      mstore\n        /* \"#utility.yul\":1522:1526   */\n      0x32\n        /* \"#utility.yul\":1519:1520   */\n      0x04\n        /* \"#utility.yul\":1512:1527   */\n      mstore\n        /* \"#utility.yul\":1546:1550   */\n      0x24\n        /* \"#utility.yul\":1543:1544   */\n      0x00\n        /* \"#utility.yul\":1536:1551   */\n      revert\n        /* \"#utility.yul\":1563:1743   */\n    tag_83:\n        /* \"#utility.yul\":1611:1688   */\n      0x4e487b7100000000000000000000000000000000000000000000000000000000\n        /* \"#utility.yul\":1608:1609   */\n      0x00\n        /* \"#utility.yul\":1601:1689   */\n      mstore\n        /* \"#utility.yul\":1708:1712   */\n      0x11\n        /* \"#utility.yul\":1705:1706   */\n      0x04\n        /* \"#utility.yul\":1698:1713   */\n      mstore\n        /* \"#utility.yul\":1732:1736   */\n      0x24\n        /* \"#utility.yul\":1729:1730   */\n      0x00\n        /* \"#utility.yul\":1722:1737   */\n      revert\n        /* \"#utility.yul\":1749:1940   */\n    tag_53:\n        /* \"#utility.yul\":1789:1792   */\n      0x00\n        /* \"#utility.yul\":1808:1828   */\n      tag_105\n        /* \"#utility.yul\":1826:1827   */\n      dup3\n        /* \"#utility.yul\":1808:1828   */\n      tag_76\n      jump\t// in\n    tag_105:\n        /* \"#utility.yul\":1803:1828   */\n      swap2\n      pop\n        /* \"#utility.yul\":1842:1862   */\n      tag_106\n        /* \"#utility.yul\":1860:1861   */\n      dup4\n        /* \"#utility.yul\":1842:1862   */\n      tag_76\n      jump\t// in\n    tag_106:\n        /* \"#utility.yul\":1837:1862   */\n      swap3\n      pop\n        /* \"#utility.yul\":1885:1886   */\n      dup3\n        /* \"#utility.yul\":1882:1883   */\n      dup3\n        /* \"#utility.yul\":1878:1887   */\n      add\n        /* \"#utility.yul\":1871:1887   */\n      swap1\n      pop\n        /* \"#utility.yul\":1906:1909   */\n      dup1\n        /* \"#utility.yul\":1903:1904   */\n      dup3\n        /* \"#utility.yul\":1900:1910   */\n      gt\n        /* \"#utility.yul\":1897:1933   */\n      iszero\n      tag_107\n      jumpi\n        /* \"#utility.yul\":1913:1931   */\n      tag_108\n      tag_83\n      jump\t// in\n    tag_108:\n        /* \"#utility.yul\":1897:1933   */\n    tag_107:\n        /* \"#utility.yul\":1749:1940   */\n      swap3\n      swap2\n      pop\n      pop\n      jump\t// out\n        /* \"#utility.yul\":1946:2126   */\n    tag_61:\n        /* \"#utility.yul\":1994:2071   */\n      0x4e487b7100000000000000000000000000000000000000000000000000000000\n        /* \"#utility.yul\":1991:1992   */\n      0x00\n        /* \"#utility.yul\":1984:2072   */\n      mstore\n        /* \"#utility.yul\":2091:2095   */\n      0x31\n        /* \"#utility.yul\":2088:2089   */\n      0x04\n        /* \"#utility.yul\":2081:2096   */\n      mstore\n        /* \"#utility.yul\":2115:2119   */\n      0x24\n        /* \"#utility.yul\":2112:2113   */\n      0x00\n        /* \"#utility.yul\":2105:2120   */\n      revert\n\n    auxdata: 0xa26469706673582212209b23ca6ed26d6b160d4fcee71490a7da9c93a3109e9eeac451f8d399f456e21764736f6c634300081a0033\n}\n",
				"bytecode": {
					"linkReferences": {},
					"object": "6080604052348015600e575f80fd5b506104598061001c5f395ff3fe608060405234801561000f575f80fd5b5060043610610060575f3560e01c80633075f55214610064578063569c5f6d14610082578063d39fa233146100a0578063d4ddc588146100d0578063eea54fb6146100da578063fce68023146100f6575b5f80fd5b61006c610112565b60405161007991906102f7565b60405180910390f35b61008a6101af565b60405161009791906102f7565b60405180910390f35b6100ba60048036038101906100b5919061033e565b610200565b6040516100c791906102f7565b60405180910390f35b6100d861021f565b005b6100f460048036038101906100ef919061033e565b610257565b005b610110600480360381019061010b919061033e565b6102b7565b005b5f805f8054905003610126575f90506101ac565b5f805f8154811061013a57610139610369565b5b905f5260205f20015490505f600190505b5f805490508110156101a657815f828154811061016b5761016a610369565b5b905f5260205f2001541115610199575f818154811061018d5761018c610369565b5b905f5260205f20015491505b808060010191505061014b565b50809150505b90565b5f805f90505f5b5f805490508110156101f8575f81815481106101d5576101d4610369565b5b905f5260205f200154826101e991906103c3565b915080806001019150506101b6565b508091505090565b5f818154811061020e575f80fd5b905f5260205f20015f915090505481565b5b5f80805490501115610255575f80548061023d5761023c6103f6565b5b600190038181905f5260205f20015f90559055610220565b565b5f5b5f805490508110156102b357815f828154811061027957610278610369565b5b905f5260205f200154036102a6575f818154811061029a57610299610369565b5b905f5260205f20015f90555b8080600101915050610259565b5050565b5f81908060018154018082558091505060019003905f5260205f20015f909190919091505550565b5f819050919050565b6102f1816102df565b82525050565b5f60208201905061030a5f8301846102e8565b92915050565b5f80fd5b61031d816102df565b8114610327575f80fd5b50565b5f8135905061033881610314565b92915050565b5f6020828403121561035357610352610310565b5b5f6103608482850161032a565b91505092915050565b7f4e487b71000000000000000000000000000000000000000000000000000000005f52603260045260245ffd5b7f4e487b71000000000000000000000000000000000000000000000000000000005f52601160045260245ffd5b5f6103cd826102df565b91506103d8836102df565b92508282019050808211156103f0576103ef610396565b5b92915050565b7f4e487b71000000000000000000000000000000000000000000000000000000005f52603160045260245ffdfea26469706673582212209b23ca6ed26d6b160d4fcee71490a7da9c93a3109e9eeac451f8d399f456e21764736f6c634300081a0033",
					"opcodes": "PUSH1 0x80 PUSH1 0x40 MSTORE CALLVALUE DUP1 ISZERO PUSH1 0xE JUMPI PUSH0 DUP1 REVERT JUMPDEST POP PUSH2 0x459 DUP1 PUSH2 0x1C PUSH0 CODECOPY PUSH0 RETURN INVALID PUSH1 0x80 PUSH1 0x40 MSTORE CALLVALUE DUP1 ISZERO PUSH2 0xF JUMPI PUSH0 DUP1 REVERT JUMPDEST POP PUSH1 0x4 CALLDATASIZE LT PUSH2 0x60 JUMPI PUSH0 CALLDATALOAD PUSH1 0xE0 SHR DUP1 PUSH4 0x3075F552 EQ PUSH2 0x64 JUMPI DUP1 PUSH4 0x569C5F6D EQ PUSH2 0x82 JUMPI DUP1 PUSH4 0xD39FA233 EQ PUSH2 0xA0 JUMPI DUP1 PUSH4 0xD4DDC588 EQ PUSH2 0xD0 JUMPI DUP1 PUSH4 0xEEA54FB6 EQ PUSH2 0xDA JUMPI DUP1 PUSH4 0xFCE68023 EQ PUSH2 0xF6 JUMPI JUMPDEST PUSH0 DUP1 REVERT JUMPDEST PUSH2 0x6C PUSH2 0x112 JUMP JUMPDEST PUSH1 0x40 MLOAD PUSH2 0x79 SWAP2 SWAP1 PUSH2 0x2F7 JUMP JUMPDEST PUSH1 0x40 MLOAD DUP1 SWAP2 SUB SWAP1 RETURN JUMPDEST PUSH2 0x8A PUSH2 0x1AF JUMP JUMPDEST PUSH1 0x40 MLOAD PUSH2 0x97 SWAP2 SWAP1 PUSH2 0x2F7 JUMP JUMPDEST PUSH1 0x40 MLOAD DUP1 SWAP2 SUB SWAP1 RETURN JUMPDEST PUSH2 0xBA PUSH1 0x4 DUP1 CALLDATASIZE SUB DUP2 ADD SWAP1 PUSH2 0xB5 SWAP2 SWAP1 PUSH2 0x33E JUMP JUMPDEST PUSH2 0x200 JUMP JUMPDEST PUSH1 0x40 MLOAD PUSH2 0xC7 SWAP2 SWAP1 PUSH2 0x2F7 JUMP JUMPDEST PUSH1 0x40 MLOAD DUP1 SWAP2 SUB SWAP1 RETURN JUMPDEST PUSH2 0xD8 PUSH2 0x21F JUMP JUMPDEST STOP JUMPDEST PUSH2 0xF4 PUSH1 0x4 DUP1 CALLDATASIZE SUB DUP2 ADD SWAP1 PUSH2 0xEF SWAP2 SWAP1 PUSH2 0x33E JUMP JUMPDEST PUSH2 0x257 JUMP JUMPDEST STOP JUMPDEST PUSH2 0x110 PUSH1 0x4 DUP1 CALLDATASIZE SUB DUP2 ADD SWAP1 PUSH2 0x10B SWAP2 SWAP1 PUSH2 0x33E JUMP JUMPDEST PUSH2 0x2B7 JUMP JUMPDEST STOP JUMPDEST PUSH0 DUP1 PUSH0 DUP1 SLOAD SWAP1 POP SUB PUSH2 0x126 JUMPI PUSH0 SWAP1 POP PUSH2 0x1AC JUMP JUMPDEST PUSH0 DUP1 PUSH0 DUP2 SLOAD DUP2 LT PUSH2 0x13A JUMPI PUSH2 0x139 PUSH2 0x369 JUMP JUMPDEST JUMPDEST SWAP1 PUSH0 MSTORE PUSH1 0x20 PUSH0 KECCAK256 ADD SLOAD SWAP1 POP PUSH0 PUSH1 0x1 SWAP1 POP JUMPDEST PUSH0 DUP1 SLOAD SWAP1 POP DUP2 LT ISZERO PUSH2 0x1A6 JUMPI DUP2 PUSH0 DUP3 DUP2 SLOAD DUP2 LT PUSH2 0x16B JUMPI PUSH2 0x16A PUSH2 0x369 JUMP JUMPDEST JUMPDEST SWAP1 PUSH0 MSTORE PUSH1 0x20 PUSH0 KECCAK256 ADD SLOAD GT ISZERO PUSH2 0x199 JUMPI PUSH0 DUP2 DUP2 SLOAD DUP2 LT PUSH2 0x18D JUMPI PUSH2 0x18C PUSH2 0x369 JUMP JUMPDEST JUMPDEST SWAP1 PUSH0 MSTORE PUSH1 0x20 PUSH0 KECCAK256 ADD SLOAD SWAP2 POP JUMPDEST DUP1 DUP1 PUSH1 0x1 ADD SWAP2 POP POP PUSH2 0x14B JUMP JUMPDEST POP DUP1 SWAP2 POP POP JUMPDEST SWAP1 JUMP JUMPDEST PUSH0 DUP1 PUSH0 SWAP1 POP PUSH0 JUMPDEST PUSH0 DUP1 SLOAD SWAP1 POP DUP2 LT ISZERO PUSH2 0x1F8 JUMPI PUSH0 DUP2 DUP2 SLOAD DUP2 LT PUSH2 0x1D5 JUMPI PUSH2 0x1D4 PUSH2 0x369 JUMP JUMPDEST JUMPDEST SWAP1 PUSH0 MSTORE PUSH1 0x20 PUSH0 KECCAK256 ADD SLOAD DUP3 PUSH2 0x1E9 SWAP2 SWAP1 PUSH2 0x3C3 JUMP JUMPDEST SWAP2 POP DUP1 DUP1 PUSH1 0x1 ADD SWAP2 POP POP PUSH2 0x1B6 JUMP JUMPDEST POP DUP1 SWAP2 POP POP SWAP1 JUMP JUMPDEST PUSH0 DUP2 DUP2 SLOAD DUP2 LT PUSH2 0x20E JUMPI PUSH0 DUP1 REVERT JUMPDEST SWAP1 PUSH0 MSTORE PUSH1 0x20 PUSH0 KECCAK256 ADD PUSH0 SWAP2 POP SWAP1 POP SLOAD DUP2 JUMP JUMPDEST JUMPDEST PUSH0 DUP1 DUP1 SLOAD SWAP1 POP GT ISZERO PUSH2 0x255 JUMPI PUSH0 DUP1 SLOAD DUP1 PUSH2 0x23D JUMPI PUSH2 0x23C PUSH2 0x3F6 JUMP JUMPDEST JUMPDEST PUSH1 0x1 SWAP1 SUB DUP2 DUP2 SWAP1 PUSH0 MSTORE PUSH1 0x20 PUSH0 KECCAK256 ADD PUSH0 SWAP1 SSTORE SWAP1 SSTORE PUSH2 0x220 JUMP JUMPDEST JUMP JUMPDEST PUSH0 JUMPDEST PUSH0 DUP1 SLOAD SWAP1 POP DUP2 LT ISZERO PUSH2 0x2B3 JUMPI DUP2 PUSH0 DUP3 DUP2 SLOAD DUP2 LT PUSH2 0x279 JUMPI PUSH2 0x278 PUSH2 0x369 JUMP JUMPDEST JUMPDEST SWAP1 PUSH0 MSTORE PUSH1 0x20 PUSH0 KECCAK256 ADD SLOAD SUB PUSH2 0x2A6 JUMPI PUSH0 DUP2 DUP2 SLOAD DUP2 LT PUSH2 0x29A JUMPI PUSH2 0x299 PUSH2 0x369 JUMP JUMPDEST JUMPDEST SWAP1 PUSH0 MSTORE PUSH1 0x20 PUSH0 KECCAK256 ADD PUSH0 SWAP1 SSTORE JUMPDEST DUP1 DUP1 PUSH1 0x1 ADD SWAP2 POP POP PUSH2 0x259 JUMP JUMPDEST POP POP JUMP JUMPDEST PUSH0 DUP2 SWAP1 DUP1 PUSH1 0x1 DUP2 SLOAD ADD DUP1 DUP3 SSTORE DUP1 SWAP2 POP POP PUSH1 0x1 SWAP1 SUB SWAP1 PUSH0 MSTORE PUSH1 0x20 PUSH0 KECCAK256 ADD PUSH0 SWAP1 SWAP2 SWAP1 SWAP2 SWAP1 SWAP2 POP SSTORE POP JUMP JUMPDEST PUSH0 DUP2 SWAP1 POP SWAP2 SWAP1 POP JUMP JUMPDEST PUSH2 0x2F1 DUP2 PUSH2 0x2DF JUMP JUMPDEST DUP3 MSTORE POP POP JUMP JUMPDEST PUSH0 PUSH1 0x20 DUP3 ADD SWAP1 POP PUSH2 0x30A PUSH0 DUP4 ADD DUP5 PUSH2 0x2E8 JUMP JUMPDEST SWAP3 SWAP2 POP POP JUMP JUMPDEST PUSH0 DUP1 REVERT JUMPDEST PUSH2 0x31D DUP2 PUSH2 0x2DF JUMP JUMPDEST DUP2 EQ PUSH2 0x327 JUMPI PUSH0 DUP1 REVERT JUMPDEST POP JUMP JUMPDEST PUSH0 DUP2 CALLDATALOAD SWAP1 POP PUSH2 0x338 DUP2 PUSH2 0x314 JUMP JUMPDEST SWAP3 SWAP2 POP POP JUMP JUMPDEST PUSH0 PUSH1 0x20 DUP3 DUP5 SUB SLT ISZERO PUSH2 0x353 JUMPI PUSH2 0x352 PUSH2 0x310 JUMP JUMPDEST JUMPDEST PUSH0 PUSH2 0x360 DUP5 DUP3 DUP6 ADD PUSH2 0x32A JUMP JUMPDEST SWAP2 POP POP SWAP3 SWAP2 POP POP JUMP JUMPDEST PUSH32 0x4E487B7100000000000000000000000000000000000000000000000000000000 PUSH0 MSTORE PUSH1 0x32 PUSH1 0x4 MSTORE PUSH1 0x24 PUSH0 REVERT JUMPDEST PUSH32 0x4E487B7100000000000000000000000000000000000000000000000000000000 PUSH0 MSTORE PUSH1 0x11 PUSH1 0x4 MSTORE PUSH1 0x24 PUSH0 REVERT JUMPDEST PUSH0 PUSH2 0x3CD DUP3 PUSH2 0x2DF JUMP JUMPDEST SWAP2 POP PUSH2 0x3D8 DUP4 PUSH2 0x2DF JUMP JUMPDEST SWAP3 POP DUP3 DUP3 ADD SWAP1 POP DUP1 DUP3 GT ISZERO PUSH2 0x3F0 JUMPI PUSH2 0x3EF PUSH2 0x396 JUMP JUMPDEST JUMPDEST SWAP3 SWAP2 POP POP JUMP JUMPDEST PUSH32 0x4E487B7100000000000000000000000000000000000000000000000000000000 PUSH0 MSTORE PUSH1 0x31 PUSH1 0x4 MSTORE PUSH1 0x24 PUSH0 REVERT INVALID LOG2 PUSH5 0x6970667358 0x22 SLT KECCAK256 SWAP12 0x23 0xCA PUSH15 0xD26D6B160D4FCEE71490A7DA9C93A3 LT SWAP15 SWAP15 0xEA 0xC4 MLOAD 0xF8 0xD3 SWAP10 DELEGATECALL JUMP 0xE2 OR PUSH5 0x736F6C6343 STOP ADDMOD BYTE STOP CALLER "
				},
				"gasEstimates": {
					"creation": {
						"codeDepositCost": "222600",
						"executionCost": "261",
						"totalCost": "222861"
					},
					"external": {
						"addNumber(uint256)": "46908",
						"clearList()": "infinite",
						"getMax()": "infinite",
						"getSum()": "infinite",
						"numbers(uint256)": "infinite",
						"removeNumber(uint256)": "infinite"
					}
				},
				"methodIdentifiers": {
					"addNumber(uint256)": "fce68023",
					"clearList()": "d4ddc588",
					"getMax()": "3075f552",
					"getSum()": "569c5f6d",
					"numbers(uint256)": "d39fa233",
					"removeNumber(uint256)": "eea54fb6"
				}
			},
			"storageLayout": {
				"storage": [
					{
						"astId": 4,
						"contract": "contracts/NumberListW6Lecture.sol:NumberList",
						"label": "numbers",
						"offset": 0,
						"slot": "0",
						"type": "t_array(t_uint256)dyn_storage"
					}
				],
				"types": {
					"t_array(t_uint256)dyn_storage": {
						"base": "t_uint256",
						"encoding": "dynamic_array",
						"label": "uint256[]",
						"numberOfBytes": "32"
					},
					"t_uint256": {
						"encoding": "inplace",
						"label": "uint256",
						"numberOfBytes": "32"
					}
				}
			},
			"userdoc": {
				"kind": "user",
				"methods": {},
				"version": 1
			}
		}
	}
}