{
	"contracts/Marketplace.sol": {
		"Marketplace": {
			"abi": [
				{
					"anonymous": false,
					"inputs": [
						{
							"indexed": false,
							"internalType": "uint256",
							"name": "productId",
							"type": "uint256"
						},
						{
							"indexed": false,
							"internalType": "string",
							"name": "name",
							"type": "string"
						},
						{
							"indexed": false,
							"internalType": "uint256",
							"name": "price",
							"type": "uint256"
						},
						{
							"indexed": false,
							"internalType": "address",
							"name": "seller",
							"type": "address"
						}
					],
					"name": "productAdded",
					"type": "event"
				},
				{
					"anonymous": false,
					"inputs": [
						{
							"indexed": false,
							"internalType": "uint256",
							"name": "productId",
							"type": "uint256"
						},
						{
							"indexed": false,
							"internalType": "address",
							"name": "buyer",
							"type": "address"
						}
					],
					"name": "productPurchased",
					"type": "event"
				},
				{
					"inputs": [
						{
							"internalType": "string",
							"name": "_name",
							"type": "string"
						},
						{
							"internalType": "uint256",
							"name": "_price",
							"type": "uint256"
						}
					],
					"name": "addProduct",
					"outputs": [],
					"stateMutability": "nonpayable",
					"type": "function"
				},
				{
					"inputs": [
						{
							"internalType": "uint256",
							"name": "_productId",
							"type": "uint256"
						}
					],
					"name": "buyProduct",
					"outputs": [],
					"stateMutability": "payable",
					"type": "function"
				},
				{
					"inputs": [
						{
							"internalType": "uint256",
							"name": "_productId",
							"type": "uint256"
						}
					],
					"name": "getProduct",
					"outputs": [
						{
							"internalType": "string",
							"name": "",
							"type": "string"
						},
						{
							"internalType": "uint256",
							"name": "",
							"type": "uint256"
						},
						{
							"internalType": "address",
							"name": "",
							"type": "address"
						},
						{
							"internalType": "bool",
							"name": "",
							"type": "bool"
						}
					],
					"stateMutability": "view",
					"type": "function"
				}
			],
			"devdoc": {
				"kind": "dev",
				"methods": {},
				"version": 1
			},
			"evm": {
				"assembly": "    /* \"contracts/Marketplace.sol\":242:2468  contract Marketplace {... */\n  mstore(0x40, 0x80)\n  callvalue\n  dup1\n  iszero\n  tag_1\n  jumpi\n  0x00\n  dup1\n  revert\ntag_1:\n  pop\n  dataSize(sub_0)\n  dup1\n  dataOffset(sub_0)\n  0x00\n  codecopy\n  0x00\n  return\nstop\n\nsub_0: assembly {\n        /* \"contracts/Marketplace.sol\":242:2468  contract Marketplace {... */\n      mstore(0x40, 0x80)\n      jumpi(tag_1, lt(calldatasize, 0x04))\n      shr(0xe0, calldataload(0x00))\n      dup1\n      0x8642269e\n      eq\n      tag_2\n      jumpi\n      dup1\n      0xb15247d9\n      eq\n      tag_3\n      jumpi\n      dup1\n      0xb9db15b4\n      eq\n      tag_4\n      jumpi\n    tag_1:\n      0x00\n      dup1\n      revert\n        /* \"contracts/Marketplace.sol\":1297:2019  function buyProduct(uint256 _productId) public payable { //payable lets the function accept ether... */\n    tag_2:\n      tag_5\n      0x04\n      dup1\n      calldatasize\n      sub\n      dup2\n      add\n      swap1\n      tag_6\n      swap2\n      swap1\n      tag_7\n      jump\t// in\n    tag_6:\n      tag_8\n      jump\t// in\n    tag_5:\n      stop\n        /* \"contracts/Marketplace.sol\":671:1289  function addProduct(string memory _name, uint256 _price) public {... */\n    tag_3:\n      callvalue\n      dup1\n      iszero\n      tag_9\n      jumpi\n      0x00\n      dup1\n      revert\n    tag_9:\n      pop\n      tag_10\n      0x04\n      dup1\n      calldatasize\n      sub\n      dup2\n      add\n      swap1\n      tag_11\n      swap2\n      swap1\n      tag_12\n      jump\t// in\n    tag_11:\n      tag_13\n      jump\t// in\n    tag_10:\n      stop\n        /* \"contracts/Marketplace.sol\":2027:2465  function getProduct(uint256 _productId) public view returns (string memory, uint256, address, bool) {... */\n    tag_4:\n      callvalue\n      dup1\n      iszero\n      tag_14\n      jumpi\n      0x00\n      dup1\n      revert\n    tag_14:\n      pop\n      tag_15\n      0x04\n      dup1\n      calldatasize\n      sub\n      dup2\n      add\n      swap1\n      tag_16\n      swap2\n      swap1\n      tag_7\n      jump\t// in\n    tag_16:\n      tag_17\n      jump\t// in\n    tag_15:\n      mload(0x40)\n      tag_18\n      swap5\n      swap4\n      swap3\n      swap2\n      swap1\n      tag_19\n      jump\t// in\n    tag_18:\n      mload(0x40)\n      dup1\n      swap2\n      sub\n      swap1\n      return\n        /* \"contracts/Marketplace.sol\":1297:2019  function buyProduct(uint256 _productId) public payable { //payable lets the function accept ether... */\n    tag_8:\n        /* \"contracts/Marketplace.sol\":1451:1474  Product storage product */\n      0x00\n        /* \"contracts/Marketplace.sol\":1477:1485  products */\n      dup1\n        /* \"contracts/Marketplace.sol\":1477:1497  products[_productId] */\n      0x00\n        /* \"contracts/Marketplace.sol\":1486:1496  _productId */\n      dup4\n        /* \"contracts/Marketplace.sol\":1477:1497  products[_productId] */\n      dup2\n      mstore\n      0x20\n      add\n      swap1\n      dup2\n      mstore\n      0x20\n      add\n      0x00\n      keccak256\n        /* \"contracts/Marketplace.sol\":1451:1497  Product storage product = products[_productId] */\n      swap1\n      pop\n        /* \"contracts/Marketplace.sol\":1612:1613  0 */\n      0x00\n        /* \"contracts/Marketplace.sol\":1591:1598  product */\n      dup2\n        /* \"contracts/Marketplace.sol\":1591:1608  product.productId */\n      0x00\n      add\n      sload\n        /* \"contracts/Marketplace.sol\":1591:1613  product.productId != 0 */\n      sub\n        /* \"contracts/Marketplace.sol\":1583:1640  require(product.productId != 0, \"Product does not exist\") */\n      tag_21\n      jumpi\n      mload(0x40)\n      0x08c379a000000000000000000000000000000000000000000000000000000000\n      dup2\n      mstore\n      0x04\n      add\n      tag_22\n      swap1\n      tag_23\n      jump\t// in\n    tag_22:\n      mload(0x40)\n      dup1\n      swap2\n      sub\n      swap1\n      revert\n    tag_21:\n        /* \"contracts/Marketplace.sol\":1660:1667  product */\n      dup1\n        /* \"contracts/Marketplace.sol\":1660:1674  product.isSold */\n      0x03\n      add\n      0x14\n      swap1\n      sload\n      swap1\n      0x0100\n      exp\n      swap1\n      div\n      0xff\n      and\n        /* \"contracts/Marketplace.sol\":1659:1674  !product.isSold */\n      iszero\n        /* \"contracts/Marketplace.sol\":1651:1701  require(!product.isSold, \"Product has been sold.\") */\n      tag_24\n      jumpi\n      mload(0x40)\n      0x08c379a000000000000000000000000000000000000000000000000000000000\n      dup2\n      mstore\n      0x04\n      add\n      tag_25\n      swap1\n      tag_26\n      jump\t// in\n    tag_25:\n      mload(0x40)\n      dup1\n      swap2\n      sub\n      swap1\n      revert\n    tag_24:\n        /* \"contracts/Marketplace.sol\":1733:1740  product */\n      dup1\n        /* \"contracts/Marketplace.sol\":1733:1746  product.price */\n      0x02\n      add\n      sload\n        /* \"contracts/Marketplace.sol\":1720:1729  msg.value */\n      callvalue\n        /* \"contracts/Marketplace.sol\":1720:1746  msg.value == product.price */\n      eq\n        /* \"contracts/Marketplace.sol\":1712:1769  require(msg.value == product.price, \"Incorrect payment.\") */\n      tag_27\n      jumpi\n      mload(0x40)\n      0x08c379a000000000000000000000000000000000000000000000000000000000\n      dup2\n      mstore\n      0x04\n      add\n      tag_28\n      swap1\n      tag_29\n      jump\t// in\n    tag_28:\n      mload(0x40)\n      dup1\n      swap2\n      sub\n      swap1\n      revert\n    tag_27:\n        /* \"contracts/Marketplace.sol\":1802:1809  product */\n      dup1\n        /* \"contracts/Marketplace.sol\":1802:1816  product.seller */\n      0x03\n      add\n      0x00\n      swap1\n      sload\n      swap1\n      0x0100\n      exp\n      swap1\n      div\n      0xffffffffffffffffffffffffffffffffffffffff\n      and\n        /* \"contracts/Marketplace.sol\":1788:1816  msg.sender != product.seller */\n      0xffffffffffffffffffffffffffffffffffffffff\n      and\n        /* \"contracts/Marketplace.sol\":1788:1798  msg.sender */\n      caller\n        /* \"contracts/Marketplace.sol\":1788:1816  msg.sender != product.seller */\n      0xffffffffffffffffffffffffffffffffffffffff\n      and\n      sub\n        /* \"contracts/Marketplace.sol\":1780:1857  require(msg.sender != product.seller, \"Seller cannot buy their own product.\") */\n      tag_30\n      jumpi\n      mload(0x40)\n      0x08c379a000000000000000000000000000000000000000000000000000000000\n      dup2\n      mstore\n      0x04\n      add\n      tag_31\n      swap1\n      tag_32\n      jump\t// in\n    tag_31:\n      mload(0x40)\n      dup1\n      swap2\n      sub\n      swap1\n      revert\n    tag_30:\n        /* \"contracts/Marketplace.sol\":1923:1927  true */\n      0x01\n        /* \"contracts/Marketplace.sol\":1906:1913  product */\n      dup2\n        /* \"contracts/Marketplace.sol\":1906:1920  product.isSold */\n      0x03\n      add\n      0x14\n        /* \"contracts/Marketplace.sol\":1906:1927  product.isSold = true */\n      0x0100\n      exp\n      dup2\n      sload\n      dup2\n      0xff\n      mul\n      not\n      and\n      swap1\n      dup4\n      iszero\n      iszero\n      mul\n      or\n      swap1\n      sstore\n      pop\n        /* \"contracts/Marketplace.sol\":1974:1981  product */\n      dup1\n        /* \"contracts/Marketplace.sol\":1974:1988  product.seller */\n      0x03\n      add\n      0x00\n      swap1\n      sload\n      swap1\n      0x0100\n      exp\n      swap1\n      div\n      0xffffffffffffffffffffffffffffffffffffffff\n      and\n        /* \"contracts/Marketplace.sol\":1966:1998  payable(product.seller).transfer */\n      0xffffffffffffffffffffffffffffffffffffffff\n      and\n        /* \"contracts/Marketplace.sol\":1966:2009  payable(product.seller).transfer(msg.value) */\n      0x08fc\n        /* \"contracts/Marketplace.sol\":1999:2008  msg.value */\n      callvalue\n        /* \"contracts/Marketplace.sol\":1966:2009  payable(product.seller).transfer(msg.value) */\n      swap1\n      dup2\n      iszero\n      mul\n      swap1\n      mload(0x40)\n      0x00\n      mload(0x40)\n      dup1\n      dup4\n      sub\n      dup2\n      dup6\n      dup9\n      dup9\n      call\n      swap4\n      pop\n      pop\n      pop\n      pop\n      iszero\n      dup1\n      iszero\n      tag_34\n      jumpi\n      returndatasize\n      0x00\n      dup1\n      returndatacopy\n      revert(0x00, returndatasize)\n    tag_34:\n      pop\n        /* \"contracts/Marketplace.sol\":1352:2019  { //payable lets the function accept ether... */\n      pop\n        /* \"contracts/Marketplace.sol\":1297:2019  function buyProduct(uint256 _productId) public payable { //payable lets the function accept ether... */\n      pop\n      jump\t// out\n        /* \"contracts/Marketplace.sol\":671:1289  function addProduct(string memory _name, uint256 _price) public {... */\n    tag_13:\n        /* \"contracts/Marketplace.sol\":831:832  0 */\n      0x00\n        /* \"contracts/Marketplace.sol\":815:820  _name */\n      dup3\n        /* \"contracts/Marketplace.sol\":809:828  bytes(_name).length */\n      mload\n        /* \"contracts/Marketplace.sol\":809:832  bytes(_name).length > 0 */\n      gt\n        /* \"contracts/Marketplace.sol\":801:850  require(bytes(_name).length > 0, \"No name data.\") */\n      tag_36\n      jumpi\n      mload(0x40)\n      0x08c379a000000000000000000000000000000000000000000000000000000000\n      dup2\n      mstore\n      0x04\n      add\n      tag_37\n      swap1\n      tag_38\n      jump\t// in\n    tag_37:\n      mload(0x40)\n      dup1\n      swap2\n      sub\n      swap1\n      revert\n    tag_36:\n        /* \"contracts/Marketplace.sol\":878:879  0 */\n      0x00\n        /* \"contracts/Marketplace.sol\":869:875  _price */\n      dup2\n        /* \"contracts/Marketplace.sol\":869:879  _price > 0 */\n      gt\n        /* \"contracts/Marketplace.sol\":861:913  require(_price > 0, \"Price must be greater than 0.\") */\n      tag_39\n      jumpi\n      mload(0x40)\n      0x08c379a000000000000000000000000000000000000000000000000000000000\n      dup2\n      mstore\n      0x04\n      add\n      tag_40\n      swap1\n      tag_41\n      jump\t// in\n    tag_40:\n      mload(0x40)\n      dup1\n      swap2\n      sub\n      swap1\n      revert\n    tag_39:\n        /* \"contracts/Marketplace.sol\":991:1005  productCounter */\n      0x01\n      0x00\n        /* \"contracts/Marketplace.sol\":991:1007  productCounter++ */\n      dup2\n      sload\n      dup1\n      swap3\n      swap2\n      swap1\n      tag_42\n      swap1\n      tag_43\n      jump\t// in\n    tag_42:\n      swap2\n      swap1\n      pop\n      sstore\n      pop\n        /* \"contracts/Marketplace.sol\":1102:1281  Product({... */\n      mload(0x40)\n      dup1\n      0xa0\n      add\n      0x40\n      mstore\n      dup1\n        /* \"contracts/Marketplace.sol\":1136:1150  productCounter */\n      sload(0x01)\n        /* \"contracts/Marketplace.sol\":1102:1281  Product({... */\n      dup2\n      mstore\n      0x20\n      add\n        /* \"contracts/Marketplace.sol\":1171:1176  _name */\n      dup4\n        /* \"contracts/Marketplace.sol\":1102:1281  Product({... */\n      dup2\n      mstore\n      0x20\n      add\n        /* \"contracts/Marketplace.sol\":1198:1204  _price */\n      dup3\n        /* \"contracts/Marketplace.sol\":1102:1281  Product({... */\n      dup2\n      mstore\n      0x20\n      add\n        /* \"contracts/Marketplace.sol\":1227:1237  msg.sender */\n      caller\n        /* \"contracts/Marketplace.sol\":1102:1281  Product({... */\n      0xffffffffffffffffffffffffffffffffffffffff\n      and\n      dup2\n      mstore\n      0x20\n      add\n        /* \"contracts/Marketplace.sol\":1260:1265  false */\n      0x00\n        /* \"contracts/Marketplace.sol\":1102:1281  Product({... */\n      iszero\n      iszero\n      dup2\n      mstore\n      pop\n        /* \"contracts/Marketplace.sol\":1075:1083  products */\n      0x00\n        /* \"contracts/Marketplace.sol\":1075:1099  products[productCounter] */\n      dup1\n        /* \"contracts/Marketplace.sol\":1084:1098  productCounter */\n      sload(0x01)\n        /* \"contracts/Marketplace.sol\":1075:1099  products[productCounter] */\n      dup2\n      mstore\n      0x20\n      add\n      swap1\n      dup2\n      mstore\n      0x20\n      add\n      0x00\n      keccak256\n        /* \"contracts/Marketplace.sol\":1075:1281  products[productCounter] = Product({... */\n      0x00\n      dup3\n      add\n      mload\n      dup2\n      0x00\n      add\n      sstore\n      0x20\n      dup3\n      add\n      mload\n      dup2\n      0x01\n      add\n      swap1\n      dup2\n      tag_44\n      swap2\n      swap1\n      tag_45\n      jump\t// in\n    tag_44:\n      pop\n      0x40\n      dup3\n      add\n      mload\n      dup2\n      0x02\n      add\n      sstore\n      0x60\n      dup3\n      add\n      mload\n      dup2\n      0x03\n      add\n      exp(0x0100, 0x00)\n      dup2\n      sload\n      dup2\n      0xffffffffffffffffffffffffffffffffffffffff\n      mul\n      not\n      and\n      swap1\n      dup4\n      0xffffffffffffffffffffffffffffffffffffffff\n      and\n      mul\n      or\n      swap1\n      sstore\n      pop\n      0x80\n      dup3\n      add\n      mload\n      dup2\n      0x03\n      add\n      exp(0x0100, 0x14)\n      dup2\n      sload\n      dup2\n      0xff\n      mul\n      not\n      and\n      swap1\n      dup4\n      iszero\n      iszero\n      mul\n      or\n      swap1\n      sstore\n      pop\n      swap1\n      pop\n      pop\n        /* \"contracts/Marketplace.sol\":671:1289  function addProduct(string memory _name, uint256 _price) public {... */\n      pop\n      pop\n      jump\t// out\n        /* \"contracts/Marketplace.sol\":2027:2465  function getProduct(uint256 _productId) public view returns (string memory, uint256, address, bool) {... */\n    tag_17:\n        /* \"contracts/Marketplace.sol\":2088:2101  string memory */\n      0x60\n        /* \"contracts/Marketplace.sol\":2103:2110  uint256 */\n      0x00\n        /* \"contracts/Marketplace.sol\":2112:2119  address */\n      dup1\n        /* \"contracts/Marketplace.sol\":2121:2125  bool */\n      0x00\n        /* \"contracts/Marketplace.sol\":2185:2208  Product storage product */\n      dup1\n        /* \"contracts/Marketplace.sol\":2211:2219  products */\n      0x00\n        /* \"contracts/Marketplace.sol\":2211:2231  products[_productId] */\n      dup1\n        /* \"contracts/Marketplace.sol\":2220:2230  _productId */\n      dup8\n        /* \"contracts/Marketplace.sol\":2211:2231  products[_productId] */\n      dup2\n      mstore\n      0x20\n      add\n      swap1\n      dup2\n      mstore\n      0x20\n      add\n      0x00\n      keccak256\n        /* \"contracts/Marketplace.sol\":2185:2231  Product storage product = products[_productId] */\n      swap1\n      pop\n        /* \"contracts/Marketplace.sol\":2312:2313  0 */\n      0x00\n        /* \"contracts/Marketplace.sol\":2291:2298  product */\n      dup2\n        /* \"contracts/Marketplace.sol\":2291:2308  product.productId */\n      0x00\n      add\n      sload\n        /* \"contracts/Marketplace.sol\":2291:2313  product.productId != 0 */\n      sub\n        /* \"contracts/Marketplace.sol\":2283:2340  require(product.productId != 0, \"Product does not exist\") */\n      tag_47\n      jumpi\n      mload(0x40)\n      0x08c379a000000000000000000000000000000000000000000000000000000000\n      dup2\n      mstore\n      0x04\n      add\n      tag_48\n      swap1\n      tag_23\n      jump\t// in\n    tag_48:\n      mload(0x40)\n      dup1\n      swap2\n      sub\n      swap1\n      revert\n    tag_47:\n        /* \"contracts/Marketplace.sol\":2395:2402  product */\n      dup1\n        /* \"contracts/Marketplace.sol\":2395:2407  product.name */\n      0x01\n      add\n        /* \"contracts/Marketplace.sol\":2409:2416  product */\n      dup2\n        /* \"contracts/Marketplace.sol\":2409:2422  product.price */\n      0x02\n      add\n      sload\n        /* \"contracts/Marketplace.sol\":2424:2431  product */\n      dup3\n        /* \"contracts/Marketplace.sol\":2424:2438  product.seller */\n      0x03\n      add\n      0x00\n      swap1\n      sload\n      swap1\n      0x0100\n      exp\n      swap1\n      div\n      0xffffffffffffffffffffffffffffffffffffffff\n      and\n        /* \"contracts/Marketplace.sol\":2440:2447  product */\n      dup4\n        /* \"contracts/Marketplace.sol\":2440:2454  product.isSold */\n      0x03\n      add\n      0x14\n      swap1\n      sload\n      swap1\n      0x0100\n      exp\n      swap1\n      div\n      0xff\n      and\n        /* \"contracts/Marketplace.sol\":2388:2455  return(product.name, product.price, product.seller, product.isSold) */\n      dup4\n      dup1\n      sload\n      tag_49\n      swap1\n      tag_50\n      jump\t// in\n    tag_49:\n      dup1\n      0x1f\n      add\n      0x20\n      dup1\n      swap2\n      div\n      mul\n      0x20\n      add\n      mload(0x40)\n      swap1\n      dup2\n      add\n      0x40\n      mstore\n      dup1\n      swap3\n      swap2\n      swap1\n      dup2\n      dup2\n      mstore\n      0x20\n      add\n      dup3\n      dup1\n      sload\n      tag_51\n      swap1\n      tag_50\n      jump\t// in\n    tag_51:\n      dup1\n      iszero\n      tag_52\n      jumpi\n      dup1\n      0x1f\n      lt\n      tag_53\n      jumpi\n      0x0100\n      dup1\n      dup4\n      sload\n      div\n      mul\n      dup4\n      mstore\n      swap2\n      0x20\n      add\n      swap2\n      jump(tag_52)\n    tag_53:\n      dup3\n      add\n      swap2\n      swap1\n      0x00\n      mstore\n      keccak256(0x00, 0x20)\n      swap1\n    tag_54:\n      dup2\n      sload\n      dup2\n      mstore\n      swap1\n      0x01\n      add\n      swap1\n      0x20\n      add\n      dup1\n      dup4\n      gt\n      tag_54\n      jumpi\n      dup3\n      swap1\n      sub\n      0x1f\n      and\n      dup3\n      add\n      swap2\n    tag_52:\n      pop\n      pop\n      pop\n      pop\n      pop\n      swap4\n      pop\n      swap5\n      pop\n      swap5\n      pop\n      swap5\n      pop\n      swap5\n      pop\n      pop\n        /* \"contracts/Marketplace.sol\":2027:2465  function getProduct(uint256 _productId) public view returns (string memory, uint256, address, bool) {... */\n      swap2\n      swap4\n      pop\n      swap2\n      swap4\n      jump\t// out\n        /* \"#utility.yul\":7:82   */\n    tag_55:\n        /* \"#utility.yul\":40:46   */\n      0x00\n        /* \"#utility.yul\":73:75   */\n      0x40\n        /* \"#utility.yul\":67:76   */\n      mload\n        /* \"#utility.yul\":57:76   */\n      swap1\n      pop\n        /* \"#utility.yul\":7:82   */\n      swap1\n      jump\t// out\n        /* \"#utility.yul\":88:205   */\n    tag_56:\n        /* \"#utility.yul\":197:198   */\n      0x00\n        /* \"#utility.yul\":194:195   */\n      dup1\n        /* \"#utility.yul\":187:199   */\n      revert\n        /* \"#utility.yul\":211:328   */\n    tag_57:\n        /* \"#utility.yul\":320:321   */\n      0x00\n        /* \"#utility.yul\":317:318   */\n      dup1\n        /* \"#utility.yul\":310:322   */\n      revert\n        /* \"#utility.yul\":334:411   */\n    tag_58:\n        /* \"#utility.yul\":371:378   */\n      0x00\n        /* \"#utility.yul\":400:405   */\n      dup2\n        /* \"#utility.yul\":389:405   */\n      swap1\n      pop\n        /* \"#utility.yul\":334:411   */\n      swap2\n      swap1\n      pop\n      jump\t// out\n        /* \"#utility.yul\":417:539   */\n    tag_59:\n        /* \"#utility.yul\":490:514   */\n      tag_116\n        /* \"#utility.yul\":508:513   */\n      dup2\n        /* \"#utility.yul\":490:514   */\n      tag_58\n      jump\t// in\n    tag_116:\n        /* \"#utility.yul\":483:488   */\n      dup2\n        /* \"#utility.yul\":480:515   */\n      eq\n        /* \"#utility.yul\":470:533   */\n      tag_117\n      jumpi\n        /* \"#utility.yul\":529:530   */\n      0x00\n        /* \"#utility.yul\":526:527   */\n      dup1\n        /* \"#utility.yul\":519:531   */\n      revert\n        /* \"#utility.yul\":470:533   */\n    tag_117:\n        /* \"#utility.yul\":417:539   */\n      pop\n      jump\t// out\n        /* \"#utility.yul\":545:684   */\n    tag_60:\n        /* \"#utility.yul\":591:596   */\n      0x00\n        /* \"#utility.yul\":629:635   */\n      dup2\n        /* \"#utility.yul\":616:636   */\n      calldataload\n        /* \"#utility.yul\":607:636   */\n      swap1\n      pop\n        /* \"#utility.yul\":645:678   */\n      tag_119\n        /* \"#utility.yul\":672:677   */\n      dup2\n        /* \"#utility.yul\":645:678   */\n      tag_59\n      jump\t// in\n    tag_119:\n        /* \"#utility.yul\":545:684   */\n      swap3\n      swap2\n      pop\n      pop\n      jump\t// out\n        /* \"#utility.yul\":690:1019   */\n    tag_7:\n        /* \"#utility.yul\":749:755   */\n      0x00\n        /* \"#utility.yul\":798:800   */\n      0x20\n        /* \"#utility.yul\":786:795   */\n      dup3\n        /* \"#utility.yul\":777:784   */\n      dup5\n        /* \"#utility.yul\":773:796   */\n      sub\n        /* \"#utility.yul\":769:801   */\n      slt\n        /* \"#utility.yul\":766:885   */\n      iszero\n      tag_121\n      jumpi\n        /* \"#utility.yul\":804:883   */\n      tag_122\n      tag_56\n      jump\t// in\n    tag_122:\n        /* \"#utility.yul\":766:885   */\n    tag_121:\n        /* \"#utility.yul\":924:925   */\n      0x00\n        /* \"#utility.yul\":949:1002   */\n      tag_123\n        /* \"#utility.yul\":994:1001   */\n      dup5\n        /* \"#utility.yul\":985:991   */\n      dup3\n        /* \"#utility.yul\":974:983   */\n      dup6\n        /* \"#utility.yul\":970:992   */\n      add\n        /* \"#utility.yul\":949:1002   */\n      tag_60\n      jump\t// in\n    tag_123:\n        /* \"#utility.yul\":939:1002   */\n      swap2\n      pop\n        /* \"#utility.yul\":895:1012   */\n      pop\n        /* \"#utility.yul\":690:1019   */\n      swap3\n      swap2\n      pop\n      pop\n      jump\t// out\n        /* \"#utility.yul\":1025:1142   */\n    tag_61:\n        /* \"#utility.yul\":1134:1135   */\n      0x00\n        /* \"#utility.yul\":1131:1132   */\n      dup1\n        /* \"#utility.yul\":1124:1136   */\n      revert\n        /* \"#utility.yul\":1148:1265   */\n    tag_62:\n        /* \"#utility.yul\":1257:1258   */\n      0x00\n        /* \"#utility.yul\":1254:1255   */\n      dup1\n        /* \"#utility.yul\":1247:1259   */\n      revert\n        /* \"#utility.yul\":1271:1373   */\n    tag_63:\n        /* \"#utility.yul\":1312:1318   */\n      0x00\n        /* \"#utility.yul\":1363:1365   */\n      0x1f\n        /* \"#utility.yul\":1359:1366   */\n      not\n        /* \"#utility.yul\":1354:1356   */\n      0x1f\n        /* \"#utility.yul\":1347:1352   */\n      dup4\n        /* \"#utility.yul\":1343:1357   */\n      add\n        /* \"#utility.yul\":1339:1367   */\n      and\n        /* \"#utility.yul\":1329:1367   */\n      swap1\n      pop\n        /* \"#utility.yul\":1271:1373   */\n      swap2\n      swap1\n      pop\n      jump\t// out\n        /* \"#utility.yul\":1379:1559   */\n    tag_64:\n        /* \"#utility.yul\":1427:1504   */\n      0x4e487b7100000000000000000000000000000000000000000000000000000000\n        /* \"#utility.yul\":1424:1425   */\n      0x00\n        /* \"#utility.yul\":1417:1505   */\n      mstore\n        /* \"#utility.yul\":1524:1528   */\n      0x41\n        /* \"#utility.yul\":1521:1522   */\n      0x04\n        /* \"#utility.yul\":1514:1529   */\n      mstore\n        /* \"#utility.yul\":1548:1552   */\n      0x24\n        /* \"#utility.yul\":1545:1546   */\n      0x00\n        /* \"#utility.yul\":1538:1553   */\n      revert\n        /* \"#utility.yul\":1565:1846   */\n    tag_65:\n        /* \"#utility.yul\":1648:1675   */\n      tag_129\n        /* \"#utility.yul\":1670:1674   */\n      dup3\n        /* \"#utility.yul\":1648:1675   */\n      tag_63\n      jump\t// in\n    tag_129:\n        /* \"#utility.yul\":1640:1646   */\n      dup2\n        /* \"#utility.yul\":1636:1676   */\n      add\n        /* \"#utility.yul\":1778:1784   */\n      dup2\n        /* \"#utility.yul\":1766:1776   */\n      dup2\n        /* \"#utility.yul\":1763:1785   */\n      lt\n        /* \"#utility.yul\":1742:1760   */\n      0xffffffffffffffff\n        /* \"#utility.yul\":1730:1740   */\n      dup3\n        /* \"#utility.yul\":1727:1761   */\n      gt\n        /* \"#utility.yul\":1724:1786   */\n      or\n        /* \"#utility.yul\":1721:1809   */\n      iszero\n      tag_130\n      jumpi\n        /* \"#utility.yul\":1789:1807   */\n      tag_131\n      tag_64\n      jump\t// in\n    tag_131:\n        /* \"#utility.yul\":1721:1809   */\n    tag_130:\n        /* \"#utility.yul\":1829:1839   */\n      dup1\n        /* \"#utility.yul\":1825:1827   */\n      0x40\n        /* \"#utility.yul\":1818:1840   */\n      mstore\n        /* \"#utility.yul\":1608:1846   */\n      pop\n        /* \"#utility.yul\":1565:1846   */\n      pop\n      pop\n      jump\t// out\n        /* \"#utility.yul\":1852:1981   */\n    tag_66:\n        /* \"#utility.yul\":1886:1892   */\n      0x00\n        /* \"#utility.yul\":1913:1933   */\n      tag_133\n      tag_55\n      jump\t// in\n    tag_133:\n        /* \"#utility.yul\":1903:1933   */\n      swap1\n      pop\n        /* \"#utility.yul\":1942:1975   */\n      tag_134\n        /* \"#utility.yul\":1970:1974   */\n      dup3\n        /* \"#utility.yul\":1962:1968   */\n      dup3\n        /* \"#utility.yul\":1942:1975   */\n      tag_65\n      jump\t// in\n    tag_134:\n        /* \"#utility.yul\":1852:1981   */\n      swap2\n      swap1\n      pop\n      jump\t// out\n        /* \"#utility.yul\":1987:2295   */\n    tag_67:\n        /* \"#utility.yul\":2049:2053   */\n      0x00\n        /* \"#utility.yul\":2139:2157   */\n      0xffffffffffffffff\n        /* \"#utility.yul\":2131:2137   */\n      dup3\n        /* \"#utility.yul\":2128:2158   */\n      gt\n        /* \"#utility.yul\":2125:2181   */\n      iszero\n      tag_136\n      jumpi\n        /* \"#utility.yul\":2161:2179   */\n      tag_137\n      tag_64\n      jump\t// in\n    tag_137:\n        /* \"#utility.yul\":2125:2181   */\n    tag_136:\n        /* \"#utility.yul\":2199:2228   */\n      tag_138\n        /* \"#utility.yul\":2221:2227   */\n      dup3\n        /* \"#utility.yul\":2199:2228   */\n      tag_63\n      jump\t// in\n    tag_138:\n        /* \"#utility.yul\":2191:2228   */\n      swap1\n      pop\n        /* \"#utility.yul\":2283:2287   */\n      0x20\n        /* \"#utility.yul\":2277:2281   */\n      dup2\n        /* \"#utility.yul\":2273:2288   */\n      add\n        /* \"#utility.yul\":2265:2288   */\n      swap1\n      pop\n        /* \"#utility.yul\":1987:2295   */\n      swap2\n      swap1\n      pop\n      jump\t// out\n        /* \"#utility.yul\":2301:2449   */\n    tag_68:\n        /* \"#utility.yul\":2399:2405   */\n      dup3\n        /* \"#utility.yul\":2394:2397   */\n      dup2\n        /* \"#utility.yul\":2389:2392   */\n      dup4\n        /* \"#utility.yul\":2376:2406   */\n      calldatacopy\n        /* \"#utility.yul\":2440:2441   */\n      0x00\n        /* \"#utility.yul\":2431:2437   */\n      dup4\n        /* \"#utility.yul\":2426:2429   */\n      dup4\n        /* \"#utility.yul\":2422:2438   */\n      add\n        /* \"#utility.yul\":2415:2442   */\n      mstore\n        /* \"#utility.yul\":2301:2449   */\n      pop\n      pop\n      pop\n      jump\t// out\n        /* \"#utility.yul\":2455:2880   */\n    tag_69:\n        /* \"#utility.yul\":2533:2538   */\n      0x00\n        /* \"#utility.yul\":2558:2624   */\n      tag_141\n        /* \"#utility.yul\":2574:2623   */\n      tag_142\n        /* \"#utility.yul\":2616:2622   */\n      dup5\n        /* \"#utility.yul\":2574:2623   */\n      tag_67\n      jump\t// in\n    tag_142:\n        /* \"#utility.yul\":2558:2624   */\n      tag_66\n      jump\t// in\n    tag_141:\n        /* \"#utility.yul\":2549:2624   */\n      swap1\n      pop\n        /* \"#utility.yul\":2647:2653   */\n      dup3\n        /* \"#utility.yul\":2640:2645   */\n      dup2\n        /* \"#utility.yul\":2633:2654   */\n      mstore\n        /* \"#utility.yul\":2685:2689   */\n      0x20\n        /* \"#utility.yul\":2678:2683   */\n      dup2\n        /* \"#utility.yul\":2674:2690   */\n      add\n        /* \"#utility.yul\":2723:2726   */\n      dup5\n        /* \"#utility.yul\":2714:2720   */\n      dup5\n        /* \"#utility.yul\":2709:2712   */\n      dup5\n        /* \"#utility.yul\":2705:2721   */\n      add\n        /* \"#utility.yul\":2702:2727   */\n      gt\n        /* \"#utility.yul\":2699:2811   */\n      iszero\n      tag_143\n      jumpi\n        /* \"#utility.yul\":2730:2809   */\n      tag_144\n      tag_62\n      jump\t// in\n    tag_144:\n        /* \"#utility.yul\":2699:2811   */\n    tag_143:\n        /* \"#utility.yul\":2820:2874   */\n      tag_145\n        /* \"#utility.yul\":2867:2873   */\n      dup5\n        /* \"#utility.yul\":2862:2865   */\n      dup3\n        /* \"#utility.yul\":2857:2860   */\n      dup6\n        /* \"#utility.yul\":2820:2874   */\n      tag_68\n      jump\t// in\n    tag_145:\n        /* \"#utility.yul\":2539:2880   */\n      pop\n        /* \"#utility.yul\":2455:2880   */\n      swap4\n      swap3\n      pop\n      pop\n      pop\n      jump\t// out\n        /* \"#utility.yul\":2900:3240   */\n    tag_70:\n        /* \"#utility.yul\":2956:2961   */\n      0x00\n        /* \"#utility.yul\":3005:3008   */\n      dup3\n        /* \"#utility.yul\":2998:3002   */\n      0x1f\n        /* \"#utility.yul\":2990:2996   */\n      dup4\n        /* \"#utility.yul\":2986:3003   */\n      add\n        /* \"#utility.yul\":2982:3009   */\n      slt\n        /* \"#utility.yul\":2972:3094   */\n      tag_147\n      jumpi\n        /* \"#utility.yul\":3013:3092   */\n      tag_148\n      tag_61\n      jump\t// in\n    tag_148:\n        /* \"#utility.yul\":2972:3094   */\n    tag_147:\n        /* \"#utility.yul\":3130:3136   */\n      dup2\n        /* \"#utility.yul\":3117:3137   */\n      calldataload\n        /* \"#utility.yul\":3155:3234   */\n      tag_149\n        /* \"#utility.yul\":3230:3233   */\n      dup5\n        /* \"#utility.yul\":3222:3228   */\n      dup3\n        /* \"#utility.yul\":3215:3219   */\n      0x20\n        /* \"#utility.yul\":3207:3213   */\n      dup7\n        /* \"#utility.yul\":3203:3220   */\n      add\n        /* \"#utility.yul\":3155:3234   */\n      tag_69\n      jump\t// in\n    tag_149:\n        /* \"#utility.yul\":3146:3234   */\n      swap2\n      pop\n        /* \"#utility.yul\":2962:3240   */\n      pop\n        /* \"#utility.yul\":2900:3240   */\n      swap3\n      swap2\n      pop\n      pop\n      jump\t// out\n        /* \"#utility.yul\":3246:3900   */\n    tag_12:\n        /* \"#utility.yul\":3324:3330   */\n      0x00\n        /* \"#utility.yul\":3332:3338   */\n      dup1\n        /* \"#utility.yul\":3381:3383   */\n      0x40\n        /* \"#utility.yul\":3369:3378   */\n      dup4\n        /* \"#utility.yul\":3360:3367   */\n      dup6\n        /* \"#utility.yul\":3356:3379   */\n      sub\n        /* \"#utility.yul\":3352:3384   */\n      slt\n        /* \"#utility.yul\":3349:3468   */\n      iszero\n      tag_151\n      jumpi\n        /* \"#utility.yul\":3387:3466   */\n      tag_152\n      tag_56\n      jump\t// in\n    tag_152:\n        /* \"#utility.yul\":3349:3468   */\n    tag_151:\n        /* \"#utility.yul\":3535:3536   */\n      0x00\n        /* \"#utility.yul\":3524:3533   */\n      dup4\n        /* \"#utility.yul\":3520:3537   */\n      add\n        /* \"#utility.yul\":3507:3538   */\n      calldataload\n        /* \"#utility.yul\":3565:3583   */\n      0xffffffffffffffff\n        /* \"#utility.yul\":3557:3563   */\n      dup2\n        /* \"#utility.yul\":3554:3584   */\n      gt\n        /* \"#utility.yul\":3551:3668   */\n      iszero\n      tag_153\n      jumpi\n        /* \"#utility.yul\":3587:3666   */\n      tag_154\n      tag_57\n      jump\t// in\n    tag_154:\n        /* \"#utility.yul\":3551:3668   */\n    tag_153:\n        /* \"#utility.yul\":3692:3755   */\n      tag_155\n        /* \"#utility.yul\":3747:3754   */\n      dup6\n        /* \"#utility.yul\":3738:3744   */\n      dup3\n        /* \"#utility.yul\":3727:3736   */\n      dup7\n        /* \"#utility.yul\":3723:3745   */\n      add\n        /* \"#utility.yul\":3692:3755   */\n      tag_70\n      jump\t// in\n    tag_155:\n        /* \"#utility.yul\":3682:3755   */\n      swap3\n      pop\n        /* \"#utility.yul\":3478:3765   */\n      pop\n        /* \"#utility.yul\":3804:3806   */\n      0x20\n        /* \"#utility.yul\":3830:3883   */\n      tag_156\n        /* \"#utility.yul\":3875:3882   */\n      dup6\n        /* \"#utility.yul\":3866:3872   */\n      dup3\n        /* \"#utility.yul\":3855:3864   */\n      dup7\n        /* \"#utility.yul\":3851:3873   */\n      add\n        /* \"#utility.yul\":3830:3883   */\n      tag_60\n      jump\t// in\n    tag_156:\n        /* \"#utility.yul\":3820:3883   */\n      swap2\n      pop\n        /* \"#utility.yul\":3775:3893   */\n      pop\n        /* \"#utility.yul\":3246:3900   */\n      swap3\n      pop\n      swap3\n      swap1\n      pop\n      jump\t// out\n        /* \"#utility.yul\":3906:4005   */\n    tag_71:\n        /* \"#utility.yul\":3958:3964   */\n      0x00\n        /* \"#utility.yul\":3992:3997   */\n      dup2\n        /* \"#utility.yul\":3986:3998   */\n      mload\n        /* \"#utility.yul\":3976:3998   */\n      swap1\n      pop\n        /* \"#utility.yul\":3906:4005   */\n      swap2\n      swap1\n      pop\n      jump\t// out\n        /* \"#utility.yul\":4011:4180   */\n    tag_72:\n        /* \"#utility.yul\":4095:4106   */\n      0x00\n        /* \"#utility.yul\":4129:4135   */\n      dup3\n        /* \"#utility.yul\":4124:4127   */\n      dup3\n        /* \"#utility.yul\":4117:4136   */\n      mstore\n        /* \"#utility.yul\":4169:4173   */\n      0x20\n        /* \"#utility.yul\":4164:4167   */\n      dup3\n        /* \"#utility.yul\":4160:4174   */\n      add\n        /* \"#utility.yul\":4145:4174   */\n      swap1\n      pop\n        /* \"#utility.yul\":4011:4180   */\n      swap3\n      swap2\n      pop\n      pop\n      jump\t// out\n        /* \"#utility.yul\":4186:4325   */\n    tag_73:\n        /* \"#utility.yul\":4275:4281   */\n      dup3\n        /* \"#utility.yul\":4270:4273   */\n      dup2\n        /* \"#utility.yul\":4265:4268   */\n      dup4\n        /* \"#utility.yul\":4259:4282   */\n      mcopy\n        /* \"#utility.yul\":4316:4317   */\n      0x00\n        /* \"#utility.yul\":4307:4313   */\n      dup4\n        /* \"#utility.yul\":4302:4305   */\n      dup4\n        /* \"#utility.yul\":4298:4314   */\n      add\n        /* \"#utility.yul\":4291:4318   */\n      mstore\n        /* \"#utility.yul\":4186:4325   */\n      pop\n      pop\n      pop\n      jump\t// out\n        /* \"#utility.yul\":4331:4708   */\n    tag_74:\n        /* \"#utility.yul\":4419:4422   */\n      0x00\n        /* \"#utility.yul\":4447:4486   */\n      tag_161\n        /* \"#utility.yul\":4480:4485   */\n      dup3\n        /* \"#utility.yul\":4447:4486   */\n      tag_71\n      jump\t// in\n    tag_161:\n        /* \"#utility.yul\":4502:4573   */\n      tag_162\n        /* \"#utility.yul\":4566:4572   */\n      dup2\n        /* \"#utility.yul\":4561:4564   */\n      dup6\n        /* \"#utility.yul\":4502:4573   */\n      tag_72\n      jump\t// in\n    tag_162:\n        /* \"#utility.yul\":4495:4573   */\n      swap4\n      pop\n        /* \"#utility.yul\":4582:4647   */\n      tag_163\n        /* \"#utility.yul\":4640:4646   */\n      dup2\n        /* \"#utility.yul\":4635:4638   */\n      dup6\n        /* \"#utility.yul\":4628:4632   */\n      0x20\n        /* \"#utility.yul\":4621:4626   */\n      dup7\n        /* \"#utility.yul\":4617:4633   */\n      add\n        /* \"#utility.yul\":4582:4647   */\n      tag_73\n      jump\t// in\n    tag_163:\n        /* \"#utility.yul\":4672:4701   */\n      tag_164\n        /* \"#utility.yul\":4694:4700   */\n      dup2\n        /* \"#utility.yul\":4672:4701   */\n      tag_63\n      jump\t// in\n    tag_164:\n        /* \"#utility.yul\":4667:4670   */\n      dup5\n        /* \"#utility.yul\":4663:4702   */\n      add\n        /* \"#utility.yul\":4656:4702   */\n      swap2\n      pop\n        /* \"#utility.yul\":4423:4708   */\n      pop\n        /* \"#utility.yul\":4331:4708   */\n      swap3\n      swap2\n      pop\n      pop\n      jump\t// out\n        /* \"#utility.yul\":4714:4832   */\n    tag_75:\n        /* \"#utility.yul\":4801:4825   */\n      tag_166\n        /* \"#utility.yul\":4819:4824   */\n      dup2\n        /* \"#utility.yul\":4801:4825   */\n      tag_58\n      jump\t// in\n    tag_166:\n        /* \"#utility.yul\":4796:4799   */\n      dup3\n        /* \"#utility.yul\":4789:4826   */\n      mstore\n        /* \"#utility.yul\":4714:4832   */\n      pop\n      pop\n      jump\t// out\n        /* \"#utility.yul\":4838:4964   */\n    tag_76:\n        /* \"#utility.yul\":4875:4882   */\n      0x00\n        /* \"#utility.yul\":4915:4957   */\n      0xffffffffffffffffffffffffffffffffffffffff\n        /* \"#utility.yul\":4908:4913   */\n      dup3\n        /* \"#utility.yul\":4904:4958   */\n      and\n        /* \"#utility.yul\":4893:4958   */\n      swap1\n      pop\n        /* \"#utility.yul\":4838:4964   */\n      swap2\n      swap1\n      pop\n      jump\t// out\n        /* \"#utility.yul\":4970:5066   */\n    tag_77:\n        /* \"#utility.yul\":5007:5014   */\n      0x00\n        /* \"#utility.yul\":5036:5060   */\n      tag_169\n        /* \"#utility.yul\":5054:5059   */\n      dup3\n        /* \"#utility.yul\":5036:5060   */\n      tag_76\n      jump\t// in\n    tag_169:\n        /* \"#utility.yul\":5025:5060   */\n      swap1\n      pop\n        /* \"#utility.yul\":4970:5066   */\n      swap2\n      swap1\n      pop\n      jump\t// out\n        /* \"#utility.yul\":5072:5190   */\n    tag_78:\n        /* \"#utility.yul\":5159:5183   */\n      tag_171\n        /* \"#utility.yul\":5177:5182   */\n      dup2\n        /* \"#utility.yul\":5159:5183   */\n      tag_77\n      jump\t// in\n    tag_171:\n        /* \"#utility.yul\":5154:5157   */\n      dup3\n        /* \"#utility.yul\":5147:5184   */\n      mstore\n        /* \"#utility.yul\":5072:5190   */\n      pop\n      pop\n      jump\t// out\n        /* \"#utility.yul\":5196:5286   */\n    tag_79:\n        /* \"#utility.yul\":5230:5237   */\n      0x00\n        /* \"#utility.yul\":5273:5278   */\n      dup2\n        /* \"#utility.yul\":5266:5279   */\n      iszero\n        /* \"#utility.yul\":5259:5280   */\n      iszero\n        /* \"#utility.yul\":5248:5280   */\n      swap1\n      pop\n        /* \"#utility.yul\":5196:5286   */\n      swap2\n      swap1\n      pop\n      jump\t// out\n        /* \"#utility.yul\":5292:5401   */\n    tag_80:\n        /* \"#utility.yul\":5373:5394   */\n      tag_174\n        /* \"#utility.yul\":5388:5393   */\n      dup2\n        /* \"#utility.yul\":5373:5394   */\n      tag_79\n      jump\t// in\n    tag_174:\n        /* \"#utility.yul\":5368:5371   */\n      dup3\n        /* \"#utility.yul\":5361:5395   */\n      mstore\n        /* \"#utility.yul\":5292:5401   */\n      pop\n      pop\n      jump\t// out\n        /* \"#utility.yul\":5407:6039   */\n    tag_19:\n        /* \"#utility.yul\":5598:5602   */\n      0x00\n        /* \"#utility.yul\":5636:5639   */\n      0x80\n        /* \"#utility.yul\":5625:5634   */\n      dup3\n        /* \"#utility.yul\":5621:5640   */\n      add\n        /* \"#utility.yul\":5613:5640   */\n      swap1\n      pop\n        /* \"#utility.yul\":5686:5695   */\n      dup2\n        /* \"#utility.yul\":5680:5684   */\n      dup2\n        /* \"#utility.yul\":5676:5696   */\n      sub\n        /* \"#utility.yul\":5672:5673   */\n      0x00\n        /* \"#utility.yul\":5661:5670   */\n      dup4\n        /* \"#utility.yul\":5657:5674   */\n      add\n        /* \"#utility.yul\":5650:5697   */\n      mstore\n        /* \"#utility.yul\":5714:5792   */\n      tag_176\n        /* \"#utility.yul\":5787:5791   */\n      dup2\n        /* \"#utility.yul\":5778:5784   */\n      dup8\n        /* \"#utility.yul\":5714:5792   */\n      tag_74\n      jump\t// in\n    tag_176:\n        /* \"#utility.yul\":5706:5792   */\n      swap1\n      pop\n        /* \"#utility.yul\":5802:5874   */\n      tag_177\n        /* \"#utility.yul\":5870:5872   */\n      0x20\n        /* \"#utility.yul\":5859:5868   */\n      dup4\n        /* \"#utility.yul\":5855:5873   */\n      add\n        /* \"#utility.yul\":5846:5852   */\n      dup7\n        /* \"#utility.yul\":5802:5874   */\n      tag_75\n      jump\t// in\n    tag_177:\n        /* \"#utility.yul\":5884:5956   */\n      tag_178\n        /* \"#utility.yul\":5952:5954   */\n      0x40\n        /* \"#utility.yul\":5941:5950   */\n      dup4\n        /* \"#utility.yul\":5937:5955   */\n      add\n        /* \"#utility.yul\":5928:5934   */\n      dup6\n        /* \"#utility.yul\":5884:5956   */\n      tag_78\n      jump\t// in\n    tag_178:\n        /* \"#utility.yul\":5966:6032   */\n      tag_179\n        /* \"#utility.yul\":6028:6030   */\n      0x60\n        /* \"#utility.yul\":6017:6026   */\n      dup4\n        /* \"#utility.yul\":6013:6031   */\n      add\n        /* \"#utility.yul\":6004:6010   */\n      dup5\n        /* \"#utility.yul\":5966:6032   */\n      tag_80\n      jump\t// in\n    tag_179:\n        /* \"#utility.yul\":5407:6039   */\n      swap6\n      swap5\n      pop\n      pop\n      pop\n      pop\n      pop\n      jump\t// out\n        /* \"#utility.yul\":6045:6217   */\n    tag_81:\n        /* \"#utility.yul\":6185:6209   */\n      0x50726f6475637420646f6573206e6f7420657869737400000000000000000000\n        /* \"#utility.yul\":6181:6182   */\n      0x00\n        /* \"#utility.yul\":6173:6179   */\n      dup3\n        /* \"#utility.yul\":6169:6183   */\n      add\n        /* \"#utility.yul\":6162:6210   */\n      mstore\n        /* \"#utility.yul\":6045:6217   */\n      pop\n      jump\t// out\n        /* \"#utility.yul\":6223:6589   */\n    tag_82:\n        /* \"#utility.yul\":6365:6368   */\n      0x00\n        /* \"#utility.yul\":6386:6453   */\n      tag_182\n        /* \"#utility.yul\":6450:6452   */\n      0x16\n        /* \"#utility.yul\":6445:6448   */\n      dup4\n        /* \"#utility.yul\":6386:6453   */\n      tag_72\n      jump\t// in\n    tag_182:\n        /* \"#utility.yul\":6379:6453   */\n      swap2\n      pop\n        /* \"#utility.yul\":6462:6555   */\n      tag_183\n        /* \"#utility.yul\":6551:6554   */\n      dup3\n        /* \"#utility.yul\":6462:6555   */\n      tag_81\n      jump\t// in\n    tag_183:\n        /* \"#utility.yul\":6580:6582   */\n      0x20\n        /* \"#utility.yul\":6575:6578   */\n      dup3\n        /* \"#utility.yul\":6571:6583   */\n      add\n        /* \"#utility.yul\":6564:6583   */\n      swap1\n      pop\n        /* \"#utility.yul\":6223:6589   */\n      swap2\n      swap1\n      pop\n      jump\t// out\n        /* \"#utility.yul\":6595:7014   */\n    tag_23:\n        /* \"#utility.yul\":6761:6765   */\n      0x00\n        /* \"#utility.yul\":6799:6801   */\n      0x20\n        /* \"#utility.yul\":6788:6797   */\n      dup3\n        /* \"#utility.yul\":6784:6802   */\n      add\n        /* \"#utility.yul\":6776:6802   */\n      swap1\n      pop\n        /* \"#utility.yul\":6848:6857   */\n      dup2\n        /* \"#utility.yul\":6842:6846   */\n      dup2\n        /* \"#utility.yul\":6838:6858   */\n      sub\n        /* \"#utility.yul\":6834:6835   */\n      0x00\n        /* \"#utility.yul\":6823:6832   */\n      dup4\n        /* \"#utility.yul\":6819:6836   */\n      add\n        /* \"#utility.yul\":6812:6859   */\n      mstore\n        /* \"#utility.yul\":6876:7007   */\n      tag_185\n        /* \"#utility.yul\":7002:7006   */\n      dup2\n        /* \"#utility.yul\":6876:7007   */\n      tag_82\n      jump\t// in\n    tag_185:\n        /* \"#utility.yul\":6868:7007   */\n      swap1\n      pop\n        /* \"#utility.yul\":6595:7014   */\n      swap2\n      swap1\n      pop\n      jump\t// out\n        /* \"#utility.yul\":7020:7192   */\n    tag_83:\n        /* \"#utility.yul\":7160:7184   */\n      0x50726f6475637420686173206265656e20736f6c642e00000000000000000000\n        /* \"#utility.yul\":7156:7157   */\n      0x00\n        /* \"#utility.yul\":7148:7154   */\n      dup3\n        /* \"#utility.yul\":7144:7158   */\n      add\n        /* \"#utility.yul\":7137:7185   */\n      mstore\n        /* \"#utility.yul\":7020:7192   */\n      pop\n      jump\t// out\n        /* \"#utility.yul\":7198:7564   */\n    tag_84:\n        /* \"#utility.yul\":7340:7343   */\n      0x00\n        /* \"#utility.yul\":7361:7428   */\n      tag_188\n        /* \"#utility.yul\":7425:7427   */\n      0x16\n        /* \"#utility.yul\":7420:7423   */\n      dup4\n        /* \"#utility.yul\":7361:7428   */\n      tag_72\n      jump\t// in\n    tag_188:\n        /* \"#utility.yul\":7354:7428   */\n      swap2\n      pop\n        /* \"#utility.yul\":7437:7530   */\n      tag_189\n        /* \"#utility.yul\":7526:7529   */\n      dup3\n        /* \"#utility.yul\":7437:7530   */\n      tag_83\n      jump\t// in\n    tag_189:\n        /* \"#utility.yul\":7555:7557   */\n      0x20\n        /* \"#utility.yul\":7550:7553   */\n      dup3\n        /* \"#utility.yul\":7546:7558   */\n      add\n        /* \"#utility.yul\":7539:7558   */\n      swap1\n      pop\n        /* \"#utility.yul\":7198:7564   */\n      swap2\n      swap1\n      pop\n      jump\t// out\n        /* \"#utility.yul\":7570:7989   */\n    tag_26:\n        /* \"#utility.yul\":7736:7740   */\n      0x00\n        /* \"#utility.yul\":7774:7776   */\n      0x20\n        /* \"#utility.yul\":7763:7772   */\n      dup3\n        /* \"#utility.yul\":7759:7777   */\n      add\n        /* \"#utility.yul\":7751:7777   */\n      swap1\n      pop\n        /* \"#utility.yul\":7823:7832   */\n      dup2\n        /* \"#utility.yul\":7817:7821   */\n      dup2\n        /* \"#utility.yul\":7813:7833   */\n      sub\n        /* \"#utility.yul\":7809:7810   */\n      0x00\n        /* \"#utility.yul\":7798:7807   */\n      dup4\n        /* \"#utility.yul\":7794:7811   */\n      add\n        /* \"#utility.yul\":7787:7834   */\n      mstore\n        /* \"#utility.yul\":7851:7982   */\n      tag_191\n        /* \"#utility.yul\":7977:7981   */\n      dup2\n        /* \"#utility.yul\":7851:7982   */\n      tag_84\n      jump\t// in\n    tag_191:\n        /* \"#utility.yul\":7843:7982   */\n      swap1\n      pop\n        /* \"#utility.yul\":7570:7989   */\n      swap2\n      swap1\n      pop\n      jump\t// out\n        /* \"#utility.yul\":7995:8163   */\n    tag_85:\n        /* \"#utility.yul\":8135:8155   */\n      0x496e636f7272656374207061796d656e742e0000000000000000000000000000\n        /* \"#utility.yul\":8131:8132   */\n      0x00\n        /* \"#utility.yul\":8123:8129   */\n      dup3\n        /* \"#utility.yul\":8119:8133   */\n      add\n        /* \"#utility.yul\":8112:8156   */\n      mstore\n        /* \"#utility.yul\":7995:8163   */\n      pop\n      jump\t// out\n        /* \"#utility.yul\":8169:8535   */\n    tag_86:\n        /* \"#utility.yul\":8311:8314   */\n      0x00\n        /* \"#utility.yul\":8332:8399   */\n      tag_194\n        /* \"#utility.yul\":8396:8398   */\n      0x12\n        /* \"#utility.yul\":8391:8394   */\n      dup4\n        /* \"#utility.yul\":8332:8399   */\n      tag_72\n      jump\t// in\n    tag_194:\n        /* \"#utility.yul\":8325:8399   */\n      swap2\n      pop\n        /* \"#utility.yul\":8408:8501   */\n      tag_195\n        /* \"#utility.yul\":8497:8500   */\n      dup3\n        /* \"#utility.yul\":8408:8501   */\n      tag_85\n      jump\t// in\n    tag_195:\n        /* \"#utility.yul\":8526:8528   */\n      0x20\n        /* \"#utility.yul\":8521:8524   */\n      dup3\n        /* \"#utility.yul\":8517:8529   */\n      add\n        /* \"#utility.yul\":8510:8529   */\n      swap1\n      pop\n        /* \"#utility.yul\":8169:8535   */\n      swap2\n      swap1\n      pop\n      jump\t// out\n        /* \"#utility.yul\":8541:8960   */\n    tag_29:\n        /* \"#utility.yul\":8707:8711   */\n      0x00\n        /* \"#utility.yul\":8745:8747   */\n      0x20\n        /* \"#utility.yul\":8734:8743   */\n      dup3\n        /* \"#utility.yul\":8730:8748   */\n      add\n        /* \"#utility.yul\":8722:8748   */\n      swap1\n      pop\n        /* \"#utility.yul\":8794:8803   */\n      dup2\n        /* \"#utility.yul\":8788:8792   */\n      dup2\n        /* \"#utility.yul\":8784:8804   */\n      sub\n        /* \"#utility.yul\":8780:8781   */\n      0x00\n        /* \"#utility.yul\":8769:8778   */\n      dup4\n        /* \"#utility.yul\":8765:8782   */\n      add\n        /* \"#utility.yul\":8758:8805   */\n      mstore\n        /* \"#utility.yul\":8822:8953   */\n      tag_197\n        /* \"#utility.yul\":8948:8952   */\n      dup2\n        /* \"#utility.yul\":8822:8953   */\n      tag_86\n      jump\t// in\n    tag_197:\n        /* \"#utility.yul\":8814:8953   */\n      swap1\n      pop\n        /* \"#utility.yul\":8541:8960   */\n      swap2\n      swap1\n      pop\n      jump\t// out\n        /* \"#utility.yul\":8966:9189   */\n    tag_87:\n        /* \"#utility.yul\":9106:9140   */\n      0x53656c6c65722063616e6e6f7420627579207468656972206f776e2070726f64\n        /* \"#utility.yul\":9102:9103   */\n      0x00\n        /* \"#utility.yul\":9094:9100   */\n      dup3\n        /* \"#utility.yul\":9090:9104   */\n      add\n        /* \"#utility.yul\":9083:9141   */\n      mstore\n        /* \"#utility.yul\":9175:9181   */\n      0x7563742e00000000000000000000000000000000000000000000000000000000\n        /* \"#utility.yul\":9170:9172   */\n      0x20\n        /* \"#utility.yul\":9162:9168   */\n      dup3\n        /* \"#utility.yul\":9158:9173   */\n      add\n        /* \"#utility.yul\":9151:9182   */\n      mstore\n        /* \"#utility.yul\":8966:9189   */\n      pop\n      jump\t// out\n        /* \"#utility.yul\":9195:9561   */\n    tag_88:\n        /* \"#utility.yul\":9337:9340   */\n      0x00\n        /* \"#utility.yul\":9358:9425   */\n      tag_200\n        /* \"#utility.yul\":9422:9424   */\n      0x24\n        /* \"#utility.yul\":9417:9420   */\n      dup4\n        /* \"#utility.yul\":9358:9425   */\n      tag_72\n      jump\t// in\n    tag_200:\n        /* \"#utility.yul\":9351:9425   */\n      swap2\n      pop\n        /* \"#utility.yul\":9434:9527   */\n      tag_201\n        /* \"#utility.yul\":9523:9526   */\n      dup3\n        /* \"#utility.yul\":9434:9527   */\n      tag_87\n      jump\t// in\n    tag_201:\n        /* \"#utility.yul\":9552:9554   */\n      0x40\n        /* \"#utility.yul\":9547:9550   */\n      dup3\n        /* \"#utility.yul\":9543:9555   */\n      add\n        /* \"#utility.yul\":9536:9555   */\n      swap1\n      pop\n        /* \"#utility.yul\":9195:9561   */\n      swap2\n      swap1\n      pop\n      jump\t// out\n        /* \"#utility.yul\":9567:9986   */\n    tag_32:\n        /* \"#utility.yul\":9733:9737   */\n      0x00\n        /* \"#utility.yul\":9771:9773   */\n      0x20\n        /* \"#utility.yul\":9760:9769   */\n      dup3\n        /* \"#utility.yul\":9756:9774   */\n      add\n        /* \"#utility.yul\":9748:9774   */\n      swap1\n      pop\n        /* \"#utility.yul\":9820:9829   */\n      dup2\n        /* \"#utility.yul\":9814:9818   */\n      dup2\n        /* \"#utility.yul\":9810:9830   */\n      sub\n        /* \"#utility.yul\":9806:9807   */\n      0x00\n        /* \"#utility.yul\":9795:9804   */\n      dup4\n        /* \"#utility.yul\":9791:9808   */\n      add\n        /* \"#utility.yul\":9784:9831   */\n      mstore\n        /* \"#utility.yul\":9848:9979   */\n      tag_203\n        /* \"#utility.yul\":9974:9978   */\n      dup2\n        /* \"#utility.yul\":9848:9979   */\n      tag_88\n      jump\t// in\n    tag_203:\n        /* \"#utility.yul\":9840:9979   */\n      swap1\n      pop\n        /* \"#utility.yul\":9567:9986   */\n      swap2\n      swap1\n      pop\n      jump\t// out\n        /* \"#utility.yul\":9992:10155   */\n    tag_89:\n        /* \"#utility.yul\":10132:10147   */\n      0x4e6f206e616d6520646174612e00000000000000000000000000000000000000\n        /* \"#utility.yul\":10128:10129   */\n      0x00\n        /* \"#utility.yul\":10120:10126   */\n      dup3\n        /* \"#utility.yul\":10116:10130   */\n      add\n        /* \"#utility.yul\":10109:10148   */\n      mstore\n        /* \"#utility.yul\":9992:10155   */\n      pop\n      jump\t// out\n        /* \"#utility.yul\":10161:10527   */\n    tag_90:\n        /* \"#utility.yul\":10303:10306   */\n      0x00\n        /* \"#utility.yul\":10324:10391   */\n      tag_206\n        /* \"#utility.yul\":10388:10390   */\n      0x0d\n        /* \"#utility.yul\":10383:10386   */\n      dup4\n        /* \"#utility.yul\":10324:10391   */\n      tag_72\n      jump\t// in\n    tag_206:\n        /* \"#utility.yul\":10317:10391   */\n      swap2\n      pop\n        /* \"#utility.yul\":10400:10493   */\n      tag_207\n        /* \"#utility.yul\":10489:10492   */\n      dup3\n        /* \"#utility.yul\":10400:10493   */\n      tag_89\n      jump\t// in\n    tag_207:\n        /* \"#utility.yul\":10518:10520   */\n      0x20\n        /* \"#utility.yul\":10513:10516   */\n      dup3\n        /* \"#utility.yul\":10509:10521   */\n      add\n        /* \"#utility.yul\":10502:10521   */\n      swap1\n      pop\n        /* \"#utility.yul\":10161:10527   */\n      swap2\n      swap1\n      pop\n      jump\t// out\n        /* \"#utility.yul\":10533:10952   */\n    tag_38:\n        /* \"#utility.yul\":10699:10703   */\n      0x00\n        /* \"#utility.yul\":10737:10739   */\n      0x20\n        /* \"#utility.yul\":10726:10735   */\n      dup3\n        /* \"#utility.yul\":10722:10740   */\n      add\n        /* \"#utility.yul\":10714:10740   */\n      swap1\n      pop\n        /* \"#utility.yul\":10786:10795   */\n      dup2\n        /* \"#utility.yul\":10780:10784   */\n      dup2\n        /* \"#utility.yul\":10776:10796   */\n      sub\n        /* \"#utility.yul\":10772:10773   */\n      0x00\n        /* \"#utility.yul\":10761:10770   */\n      dup4\n        /* \"#utility.yul\":10757:10774   */\n      add\n        /* \"#utility.yul\":10750:10797   */\n      mstore\n        /* \"#utility.yul\":10814:10945   */\n      tag_209\n        /* \"#utility.yul\":10940:10944   */\n      dup2\n        /* \"#utility.yul\":10814:10945   */\n      tag_90\n      jump\t// in\n    tag_209:\n        /* \"#utility.yul\":10806:10945   */\n      swap1\n      pop\n        /* \"#utility.yul\":10533:10952   */\n      swap2\n      swap1\n      pop\n      jump\t// out\n        /* \"#utility.yul\":10958:11137   */\n    tag_91:\n        /* \"#utility.yul\":11098:11129   */\n      0x5072696365206d7573742062652067726561746572207468616e20302e000000\n        /* \"#utility.yul\":11094:11095   */\n      0x00\n        /* \"#utility.yul\":11086:11092   */\n      dup3\n        /* \"#utility.yul\":11082:11096   */\n      add\n        /* \"#utility.yul\":11075:11130   */\n      mstore\n        /* \"#utility.yul\":10958:11137   */\n      pop\n      jump\t// out\n        /* \"#utility.yul\":11143:11509   */\n    tag_92:\n        /* \"#utility.yul\":11285:11288   */\n      0x00\n        /* \"#utility.yul\":11306:11373   */\n      tag_212\n        /* \"#utility.yul\":11370:11372   */\n      0x1d\n        /* \"#utility.yul\":11365:11368   */\n      dup4\n        /* \"#utility.yul\":11306:11373   */\n      tag_72\n      jump\t// in\n    tag_212:\n        /* \"#utility.yul\":11299:11373   */\n      swap2\n      pop\n        /* \"#utility.yul\":11382:11475   */\n      tag_213\n        /* \"#utility.yul\":11471:11474   */\n      dup3\n        /* \"#utility.yul\":11382:11475   */\n      tag_91\n      jump\t// in\n    tag_213:\n        /* \"#utility.yul\":11500:11502   */\n      0x20\n        /* \"#utility.yul\":11495:11498   */\n      dup3\n        /* \"#utility.yul\":11491:11503   */\n      add\n        /* \"#utility.yul\":11484:11503   */\n      swap1\n      pop\n        /* \"#utility.yul\":11143:11509   */\n      swap2\n      swap1\n      pop\n      jump\t// out\n        /* \"#utility.yul\":11515:11934   */\n    tag_41:\n        /* \"#utility.yul\":11681:11685   */\n      0x00\n        /* \"#utility.yul\":11719:11721   */\n      0x20\n        /* \"#utility.yul\":11708:11717   */\n      dup3\n        /* \"#utility.yul\":11704:11722   */\n      add\n        /* \"#utility.yul\":11696:11722   */\n      swap1\n      pop\n        /* \"#utility.yul\":11768:11777   */\n      dup2\n        /* \"#utility.yul\":11762:11766   */\n      dup2\n        /* \"#utility.yul\":11758:11778   */\n      sub\n        /* \"#utility.yul\":11754:11755   */\n      0x00\n        /* \"#utility.yul\":11743:11752   */\n      dup4\n        /* \"#utility.yul\":11739:11756   */\n      add\n        /* \"#utility.yul\":11732:11779   */\n      mstore\n        /* \"#utility.yul\":11796:11927   */\n      tag_215\n        /* \"#utility.yul\":11922:11926   */\n      dup2\n        /* \"#utility.yul\":11796:11927   */\n      tag_92\n      jump\t// in\n    tag_215:\n        /* \"#utility.yul\":11788:11927   */\n      swap1\n      pop\n        /* \"#utility.yul\":11515:11934   */\n      swap2\n      swap1\n      pop\n      jump\t// out\n        /* \"#utility.yul\":11940:12120   */\n    tag_93:\n        /* \"#utility.yul\":11988:12065   */\n      0x4e487b7100000000000000000000000000000000000000000000000000000000\n        /* \"#utility.yul\":11985:11986   */\n      0x00\n        /* \"#utility.yul\":11978:12066   */\n      mstore\n        /* \"#utility.yul\":12085:12089   */\n      0x11\n        /* \"#utility.yul\":12082:12083   */\n      0x04\n        /* \"#utility.yul\":12075:12090   */\n      mstore\n        /* \"#utility.yul\":12109:12113   */\n      0x24\n        /* \"#utility.yul\":12106:12107   */\n      0x00\n        /* \"#utility.yul\":12099:12114   */\n      revert\n        /* \"#utility.yul\":12126:12359   */\n    tag_43:\n        /* \"#utility.yul\":12165:12168   */\n      0x00\n        /* \"#utility.yul\":12188:12212   */\n      tag_218\n        /* \"#utility.yul\":12206:12211   */\n      dup3\n        /* \"#utility.yul\":12188:12212   */\n      tag_58\n      jump\t// in\n    tag_218:\n        /* \"#utility.yul\":12179:12212   */\n      swap2\n      pop\n        /* \"#utility.yul\":12234:12300   */\n      0xffffffffffffffffffffffffffffffffffffffffffffffffffffffffffffffff\n        /* \"#utility.yul\":12227:12232   */\n      dup3\n        /* \"#utility.yul\":12224:12301   */\n      sub\n        /* \"#utility.yul\":12221:12324   */\n      tag_219\n      jumpi\n        /* \"#utility.yul\":12304:12322   */\n      tag_220\n      tag_93\n      jump\t// in\n    tag_220:\n        /* \"#utility.yul\":12221:12324   */\n    tag_219:\n        /* \"#utility.yul\":12351:12352   */\n      0x01\n        /* \"#utility.yul\":12344:12349   */\n      dup3\n        /* \"#utility.yul\":12340:12353   */\n      add\n        /* \"#utility.yul\":12333:12353   */\n      swap1\n      pop\n        /* \"#utility.yul\":12126:12359   */\n      swap2\n      swap1\n      pop\n      jump\t// out\n        /* \"#utility.yul\":12365:12545   */\n    tag_94:\n        /* \"#utility.yul\":12413:12490   */\n      0x4e487b7100000000000000000000000000000000000000000000000000000000\n        /* \"#utility.yul\":12410:12411   */\n      0x00\n        /* \"#utility.yul\":12403:12491   */\n      mstore\n        /* \"#utility.yul\":12510:12514   */\n      0x22\n        /* \"#utility.yul\":12507:12508   */\n      0x04\n        /* \"#utility.yul\":12500:12515   */\n      mstore\n        /* \"#utility.yul\":12534:12538   */\n      0x24\n        /* \"#utility.yul\":12531:12532   */\n      0x00\n        /* \"#utility.yul\":12524:12539   */\n      revert\n        /* \"#utility.yul\":12551:12871   */\n    tag_50:\n        /* \"#utility.yul\":12595:12601   */\n      0x00\n        /* \"#utility.yul\":12632:12633   */\n      0x02\n        /* \"#utility.yul\":12626:12630   */\n      dup3\n        /* \"#utility.yul\":12622:12634   */\n      div\n        /* \"#utility.yul\":12612:12634   */\n      swap1\n      pop\n        /* \"#utility.yul\":12679:12680   */\n      0x01\n        /* \"#utility.yul\":12673:12677   */\n      dup3\n        /* \"#utility.yul\":12669:12681   */\n      and\n        /* \"#utility.yul\":12700:12718   */\n      dup1\n        /* \"#utility.yul\":12690:12771   */\n      tag_223\n      jumpi\n        /* \"#utility.yul\":12756:12760   */\n      0x7f\n        /* \"#utility.yul\":12748:12754   */\n      dup3\n        /* \"#utility.yul\":12744:12761   */\n      and\n        /* \"#utility.yul\":12734:12761   */\n      swap2\n      pop\n        /* \"#utility.yul\":12690:12771   */\n    tag_223:\n        /* \"#utility.yul\":12818:12820   */\n      0x20\n        /* \"#utility.yul\":12810:12816   */\n      dup3\n        /* \"#utility.yul\":12807:12821   */\n      lt\n        /* \"#utility.yul\":12787:12805   */\n      dup2\n        /* \"#utility.yul\":12784:12822   */\n      sub\n        /* \"#utility.yul\":12781:12865   */\n      tag_224\n      jumpi\n        /* \"#utility.yul\":12837:12855   */\n      tag_225\n      tag_94\n      jump\t// in\n    tag_225:\n        /* \"#utility.yul\":12781:12865   */\n    tag_224:\n        /* \"#utility.yul\":12602:12871   */\n      pop\n        /* \"#utility.yul\":12551:12871   */\n      swap2\n      swap1\n      pop\n      jump\t// out\n        /* \"#utility.yul\":12877:13018   */\n    tag_95:\n        /* \"#utility.yul\":12926:12930   */\n      0x00\n        /* \"#utility.yul\":12949:12952   */\n      dup2\n        /* \"#utility.yul\":12941:12952   */\n      swap1\n      pop\n        /* \"#utility.yul\":12972:12975   */\n      dup2\n        /* \"#utility.yul\":12969:12970   */\n      0x00\n        /* \"#utility.yul\":12962:12976   */\n      mstore\n        /* \"#utility.yul\":13006:13010   */\n      0x20\n        /* \"#utility.yul\":13003:13004   */\n      0x00\n        /* \"#utility.yul\":12993:13011   */\n      keccak256\n        /* \"#utility.yul\":12985:13011   */\n      swap1\n      pop\n        /* \"#utility.yul\":12877:13018   */\n      swap2\n      swap1\n      pop\n      jump\t// out\n        /* \"#utility.yul\":13024:13117   */\n    tag_96:\n        /* \"#utility.yul\":13061:13067   */\n      0x00\n        /* \"#utility.yul\":13108:13110   */\n      0x20\n        /* \"#utility.yul\":13103:13105   */\n      0x1f\n        /* \"#utility.yul\":13096:13101   */\n      dup4\n        /* \"#utility.yul\":13092:13106   */\n      add\n        /* \"#utility.yul\":13088:13111   */\n      div\n        /* \"#utility.yul\":13078:13111   */\n      swap1\n      pop\n        /* \"#utility.yul\":13024:13117   */\n      swap2\n      swap1\n      pop\n      jump\t// out\n        /* \"#utility.yul\":13123:13230   */\n    tag_97:\n        /* \"#utility.yul\":13167:13175   */\n      0x00\n        /* \"#utility.yul\":13217:13222   */\n      dup3\n        /* \"#utility.yul\":13211:13215   */\n      dup3\n        /* \"#utility.yul\":13207:13223   */\n      shl\n        /* \"#utility.yul\":13186:13223   */\n      swap1\n      pop\n        /* \"#utility.yul\":13123:13230   */\n      swap3\n      swap2\n      pop\n      pop\n      jump\t// out\n        /* \"#utility.yul\":13236:13629   */\n    tag_98:\n        /* \"#utility.yul\":13305:13311   */\n      0x00\n        /* \"#utility.yul\":13355:13356   */\n      0x08\n        /* \"#utility.yul\":13343:13353   */\n      dup4\n        /* \"#utility.yul\":13339:13357   */\n      mul\n        /* \"#utility.yul\":13378:13475   */\n      tag_230\n        /* \"#utility.yul\":13408:13474   */\n      0xffffffffffffffffffffffffffffffffffffffffffffffffffffffffffffffff\n        /* \"#utility.yul\":13397:13406   */\n      dup3\n        /* \"#utility.yul\":13378:13475   */\n      tag_97\n      jump\t// in\n    tag_230:\n        /* \"#utility.yul\":13496:13535   */\n      tag_231\n        /* \"#utility.yul\":13526:13534   */\n      dup7\n        /* \"#utility.yul\":13515:13524   */\n      dup4\n        /* \"#utility.yul\":13496:13535   */\n      tag_97\n      jump\t// in\n    tag_231:\n        /* \"#utility.yul\":13484:13535   */\n      swap6\n      pop\n        /* \"#utility.yul\":13568:13572   */\n      dup1\n        /* \"#utility.yul\":13564:13573   */\n      not\n        /* \"#utility.yul\":13557:13562   */\n      dup5\n        /* \"#utility.yul\":13553:13574   */\n      and\n        /* \"#utility.yul\":13544:13574   */\n      swap4\n      pop\n        /* \"#utility.yul\":13617:13621   */\n      dup1\n        /* \"#utility.yul\":13607:13615   */\n      dup7\n        /* \"#utility.yul\":13603:13622   */\n      and\n        /* \"#utility.yul\":13596:13601   */\n      dup5\n        /* \"#utility.yul\":13593:13623   */\n      or\n        /* \"#utility.yul\":13583:13623   */\n      swap3\n      pop\n        /* \"#utility.yul\":13312:13629   */\n      pop\n      pop\n        /* \"#utility.yul\":13236:13629   */\n      swap4\n      swap3\n      pop\n      pop\n      pop\n      jump\t// out\n        /* \"#utility.yul\":13635:13695   */\n    tag_99:\n        /* \"#utility.yul\":13663:13666   */\n      0x00\n        /* \"#utility.yul\":13684:13689   */\n      dup2\n        /* \"#utility.yul\":13677:13689   */\n      swap1\n      pop\n        /* \"#utility.yul\":13635:13695   */\n      swap2\n      swap1\n      pop\n      jump\t// out\n        /* \"#utility.yul\":13701:13843   */\n    tag_100:\n        /* \"#utility.yul\":13751:13760   */\n      0x00\n        /* \"#utility.yul\":13784:13837   */\n      tag_234\n        /* \"#utility.yul\":13802:13836   */\n      tag_235\n        /* \"#utility.yul\":13811:13835   */\n      tag_236\n        /* \"#utility.yul\":13829:13834   */\n      dup5\n        /* \"#utility.yul\":13811:13835   */\n      tag_58\n      jump\t// in\n    tag_236:\n        /* \"#utility.yul\":13802:13836   */\n      tag_99\n      jump\t// in\n    tag_235:\n        /* \"#utility.yul\":13784:13837   */\n      tag_58\n      jump\t// in\n    tag_234:\n        /* \"#utility.yul\":13771:13837   */\n      swap1\n      pop\n        /* \"#utility.yul\":13701:13843   */\n      swap2\n      swap1\n      pop\n      jump\t// out\n        /* \"#utility.yul\":13849:13924   */\n    tag_101:\n        /* \"#utility.yul\":13892:13895   */\n      0x00\n        /* \"#utility.yul\":13913:13918   */\n      dup2\n        /* \"#utility.yul\":13906:13918   */\n      swap1\n      pop\n        /* \"#utility.yul\":13849:13924   */\n      swap2\n      swap1\n      pop\n      jump\t// out\n        /* \"#utility.yul\":13930:14199   */\n    tag_102:\n        /* \"#utility.yul\":14040:14079   */\n      tag_239\n        /* \"#utility.yul\":14071:14078   */\n      dup4\n        /* \"#utility.yul\":14040:14079   */\n      tag_100\n      jump\t// in\n    tag_239:\n        /* \"#utility.yul\":14101:14192   */\n      tag_240\n        /* \"#utility.yul\":14150:14191   */\n      tag_241\n        /* \"#utility.yul\":14174:14190   */\n      dup3\n        /* \"#utility.yul\":14150:14191   */\n      tag_101\n      jump\t// in\n    tag_241:\n        /* \"#utility.yul\":14142:14148   */\n      dup5\n        /* \"#utility.yul\":14135:14139   */\n      dup5\n        /* \"#utility.yul\":14129:14140   */\n      sload\n        /* \"#utility.yul\":14101:14192   */\n      tag_98\n      jump\t// in\n    tag_240:\n        /* \"#utility.yul\":14095:14099   */\n      dup3\n        /* \"#utility.yul\":14088:14193   */\n      sstore\n        /* \"#utility.yul\":14006:14199   */\n      pop\n        /* \"#utility.yul\":13930:14199   */\n      pop\n      pop\n      pop\n      jump\t// out\n        /* \"#utility.yul\":14205:14278   */\n    tag_103:\n        /* \"#utility.yul\":14250:14253   */\n      0x00\n        /* \"#utility.yul\":14205:14278   */\n      swap1\n      jump\t// out\n        /* \"#utility.yul\":14284:14473   */\n    tag_104:\n        /* \"#utility.yul\":14361:14393   */\n      tag_244\n      tag_103\n      jump\t// in\n    tag_244:\n        /* \"#utility.yul\":14402:14467   */\n      tag_245\n        /* \"#utility.yul\":14460:14466   */\n      dup2\n        /* \"#utility.yul\":14452:14458   */\n      dup5\n        /* \"#utility.yul\":14446:14450   */\n      dup5\n        /* \"#utility.yul\":14402:14467   */\n      tag_102\n      jump\t// in\n    tag_245:\n        /* \"#utility.yul\":14337:14473   */\n      pop\n        /* \"#utility.yul\":14284:14473   */\n      pop\n      pop\n      jump\t// out\n        /* \"#utility.yul\":14479:14665   */\n    tag_105:\n        /* \"#utility.yul\":14539:14659   */\n    tag_247:\n        /* \"#utility.yul\":14556:14559   */\n      dup2\n        /* \"#utility.yul\":14549:14554   */\n      dup2\n        /* \"#utility.yul\":14546:14560   */\n      lt\n        /* \"#utility.yul\":14539:14659   */\n      iszero\n      tag_249\n      jumpi\n        /* \"#utility.yul\":14610:14649   */\n      tag_250\n        /* \"#utility.yul\":14647:14648   */\n      0x00\n        /* \"#utility.yul\":14640:14645   */\n      dup3\n        /* \"#utility.yul\":14610:14649   */\n      tag_104\n      jump\t// in\n    tag_250:\n        /* \"#utility.yul\":14583:14584   */\n      0x01\n        /* \"#utility.yul\":14576:14581   */\n      dup2\n        /* \"#utility.yul\":14572:14585   */\n      add\n        /* \"#utility.yul\":14563:14585   */\n      swap1\n      pop\n        /* \"#utility.yul\":14539:14659   */\n      jump(tag_247)\n    tag_249:\n        /* \"#utility.yul\":14479:14665   */\n      pop\n      pop\n      jump\t// out\n        /* \"#utility.yul\":14671:15214   */\n    tag_106:\n        /* \"#utility.yul\":14772:14774   */\n      0x1f\n        /* \"#utility.yul\":14767:14770   */\n      dup3\n        /* \"#utility.yul\":14764:14775   */\n      gt\n        /* \"#utility.yul\":14761:15207   */\n      iszero\n      tag_252\n      jumpi\n        /* \"#utility.yul\":14806:14844   */\n      tag_253\n        /* \"#utility.yul\":14838:14843   */\n      dup2\n        /* \"#utility.yul\":14806:14844   */\n      tag_95\n      jump\t// in\n    tag_253:\n        /* \"#utility.yul\":14890:14919   */\n      tag_254\n        /* \"#utility.yul\":14908:14918   */\n      dup5\n        /* \"#utility.yul\":14890:14919   */\n      tag_96\n      jump\t// in\n    tag_254:\n        /* \"#utility.yul\":14880:14888   */\n      dup2\n        /* \"#utility.yul\":14876:14920   */\n      add\n        /* \"#utility.yul\":15073:15075   */\n      0x20\n        /* \"#utility.yul\":15061:15071   */\n      dup6\n        /* \"#utility.yul\":15058:15076   */\n      lt\n        /* \"#utility.yul\":15055:15104   */\n      iszero\n      tag_255\n      jumpi\n        /* \"#utility.yul\":15094:15102   */\n      dup2\n        /* \"#utility.yul\":15079:15102   */\n      swap1\n      pop\n        /* \"#utility.yul\":15055:15104   */\n    tag_255:\n        /* \"#utility.yul\":15117:15197   */\n      tag_256\n        /* \"#utility.yul\":15173:15195   */\n      tag_257\n        /* \"#utility.yul\":15191:15194   */\n      dup6\n        /* \"#utility.yul\":15173:15195   */\n      tag_96\n      jump\t// in\n    tag_257:\n        /* \"#utility.yul\":15163:15171   */\n      dup4\n        /* \"#utility.yul\":15159:15196   */\n      add\n        /* \"#utility.yul\":15146:15157   */\n      dup3\n        /* \"#utility.yul\":15117:15197   */\n      tag_105\n      jump\t// in\n    tag_256:\n        /* \"#utility.yul\":14776:15207   */\n      pop\n      pop\n        /* \"#utility.yul\":14761:15207   */\n    tag_252:\n        /* \"#utility.yul\":14671:15214   */\n      pop\n      pop\n      pop\n      jump\t// out\n        /* \"#utility.yul\":15220:15337   */\n    tag_107:\n        /* \"#utility.yul\":15274:15282   */\n      0x00\n        /* \"#utility.yul\":15324:15329   */\n      dup3\n        /* \"#utility.yul\":15318:15322   */\n      dup3\n        /* \"#utility.yul\":15314:15330   */\n      shr\n        /* \"#utility.yul\":15293:15330   */\n      swap1\n      pop\n        /* \"#utility.yul\":15220:15337   */\n      swap3\n      swap2\n      pop\n      pop\n      jump\t// out\n        /* \"#utility.yul\":15343:15512   */\n    tag_108:\n        /* \"#utility.yul\":15387:15393   */\n      0x00\n        /* \"#utility.yul\":15420:15471   */\n      tag_260\n        /* \"#utility.yul\":15468:15469   */\n      0x00\n        /* \"#utility.yul\":15464:15470   */\n      not\n        /* \"#utility.yul\":15456:15461   */\n      dup5\n        /* \"#utility.yul\":15453:15454   */\n      0x08\n        /* \"#utility.yul\":15449:15462   */\n      mul\n        /* \"#utility.yul\":15420:15471   */\n      tag_107\n      jump\t// in\n    tag_260:\n        /* \"#utility.yul\":15416:15472   */\n      not\n        /* \"#utility.yul\":15501:15505   */\n      dup1\n        /* \"#utility.yul\":15495:15499   */\n      dup4\n        /* \"#utility.yul\":15491:15506   */\n      and\n        /* \"#utility.yul\":15481:15506   */\n      swap2\n      pop\n        /* \"#utility.yul\":15394:15512   */\n      pop\n        /* \"#utility.yul\":15343:15512   */\n      swap3\n      swap2\n      pop\n      pop\n      jump\t// out\n        /* \"#utility.yul\":15517:15812   */\n    tag_109:\n        /* \"#utility.yul\":15593:15597   */\n      0x00\n        /* \"#utility.yul\":15739:15768   */\n      tag_262\n        /* \"#utility.yul\":15764:15767   */\n      dup4\n        /* \"#utility.yul\":15758:15762   */\n      dup4\n        /* \"#utility.yul\":15739:15768   */\n      tag_108\n      jump\t// in\n    tag_262:\n        /* \"#utility.yul\":15731:15768   */\n      swap2\n      pop\n        /* \"#utility.yul\":15801:15804   */\n      dup3\n        /* \"#utility.yul\":15798:15799   */\n      0x02\n        /* \"#utility.yul\":15794:15805   */\n      mul\n        /* \"#utility.yul\":15788:15792   */\n      dup3\n        /* \"#utility.yul\":15785:15806   */\n      or\n        /* \"#utility.yul\":15777:15806   */\n      swap1\n      pop\n        /* \"#utility.yul\":15517:15812   */\n      swap3\n      swap2\n      pop\n      pop\n      jump\t// out\n        /* \"#utility.yul\":15817:17212   */\n    tag_45:\n        /* \"#utility.yul\":15934:15971   */\n      tag_264\n        /* \"#utility.yul\":15967:15970   */\n      dup3\n        /* \"#utility.yul\":15934:15971   */\n      tag_71\n      jump\t// in\n    tag_264:\n        /* \"#utility.yul\":16036:16054   */\n      0xffffffffffffffff\n        /* \"#utility.yul\":16028:16034   */\n      dup2\n        /* \"#utility.yul\":16025:16055   */\n      gt\n        /* \"#utility.yul\":16022:16078   */\n      iszero\n      tag_265\n      jumpi\n        /* \"#utility.yul\":16058:16076   */\n      tag_266\n      tag_64\n      jump\t// in\n    tag_266:\n        /* \"#utility.yul\":16022:16078   */\n    tag_265:\n        /* \"#utility.yul\":16102:16140   */\n      tag_267\n        /* \"#utility.yul\":16134:16138   */\n      dup3\n        /* \"#utility.yul\":16128:16139   */\n      sload\n        /* \"#utility.yul\":16102:16140   */\n      tag_50\n      jump\t// in\n    tag_267:\n        /* \"#utility.yul\":16187:16254   */\n      tag_268\n        /* \"#utility.yul\":16247:16253   */\n      dup3\n        /* \"#utility.yul\":16239:16245   */\n      dup3\n        /* \"#utility.yul\":16233:16237   */\n      dup6\n        /* \"#utility.yul\":16187:16254   */\n      tag_106\n      jump\t// in\n    tag_268:\n        /* \"#utility.yul\":16281:16282   */\n      0x00\n        /* \"#utility.yul\":16305:16309   */\n      0x20\n        /* \"#utility.yul\":16292:16309   */\n      swap1\n      pop\n        /* \"#utility.yul\":16337:16339   */\n      0x1f\n        /* \"#utility.yul\":16329:16335   */\n      dup4\n        /* \"#utility.yul\":16326:16340   */\n      gt\n        /* \"#utility.yul\":16354:16355   */\n      0x01\n        /* \"#utility.yul\":16349:16967   */\n      dup2\n      eq\n      tag_270\n      jumpi\n        /* \"#utility.yul\":17011:17012   */\n      0x00\n        /* \"#utility.yul\":17028:17034   */\n      dup5\n        /* \"#utility.yul\":17025:17102   */\n      iszero\n      tag_271\n      jumpi\n        /* \"#utility.yul\":17077:17086   */\n      dup3\n        /* \"#utility.yul\":17072:17075   */\n      dup8\n        /* \"#utility.yul\":17068:17087   */\n      add\n        /* \"#utility.yul\":17062:17088   */\n      mload\n        /* \"#utility.yul\":17053:17088   */\n      swap1\n      pop\n        /* \"#utility.yul\":17025:17102   */\n    tag_271:\n        /* \"#utility.yul\":17128:17195   */\n      tag_272\n        /* \"#utility.yul\":17188:17194   */\n      dup6\n        /* \"#utility.yul\":17181:17186   */\n      dup3\n        /* \"#utility.yul\":17128:17195   */\n      tag_109\n      jump\t// in\n    tag_272:\n        /* \"#utility.yul\":17122:17126   */\n      dup7\n        /* \"#utility.yul\":17115:17196   */\n      sstore\n        /* \"#utility.yul\":16984:17206   */\n      pop\n        /* \"#utility.yul\":16319:17206   */\n      jump(tag_269)\n        /* \"#utility.yul\":16349:16967   */\n    tag_270:\n        /* \"#utility.yul\":16401:16405   */\n      0x1f\n        /* \"#utility.yul\":16397:16406   */\n      not\n        /* \"#utility.yul\":16389:16395   */\n      dup5\n        /* \"#utility.yul\":16385:16407   */\n      and\n        /* \"#utility.yul\":16435:16472   */\n      tag_273\n        /* \"#utility.yul\":16467:16471   */\n      dup7\n        /* \"#utility.yul\":16435:16472   */\n      tag_95\n      jump\t// in\n    tag_273:\n        /* \"#utility.yul\":16494:16495   */\n      0x00\n        /* \"#utility.yul\":16508:16716   */\n    tag_274:\n        /* \"#utility.yul\":16522:16529   */\n      dup3\n        /* \"#utility.yul\":16519:16520   */\n      dup2\n        /* \"#utility.yul\":16516:16530   */\n      lt\n        /* \"#utility.yul\":16508:16716   */\n      iszero\n      tag_276\n      jumpi\n        /* \"#utility.yul\":16601:16610   */\n      dup5\n        /* \"#utility.yul\":16596:16599   */\n      dup10\n        /* \"#utility.yul\":16592:16611   */\n      add\n        /* \"#utility.yul\":16586:16612   */\n      mload\n        /* \"#utility.yul\":16578:16584   */\n      dup3\n        /* \"#utility.yul\":16571:16613   */\n      sstore\n        /* \"#utility.yul\":16652:16653   */\n      0x01\n        /* \"#utility.yul\":16644:16650   */\n      dup3\n        /* \"#utility.yul\":16640:16654   */\n      add\n        /* \"#utility.yul\":16630:16654   */\n      swap2\n      pop\n        /* \"#utility.yul\":16699:16701   */\n      0x20\n        /* \"#utility.yul\":16688:16697   */\n      dup6\n        /* \"#utility.yul\":16684:16702   */\n      add\n        /* \"#utility.yul\":16671:16702   */\n      swap5\n      pop\n        /* \"#utility.yul\":16545:16549   */\n      0x20\n        /* \"#utility.yul\":16542:16543   */\n      dup2\n        /* \"#utility.yul\":16538:16550   */\n      add\n        /* \"#utility.yul\":16533:16550   */\n      swap1\n      pop\n        /* \"#utility.yul\":16508:16716   */\n      jump(tag_274)\n    tag_276:\n        /* \"#utility.yul\":16744:16750   */\n      dup7\n        /* \"#utility.yul\":16735:16742   */\n      dup4\n        /* \"#utility.yul\":16732:16751   */\n      lt\n        /* \"#utility.yul\":16729:16908   */\n      iszero\n      tag_277\n      jumpi\n        /* \"#utility.yul\":16802:16811   */\n      dup5\n        /* \"#utility.yul\":16797:16800   */\n      dup10\n        /* \"#utility.yul\":16793:16812   */\n      add\n        /* \"#utility.yul\":16787:16813   */\n      mload\n        /* \"#utility.yul\":16845:16893   */\n      tag_278\n        /* \"#utility.yul\":16887:16891   */\n      0x1f\n        /* \"#utility.yul\":16879:16885   */\n      dup10\n        /* \"#utility.yul\":16875:16892   */\n      and\n        /* \"#utility.yul\":16864:16873   */\n      dup3\n        /* \"#utility.yul\":16845:16893   */\n      tag_108\n      jump\t// in\n    tag_278:\n        /* \"#utility.yul\":16837:16843   */\n      dup4\n        /* \"#utility.yul\":16830:16894   */\n      sstore\n        /* \"#utility.yul\":16752:16908   */\n      pop\n        /* \"#utility.yul\":16729:16908   */\n    tag_277:\n        /* \"#utility.yul\":16954:16955   */\n      0x01\n        /* \"#utility.yul\":16950:16951   */\n      0x02\n        /* \"#utility.yul\":16942:16948   */\n      dup9\n        /* \"#utility.yul\":16938:16952   */\n      mul\n        /* \"#utility.yul\":16934:16956   */\n      add\n        /* \"#utility.yul\":16928:16932   */\n      dup9\n        /* \"#utility.yul\":16921:16957   */\n      sstore\n        /* \"#utility.yul\":16356:16967   */\n      pop\n      pop\n      pop\n        /* \"#utility.yul\":16319:17206   */\n    tag_269:\n      pop\n        /* \"#utility.yul\":15909:17212   */\n      pop\n      pop\n      pop\n        /* \"#utility.yul\":15817:17212   */\n      pop\n      pop\n      jump\t// out\n\n    auxdata: 0xa2646970667358221220a3dad3eea4892d681254f785253071bec327ba4f1283f8cfa639b22b91d67d3f64736f6c634300081a0033\n}\n",
				"bytecode": {
					"linkReferences": {},
					"object": "6080604052348015600e575f80fd5b50610e9d8061001c5f395ff3fe608060405260043610610033575f3560e01c80638642269e14610037578063b15247d914610053578063b9db15b41461007b575b5f80fd5b610051600480360381019061004c91906105c1565b6100ba565b005b34801561005e575f80fd5b5061007960048036038101906100749190610728565b6102c3565b005b348015610086575f80fd5b506100a1600480360381019061009c91906105c1565b610447565b6040516100b1949392919061084a565b60405180910390f35b5f805f8381526020019081526020015f2090505f815f015403610112576040517f08c379a0000000000000000000000000000000000000000000000000000000008152600401610109906108de565b60405180910390fd5b8060030160149054906101000a900460ff1615610164576040517f08c379a000000000000000000000000000000000000000000000000000000000815260040161015b90610946565b60405180910390fd5b806002015434146101aa576040517f08c379a00000000000000000000000000000000000000000000000000000000081526004016101a1906109ae565b60405180910390fd5b806003015f9054906101000a900473ffffffffffffffffffffffffffffffffffffffff1673ffffffffffffffffffffffffffffffffffffffff163373ffffffffffffffffffffffffffffffffffffffff160361023b576040517f08c379a000000000000000000000000000000000000000000000000000000000815260040161023290610a3c565b60405180910390fd5b60018160030160146101000a81548160ff021916908315150217905550806003015f9054906101000a900473ffffffffffffffffffffffffffffffffffffffff1673ffffffffffffffffffffffffffffffffffffffff166108fc3490811502906040515f60405180830381858888f193505050501580156102be573d5f803e3d5ffd5b505050565b5f825111610306576040517f08c379a00000000000000000000000000000000000000000000000000000000081526004016102fd90610aa4565b60405180910390fd5b5f8111610348576040517f08c379a000000000000000000000000000000000000000000000000000000000815260040161033f90610b0c565b60405180910390fd5b60015f81548092919061035a90610b57565b91905055506040518060a0016040528060015481526020018381526020018281526020013373ffffffffffffffffffffffffffffffffffffffff1681526020015f15158152505f8060015481526020019081526020015f205f820151815f015560208201518160010190816103cf9190610d98565b50604082015181600201556060820151816003015f6101000a81548173ffffffffffffffffffffffffffffffffffffffff021916908373ffffffffffffffffffffffffffffffffffffffff16021790555060808201518160030160146101000a81548160ff0219169083151502179055509050505050565b60605f805f805f808781526020019081526020015f2090505f815f0154036104a4576040517f08c379a000000000000000000000000000000000000000000000000000000000815260040161049b906108de565b60405180910390fd5b806001018160020154826003015f9054906101000a900473ffffffffffffffffffffffffffffffffffffffff168360030160149054906101000a900460ff168380546104ef90610bcb565b80601f016020809104026020016040519081016040528092919081815260200182805461051b90610bcb565b80156105665780601f1061053d57610100808354040283529160200191610566565b820191905f5260205f20905b81548152906001019060200180831161054957829003601f168201915b505050505093509450945094509450509193509193565b5f604051905090565b5f80fd5b5f80fd5b5f819050919050565b6105a08161058e565b81146105aa575f80fd5b50565b5f813590506105bb81610597565b92915050565b5f602082840312156105d6576105d5610586565b5b5f6105e3848285016105ad565b91505092915050565b5f80fd5b5f80fd5b5f601f19601f8301169050919050565b7f4e487b71000000000000000000000000000000000000000000000000000000005f52604160045260245ffd5b61063a826105f4565b810181811067ffffffffffffffff8211171561065957610658610604565b5b80604052505050565b5f61066b61057d565b90506106778282610631565b919050565b5f67ffffffffffffffff82111561069657610695610604565b5b61069f826105f4565b9050602081019050919050565b828183375f83830152505050565b5f6106cc6106c78461067c565b610662565b9050828152602081018484840111156106e8576106e76105f0565b5b6106f38482856106ac565b509392505050565b5f82601f83011261070f5761070e6105ec565b5b813561071f8482602086016106ba565b91505092915050565b5f806040838503121561073e5761073d610586565b5b5f83013567ffffffffffffffff81111561075b5761075a61058a565b5b610767858286016106fb565b9250506020610778858286016105ad565b9150509250929050565b5f81519050919050565b5f82825260208201905092915050565b8281835e5f83830152505050565b5f6107b482610782565b6107be818561078c565b93506107ce81856020860161079c565b6107d7816105f4565b840191505092915050565b6107eb8161058e565b82525050565b5f73ffffffffffffffffffffffffffffffffffffffff82169050919050565b5f61081a826107f1565b9050919050565b61082a81610810565b82525050565b5f8115159050919050565b61084481610830565b82525050565b5f6080820190508181035f83015261086281876107aa565b905061087160208301866107e2565b61087e6040830185610821565b61088b606083018461083b565b95945050505050565b7f50726f6475637420646f6573206e6f74206578697374000000000000000000005f82015250565b5f6108c860168361078c565b91506108d382610894565b602082019050919050565b5f6020820190508181035f8301526108f5816108bc565b9050919050565b7f50726f6475637420686173206265656e20736f6c642e000000000000000000005f82015250565b5f61093060168361078c565b915061093b826108fc565b602082019050919050565b5f6020820190508181035f83015261095d81610924565b9050919050565b7f496e636f7272656374207061796d656e742e00000000000000000000000000005f82015250565b5f61099860128361078c565b91506109a382610964565b602082019050919050565b5f6020820190508181035f8301526109c58161098c565b9050919050565b7f53656c6c65722063616e6e6f7420627579207468656972206f776e2070726f645f8201527f7563742e00000000000000000000000000000000000000000000000000000000602082015250565b5f610a2660248361078c565b9150610a31826109cc565b604082019050919050565b5f6020820190508181035f830152610a5381610a1a565b9050919050565b7f4e6f206e616d6520646174612e000000000000000000000000000000000000005f82015250565b5f610a8e600d8361078c565b9150610a9982610a5a565b602082019050919050565b5f6020820190508181035f830152610abb81610a82565b9050919050565b7f5072696365206d7573742062652067726561746572207468616e20302e0000005f82015250565b5f610af6601d8361078c565b9150610b0182610ac2565b602082019050919050565b5f6020820190508181035f830152610b2381610aea565b9050919050565b7f4e487b71000000000000000000000000000000000000000000000000000000005f52601160045260245ffd5b5f610b618261058e565b91507fffffffffffffffffffffffffffffffffffffffffffffffffffffffffffffffff8203610b9357610b92610b2a565b5b600182019050919050565b7f4e487b71000000000000000000000000000000000000000000000000000000005f52602260045260245ffd5b5f6002820490506001821680610be257607f821691505b602082108103610bf557610bf4610b9e565b5b50919050565b5f819050815f5260205f209050919050565b5f6020601f8301049050919050565b5f82821b905092915050565b5f60088302610c577fffffffffffffffffffffffffffffffffffffffffffffffffffffffffffffffff82610c1c565b610c618683610c1c565b95508019841693508086168417925050509392505050565b5f819050919050565b5f610c9c610c97610c928461058e565b610c79565b61058e565b9050919050565b5f819050919050565b610cb583610c82565b610cc9610cc182610ca3565b848454610c28565b825550505050565b5f90565b610cdd610cd1565b610ce8818484610cac565b505050565b5b81811015610d0b57610d005f82610cd5565b600181019050610cee565b5050565b601f821115610d5057610d2181610bfb565b610d2a84610c0d565b81016020851015610d39578190505b610d4d610d4585610c0d565b830182610ced565b50505b505050565b5f82821c905092915050565b5f610d705f1984600802610d55565b1980831691505092915050565b5f610d888383610d61565b9150826002028217905092915050565b610da182610782565b67ffffffffffffffff811115610dba57610db9610604565b5b610dc48254610bcb565b610dcf828285610d0f565b5f60209050601f831160018114610e00575f8415610dee578287015190505b610df88582610d7d565b865550610e5f565b601f198416610e0e86610bfb565b5f5b82811015610e3557848901518255600182019150602085019450602081019050610e10565b86831015610e525784890151610e4e601f891682610d61565b8355505b6001600288020188555050505b50505050505056fea2646970667358221220a3dad3eea4892d681254f785253071bec327ba4f1283f8cfa639b22b91d67d3f64736f6c634300081a0033",
					"opcodes": "PUSH1 0x80 PUSH1 0x40 MSTORE CALLVALUE DUP1 ISZERO PUSH1 0xE JUMPI PUSH0 DUP1 REVERT JUMPDEST POP PUSH2 0xE9D DUP1 PUSH2 0x1C PUSH0 CODECOPY PUSH0 RETURN INVALID PUSH1 0x80 PUSH1 0x40 MSTORE PUSH1 0x4 CALLDATASIZE LT PUSH2 0x33 JUMPI PUSH0 CALLDATALOAD PUSH1 0xE0 SHR DUP1 PUSH4 0x8642269E EQ PUSH2 0x37 JUMPI DUP1 PUSH4 0xB15247D9 EQ PUSH2 0x53 JUMPI DUP1 PUSH4 0xB9DB15B4 EQ PUSH2 0x7B JUMPI JUMPDEST PUSH0 DUP1 REVERT JUMPDEST PUSH2 0x51 PUSH1 0x4 DUP1 CALLDATASIZE SUB DUP2 ADD SWAP1 PUSH2 0x4C SWAP2 SWAP1 PUSH2 0x5C1 JUMP JUMPDEST PUSH2 0xBA JUMP JUMPDEST STOP JUMPDEST CALLVALUE DUP1 ISZERO PUSH2 0x5E JUMPI PUSH0 DUP1 REVERT JUMPDEST POP PUSH2 0x79 PUSH1 0x4 DUP1 CALLDATASIZE SUB DUP2 ADD SWAP1 PUSH2 0x74 SWAP2 SWAP1 PUSH2 0x728 JUMP JUMPDEST PUSH2 0x2C3 JUMP JUMPDEST STOP JUMPDEST CALLVALUE DUP1 ISZERO PUSH2 0x86 JUMPI PUSH0 DUP1 REVERT JUMPDEST POP PUSH2 0xA1 PUSH1 0x4 DUP1 CALLDATASIZE SUB DUP2 ADD SWAP1 PUSH2 0x9C SWAP2 SWAP1 PUSH2 0x5C1 JUMP JUMPDEST PUSH2 0x447 JUMP JUMPDEST PUSH1 0x40 MLOAD PUSH2 0xB1 SWAP5 SWAP4 SWAP3 SWAP2 SWAP1 PUSH2 0x84A JUMP JUMPDEST PUSH1 0x40 MLOAD DUP1 SWAP2 SUB SWAP1 RETURN JUMPDEST PUSH0 DUP1 PUSH0 DUP4 DUP2 MSTORE PUSH1 0x20 ADD SWAP1 DUP2 MSTORE PUSH1 0x20 ADD PUSH0 KECCAK256 SWAP1 POP PUSH0 DUP2 PUSH0 ADD SLOAD SUB PUSH2 0x112 JUMPI PUSH1 0x40 MLOAD PUSH32 0x8C379A000000000000000000000000000000000000000000000000000000000 DUP2 MSTORE PUSH1 0x4 ADD PUSH2 0x109 SWAP1 PUSH2 0x8DE JUMP JUMPDEST PUSH1 0x40 MLOAD DUP1 SWAP2 SUB SWAP1 REVERT JUMPDEST DUP1 PUSH1 0x3 ADD PUSH1 0x14 SWAP1 SLOAD SWAP1 PUSH2 0x100 EXP SWAP1 DIV PUSH1 0xFF AND ISZERO PUSH2 0x164 JUMPI PUSH1 0x40 MLOAD PUSH32 0x8C379A000000000000000000000000000000000000000000000000000000000 DUP2 MSTORE PUSH1 0x4 ADD PUSH2 0x15B SWAP1 PUSH2 0x946 JUMP JUMPDEST PUSH1 0x40 MLOAD DUP1 SWAP2 SUB SWAP1 REVERT JUMPDEST DUP1 PUSH1 0x2 ADD SLOAD CALLVALUE EQ PUSH2 0x1AA JUMPI PUSH1 0x40 MLOAD PUSH32 0x8C379A000000000000000000000000000000000000000000000000000000000 DUP2 MSTORE PUSH1 0x4 ADD PUSH2 0x1A1 SWAP1 PUSH2 0x9AE JUMP JUMPDEST PUSH1 0x40 MLOAD DUP1 SWAP2 SUB SWAP1 REVERT JUMPDEST DUP1 PUSH1 0x3 ADD PUSH0 SWAP1 SLOAD SWAP1 PUSH2 0x100 EXP SWAP1 DIV PUSH20 0xFFFFFFFFFFFFFFFFFFFFFFFFFFFFFFFFFFFFFFFF AND PUSH20 0xFFFFFFFFFFFFFFFFFFFFFFFFFFFFFFFFFFFFFFFF AND CALLER PUSH20 0xFFFFFFFFFFFFFFFFFFFFFFFFFFFFFFFFFFFFFFFF AND SUB PUSH2 0x23B JUMPI PUSH1 0x40 MLOAD PUSH32 0x8C379A000000000000000000000000000000000000000000000000000000000 DUP2 MSTORE PUSH1 0x4 ADD PUSH2 0x232 SWAP1 PUSH2 0xA3C JUMP JUMPDEST PUSH1 0x40 MLOAD DUP1 SWAP2 SUB SWAP1 REVERT JUMPDEST PUSH1 0x1 DUP2 PUSH1 0x3 ADD PUSH1 0x14 PUSH2 0x100 EXP DUP2 SLOAD DUP2 PUSH1 0xFF MUL NOT AND SWAP1 DUP4 ISZERO ISZERO MUL OR SWAP1 SSTORE POP DUP1 PUSH1 0x3 ADD PUSH0 SWAP1 SLOAD SWAP1 PUSH2 0x100 EXP SWAP1 DIV PUSH20 0xFFFFFFFFFFFFFFFFFFFFFFFFFFFFFFFFFFFFFFFF AND PUSH20 0xFFFFFFFFFFFFFFFFFFFFFFFFFFFFFFFFFFFFFFFF AND PUSH2 0x8FC CALLVALUE SWAP1 DUP2 ISZERO MUL SWAP1 PUSH1 0x40 MLOAD PUSH0 PUSH1 0x40 MLOAD DUP1 DUP4 SUB DUP2 DUP6 DUP9 DUP9 CALL SWAP4 POP POP POP POP ISZERO DUP1 ISZERO PUSH2 0x2BE JUMPI RETURNDATASIZE PUSH0 DUP1 RETURNDATACOPY RETURNDATASIZE PUSH0 REVERT JUMPDEST POP POP POP JUMP JUMPDEST PUSH0 DUP3 MLOAD GT PUSH2 0x306 JUMPI PUSH1 0x40 MLOAD PUSH32 0x8C379A000000000000000000000000000000000000000000000000000000000 DUP2 MSTORE PUSH1 0x4 ADD PUSH2 0x2FD SWAP1 PUSH2 0xAA4 JUMP JUMPDEST PUSH1 0x40 MLOAD DUP1 SWAP2 SUB SWAP1 REVERT JUMPDEST PUSH0 DUP2 GT PUSH2 0x348 JUMPI PUSH1 0x40 MLOAD PUSH32 0x8C379A000000000000000000000000000000000000000000000000000000000 DUP2 MSTORE PUSH1 0x4 ADD PUSH2 0x33F SWAP1 PUSH2 0xB0C JUMP JUMPDEST PUSH1 0x40 MLOAD DUP1 SWAP2 SUB SWAP1 REVERT JUMPDEST PUSH1 0x1 PUSH0 DUP2 SLOAD DUP1 SWAP3 SWAP2 SWAP1 PUSH2 0x35A SWAP1 PUSH2 0xB57 JUMP JUMPDEST SWAP2 SWAP1 POP SSTORE POP PUSH1 0x40 MLOAD DUP1 PUSH1 0xA0 ADD PUSH1 0x40 MSTORE DUP1 PUSH1 0x1 SLOAD DUP2 MSTORE PUSH1 0x20 ADD DUP4 DUP2 MSTORE PUSH1 0x20 ADD DUP3 DUP2 MSTORE PUSH1 0x20 ADD CALLER PUSH20 0xFFFFFFFFFFFFFFFFFFFFFFFFFFFFFFFFFFFFFFFF AND DUP2 MSTORE PUSH1 0x20 ADD PUSH0 ISZERO ISZERO DUP2 MSTORE POP PUSH0 DUP1 PUSH1 0x1 SLOAD DUP2 MSTORE PUSH1 0x20 ADD SWAP1 DUP2 MSTORE PUSH1 0x20 ADD PUSH0 KECCAK256 PUSH0 DUP3 ADD MLOAD DUP2 PUSH0 ADD SSTORE PUSH1 0x20 DUP3 ADD MLOAD DUP2 PUSH1 0x1 ADD SWAP1 DUP2 PUSH2 0x3CF SWAP2 SWAP1 PUSH2 0xD98 JUMP JUMPDEST POP PUSH1 0x40 DUP3 ADD MLOAD DUP2 PUSH1 0x2 ADD SSTORE PUSH1 0x60 DUP3 ADD MLOAD DUP2 PUSH1 0x3 ADD PUSH0 PUSH2 0x100 EXP DUP2 SLOAD DUP2 PUSH20 0xFFFFFFFFFFFFFFFFFFFFFFFFFFFFFFFFFFFFFFFF MUL NOT AND SWAP1 DUP4 PUSH20 0xFFFFFFFFFFFFFFFFFFFFFFFFFFFFFFFFFFFFFFFF AND MUL OR SWAP1 SSTORE POP PUSH1 0x80 DUP3 ADD MLOAD DUP2 PUSH1 0x3 ADD PUSH1 0x14 PUSH2 0x100 EXP DUP2 SLOAD DUP2 PUSH1 0xFF MUL NOT AND SWAP1 DUP4 ISZERO ISZERO MUL OR SWAP1 SSTORE POP SWAP1 POP POP POP POP JUMP JUMPDEST PUSH1 0x60 PUSH0 DUP1 PUSH0 DUP1 PUSH0 DUP1 DUP8 DUP2 MSTORE PUSH1 0x20 ADD SWAP1 DUP2 MSTORE PUSH1 0x20 ADD PUSH0 KECCAK256 SWAP1 POP PUSH0 DUP2 PUSH0 ADD SLOAD SUB PUSH2 0x4A4 JUMPI PUSH1 0x40 MLOAD PUSH32 0x8C379A000000000000000000000000000000000000000000000000000000000 DUP2 MSTORE PUSH1 0x4 ADD PUSH2 0x49B SWAP1 PUSH2 0x8DE JUMP JUMPDEST PUSH1 0x40 MLOAD DUP1 SWAP2 SUB SWAP1 REVERT JUMPDEST DUP1 PUSH1 0x1 ADD DUP2 PUSH1 0x2 ADD SLOAD DUP3 PUSH1 0x3 ADD PUSH0 SWAP1 SLOAD SWAP1 PUSH2 0x100 EXP SWAP1 DIV PUSH20 0xFFFFFFFFFFFFFFFFFFFFFFFFFFFFFFFFFFFFFFFF AND DUP4 PUSH1 0x3 ADD PUSH1 0x14 SWAP1 SLOAD SWAP1 PUSH2 0x100 EXP SWAP1 DIV PUSH1 0xFF AND DUP4 DUP1 SLOAD PUSH2 0x4EF SWAP1 PUSH2 0xBCB JUMP JUMPDEST DUP1 PUSH1 0x1F ADD PUSH1 0x20 DUP1 SWAP2 DIV MUL PUSH1 0x20 ADD PUSH1 0x40 MLOAD SWAP1 DUP2 ADD PUSH1 0x40 MSTORE DUP1 SWAP3 SWAP2 SWAP1 DUP2 DUP2 MSTORE PUSH1 0x20 ADD DUP3 DUP1 SLOAD PUSH2 0x51B SWAP1 PUSH2 0xBCB JUMP JUMPDEST DUP1 ISZERO PUSH2 0x566 JUMPI DUP1 PUSH1 0x1F LT PUSH2 0x53D JUMPI PUSH2 0x100 DUP1 DUP4 SLOAD DIV MUL DUP4 MSTORE SWAP2 PUSH1 0x20 ADD SWAP2 PUSH2 0x566 JUMP JUMPDEST DUP3 ADD SWAP2 SWAP1 PUSH0 MSTORE PUSH1 0x20 PUSH0 KECCAK256 SWAP1 JUMPDEST DUP2 SLOAD DUP2 MSTORE SWAP1 PUSH1 0x1 ADD SWAP1 PUSH1 0x20 ADD DUP1 DUP4 GT PUSH2 0x549 JUMPI DUP3 SWAP1 SUB PUSH1 0x1F AND DUP3 ADD SWAP2 JUMPDEST POP POP POP POP POP SWAP4 POP SWAP5 POP SWAP5 POP SWAP5 POP SWAP5 POP POP SWAP2 SWAP4 POP SWAP2 SWAP4 JUMP JUMPDEST PUSH0 PUSH1 0x40 MLOAD SWAP1 POP SWAP1 JUMP JUMPDEST PUSH0 DUP1 REVERT JUMPDEST PUSH0 DUP1 REVERT JUMPDEST PUSH0 DUP2 SWAP1 POP SWAP2 SWAP1 POP JUMP JUMPDEST PUSH2 0x5A0 DUP2 PUSH2 0x58E JUMP JUMPDEST DUP2 EQ PUSH2 0x5AA JUMPI PUSH0 DUP1 REVERT JUMPDEST POP JUMP JUMPDEST PUSH0 DUP2 CALLDATALOAD SWAP1 POP PUSH2 0x5BB DUP2 PUSH2 0x597 JUMP JUMPDEST SWAP3 SWAP2 POP POP JUMP JUMPDEST PUSH0 PUSH1 0x20 DUP3 DUP5 SUB SLT ISZERO PUSH2 0x5D6 JUMPI PUSH2 0x5D5 PUSH2 0x586 JUMP JUMPDEST JUMPDEST PUSH0 PUSH2 0x5E3 DUP5 DUP3 DUP6 ADD PUSH2 0x5AD JUMP JUMPDEST SWAP2 POP POP SWAP3 SWAP2 POP POP JUMP JUMPDEST PUSH0 DUP1 REVERT JUMPDEST PUSH0 DUP1 REVERT JUMPDEST PUSH0 PUSH1 0x1F NOT PUSH1 0x1F DUP4 ADD AND SWAP1 POP SWAP2 SWAP1 POP JUMP JUMPDEST PUSH32 0x4E487B7100000000000000000000000000000000000000000000000000000000 PUSH0 MSTORE PUSH1 0x41 PUSH1 0x4 MSTORE PUSH1 0x24 PUSH0 REVERT JUMPDEST PUSH2 0x63A DUP3 PUSH2 0x5F4 JUMP JUMPDEST DUP2 ADD DUP2 DUP2 LT PUSH8 0xFFFFFFFFFFFFFFFF DUP3 GT OR ISZERO PUSH2 0x659 JUMPI PUSH2 0x658 PUSH2 0x604 JUMP JUMPDEST JUMPDEST DUP1 PUSH1 0x40 MSTORE POP POP POP JUMP JUMPDEST PUSH0 PUSH2 0x66B PUSH2 0x57D JUMP JUMPDEST SWAP1 POP PUSH2 0x677 DUP3 DUP3 PUSH2 0x631 JUMP JUMPDEST SWAP2 SWAP1 POP JUMP JUMPDEST PUSH0 PUSH8 0xFFFFFFFFFFFFFFFF DUP3 GT ISZERO PUSH2 0x696 JUMPI PUSH2 0x695 PUSH2 0x604 JUMP JUMPDEST JUMPDEST PUSH2 0x69F DUP3 PUSH2 0x5F4 JUMP JUMPDEST SWAP1 POP PUSH1 0x20 DUP2 ADD SWAP1 POP SWAP2 SWAP1 POP JUMP JUMPDEST DUP3 DUP2 DUP4 CALLDATACOPY PUSH0 DUP4 DUP4 ADD MSTORE POP POP POP JUMP JUMPDEST PUSH0 PUSH2 0x6CC PUSH2 0x6C7 DUP5 PUSH2 0x67C JUMP JUMPDEST PUSH2 0x662 JUMP JUMPDEST SWAP1 POP DUP3 DUP2 MSTORE PUSH1 0x20 DUP2 ADD DUP5 DUP5 DUP5 ADD GT ISZERO PUSH2 0x6E8 JUMPI PUSH2 0x6E7 PUSH2 0x5F0 JUMP JUMPDEST JUMPDEST PUSH2 0x6F3 DUP5 DUP3 DUP6 PUSH2 0x6AC JUMP JUMPDEST POP SWAP4 SWAP3 POP POP POP JUMP JUMPDEST PUSH0 DUP3 PUSH1 0x1F DUP4 ADD SLT PUSH2 0x70F JUMPI PUSH2 0x70E PUSH2 0x5EC JUMP JUMPDEST JUMPDEST DUP2 CALLDATALOAD PUSH2 0x71F DUP5 DUP3 PUSH1 0x20 DUP7 ADD PUSH2 0x6BA JUMP JUMPDEST SWAP2 POP POP SWAP3 SWAP2 POP POP JUMP JUMPDEST PUSH0 DUP1 PUSH1 0x40 DUP4 DUP6 SUB SLT ISZERO PUSH2 0x73E JUMPI PUSH2 0x73D PUSH2 0x586 JUMP JUMPDEST JUMPDEST PUSH0 DUP4 ADD CALLDATALOAD PUSH8 0xFFFFFFFFFFFFFFFF DUP2 GT ISZERO PUSH2 0x75B JUMPI PUSH2 0x75A PUSH2 0x58A JUMP JUMPDEST JUMPDEST PUSH2 0x767 DUP6 DUP3 DUP7 ADD PUSH2 0x6FB JUMP JUMPDEST SWAP3 POP POP PUSH1 0x20 PUSH2 0x778 DUP6 DUP3 DUP7 ADD PUSH2 0x5AD JUMP JUMPDEST SWAP2 POP POP SWAP3 POP SWAP3 SWAP1 POP JUMP JUMPDEST PUSH0 DUP2 MLOAD SWAP1 POP SWAP2 SWAP1 POP JUMP JUMPDEST PUSH0 DUP3 DUP3 MSTORE PUSH1 0x20 DUP3 ADD SWAP1 POP SWAP3 SWAP2 POP POP JUMP JUMPDEST DUP3 DUP2 DUP4 MCOPY PUSH0 DUP4 DUP4 ADD MSTORE POP POP POP JUMP JUMPDEST PUSH0 PUSH2 0x7B4 DUP3 PUSH2 0x782 JUMP JUMPDEST PUSH2 0x7BE DUP2 DUP6 PUSH2 0x78C JUMP JUMPDEST SWAP4 POP PUSH2 0x7CE DUP2 DUP6 PUSH1 0x20 DUP7 ADD PUSH2 0x79C JUMP JUMPDEST PUSH2 0x7D7 DUP2 PUSH2 0x5F4 JUMP JUMPDEST DUP5 ADD SWAP2 POP POP SWAP3 SWAP2 POP POP JUMP JUMPDEST PUSH2 0x7EB DUP2 PUSH2 0x58E JUMP JUMPDEST DUP3 MSTORE POP POP JUMP JUMPDEST PUSH0 PUSH20 0xFFFFFFFFFFFFFFFFFFFFFFFFFFFFFFFFFFFFFFFF DUP3 AND SWAP1 POP SWAP2 SWAP1 POP JUMP JUMPDEST PUSH0 PUSH2 0x81A DUP3 PUSH2 0x7F1 JUMP JUMPDEST SWAP1 POP SWAP2 SWAP1 POP JUMP JUMPDEST PUSH2 0x82A DUP2 PUSH2 0x810 JUMP JUMPDEST DUP3 MSTORE POP POP JUMP JUMPDEST PUSH0 DUP2 ISZERO ISZERO SWAP1 POP SWAP2 SWAP1 POP JUMP JUMPDEST PUSH2 0x844 DUP2 PUSH2 0x830 JUMP JUMPDEST DUP3 MSTORE POP POP JUMP JUMPDEST PUSH0 PUSH1 0x80 DUP3 ADD SWAP1 POP DUP2 DUP2 SUB PUSH0 DUP4 ADD MSTORE PUSH2 0x862 DUP2 DUP8 PUSH2 0x7AA JUMP JUMPDEST SWAP1 POP PUSH2 0x871 PUSH1 0x20 DUP4 ADD DUP7 PUSH2 0x7E2 JUMP JUMPDEST PUSH2 0x87E PUSH1 0x40 DUP4 ADD DUP6 PUSH2 0x821 JUMP JUMPDEST PUSH2 0x88B PUSH1 0x60 DUP4 ADD DUP5 PUSH2 0x83B JUMP JUMPDEST SWAP6 SWAP5 POP POP POP POP POP JUMP JUMPDEST PUSH32 0x50726F6475637420646F6573206E6F7420657869737400000000000000000000 PUSH0 DUP3 ADD MSTORE POP JUMP JUMPDEST PUSH0 PUSH2 0x8C8 PUSH1 0x16 DUP4 PUSH2 0x78C JUMP JUMPDEST SWAP2 POP PUSH2 0x8D3 DUP3 PUSH2 0x894 JUMP JUMPDEST PUSH1 0x20 DUP3 ADD SWAP1 POP SWAP2 SWAP1 POP JUMP JUMPDEST PUSH0 PUSH1 0x20 DUP3 ADD SWAP1 POP DUP2 DUP2 SUB PUSH0 DUP4 ADD MSTORE PUSH2 0x8F5 DUP2 PUSH2 0x8BC JUMP JUMPDEST SWAP1 POP SWAP2 SWAP1 POP JUMP JUMPDEST PUSH32 0x50726F6475637420686173206265656E20736F6C642E00000000000000000000 PUSH0 DUP3 ADD MSTORE POP JUMP JUMPDEST PUSH0 PUSH2 0x930 PUSH1 0x16 DUP4 PUSH2 0x78C JUMP JUMPDEST SWAP2 POP PUSH2 0x93B DUP3 PUSH2 0x8FC JUMP JUMPDEST PUSH1 0x20 DUP3 ADD SWAP1 POP SWAP2 SWAP1 POP JUMP JUMPDEST PUSH0 PUSH1 0x20 DUP3 ADD SWAP1 POP DUP2 DUP2 SUB PUSH0 DUP4 ADD MSTORE PUSH2 0x95D DUP2 PUSH2 0x924 JUMP JUMPDEST SWAP1 POP SWAP2 SWAP1 POP JUMP JUMPDEST PUSH32 0x496E636F7272656374207061796D656E742E0000000000000000000000000000 PUSH0 DUP3 ADD MSTORE POP JUMP JUMPDEST PUSH0 PUSH2 0x998 PUSH1 0x12 DUP4 PUSH2 0x78C JUMP JUMPDEST SWAP2 POP PUSH2 0x9A3 DUP3 PUSH2 0x964 JUMP JUMPDEST PUSH1 0x20 DUP3 ADD SWAP1 POP SWAP2 SWAP1 POP JUMP JUMPDEST PUSH0 PUSH1 0x20 DUP3 ADD SWAP1 POP DUP2 DUP2 SUB PUSH0 DUP4 ADD MSTORE PUSH2 0x9C5 DUP2 PUSH2 0x98C JUMP JUMPDEST SWAP1 POP SWAP2 SWAP1 POP JUMP JUMPDEST PUSH32 0x53656C6C65722063616E6E6F7420627579207468656972206F776E2070726F64 PUSH0 DUP3 ADD MSTORE PUSH32 0x7563742E00000000000000000000000000000000000000000000000000000000 PUSH1 0x20 DUP3 ADD MSTORE POP JUMP JUMPDEST PUSH0 PUSH2 0xA26 PUSH1 0x24 DUP4 PUSH2 0x78C JUMP JUMPDEST SWAP2 POP PUSH2 0xA31 DUP3 PUSH2 0x9CC JUMP JUMPDEST PUSH1 0x40 DUP3 ADD SWAP1 POP SWAP2 SWAP1 POP JUMP JUMPDEST PUSH0 PUSH1 0x20 DUP3 ADD SWAP1 POP DUP2 DUP2 SUB PUSH0 DUP4 ADD MSTORE PUSH2 0xA53 DUP2 PUSH2 0xA1A JUMP JUMPDEST SWAP1 POP SWAP2 SWAP1 POP JUMP JUMPDEST PUSH32 0x4E6F206E616D6520646174612E00000000000000000000000000000000000000 PUSH0 DUP3 ADD MSTORE POP JUMP JUMPDEST PUSH0 PUSH2 0xA8E PUSH1 0xD DUP4 PUSH2 0x78C JUMP JUMPDEST SWAP2 POP PUSH2 0xA99 DUP3 PUSH2 0xA5A JUMP JUMPDEST PUSH1 0x20 DUP3 ADD SWAP1 POP SWAP2 SWAP1 POP JUMP JUMPDEST PUSH0 PUSH1 0x20 DUP3 ADD SWAP1 POP DUP2 DUP2 SUB PUSH0 DUP4 ADD MSTORE PUSH2 0xABB DUP2 PUSH2 0xA82 JUMP JUMPDEST SWAP1 POP SWAP2 SWAP1 POP JUMP JUMPDEST PUSH32 0x5072696365206D7573742062652067726561746572207468616E20302E000000 PUSH0 DUP3 ADD MSTORE POP JUMP JUMPDEST PUSH0 PUSH2 0xAF6 PUSH1 0x1D DUP4 PUSH2 0x78C JUMP JUMPDEST SWAP2 POP PUSH2 0xB01 DUP3 PUSH2 0xAC2 JUMP JUMPDEST PUSH1 0x20 DUP3 ADD SWAP1 POP SWAP2 SWAP1 POP JUMP JUMPDEST PUSH0 PUSH1 0x20 DUP3 ADD SWAP1 POP DUP2 DUP2 SUB PUSH0 DUP4 ADD MSTORE PUSH2 0xB23 DUP2 PUSH2 0xAEA JUMP JUMPDEST SWAP1 POP SWAP2 SWAP1 POP JUMP JUMPDEST PUSH32 0x4E487B7100000000000000000000000000000000000000000000000000000000 PUSH0 MSTORE PUSH1 0x11 PUSH1 0x4 MSTORE PUSH1 0x24 PUSH0 REVERT JUMPDEST PUSH0 PUSH2 0xB61 DUP3 PUSH2 0x58E JUMP JUMPDEST SWAP2 POP PUSH32 0xFFFFFFFFFFFFFFFFFFFFFFFFFFFFFFFFFFFFFFFFFFFFFFFFFFFFFFFFFFFFFFFF DUP3 SUB PUSH2 0xB93 JUMPI PUSH2 0xB92 PUSH2 0xB2A JUMP JUMPDEST JUMPDEST PUSH1 0x1 DUP3 ADD SWAP1 POP SWAP2 SWAP1 POP JUMP JUMPDEST PUSH32 0x4E487B7100000000000000000000000000000000000000000000000000000000 PUSH0 MSTORE PUSH1 0x22 PUSH1 0x4 MSTORE PUSH1 0x24 PUSH0 REVERT JUMPDEST PUSH0 PUSH1 0x2 DUP3 DIV SWAP1 POP PUSH1 0x1 DUP3 AND DUP1 PUSH2 0xBE2 JUMPI PUSH1 0x7F DUP3 AND SWAP2 POP JUMPDEST PUSH1 0x20 DUP3 LT DUP2 SUB PUSH2 0xBF5 JUMPI PUSH2 0xBF4 PUSH2 0xB9E JUMP JUMPDEST JUMPDEST POP SWAP2 SWAP1 POP JUMP JUMPDEST PUSH0 DUP2 SWAP1 POP DUP2 PUSH0 MSTORE PUSH1 0x20 PUSH0 KECCAK256 SWAP1 POP SWAP2 SWAP1 POP JUMP JUMPDEST PUSH0 PUSH1 0x20 PUSH1 0x1F DUP4 ADD DIV SWAP1 POP SWAP2 SWAP1 POP JUMP JUMPDEST PUSH0 DUP3 DUP3 SHL SWAP1 POP SWAP3 SWAP2 POP POP JUMP JUMPDEST PUSH0 PUSH1 0x8 DUP4 MUL PUSH2 0xC57 PUSH32 0xFFFFFFFFFFFFFFFFFFFFFFFFFFFFFFFFFFFFFFFFFFFFFFFFFFFFFFFFFFFFFFFF DUP3 PUSH2 0xC1C JUMP JUMPDEST PUSH2 0xC61 DUP7 DUP4 PUSH2 0xC1C JUMP JUMPDEST SWAP6 POP DUP1 NOT DUP5 AND SWAP4 POP DUP1 DUP7 AND DUP5 OR SWAP3 POP POP POP SWAP4 SWAP3 POP POP POP JUMP JUMPDEST PUSH0 DUP2 SWAP1 POP SWAP2 SWAP1 POP JUMP JUMPDEST PUSH0 PUSH2 0xC9C PUSH2 0xC97 PUSH2 0xC92 DUP5 PUSH2 0x58E JUMP JUMPDEST PUSH2 0xC79 JUMP JUMPDEST PUSH2 0x58E JUMP JUMPDEST SWAP1 POP SWAP2 SWAP1 POP JUMP JUMPDEST PUSH0 DUP2 SWAP1 POP SWAP2 SWAP1 POP JUMP JUMPDEST PUSH2 0xCB5 DUP4 PUSH2 0xC82 JUMP JUMPDEST PUSH2 0xCC9 PUSH2 0xCC1 DUP3 PUSH2 0xCA3 JUMP JUMPDEST DUP5 DUP5 SLOAD PUSH2 0xC28 JUMP JUMPDEST DUP3 SSTORE POP POP POP POP JUMP JUMPDEST PUSH0 SWAP1 JUMP JUMPDEST PUSH2 0xCDD PUSH2 0xCD1 JUMP JUMPDEST PUSH2 0xCE8 DUP2 DUP5 DUP5 PUSH2 0xCAC JUMP JUMPDEST POP POP POP JUMP JUMPDEST JUMPDEST DUP2 DUP2 LT ISZERO PUSH2 0xD0B JUMPI PUSH2 0xD00 PUSH0 DUP3 PUSH2 0xCD5 JUMP JUMPDEST PUSH1 0x1 DUP2 ADD SWAP1 POP PUSH2 0xCEE JUMP JUMPDEST POP POP JUMP JUMPDEST PUSH1 0x1F DUP3 GT ISZERO PUSH2 0xD50 JUMPI PUSH2 0xD21 DUP2 PUSH2 0xBFB JUMP JUMPDEST PUSH2 0xD2A DUP5 PUSH2 0xC0D JUMP JUMPDEST DUP2 ADD PUSH1 0x20 DUP6 LT ISZERO PUSH2 0xD39 JUMPI DUP2 SWAP1 POP JUMPDEST PUSH2 0xD4D PUSH2 0xD45 DUP6 PUSH2 0xC0D JUMP JUMPDEST DUP4 ADD DUP3 PUSH2 0xCED JUMP JUMPDEST POP POP JUMPDEST POP POP POP JUMP JUMPDEST PUSH0 DUP3 DUP3 SHR SWAP1 POP SWAP3 SWAP2 POP POP JUMP JUMPDEST PUSH0 PUSH2 0xD70 PUSH0 NOT DUP5 PUSH1 0x8 MUL PUSH2 0xD55 JUMP JUMPDEST NOT DUP1 DUP4 AND SWAP2 POP POP SWAP3 SWAP2 POP POP JUMP JUMPDEST PUSH0 PUSH2 0xD88 DUP4 DUP4 PUSH2 0xD61 JUMP JUMPDEST SWAP2 POP DUP3 PUSH1 0x2 MUL DUP3 OR SWAP1 POP SWAP3 SWAP2 POP POP JUMP JUMPDEST PUSH2 0xDA1 DUP3 PUSH2 0x782 JUMP JUMPDEST PUSH8 0xFFFFFFFFFFFFFFFF DUP2 GT ISZERO PUSH2 0xDBA JUMPI PUSH2 0xDB9 PUSH2 0x604 JUMP JUMPDEST JUMPDEST PUSH2 0xDC4 DUP3 SLOAD PUSH2 0xBCB JUMP JUMPDEST PUSH2 0xDCF DUP3 DUP3 DUP6 PUSH2 0xD0F JUMP JUMPDEST PUSH0 PUSH1 0x20 SWAP1 POP PUSH1 0x1F DUP4 GT PUSH1 0x1 DUP2 EQ PUSH2 0xE00 JUMPI PUSH0 DUP5 ISZERO PUSH2 0xDEE JUMPI DUP3 DUP8 ADD MLOAD SWAP1 POP JUMPDEST PUSH2 0xDF8 DUP6 DUP3 PUSH2 0xD7D JUMP JUMPDEST DUP7 SSTORE POP PUSH2 0xE5F JUMP JUMPDEST PUSH1 0x1F NOT DUP5 AND PUSH2 0xE0E DUP7 PUSH2 0xBFB JUMP JUMPDEST PUSH0 JUMPDEST DUP3 DUP2 LT ISZERO PUSH2 0xE35 JUMPI DUP5 DUP10 ADD MLOAD DUP3 SSTORE PUSH1 0x1 DUP3 ADD SWAP2 POP PUSH1 0x20 DUP6 ADD SWAP5 POP PUSH1 0x20 DUP2 ADD SWAP1 POP PUSH2 0xE10 JUMP JUMPDEST DUP7 DUP4 LT ISZERO PUSH2 0xE52 JUMPI DUP5 DUP10 ADD MLOAD PUSH2 0xE4E PUSH1 0x1F DUP10 AND DUP3 PUSH2 0xD61 JUMP JUMPDEST DUP4 SSTORE POP JUMPDEST PUSH1 0x1 PUSH1 0x2 DUP9 MUL ADD DUP9 SSTORE POP POP POP JUMPDEST POP POP POP POP POP POP JUMP INVALID LOG2 PUSH5 0x6970667358 0x22 SLT KECCAK256 LOG3 0xDA 0xD3 0xEE LOG4 DUP10 0x2D PUSH9 0x1254F785253071BEC3 0x27 0xBA 0x4F SLT DUP4 0xF8 0xCF 0xA6 CODECOPY 0xB2 0x2B SWAP2 0xD6 PUSH30 0x3F64736F6C634300081A0033000000000000000000000000000000000000 "
				},
				"gasEstimates": {
					"creation": {
						"codeDepositCost": "748200",
						"executionCost": "777",
						"totalCost": "748977"
					},
					"external": {
						"addProduct(string,uint256)": "infinite",
						"buyProduct(uint256)": "infinite",
						"getProduct(uint256)": "infinite"
					}
				},
				"methodIdentifiers": {
					"addProduct(string,uint256)": "b15247d9",
					"buyProduct(uint256)": "8642269e",
					"getProduct(uint256)": "b9db15b4"
				}
			},
			"storageLayout": {
				"storage": [
					{
						"astId": 17,
						"contract": "contracts/Marketplace.sol:Marketplace",
						"label": "products",
						"offset": 0,
						"slot": "0",
						"type": "t_mapping(t_uint256,t_struct(Product)12_storage)"
					},
					{
						"astId": 19,
						"contract": "contracts/Marketplace.sol:Marketplace",
						"label": "productCounter",
						"offset": 0,
						"slot": "1",
						"type": "t_uint256"
					}
				],
				"types": {
					"t_address": {
						"encoding": "inplace",
						"label": "address",
						"numberOfBytes": "20"
					},
					"t_bool": {
						"encoding": "inplace",
						"label": "bool",
						"numberOfBytes": "1"
					},
					"t_mapping(t_uint256,t_struct(Product)12_storage)": {
						"encoding": "mapping",
						"key": "t_uint256",
						"label": "mapping(uint256 => struct Marketplace.Product)",
						"numberOfBytes": "32",
						"value": "t_struct(Product)12_storage"
					},
					"t_string_storage": {
						"encoding": "bytes",
						"label": "string",
						"numberOfBytes": "32"
					},
					"t_struct(Product)12_storage": {
						"encoding": "inplace",
						"label": "struct Marketplace.Product",
						"members": [
							{
								"astId": 3,
								"contract": "contracts/Marketplace.sol:Marketplace",
								"label": "productId",
								"offset": 0,
								"slot": "0",
								"type": "t_uint256"
							},
							{
								"astId": 5,
								"contract": "contracts/Marketplace.sol:Marketplace",
								"label": "name",
								"offset": 0,
								"slot": "1",
								"type": "t_string_storage"
							},
							{
								"astId": 7,
								"contract": "contracts/Marketplace.sol:Marketplace",
								"label": "price",
								"offset": 0,
								"slot": "2",
								"type": "t_uint256"
							},
							{
								"astId": 9,
								"contract": "contracts/Marketplace.sol:Marketplace",
								"label": "seller",
								"offset": 0,
								"slot": "3",
								"type": "t_address"
							},
							{
								"astId": 11,
								"contract": "contracts/Marketplace.sol:Marketplace",
								"label": "isSold",
								"offset": 20,
								"slot": "3",
								"type": "t_bool"
							}
						],
						"numberOfBytes": "128"
					},
					"t_uint256": {
						"encoding": "inplace",
						"label": "uint256",
						"numberOfBytes": "32"
					}
				}
			},
			"userdoc": {
				"kind": "user",
				"methods": {},
				"version": 1
			}
		}
	}
}