{
	"contracts/EmployeeRegistry.sol": {
		"EmployeeRegistry": {
			"abi": [
				{
					"inputs": [
						{
							"internalType": "address",
							"name": "_address",
							"type": "address"
						},
						{
							"internalType": "string",
							"name": "_name",
							"type": "string"
						},
						{
							"internalType": "uint256",
							"name": "_age",
							"type": "uint256"
						},
						{
							"internalType": "enum EmployeeRegistry.Department",
							"name": "_department",
							"type": "uint8"
						}
					],
					"name": "addEmployee",
					"outputs": [],
					"stateMutability": "nonpayable",
					"type": "function"
				},
				{
					"inputs": [
						{
							"internalType": "uint256",
							"name": "",
							"type": "uint256"
						}
					],
					"name": "employeeAddresses",
					"outputs": [
						{
							"internalType": "address",
							"name": "",
							"type": "address"
						}
					],
					"stateMutability": "view",
					"type": "function"
				},
				{
					"inputs": [
						{
							"internalType": "address",
							"name": "",
							"type": "address"
						}
					],
					"name": "employees",
					"outputs": [
						{
							"internalType": "string",
							"name": "name",
							"type": "string"
						},
						{
							"internalType": "uint256",
							"name": "age",
							"type": "uint256"
						},
						{
							"internalType": "enum EmployeeRegistry.Department",
							"name": "department",
							"type": "uint8"
						}
					],
					"stateMutability": "view",
					"type": "function"
				},
				{
					"inputs": [
						{
							"internalType": "address",
							"name": "_address",
							"type": "address"
						}
					],
					"name": "getEmployee",
					"outputs": [
						{
							"internalType": "string",
							"name": "",
							"type": "string"
						},
						{
							"internalType": "uint256",
							"name": "",
							"type": "uint256"
						},
						{
							"internalType": "enum EmployeeRegistry.Department",
							"name": "",
							"type": "uint8"
						}
					],
					"stateMutability": "view",
					"type": "function"
				},
				{
					"inputs": [],
					"name": "getTotalEmployees",
					"outputs": [
						{
							"internalType": "uint256",
							"name": "",
							"type": "uint256"
						}
					],
					"stateMutability": "view",
					"type": "function"
				}
			],
			"devdoc": {
				"kind": "dev",
				"methods": {},
				"version": 1
			},
			"evm": {
				"assembly": "    /* \"contracts/EmployeeRegistry.sol\":85:1323  contract EmployeeRegistry {... */\n  mstore(0x40, 0x80)\n  callvalue\n  dup1\n  iszero\n  tag_1\n  jumpi\n  0x00\n  dup1\n  revert\ntag_1:\n  pop\n  dataSize(sub_0)\n  dup1\n  dataOffset(sub_0)\n  0x00\n  codecopy\n  0x00\n  return\nstop\n\nsub_0: assembly {\n        /* \"contracts/EmployeeRegistry.sol\":85:1323  contract EmployeeRegistry {... */\n      mstore(0x40, 0x80)\n      callvalue\n      dup1\n      iszero\n      tag_1\n      jumpi\n      0x00\n      dup1\n      revert\n    tag_1:\n      pop\n      jumpi(tag_2, lt(calldatasize, 0x04))\n      shr(0xe0, calldataload(0x00))\n      dup1\n      0x32648e09\n      eq\n      tag_3\n      jumpi\n      dup1\n      0x5339c995\n      eq\n      tag_4\n      jumpi\n      dup1\n      0x5cd359d5\n      eq\n      tag_5\n      jumpi\n      dup1\n      0x7521720b\n      eq\n      tag_6\n      jumpi\n      dup1\n      0xd0678947\n      eq\n      tag_7\n      jumpi\n    tag_2:\n      0x00\n      dup1\n      revert\n        /* \"contracts/EmployeeRegistry.sol\":920:1149  function getEmployee(address _address) public view returns (string memory, uint256, Department) {... */\n    tag_3:\n      tag_8\n      0x04\n      dup1\n      calldatasize\n      sub\n      dup2\n      add\n      swap1\n      tag_9\n      swap2\n      swap1\n      tag_10\n      jump\t// in\n    tag_9:\n      tag_11\n      jump\t// in\n    tag_8:\n      mload(0x40)\n      tag_12\n      swap4\n      swap3\n      swap2\n      swap1\n      tag_13\n      jump\t// in\n    tag_12:\n      mload(0x40)\n      dup1\n      swap2\n      sub\n      swap1\n      return\n        /* \"contracts/EmployeeRegistry.sol\":1211:1320  function getTotalEmployees() public view returns (uint256) {... */\n    tag_4:\n      tag_14\n      tag_15\n      jump\t// in\n    tag_14:\n      mload(0x40)\n      tag_16\n      swap2\n      swap1\n      tag_17\n      jump\t// in\n    tag_16:\n      mload(0x40)\n      dup1\n      swap2\n      sub\n      swap1\n      return\n        /* \"contracts/EmployeeRegistry.sol\":638:861  function addEmployee(address _address, string memory _name, uint256 _age, Department _department) public {... */\n    tag_5:\n      tag_18\n      0x04\n      dup1\n      calldatasize\n      sub\n      dup2\n      add\n      swap1\n      tag_19\n      swap2\n      swap1\n      tag_20\n      jump\t// in\n    tag_19:\n      tag_21\n      jump\t// in\n    tag_18:\n      stop\n        /* \"contracts/EmployeeRegistry.sol\":511:545  address[] public employeeAddresses */\n    tag_6:\n      tag_22\n      0x04\n      dup1\n      calldatasize\n      sub\n      dup2\n      add\n      swap1\n      tag_23\n      swap2\n      swap1\n      tag_24\n      jump\t// in\n    tag_23:\n      tag_25\n      jump\t// in\n    tag_22:\n      mload(0x40)\n      tag_26\n      swap2\n      swap1\n      tag_27\n      jump\t// in\n    tag_26:\n      mload(0x40)\n      dup1\n      swap2\n      sub\n      swap1\n      return\n        /* \"contracts/EmployeeRegistry.sol\":410:455  mapping(address => Employee) public employees */\n    tag_7:\n      tag_28\n      0x04\n      dup1\n      calldatasize\n      sub\n      dup2\n      add\n      swap1\n      tag_29\n      swap2\n      swap1\n      tag_10\n      jump\t// in\n    tag_29:\n      tag_30\n      jump\t// in\n    tag_28:\n      mload(0x40)\n      tag_31\n      swap4\n      swap3\n      swap2\n      swap1\n      tag_13\n      jump\t// in\n    tag_31:\n      mload(0x40)\n      dup1\n      swap2\n      sub\n      swap1\n      return\n        /* \"contracts/EmployeeRegistry.sol\":920:1149  function getEmployee(address _address) public view returns (string memory, uint256, Department) {... */\n    tag_11:\n        /* \"contracts/EmployeeRegistry.sol\":980:993  string memory */\n      0x60\n        /* \"contracts/EmployeeRegistry.sol\":995:1002  uint256 */\n      0x00\n        /* \"contracts/EmployeeRegistry.sol\":1004:1014  Department */\n      dup1\n        /* \"contracts/EmployeeRegistry.sol\":1027:1051  Employee memory employee */\n      0x00\n        /* \"contracts/EmployeeRegistry.sol\":1054:1063  employees */\n      dup1\n        /* \"contracts/EmployeeRegistry.sol\":1054:1073  employees[_address] */\n      0x00\n        /* \"contracts/EmployeeRegistry.sol\":1064:1072  _address */\n      dup7\n        /* \"contracts/EmployeeRegistry.sol\":1054:1073  employees[_address] */\n      0xffffffffffffffffffffffffffffffffffffffff\n      and\n      0xffffffffffffffffffffffffffffffffffffffff\n      and\n      dup2\n      mstore\n      0x20\n      add\n      swap1\n      dup2\n      mstore\n      0x20\n      add\n      0x00\n      keccak256\n        /* \"contracts/EmployeeRegistry.sol\":1027:1073  Employee memory employee = employees[_address] */\n      mload(0x40)\n      dup1\n      0x60\n      add\n      0x40\n      mstore\n      swap1\n      dup2\n      0x00\n      dup3\n      add\n      dup1\n      sload\n      tag_33\n      swap1\n      tag_34\n      jump\t// in\n    tag_33:\n      dup1\n      0x1f\n      add\n      0x20\n      dup1\n      swap2\n      div\n      mul\n      0x20\n      add\n      mload(0x40)\n      swap1\n      dup2\n      add\n      0x40\n      mstore\n      dup1\n      swap3\n      swap2\n      swap1\n      dup2\n      dup2\n      mstore\n      0x20\n      add\n      dup3\n      dup1\n      sload\n      tag_35\n      swap1\n      tag_34\n      jump\t// in\n    tag_35:\n      dup1\n      iszero\n      tag_36\n      jumpi\n      dup1\n      0x1f\n      lt\n      tag_37\n      jumpi\n      0x0100\n      dup1\n      dup4\n      sload\n      div\n      mul\n      dup4\n      mstore\n      swap2\n      0x20\n      add\n      swap2\n      jump(tag_36)\n    tag_37:\n      dup3\n      add\n      swap2\n      swap1\n      0x00\n      mstore\n      keccak256(0x00, 0x20)\n      swap1\n    tag_38:\n      dup2\n      sload\n      dup2\n      mstore\n      swap1\n      0x01\n      add\n      swap1\n      0x20\n      add\n      dup1\n      dup4\n      gt\n      tag_38\n      jumpi\n      dup3\n      swap1\n      sub\n      0x1f\n      and\n      dup3\n      add\n      swap2\n    tag_36:\n      pop\n      pop\n      pop\n      pop\n      pop\n      dup2\n      mstore\n      0x20\n      add\n      0x01\n      dup3\n      add\n      sload\n      dup2\n      mstore\n      0x20\n      add\n      0x02\n      dup3\n      add\n      0x00\n      swap1\n      sload\n      swap1\n      0x0100\n      exp\n      swap1\n      div\n      0xff\n      and\n      0x03\n      dup2\n      gt\n      iszero\n      tag_39\n      jumpi\n      tag_40\n      tag_41\n      jump\t// in\n    tag_40:\n    tag_39:\n      0x03\n      dup2\n      gt\n      iszero\n      tag_42\n      jumpi\n      tag_43\n      tag_41\n      jump\t// in\n    tag_43:\n    tag_42:\n      dup2\n      mstore\n      pop\n      pop\n      swap1\n      pop\n        /* \"contracts/EmployeeRegistry.sol\":1092:1100  employee */\n      dup1\n        /* \"contracts/EmployeeRegistry.sol\":1092:1105  employee.name */\n      0x00\n      add\n      mload\n        /* \"contracts/EmployeeRegistry.sol\":1107:1115  employee */\n      dup2\n        /* \"contracts/EmployeeRegistry.sol\":1107:1119  employee.age */\n      0x20\n      add\n      mload\n        /* \"contracts/EmployeeRegistry.sol\":1121:1129  employee */\n      dup3\n        /* \"contracts/EmployeeRegistry.sol\":1121:1140  employee.department */\n      0x40\n      add\n      mload\n        /* \"contracts/EmployeeRegistry.sol\":1084:1141  return (employee.name, employee.age, employee.department) */\n      swap4\n      pop\n      swap4\n      pop\n      swap4\n      pop\n      pop\n        /* \"contracts/EmployeeRegistry.sol\":920:1149  function getEmployee(address _address) public view returns (string memory, uint256, Department) {... */\n      swap2\n      swap4\n      swap1\n      swap3\n      pop\n      jump\t// out\n        /* \"contracts/EmployeeRegistry.sol\":1211:1320  function getTotalEmployees() public view returns (uint256) {... */\n    tag_15:\n        /* \"contracts/EmployeeRegistry.sol\":1261:1268  uint256 */\n      0x00\n        /* \"contracts/EmployeeRegistry.sol\":1288:1305  employeeAddresses */\n      0x01\n        /* \"contracts/EmployeeRegistry.sol\":1288:1312  employeeAddresses.length */\n      dup1\n      sload\n      swap1\n      pop\n        /* \"contracts/EmployeeRegistry.sol\":1281:1312  return employeeAddresses.length */\n      swap1\n      pop\n        /* \"contracts/EmployeeRegistry.sol\":1211:1320  function getTotalEmployees() public view returns (uint256) {... */\n      swap1\n      jump\t// out\n        /* \"contracts/EmployeeRegistry.sol\":638:861  function addEmployee(address _address, string memory _name, uint256 _age, Department _department) public {... */\n    tag_21:\n        /* \"contracts/EmployeeRegistry.sol\":776:810  Employee(_name, _age, _department) */\n      mload(0x40)\n      dup1\n      0x60\n      add\n      0x40\n      mstore\n      dup1\n        /* \"contracts/EmployeeRegistry.sol\":785:790  _name */\n      dup5\n        /* \"contracts/EmployeeRegistry.sol\":776:810  Employee(_name, _age, _department) */\n      dup2\n      mstore\n      0x20\n      add\n        /* \"contracts/EmployeeRegistry.sol\":792:796  _age */\n      dup4\n        /* \"contracts/EmployeeRegistry.sol\":776:810  Employee(_name, _age, _department) */\n      dup2\n      mstore\n      0x20\n      add\n        /* \"contracts/EmployeeRegistry.sol\":798:809  _department */\n      dup3\n        /* \"contracts/EmployeeRegistry.sol\":776:810  Employee(_name, _age, _department) */\n      0x03\n      dup2\n      gt\n      iszero\n      tag_46\n      jumpi\n      tag_47\n      tag_41\n      jump\t// in\n    tag_47:\n    tag_46:\n      dup2\n      mstore\n      pop\n        /* \"contracts/EmployeeRegistry.sol\":754:763  employees */\n      0x00\n        /* \"contracts/EmployeeRegistry.sol\":754:773  employees[_address] */\n      dup1\n        /* \"contracts/EmployeeRegistry.sol\":764:772  _address */\n      dup7\n        /* \"contracts/EmployeeRegistry.sol\":754:773  employees[_address] */\n      0xffffffffffffffffffffffffffffffffffffffff\n      and\n      0xffffffffffffffffffffffffffffffffffffffff\n      and\n      dup2\n      mstore\n      0x20\n      add\n      swap1\n      dup2\n      mstore\n      0x20\n      add\n      0x00\n      keccak256\n        /* \"contracts/EmployeeRegistry.sol\":754:810  employees[_address] = Employee(_name, _age, _department) */\n      0x00\n      dup3\n      add\n      mload\n      dup2\n      0x00\n      add\n      swap1\n      dup2\n      tag_48\n      swap2\n      swap1\n      tag_49\n      jump\t// in\n    tag_48:\n      pop\n      0x20\n      dup3\n      add\n      mload\n      dup2\n      0x01\n      add\n      sstore\n      0x40\n      dup3\n      add\n      mload\n      dup2\n      0x02\n      add\n      exp(0x0100, 0x00)\n      dup2\n      sload\n      dup2\n      0xff\n      mul\n      not\n      and\n      swap1\n      dup4\n      0x03\n      dup2\n      gt\n      iszero\n      tag_50\n      jumpi\n      tag_51\n      tag_41\n      jump\t// in\n    tag_51:\n    tag_50:\n      mul\n      or\n      swap1\n      sstore\n      pop\n      swap1\n      pop\n      pop\n        /* \"contracts/EmployeeRegistry.sol\":821:838  employeeAddresses */\n      0x01\n        /* \"contracts/EmployeeRegistry.sol\":844:852  _address */\n      dup5\n        /* \"contracts/EmployeeRegistry.sol\":821:853  employeeAddresses.push(_address) */\n      swap1\n      dup1\n      0x01\n      dup2\n      sload\n      add\n      dup1\n      dup3\n      sstore\n      dup1\n      swap2\n      pop\n      pop\n      0x01\n      swap1\n      sub\n      swap1\n      0x00\n      mstore\n      keccak256(0x00, 0x20)\n      add\n      0x00\n      swap1\n      swap2\n      swap1\n      swap2\n      swap1\n      swap2\n      0x0100\n      exp\n      dup2\n      sload\n      dup2\n      0xffffffffffffffffffffffffffffffffffffffff\n      mul\n      not\n      and\n      swap1\n      dup4\n      0xffffffffffffffffffffffffffffffffffffffff\n      and\n      mul\n      or\n      swap1\n      sstore\n      pop\n        /* \"contracts/EmployeeRegistry.sol\":638:861  function addEmployee(address _address, string memory _name, uint256 _age, Department _department) public {... */\n      pop\n      pop\n      pop\n      pop\n      jump\t// out\n        /* \"contracts/EmployeeRegistry.sol\":511:545  address[] public employeeAddresses */\n    tag_25:\n      0x01\n      dup2\n      dup2\n      sload\n      dup2\n      lt\n      tag_53\n      jumpi\n      0x00\n      dup1\n      revert\n    tag_53:\n      swap1\n      0x00\n      mstore\n      keccak256(0x00, 0x20)\n      add\n      0x00\n      swap2\n      pop\n      sload\n      swap1\n      0x0100\n      exp\n      swap1\n      div\n      0xffffffffffffffffffffffffffffffffffffffff\n      and\n      dup2\n      jump\t// out\n        /* \"contracts/EmployeeRegistry.sol\":410:455  mapping(address => Employee) public employees */\n    tag_30:\n      mstore(0x20, 0x00)\n      dup1\n      0x00\n      mstore\n      keccak256(0x00, 0x40)\n      0x00\n      swap2\n      pop\n      swap1\n      pop\n      dup1\n      0x00\n      add\n      dup1\n      sload\n      tag_55\n      swap1\n      tag_34\n      jump\t// in\n    tag_55:\n      dup1\n      0x1f\n      add\n      0x20\n      dup1\n      swap2\n      div\n      mul\n      0x20\n      add\n      mload(0x40)\n      swap1\n      dup2\n      add\n      0x40\n      mstore\n      dup1\n      swap3\n      swap2\n      swap1\n      dup2\n      dup2\n      mstore\n      0x20\n      add\n      dup3\n      dup1\n      sload\n      tag_56\n      swap1\n      tag_34\n      jump\t// in\n    tag_56:\n      dup1\n      iszero\n      tag_57\n      jumpi\n      dup1\n      0x1f\n      lt\n      tag_58\n      jumpi\n      0x0100\n      dup1\n      dup4\n      sload\n      div\n      mul\n      dup4\n      mstore\n      swap2\n      0x20\n      add\n      swap2\n      jump(tag_57)\n    tag_58:\n      dup3\n      add\n      swap2\n      swap1\n      0x00\n      mstore\n      keccak256(0x00, 0x20)\n      swap1\n    tag_59:\n      dup2\n      sload\n      dup2\n      mstore\n      swap1\n      0x01\n      add\n      swap1\n      0x20\n      add\n      dup1\n      dup4\n      gt\n      tag_59\n      jumpi\n      dup3\n      swap1\n      sub\n      0x1f\n      and\n      dup3\n      add\n      swap2\n    tag_57:\n      pop\n      pop\n      pop\n      pop\n      pop\n      swap1\n      dup1\n      0x01\n      add\n      sload\n      swap1\n      dup1\n      0x02\n      add\n      0x00\n      swap1\n      sload\n      swap1\n      0x0100\n      exp\n      swap1\n      div\n      0xff\n      and\n      swap1\n      pop\n      dup4\n      jump\t// out\n        /* \"#utility.yul\":7:82   */\n    tag_60:\n        /* \"#utility.yul\":40:46   */\n      0x00\n        /* \"#utility.yul\":73:75   */\n      0x40\n        /* \"#utility.yul\":67:76   */\n      mload\n        /* \"#utility.yul\":57:76   */\n      swap1\n      pop\n        /* \"#utility.yul\":7:82   */\n      swap1\n      jump\t// out\n        /* \"#utility.yul\":88:205   */\n    tag_61:\n        /* \"#utility.yul\":197:198   */\n      0x00\n        /* \"#utility.yul\":194:195   */\n      dup1\n        /* \"#utility.yul\":187:199   */\n      revert\n        /* \"#utility.yul\":211:328   */\n    tag_62:\n        /* \"#utility.yul\":320:321   */\n      0x00\n        /* \"#utility.yul\":317:318   */\n      dup1\n        /* \"#utility.yul\":310:322   */\n      revert\n        /* \"#utility.yul\":334:460   */\n    tag_63:\n        /* \"#utility.yul\":371:378   */\n      0x00\n        /* \"#utility.yul\":411:453   */\n      0xffffffffffffffffffffffffffffffffffffffff\n        /* \"#utility.yul\":404:409   */\n      dup3\n        /* \"#utility.yul\":400:454   */\n      and\n        /* \"#utility.yul\":389:454   */\n      swap1\n      pop\n        /* \"#utility.yul\":334:460   */\n      swap2\n      swap1\n      pop\n      jump\t// out\n        /* \"#utility.yul\":466:562   */\n    tag_64:\n        /* \"#utility.yul\":503:510   */\n      0x00\n        /* \"#utility.yul\":532:556   */\n      tag_114\n        /* \"#utility.yul\":550:555   */\n      dup3\n        /* \"#utility.yul\":532:556   */\n      tag_63\n      jump\t// in\n    tag_114:\n        /* \"#utility.yul\":521:556   */\n      swap1\n      pop\n        /* \"#utility.yul\":466:562   */\n      swap2\n      swap1\n      pop\n      jump\t// out\n        /* \"#utility.yul\":568:690   */\n    tag_65:\n        /* \"#utility.yul\":641:665   */\n      tag_116\n        /* \"#utility.yul\":659:664   */\n      dup2\n        /* \"#utility.yul\":641:665   */\n      tag_64\n      jump\t// in\n    tag_116:\n        /* \"#utility.yul\":634:639   */\n      dup2\n        /* \"#utility.yul\":631:666   */\n      eq\n        /* \"#utility.yul\":621:684   */\n      tag_117\n      jumpi\n        /* \"#utility.yul\":680:681   */\n      0x00\n        /* \"#utility.yul\":677:678   */\n      dup1\n        /* \"#utility.yul\":670:682   */\n      revert\n        /* \"#utility.yul\":621:684   */\n    tag_117:\n        /* \"#utility.yul\":568:690   */\n      pop\n      jump\t// out\n        /* \"#utility.yul\":696:835   */\n    tag_66:\n        /* \"#utility.yul\":742:747   */\n      0x00\n        /* \"#utility.yul\":780:786   */\n      dup2\n        /* \"#utility.yul\":767:787   */\n      calldataload\n        /* \"#utility.yul\":758:787   */\n      swap1\n      pop\n        /* \"#utility.yul\":796:829   */\n      tag_119\n        /* \"#utility.yul\":823:828   */\n      dup2\n        /* \"#utility.yul\":796:829   */\n      tag_65\n      jump\t// in\n    tag_119:\n        /* \"#utility.yul\":696:835   */\n      swap3\n      swap2\n      pop\n      pop\n      jump\t// out\n        /* \"#utility.yul\":841:1170   */\n    tag_10:\n        /* \"#utility.yul\":900:906   */\n      0x00\n        /* \"#utility.yul\":949:951   */\n      0x20\n        /* \"#utility.yul\":937:946   */\n      dup3\n        /* \"#utility.yul\":928:935   */\n      dup5\n        /* \"#utility.yul\":924:947   */\n      sub\n        /* \"#utility.yul\":920:952   */\n      slt\n        /* \"#utility.yul\":917:1036   */\n      iszero\n      tag_121\n      jumpi\n        /* \"#utility.yul\":955:1034   */\n      tag_122\n      tag_61\n      jump\t// in\n    tag_122:\n        /* \"#utility.yul\":917:1036   */\n    tag_121:\n        /* \"#utility.yul\":1075:1076   */\n      0x00\n        /* \"#utility.yul\":1100:1153   */\n      tag_123\n        /* \"#utility.yul\":1145:1152   */\n      dup5\n        /* \"#utility.yul\":1136:1142   */\n      dup3\n        /* \"#utility.yul\":1125:1134   */\n      dup6\n        /* \"#utility.yul\":1121:1143   */\n      add\n        /* \"#utility.yul\":1100:1153   */\n      tag_66\n      jump\t// in\n    tag_123:\n        /* \"#utility.yul\":1090:1153   */\n      swap2\n      pop\n        /* \"#utility.yul\":1046:1163   */\n      pop\n        /* \"#utility.yul\":841:1170   */\n      swap3\n      swap2\n      pop\n      pop\n      jump\t// out\n        /* \"#utility.yul\":1176:1275   */\n    tag_67:\n        /* \"#utility.yul\":1228:1234   */\n      0x00\n        /* \"#utility.yul\":1262:1267   */\n      dup2\n        /* \"#utility.yul\":1256:1268   */\n      mload\n        /* \"#utility.yul\":1246:1268   */\n      swap1\n      pop\n        /* \"#utility.yul\":1176:1275   */\n      swap2\n      swap1\n      pop\n      jump\t// out\n        /* \"#utility.yul\":1281:1450   */\n    tag_68:\n        /* \"#utility.yul\":1365:1376   */\n      0x00\n        /* \"#utility.yul\":1399:1405   */\n      dup3\n        /* \"#utility.yul\":1394:1397   */\n      dup3\n        /* \"#utility.yul\":1387:1406   */\n      mstore\n        /* \"#utility.yul\":1439:1443   */\n      0x20\n        /* \"#utility.yul\":1434:1437   */\n      dup3\n        /* \"#utility.yul\":1430:1444   */\n      add\n        /* \"#utility.yul\":1415:1444   */\n      swap1\n      pop\n        /* \"#utility.yul\":1281:1450   */\n      swap3\n      swap2\n      pop\n      pop\n      jump\t// out\n        /* \"#utility.yul\":1456:1595   */\n    tag_69:\n        /* \"#utility.yul\":1545:1551   */\n      dup3\n        /* \"#utility.yul\":1540:1543   */\n      dup2\n        /* \"#utility.yul\":1535:1538   */\n      dup4\n        /* \"#utility.yul\":1529:1552   */\n      mcopy\n        /* \"#utility.yul\":1586:1587   */\n      0x00\n        /* \"#utility.yul\":1577:1583   */\n      dup4\n        /* \"#utility.yul\":1572:1575   */\n      dup4\n        /* \"#utility.yul\":1568:1584   */\n      add\n        /* \"#utility.yul\":1561:1588   */\n      mstore\n        /* \"#utility.yul\":1456:1595   */\n      pop\n      pop\n      pop\n      jump\t// out\n        /* \"#utility.yul\":1601:1703   */\n    tag_70:\n        /* \"#utility.yul\":1642:1648   */\n      0x00\n        /* \"#utility.yul\":1693:1695   */\n      0x1f\n        /* \"#utility.yul\":1689:1696   */\n      not\n        /* \"#utility.yul\":1684:1686   */\n      0x1f\n        /* \"#utility.yul\":1677:1682   */\n      dup4\n        /* \"#utility.yul\":1673:1687   */\n      add\n        /* \"#utility.yul\":1669:1697   */\n      and\n        /* \"#utility.yul\":1659:1697   */\n      swap1\n      pop\n        /* \"#utility.yul\":1601:1703   */\n      swap2\n      swap1\n      pop\n      jump\t// out\n        /* \"#utility.yul\":1709:2086   */\n    tag_71:\n        /* \"#utility.yul\":1797:1800   */\n      0x00\n        /* \"#utility.yul\":1825:1864   */\n      tag_129\n        /* \"#utility.yul\":1858:1863   */\n      dup3\n        /* \"#utility.yul\":1825:1864   */\n      tag_67\n      jump\t// in\n    tag_129:\n        /* \"#utility.yul\":1880:1951   */\n      tag_130\n        /* \"#utility.yul\":1944:1950   */\n      dup2\n        /* \"#utility.yul\":1939:1942   */\n      dup6\n        /* \"#utility.yul\":1880:1951   */\n      tag_68\n      jump\t// in\n    tag_130:\n        /* \"#utility.yul\":1873:1951   */\n      swap4\n      pop\n        /* \"#utility.yul\":1960:2025   */\n      tag_131\n        /* \"#utility.yul\":2018:2024   */\n      dup2\n        /* \"#utility.yul\":2013:2016   */\n      dup6\n        /* \"#utility.yul\":2006:2010   */\n      0x20\n        /* \"#utility.yul\":1999:2004   */\n      dup7\n        /* \"#utility.yul\":1995:2011   */\n      add\n        /* \"#utility.yul\":1960:2025   */\n      tag_69\n      jump\t// in\n    tag_131:\n        /* \"#utility.yul\":2050:2079   */\n      tag_132\n        /* \"#utility.yul\":2072:2078   */\n      dup2\n        /* \"#utility.yul\":2050:2079   */\n      tag_70\n      jump\t// in\n    tag_132:\n        /* \"#utility.yul\":2045:2048   */\n      dup5\n        /* \"#utility.yul\":2041:2080   */\n      add\n        /* \"#utility.yul\":2034:2080   */\n      swap2\n      pop\n        /* \"#utility.yul\":1801:2086   */\n      pop\n        /* \"#utility.yul\":1709:2086   */\n      swap3\n      swap2\n      pop\n      pop\n      jump\t// out\n        /* \"#utility.yul\":2092:2169   */\n    tag_72:\n        /* \"#utility.yul\":2129:2136   */\n      0x00\n        /* \"#utility.yul\":2158:2163   */\n      dup2\n        /* \"#utility.yul\":2147:2163   */\n      swap1\n      pop\n        /* \"#utility.yul\":2092:2169   */\n      swap2\n      swap1\n      pop\n      jump\t// out\n        /* \"#utility.yul\":2175:2293   */\n    tag_73:\n        /* \"#utility.yul\":2262:2286   */\n      tag_135\n        /* \"#utility.yul\":2280:2285   */\n      dup2\n        /* \"#utility.yul\":2262:2286   */\n      tag_72\n      jump\t// in\n    tag_135:\n        /* \"#utility.yul\":2257:2260   */\n      dup3\n        /* \"#utility.yul\":2250:2287   */\n      mstore\n        /* \"#utility.yul\":2175:2293   */\n      pop\n      pop\n      jump\t// out\n        /* \"#utility.yul\":2299:2479   */\n    tag_41:\n        /* \"#utility.yul\":2347:2424   */\n      0x4e487b7100000000000000000000000000000000000000000000000000000000\n        /* \"#utility.yul\":2344:2345   */\n      0x00\n        /* \"#utility.yul\":2337:2425   */\n      mstore\n        /* \"#utility.yul\":2444:2448   */\n      0x21\n        /* \"#utility.yul\":2441:2442   */\n      0x04\n        /* \"#utility.yul\":2434:2449   */\n      mstore\n        /* \"#utility.yul\":2468:2472   */\n      0x24\n        /* \"#utility.yul\":2465:2466   */\n      0x00\n        /* \"#utility.yul\":2458:2473   */\n      revert\n        /* \"#utility.yul\":2485:2602   */\n    tag_74:\n        /* \"#utility.yul\":2570:2571   */\n      0x04\n        /* \"#utility.yul\":2563:2568   */\n      dup2\n        /* \"#utility.yul\":2560:2572   */\n      lt\n        /* \"#utility.yul\":2550:2596   */\n      tag_138\n      jumpi\n        /* \"#utility.yul\":2576:2594   */\n      tag_139\n      tag_41\n      jump\t// in\n    tag_139:\n        /* \"#utility.yul\":2550:2596   */\n    tag_138:\n        /* \"#utility.yul\":2485:2602   */\n      pop\n      jump\t// out\n        /* \"#utility.yul\":2608:2743   */\n    tag_75:\n        /* \"#utility.yul\":2657:2664   */\n      0x00\n        /* \"#utility.yul\":2686:2691   */\n      dup2\n        /* \"#utility.yul\":2675:2691   */\n      swap1\n      pop\n        /* \"#utility.yul\":2692:2737   */\n      tag_141\n        /* \"#utility.yul\":2731:2736   */\n      dup3\n        /* \"#utility.yul\":2692:2737   */\n      tag_74\n      jump\t// in\n    tag_141:\n        /* \"#utility.yul\":2608:2743   */\n      swap2\n      swap1\n      pop\n      jump\t// out\n        /* \"#utility.yul\":2749:2884   */\n    tag_76:\n        /* \"#utility.yul\":2809:2818   */\n      0x00\n        /* \"#utility.yul\":2842:2878   */\n      tag_143\n        /* \"#utility.yul\":2872:2877   */\n      dup3\n        /* \"#utility.yul\":2842:2878   */\n      tag_75\n      jump\t// in\n    tag_143:\n        /* \"#utility.yul\":2829:2878   */\n      swap1\n      pop\n        /* \"#utility.yul\":2749:2884   */\n      swap2\n      swap1\n      pop\n      jump\t// out\n        /* \"#utility.yul\":2890:3041   */\n    tag_77:\n        /* \"#utility.yul\":2987:3034   */\n      tag_145\n        /* \"#utility.yul\":3028:3033   */\n      dup2\n        /* \"#utility.yul\":2987:3034   */\n      tag_76\n      jump\t// in\n    tag_145:\n        /* \"#utility.yul\":2982:2985   */\n      dup3\n        /* \"#utility.yul\":2975:3035   */\n      mstore\n        /* \"#utility.yul\":2890:3041   */\n      pop\n      pop\n      jump\t// out\n        /* \"#utility.yul\":3047:3600   */\n    tag_13:\n        /* \"#utility.yul\":3226:3230   */\n      0x00\n        /* \"#utility.yul\":3264:3266   */\n      0x60\n        /* \"#utility.yul\":3253:3262   */\n      dup3\n        /* \"#utility.yul\":3249:3267   */\n      add\n        /* \"#utility.yul\":3241:3267   */\n      swap1\n      pop\n        /* \"#utility.yul\":3313:3322   */\n      dup2\n        /* \"#utility.yul\":3307:3311   */\n      dup2\n        /* \"#utility.yul\":3303:3323   */\n      sub\n        /* \"#utility.yul\":3299:3300   */\n      0x00\n        /* \"#utility.yul\":3288:3297   */\n      dup4\n        /* \"#utility.yul\":3284:3301   */\n      add\n        /* \"#utility.yul\":3277:3324   */\n      mstore\n        /* \"#utility.yul\":3341:3419   */\n      tag_147\n        /* \"#utility.yul\":3414:3418   */\n      dup2\n        /* \"#utility.yul\":3405:3411   */\n      dup7\n        /* \"#utility.yul\":3341:3419   */\n      tag_71\n      jump\t// in\n    tag_147:\n        /* \"#utility.yul\":3333:3419   */\n      swap1\n      pop\n        /* \"#utility.yul\":3429:3501   */\n      tag_148\n        /* \"#utility.yul\":3497:3499   */\n      0x20\n        /* \"#utility.yul\":3486:3495   */\n      dup4\n        /* \"#utility.yul\":3482:3500   */\n      add\n        /* \"#utility.yul\":3473:3479   */\n      dup6\n        /* \"#utility.yul\":3429:3501   */\n      tag_73\n      jump\t// in\n    tag_148:\n        /* \"#utility.yul\":3511:3593   */\n      tag_149\n        /* \"#utility.yul\":3589:3591   */\n      0x40\n        /* \"#utility.yul\":3578:3587   */\n      dup4\n        /* \"#utility.yul\":3574:3592   */\n      add\n        /* \"#utility.yul\":3565:3571   */\n      dup5\n        /* \"#utility.yul\":3511:3593   */\n      tag_77\n      jump\t// in\n    tag_149:\n        /* \"#utility.yul\":3047:3600   */\n      swap5\n      swap4\n      pop\n      pop\n      pop\n      pop\n      jump\t// out\n        /* \"#utility.yul\":3606:3828   */\n    tag_17:\n        /* \"#utility.yul\":3699:3703   */\n      0x00\n        /* \"#utility.yul\":3737:3739   */\n      0x20\n        /* \"#utility.yul\":3726:3735   */\n      dup3\n        /* \"#utility.yul\":3722:3740   */\n      add\n        /* \"#utility.yul\":3714:3740   */\n      swap1\n      pop\n        /* \"#utility.yul\":3750:3821   */\n      tag_151\n        /* \"#utility.yul\":3818:3819   */\n      0x00\n        /* \"#utility.yul\":3807:3816   */\n      dup4\n        /* \"#utility.yul\":3803:3820   */\n      add\n        /* \"#utility.yul\":3794:3800   */\n      dup5\n        /* \"#utility.yul\":3750:3821   */\n      tag_73\n      jump\t// in\n    tag_151:\n        /* \"#utility.yul\":3606:3828   */\n      swap3\n      swap2\n      pop\n      pop\n      jump\t// out\n        /* \"#utility.yul\":3834:3951   */\n    tag_78:\n        /* \"#utility.yul\":3943:3944   */\n      0x00\n        /* \"#utility.yul\":3940:3941   */\n      dup1\n        /* \"#utility.yul\":3933:3945   */\n      revert\n        /* \"#utility.yul\":3957:4074   */\n    tag_79:\n        /* \"#utility.yul\":4066:4067   */\n      0x00\n        /* \"#utility.yul\":4063:4064   */\n      dup1\n        /* \"#utility.yul\":4056:4068   */\n      revert\n        /* \"#utility.yul\":4080:4260   */\n    tag_80:\n        /* \"#utility.yul\":4128:4205   */\n      0x4e487b7100000000000000000000000000000000000000000000000000000000\n        /* \"#utility.yul\":4125:4126   */\n      0x00\n        /* \"#utility.yul\":4118:4206   */\n      mstore\n        /* \"#utility.yul\":4225:4229   */\n      0x41\n        /* \"#utility.yul\":4222:4223   */\n      0x04\n        /* \"#utility.yul\":4215:4230   */\n      mstore\n        /* \"#utility.yul\":4249:4253   */\n      0x24\n        /* \"#utility.yul\":4246:4247   */\n      0x00\n        /* \"#utility.yul\":4239:4254   */\n      revert\n        /* \"#utility.yul\":4266:4547   */\n    tag_81:\n        /* \"#utility.yul\":4349:4376   */\n      tag_156\n        /* \"#utility.yul\":4371:4375   */\n      dup3\n        /* \"#utility.yul\":4349:4376   */\n      tag_70\n      jump\t// in\n    tag_156:\n        /* \"#utility.yul\":4341:4347   */\n      dup2\n        /* \"#utility.yul\":4337:4377   */\n      add\n        /* \"#utility.yul\":4479:4485   */\n      dup2\n        /* \"#utility.yul\":4467:4477   */\n      dup2\n        /* \"#utility.yul\":4464:4486   */\n      lt\n        /* \"#utility.yul\":4443:4461   */\n      0xffffffffffffffff\n        /* \"#utility.yul\":4431:4441   */\n      dup3\n        /* \"#utility.yul\":4428:4462   */\n      gt\n        /* \"#utility.yul\":4425:4487   */\n      or\n        /* \"#utility.yul\":4422:4510   */\n      iszero\n      tag_157\n      jumpi\n        /* \"#utility.yul\":4490:4508   */\n      tag_158\n      tag_80\n      jump\t// in\n    tag_158:\n        /* \"#utility.yul\":4422:4510   */\n    tag_157:\n        /* \"#utility.yul\":4530:4540   */\n      dup1\n        /* \"#utility.yul\":4526:4528   */\n      0x40\n        /* \"#utility.yul\":4519:4541   */\n      mstore\n        /* \"#utility.yul\":4309:4547   */\n      pop\n        /* \"#utility.yul\":4266:4547   */\n      pop\n      pop\n      jump\t// out\n        /* \"#utility.yul\":4553:4682   */\n    tag_82:\n        /* \"#utility.yul\":4587:4593   */\n      0x00\n        /* \"#utility.yul\":4614:4634   */\n      tag_160\n      tag_60\n      jump\t// in\n    tag_160:\n        /* \"#utility.yul\":4604:4634   */\n      swap1\n      pop\n        /* \"#utility.yul\":4643:4676   */\n      tag_161\n        /* \"#utility.yul\":4671:4675   */\n      dup3\n        /* \"#utility.yul\":4663:4669   */\n      dup3\n        /* \"#utility.yul\":4643:4676   */\n      tag_81\n      jump\t// in\n    tag_161:\n        /* \"#utility.yul\":4553:4682   */\n      swap2\n      swap1\n      pop\n      jump\t// out\n        /* \"#utility.yul\":4688:4996   */\n    tag_83:\n        /* \"#utility.yul\":4750:4754   */\n      0x00\n        /* \"#utility.yul\":4840:4858   */\n      0xffffffffffffffff\n        /* \"#utility.yul\":4832:4838   */\n      dup3\n        /* \"#utility.yul\":4829:4859   */\n      gt\n        /* \"#utility.yul\":4826:4882   */\n      iszero\n      tag_163\n      jumpi\n        /* \"#utility.yul\":4862:4880   */\n      tag_164\n      tag_80\n      jump\t// in\n    tag_164:\n        /* \"#utility.yul\":4826:4882   */\n    tag_163:\n        /* \"#utility.yul\":4900:4929   */\n      tag_165\n        /* \"#utility.yul\":4922:4928   */\n      dup3\n        /* \"#utility.yul\":4900:4929   */\n      tag_70\n      jump\t// in\n    tag_165:\n        /* \"#utility.yul\":4892:4929   */\n      swap1\n      pop\n        /* \"#utility.yul\":4984:4988   */\n      0x20\n        /* \"#utility.yul\":4978:4982   */\n      dup2\n        /* \"#utility.yul\":4974:4989   */\n      add\n        /* \"#utility.yul\":4966:4989   */\n      swap1\n      pop\n        /* \"#utility.yul\":4688:4996   */\n      swap2\n      swap1\n      pop\n      jump\t// out\n        /* \"#utility.yul\":5002:5150   */\n    tag_84:\n        /* \"#utility.yul\":5100:5106   */\n      dup3\n        /* \"#utility.yul\":5095:5098   */\n      dup2\n        /* \"#utility.yul\":5090:5093   */\n      dup4\n        /* \"#utility.yul\":5077:5107   */\n      calldatacopy\n        /* \"#utility.yul\":5141:5142   */\n      0x00\n        /* \"#utility.yul\":5132:5138   */\n      dup4\n        /* \"#utility.yul\":5127:5130   */\n      dup4\n        /* \"#utility.yul\":5123:5139   */\n      add\n        /* \"#utility.yul\":5116:5143   */\n      mstore\n        /* \"#utility.yul\":5002:5150   */\n      pop\n      pop\n      pop\n      jump\t// out\n        /* \"#utility.yul\":5156:5581   */\n    tag_85:\n        /* \"#utility.yul\":5234:5239   */\n      0x00\n        /* \"#utility.yul\":5259:5325   */\n      tag_168\n        /* \"#utility.yul\":5275:5324   */\n      tag_169\n        /* \"#utility.yul\":5317:5323   */\n      dup5\n        /* \"#utility.yul\":5275:5324   */\n      tag_83\n      jump\t// in\n    tag_169:\n        /* \"#utility.yul\":5259:5325   */\n      tag_82\n      jump\t// in\n    tag_168:\n        /* \"#utility.yul\":5250:5325   */\n      swap1\n      pop\n        /* \"#utility.yul\":5348:5354   */\n      dup3\n        /* \"#utility.yul\":5341:5346   */\n      dup2\n        /* \"#utility.yul\":5334:5355   */\n      mstore\n        /* \"#utility.yul\":5386:5390   */\n      0x20\n        /* \"#utility.yul\":5379:5384   */\n      dup2\n        /* \"#utility.yul\":5375:5391   */\n      add\n        /* \"#utility.yul\":5424:5427   */\n      dup5\n        /* \"#utility.yul\":5415:5421   */\n      dup5\n        /* \"#utility.yul\":5410:5413   */\n      dup5\n        /* \"#utility.yul\":5406:5422   */\n      add\n        /* \"#utility.yul\":5403:5428   */\n      gt\n        /* \"#utility.yul\":5400:5512   */\n      iszero\n      tag_170\n      jumpi\n        /* \"#utility.yul\":5431:5510   */\n      tag_171\n      tag_79\n      jump\t// in\n    tag_171:\n        /* \"#utility.yul\":5400:5512   */\n    tag_170:\n        /* \"#utility.yul\":5521:5575   */\n      tag_172\n        /* \"#utility.yul\":5568:5574   */\n      dup5\n        /* \"#utility.yul\":5563:5566   */\n      dup3\n        /* \"#utility.yul\":5558:5561   */\n      dup6\n        /* \"#utility.yul\":5521:5575   */\n      tag_84\n      jump\t// in\n    tag_172:\n        /* \"#utility.yul\":5240:5581   */\n      pop\n        /* \"#utility.yul\":5156:5581   */\n      swap4\n      swap3\n      pop\n      pop\n      pop\n      jump\t// out\n        /* \"#utility.yul\":5601:5941   */\n    tag_86:\n        /* \"#utility.yul\":5657:5662   */\n      0x00\n        /* \"#utility.yul\":5706:5709   */\n      dup3\n        /* \"#utility.yul\":5699:5703   */\n      0x1f\n        /* \"#utility.yul\":5691:5697   */\n      dup4\n        /* \"#utility.yul\":5687:5704   */\n      add\n        /* \"#utility.yul\":5683:5710   */\n      slt\n        /* \"#utility.yul\":5673:5795   */\n      tag_174\n      jumpi\n        /* \"#utility.yul\":5714:5793   */\n      tag_175\n      tag_78\n      jump\t// in\n    tag_175:\n        /* \"#utility.yul\":5673:5795   */\n    tag_174:\n        /* \"#utility.yul\":5831:5837   */\n      dup2\n        /* \"#utility.yul\":5818:5838   */\n      calldataload\n        /* \"#utility.yul\":5856:5935   */\n      tag_176\n        /* \"#utility.yul\":5931:5934   */\n      dup5\n        /* \"#utility.yul\":5923:5929   */\n      dup3\n        /* \"#utility.yul\":5916:5920   */\n      0x20\n        /* \"#utility.yul\":5908:5914   */\n      dup7\n        /* \"#utility.yul\":5904:5921   */\n      add\n        /* \"#utility.yul\":5856:5935   */\n      tag_85\n      jump\t// in\n    tag_176:\n        /* \"#utility.yul\":5847:5935   */\n      swap2\n      pop\n        /* \"#utility.yul\":5663:5941   */\n      pop\n        /* \"#utility.yul\":5601:5941   */\n      swap3\n      swap2\n      pop\n      pop\n      jump\t// out\n        /* \"#utility.yul\":5947:6069   */\n    tag_87:\n        /* \"#utility.yul\":6020:6044   */\n      tag_178\n        /* \"#utility.yul\":6038:6043   */\n      dup2\n        /* \"#utility.yul\":6020:6044   */\n      tag_72\n      jump\t// in\n    tag_178:\n        /* \"#utility.yul\":6013:6018   */\n      dup2\n        /* \"#utility.yul\":6010:6045   */\n      eq\n        /* \"#utility.yul\":6000:6063   */\n      tag_179\n      jumpi\n        /* \"#utility.yul\":6059:6060   */\n      0x00\n        /* \"#utility.yul\":6056:6057   */\n      dup1\n        /* \"#utility.yul\":6049:6061   */\n      revert\n        /* \"#utility.yul\":6000:6063   */\n    tag_179:\n        /* \"#utility.yul\":5947:6069   */\n      pop\n      jump\t// out\n        /* \"#utility.yul\":6075:6214   */\n    tag_88:\n        /* \"#utility.yul\":6121:6126   */\n      0x00\n        /* \"#utility.yul\":6159:6165   */\n      dup2\n        /* \"#utility.yul\":6146:6166   */\n      calldataload\n        /* \"#utility.yul\":6137:6166   */\n      swap1\n      pop\n        /* \"#utility.yul\":6175:6208   */\n      tag_181\n        /* \"#utility.yul\":6202:6207   */\n      dup2\n        /* \"#utility.yul\":6175:6208   */\n      tag_87\n      jump\t// in\n    tag_181:\n        /* \"#utility.yul\":6075:6214   */\n      swap3\n      swap2\n      pop\n      pop\n      jump\t// out\n        /* \"#utility.yul\":6220:6331   */\n    tag_89:\n        /* \"#utility.yul\":6305:6306   */\n      0x04\n        /* \"#utility.yul\":6298:6303   */\n      dup2\n        /* \"#utility.yul\":6295:6307   */\n      lt\n        /* \"#utility.yul\":6285:6325   */\n      tag_183\n      jumpi\n        /* \"#utility.yul\":6321:6322   */\n      0x00\n        /* \"#utility.yul\":6318:6319   */\n      dup1\n        /* \"#utility.yul\":6311:6323   */\n      revert\n        /* \"#utility.yul\":6285:6325   */\n    tag_183:\n        /* \"#utility.yul\":6220:6331   */\n      pop\n      jump\t// out\n        /* \"#utility.yul\":6337:6500   */\n    tag_90:\n        /* \"#utility.yul\":6395:6400   */\n      0x00\n        /* \"#utility.yul\":6433:6439   */\n      dup2\n        /* \"#utility.yul\":6420:6440   */\n      calldataload\n        /* \"#utility.yul\":6411:6440   */\n      swap1\n      pop\n        /* \"#utility.yul\":6449:6494   */\n      tag_185\n        /* \"#utility.yul\":6488:6493   */\n      dup2\n        /* \"#utility.yul\":6449:6494   */\n      tag_89\n      jump\t// in\n    tag_185:\n        /* \"#utility.yul\":6337:6500   */\n      swap3\n      swap2\n      pop\n      pop\n      jump\t// out\n        /* \"#utility.yul\":6506:7475   */\n    tag_20:\n        /* \"#utility.yul\":6614:6620   */\n      0x00\n        /* \"#utility.yul\":6622:6628   */\n      dup1\n        /* \"#utility.yul\":6630:6636   */\n      0x00\n        /* \"#utility.yul\":6638:6644   */\n      dup1\n        /* \"#utility.yul\":6687:6690   */\n      0x80\n        /* \"#utility.yul\":6675:6684   */\n      dup6\n        /* \"#utility.yul\":6666:6673   */\n      dup8\n        /* \"#utility.yul\":6662:6685   */\n      sub\n        /* \"#utility.yul\":6658:6691   */\n      slt\n        /* \"#utility.yul\":6655:6775   */\n      iszero\n      tag_187\n      jumpi\n        /* \"#utility.yul\":6694:6773   */\n      tag_188\n      tag_61\n      jump\t// in\n    tag_188:\n        /* \"#utility.yul\":6655:6775   */\n    tag_187:\n        /* \"#utility.yul\":6814:6815   */\n      0x00\n        /* \"#utility.yul\":6839:6892   */\n      tag_189\n        /* \"#utility.yul\":6884:6891   */\n      dup8\n        /* \"#utility.yul\":6875:6881   */\n      dup3\n        /* \"#utility.yul\":6864:6873   */\n      dup9\n        /* \"#utility.yul\":6860:6882   */\n      add\n        /* \"#utility.yul\":6839:6892   */\n      tag_66\n      jump\t// in\n    tag_189:\n        /* \"#utility.yul\":6829:6892   */\n      swap5\n      pop\n        /* \"#utility.yul\":6785:6902   */\n      pop\n        /* \"#utility.yul\":6969:6971   */\n      0x20\n        /* \"#utility.yul\":6958:6967   */\n      dup6\n        /* \"#utility.yul\":6954:6972   */\n      add\n        /* \"#utility.yul\":6941:6973   */\n      calldataload\n        /* \"#utility.yul\":7000:7018   */\n      0xffffffffffffffff\n        /* \"#utility.yul\":6992:6998   */\n      dup2\n        /* \"#utility.yul\":6989:7019   */\n      gt\n        /* \"#utility.yul\":6986:7103   */\n      iszero\n      tag_190\n      jumpi\n        /* \"#utility.yul\":7022:7101   */\n      tag_191\n      tag_62\n      jump\t// in\n    tag_191:\n        /* \"#utility.yul\":6986:7103   */\n    tag_190:\n        /* \"#utility.yul\":7127:7190   */\n      tag_192\n        /* \"#utility.yul\":7182:7189   */\n      dup8\n        /* \"#utility.yul\":7173:7179   */\n      dup3\n        /* \"#utility.yul\":7162:7171   */\n      dup9\n        /* \"#utility.yul\":7158:7180   */\n      add\n        /* \"#utility.yul\":7127:7190   */\n      tag_86\n      jump\t// in\n    tag_192:\n        /* \"#utility.yul\":7117:7190   */\n      swap4\n      pop\n        /* \"#utility.yul\":6912:7200   */\n      pop\n        /* \"#utility.yul\":7239:7241   */\n      0x40\n        /* \"#utility.yul\":7265:7318   */\n      tag_193\n        /* \"#utility.yul\":7310:7317   */\n      dup8\n        /* \"#utility.yul\":7301:7307   */\n      dup3\n        /* \"#utility.yul\":7290:7299   */\n      dup9\n        /* \"#utility.yul\":7286:7308   */\n      add\n        /* \"#utility.yul\":7265:7318   */\n      tag_88\n      jump\t// in\n    tag_193:\n        /* \"#utility.yul\":7255:7318   */\n      swap3\n      pop\n        /* \"#utility.yul\":7210:7328   */\n      pop\n        /* \"#utility.yul\":7367:7369   */\n      0x60\n        /* \"#utility.yul\":7393:7458   */\n      tag_194\n        /* \"#utility.yul\":7450:7457   */\n      dup8\n        /* \"#utility.yul\":7441:7447   */\n      dup3\n        /* \"#utility.yul\":7430:7439   */\n      dup9\n        /* \"#utility.yul\":7426:7448   */\n      add\n        /* \"#utility.yul\":7393:7458   */\n      tag_90\n      jump\t// in\n    tag_194:\n        /* \"#utility.yul\":7383:7458   */\n      swap2\n      pop\n        /* \"#utility.yul\":7338:7468   */\n      pop\n        /* \"#utility.yul\":6506:7475   */\n      swap3\n      swap6\n      swap2\n      swap5\n      pop\n      swap3\n      pop\n      jump\t// out\n        /* \"#utility.yul\":7481:7810   */\n    tag_24:\n        /* \"#utility.yul\":7540:7546   */\n      0x00\n        /* \"#utility.yul\":7589:7591   */\n      0x20\n        /* \"#utility.yul\":7577:7586   */\n      dup3\n        /* \"#utility.yul\":7568:7575   */\n      dup5\n        /* \"#utility.yul\":7564:7587   */\n      sub\n        /* \"#utility.yul\":7560:7592   */\n      slt\n        /* \"#utility.yul\":7557:7676   */\n      iszero\n      tag_196\n      jumpi\n        /* \"#utility.yul\":7595:7674   */\n      tag_197\n      tag_61\n      jump\t// in\n    tag_197:\n        /* \"#utility.yul\":7557:7676   */\n    tag_196:\n        /* \"#utility.yul\":7715:7716   */\n      0x00\n        /* \"#utility.yul\":7740:7793   */\n      tag_198\n        /* \"#utility.yul\":7785:7792   */\n      dup5\n        /* \"#utility.yul\":7776:7782   */\n      dup3\n        /* \"#utility.yul\":7765:7774   */\n      dup6\n        /* \"#utility.yul\":7761:7783   */\n      add\n        /* \"#utility.yul\":7740:7793   */\n      tag_88\n      jump\t// in\n    tag_198:\n        /* \"#utility.yul\":7730:7793   */\n      swap2\n      pop\n        /* \"#utility.yul\":7686:7803   */\n      pop\n        /* \"#utility.yul\":7481:7810   */\n      swap3\n      swap2\n      pop\n      pop\n      jump\t// out\n        /* \"#utility.yul\":7816:7934   */\n    tag_91:\n        /* \"#utility.yul\":7903:7927   */\n      tag_200\n        /* \"#utility.yul\":7921:7926   */\n      dup2\n        /* \"#utility.yul\":7903:7927   */\n      tag_64\n      jump\t// in\n    tag_200:\n        /* \"#utility.yul\":7898:7901   */\n      dup3\n        /* \"#utility.yul\":7891:7928   */\n      mstore\n        /* \"#utility.yul\":7816:7934   */\n      pop\n      pop\n      jump\t// out\n        /* \"#utility.yul\":7940:8162   */\n    tag_27:\n        /* \"#utility.yul\":8033:8037   */\n      0x00\n        /* \"#utility.yul\":8071:8073   */\n      0x20\n        /* \"#utility.yul\":8060:8069   */\n      dup3\n        /* \"#utility.yul\":8056:8074   */\n      add\n        /* \"#utility.yul\":8048:8074   */\n      swap1\n      pop\n        /* \"#utility.yul\":8084:8155   */\n      tag_202\n        /* \"#utility.yul\":8152:8153   */\n      0x00\n        /* \"#utility.yul\":8141:8150   */\n      dup4\n        /* \"#utility.yul\":8137:8154   */\n      add\n        /* \"#utility.yul\":8128:8134   */\n      dup5\n        /* \"#utility.yul\":8084:8155   */\n      tag_91\n      jump\t// in\n    tag_202:\n        /* \"#utility.yul\":7940:8162   */\n      swap3\n      swap2\n      pop\n      pop\n      jump\t// out\n        /* \"#utility.yul\":8168:8348   */\n    tag_92:\n        /* \"#utility.yul\":8216:8293   */\n      0x4e487b7100000000000000000000000000000000000000000000000000000000\n        /* \"#utility.yul\":8213:8214   */\n      0x00\n        /* \"#utility.yul\":8206:8294   */\n      mstore\n        /* \"#utility.yul\":8313:8317   */\n      0x22\n        /* \"#utility.yul\":8310:8311   */\n      0x04\n        /* \"#utility.yul\":8303:8318   */\n      mstore\n        /* \"#utility.yul\":8337:8341   */\n      0x24\n        /* \"#utility.yul\":8334:8335   */\n      0x00\n        /* \"#utility.yul\":8327:8342   */\n      revert\n        /* \"#utility.yul\":8354:8674   */\n    tag_34:\n        /* \"#utility.yul\":8398:8404   */\n      0x00\n        /* \"#utility.yul\":8435:8436   */\n      0x02\n        /* \"#utility.yul\":8429:8433   */\n      dup3\n        /* \"#utility.yul\":8425:8437   */\n      div\n        /* \"#utility.yul\":8415:8437   */\n      swap1\n      pop\n        /* \"#utility.yul\":8482:8483   */\n      0x01\n        /* \"#utility.yul\":8476:8480   */\n      dup3\n        /* \"#utility.yul\":8472:8484   */\n      and\n        /* \"#utility.yul\":8503:8521   */\n      dup1\n        /* \"#utility.yul\":8493:8574   */\n      tag_205\n      jumpi\n        /* \"#utility.yul\":8559:8563   */\n      0x7f\n        /* \"#utility.yul\":8551:8557   */\n      dup3\n        /* \"#utility.yul\":8547:8564   */\n      and\n        /* \"#utility.yul\":8537:8564   */\n      swap2\n      pop\n        /* \"#utility.yul\":8493:8574   */\n    tag_205:\n        /* \"#utility.yul\":8621:8623   */\n      0x20\n        /* \"#utility.yul\":8613:8619   */\n      dup3\n        /* \"#utility.yul\":8610:8624   */\n      lt\n        /* \"#utility.yul\":8590:8608   */\n      dup2\n        /* \"#utility.yul\":8587:8625   */\n      sub\n        /* \"#utility.yul\":8584:8668   */\n      tag_206\n      jumpi\n        /* \"#utility.yul\":8640:8658   */\n      tag_207\n      tag_92\n      jump\t// in\n    tag_207:\n        /* \"#utility.yul\":8584:8668   */\n    tag_206:\n        /* \"#utility.yul\":8405:8674   */\n      pop\n        /* \"#utility.yul\":8354:8674   */\n      swap2\n      swap1\n      pop\n      jump\t// out\n        /* \"#utility.yul\":8680:8821   */\n    tag_93:\n        /* \"#utility.yul\":8729:8733   */\n      0x00\n        /* \"#utility.yul\":8752:8755   */\n      dup2\n        /* \"#utility.yul\":8744:8755   */\n      swap1\n      pop\n        /* \"#utility.yul\":8775:8778   */\n      dup2\n        /* \"#utility.yul\":8772:8773   */\n      0x00\n        /* \"#utility.yul\":8765:8779   */\n      mstore\n        /* \"#utility.yul\":8809:8813   */\n      0x20\n        /* \"#utility.yul\":8806:8807   */\n      0x00\n        /* \"#utility.yul\":8796:8814   */\n      keccak256\n        /* \"#utility.yul\":8788:8814   */\n      swap1\n      pop\n        /* \"#utility.yul\":8680:8821   */\n      swap2\n      swap1\n      pop\n      jump\t// out\n        /* \"#utility.yul\":8827:8920   */\n    tag_94:\n        /* \"#utility.yul\":8864:8870   */\n      0x00\n        /* \"#utility.yul\":8911:8913   */\n      0x20\n        /* \"#utility.yul\":8906:8908   */\n      0x1f\n        /* \"#utility.yul\":8899:8904   */\n      dup4\n        /* \"#utility.yul\":8895:8909   */\n      add\n        /* \"#utility.yul\":8891:8914   */\n      div\n        /* \"#utility.yul\":8881:8914   */\n      swap1\n      pop\n        /* \"#utility.yul\":8827:8920   */\n      swap2\n      swap1\n      pop\n      jump\t// out\n        /* \"#utility.yul\":8926:9033   */\n    tag_95:\n        /* \"#utility.yul\":8970:8978   */\n      0x00\n        /* \"#utility.yul\":9020:9025   */\n      dup3\n        /* \"#utility.yul\":9014:9018   */\n      dup3\n        /* \"#utility.yul\":9010:9026   */\n      shl\n        /* \"#utility.yul\":8989:9026   */\n      swap1\n      pop\n        /* \"#utility.yul\":8926:9033   */\n      swap3\n      swap2\n      pop\n      pop\n      jump\t// out\n        /* \"#utility.yul\":9039:9432   */\n    tag_96:\n        /* \"#utility.yul\":9108:9114   */\n      0x00\n        /* \"#utility.yul\":9158:9159   */\n      0x08\n        /* \"#utility.yul\":9146:9156   */\n      dup4\n        /* \"#utility.yul\":9142:9160   */\n      mul\n        /* \"#utility.yul\":9181:9278   */\n      tag_212\n        /* \"#utility.yul\":9211:9277   */\n      0xffffffffffffffffffffffffffffffffffffffffffffffffffffffffffffffff\n        /* \"#utility.yul\":9200:9209   */\n      dup3\n        /* \"#utility.yul\":9181:9278   */\n      tag_95\n      jump\t// in\n    tag_212:\n        /* \"#utility.yul\":9299:9338   */\n      tag_213\n        /* \"#utility.yul\":9329:9337   */\n      dup7\n        /* \"#utility.yul\":9318:9327   */\n      dup4\n        /* \"#utility.yul\":9299:9338   */\n      tag_95\n      jump\t// in\n    tag_213:\n        /* \"#utility.yul\":9287:9338   */\n      swap6\n      pop\n        /* \"#utility.yul\":9371:9375   */\n      dup1\n        /* \"#utility.yul\":9367:9376   */\n      not\n        /* \"#utility.yul\":9360:9365   */\n      dup5\n        /* \"#utility.yul\":9356:9377   */\n      and\n        /* \"#utility.yul\":9347:9377   */\n      swap4\n      pop\n        /* \"#utility.yul\":9420:9424   */\n      dup1\n        /* \"#utility.yul\":9410:9418   */\n      dup7\n        /* \"#utility.yul\":9406:9425   */\n      and\n        /* \"#utility.yul\":9399:9404   */\n      dup5\n        /* \"#utility.yul\":9396:9426   */\n      or\n        /* \"#utility.yul\":9386:9426   */\n      swap3\n      pop\n        /* \"#utility.yul\":9115:9432   */\n      pop\n      pop\n        /* \"#utility.yul\":9039:9432   */\n      swap4\n      swap3\n      pop\n      pop\n      pop\n      jump\t// out\n        /* \"#utility.yul\":9438:9498   */\n    tag_97:\n        /* \"#utility.yul\":9466:9469   */\n      0x00\n        /* \"#utility.yul\":9487:9492   */\n      dup2\n        /* \"#utility.yul\":9480:9492   */\n      swap1\n      pop\n        /* \"#utility.yul\":9438:9498   */\n      swap2\n      swap1\n      pop\n      jump\t// out\n        /* \"#utility.yul\":9504:9646   */\n    tag_98:\n        /* \"#utility.yul\":9554:9563   */\n      0x00\n        /* \"#utility.yul\":9587:9640   */\n      tag_216\n        /* \"#utility.yul\":9605:9639   */\n      tag_217\n        /* \"#utility.yul\":9614:9638   */\n      tag_218\n        /* \"#utility.yul\":9632:9637   */\n      dup5\n        /* \"#utility.yul\":9614:9638   */\n      tag_72\n      jump\t// in\n    tag_218:\n        /* \"#utility.yul\":9605:9639   */\n      tag_97\n      jump\t// in\n    tag_217:\n        /* \"#utility.yul\":9587:9640   */\n      tag_72\n      jump\t// in\n    tag_216:\n        /* \"#utility.yul\":9574:9640   */\n      swap1\n      pop\n        /* \"#utility.yul\":9504:9646   */\n      swap2\n      swap1\n      pop\n      jump\t// out\n        /* \"#utility.yul\":9652:9727   */\n    tag_99:\n        /* \"#utility.yul\":9695:9698   */\n      0x00\n        /* \"#utility.yul\":9716:9721   */\n      dup2\n        /* \"#utility.yul\":9709:9721   */\n      swap1\n      pop\n        /* \"#utility.yul\":9652:9727   */\n      swap2\n      swap1\n      pop\n      jump\t// out\n        /* \"#utility.yul\":9733:10002   */\n    tag_100:\n        /* \"#utility.yul\":9843:9882   */\n      tag_221\n        /* \"#utility.yul\":9874:9881   */\n      dup4\n        /* \"#utility.yul\":9843:9882   */\n      tag_98\n      jump\t// in\n    tag_221:\n        /* \"#utility.yul\":9904:9995   */\n      tag_222\n        /* \"#utility.yul\":9953:9994   */\n      tag_223\n        /* \"#utility.yul\":9977:9993   */\n      dup3\n        /* \"#utility.yul\":9953:9994   */\n      tag_99\n      jump\t// in\n    tag_223:\n        /* \"#utility.yul\":9945:9951   */\n      dup5\n        /* \"#utility.yul\":9938:9942   */\n      dup5\n        /* \"#utility.yul\":9932:9943   */\n      sload\n        /* \"#utility.yul\":9904:9995   */\n      tag_96\n      jump\t// in\n    tag_222:\n        /* \"#utility.yul\":9898:9902   */\n      dup3\n        /* \"#utility.yul\":9891:9996   */\n      sstore\n        /* \"#utility.yul\":9809:10002   */\n      pop\n        /* \"#utility.yul\":9733:10002   */\n      pop\n      pop\n      pop\n      jump\t// out\n        /* \"#utility.yul\":10008:10081   */\n    tag_101:\n        /* \"#utility.yul\":10053:10056   */\n      0x00\n        /* \"#utility.yul\":10008:10081   */\n      swap1\n      jump\t// out\n        /* \"#utility.yul\":10087:10276   */\n    tag_102:\n        /* \"#utility.yul\":10164:10196   */\n      tag_226\n      tag_101\n      jump\t// in\n    tag_226:\n        /* \"#utility.yul\":10205:10270   */\n      tag_227\n        /* \"#utility.yul\":10263:10269   */\n      dup2\n        /* \"#utility.yul\":10255:10261   */\n      dup5\n        /* \"#utility.yul\":10249:10253   */\n      dup5\n        /* \"#utility.yul\":10205:10270   */\n      tag_100\n      jump\t// in\n    tag_227:\n        /* \"#utility.yul\":10140:10276   */\n      pop\n        /* \"#utility.yul\":10087:10276   */\n      pop\n      pop\n      jump\t// out\n        /* \"#utility.yul\":10282:10468   */\n    tag_103:\n        /* \"#utility.yul\":10342:10462   */\n    tag_229:\n        /* \"#utility.yul\":10359:10362   */\n      dup2\n        /* \"#utility.yul\":10352:10357   */\n      dup2\n        /* \"#utility.yul\":10349:10363   */\n      lt\n        /* \"#utility.yul\":10342:10462   */\n      iszero\n      tag_231\n      jumpi\n        /* \"#utility.yul\":10413:10452   */\n      tag_232\n        /* \"#utility.yul\":10450:10451   */\n      0x00\n        /* \"#utility.yul\":10443:10448   */\n      dup3\n        /* \"#utility.yul\":10413:10452   */\n      tag_102\n      jump\t// in\n    tag_232:\n        /* \"#utility.yul\":10386:10387   */\n      0x01\n        /* \"#utility.yul\":10379:10384   */\n      dup2\n        /* \"#utility.yul\":10375:10388   */\n      add\n        /* \"#utility.yul\":10366:10388   */\n      swap1\n      pop\n        /* \"#utility.yul\":10342:10462   */\n      jump(tag_229)\n    tag_231:\n        /* \"#utility.yul\":10282:10468   */\n      pop\n      pop\n      jump\t// out\n        /* \"#utility.yul\":10474:11017   */\n    tag_104:\n        /* \"#utility.yul\":10575:10577   */\n      0x1f\n        /* \"#utility.yul\":10570:10573   */\n      dup3\n        /* \"#utility.yul\":10567:10578   */\n      gt\n        /* \"#utility.yul\":10564:11010   */\n      iszero\n      tag_234\n      jumpi\n        /* \"#utility.yul\":10609:10647   */\n      tag_235\n        /* \"#utility.yul\":10641:10646   */\n      dup2\n        /* \"#utility.yul\":10609:10647   */\n      tag_93\n      jump\t// in\n    tag_235:\n        /* \"#utility.yul\":10693:10722   */\n      tag_236\n        /* \"#utility.yul\":10711:10721   */\n      dup5\n        /* \"#utility.yul\":10693:10722   */\n      tag_94\n      jump\t// in\n    tag_236:\n        /* \"#utility.yul\":10683:10691   */\n      dup2\n        /* \"#utility.yul\":10679:10723   */\n      add\n        /* \"#utility.yul\":10876:10878   */\n      0x20\n        /* \"#utility.yul\":10864:10874   */\n      dup6\n        /* \"#utility.yul\":10861:10879   */\n      lt\n        /* \"#utility.yul\":10858:10907   */\n      iszero\n      tag_237\n      jumpi\n        /* \"#utility.yul\":10897:10905   */\n      dup2\n        /* \"#utility.yul\":10882:10905   */\n      swap1\n      pop\n        /* \"#utility.yul\":10858:10907   */\n    tag_237:\n        /* \"#utility.yul\":10920:11000   */\n      tag_238\n        /* \"#utility.yul\":10976:10998   */\n      tag_239\n        /* \"#utility.yul\":10994:10997   */\n      dup6\n        /* \"#utility.yul\":10976:10998   */\n      tag_94\n      jump\t// in\n    tag_239:\n        /* \"#utility.yul\":10966:10974   */\n      dup4\n        /* \"#utility.yul\":10962:10999   */\n      add\n        /* \"#utility.yul\":10949:10960   */\n      dup3\n        /* \"#utility.yul\":10920:11000   */\n      tag_103\n      jump\t// in\n    tag_238:\n        /* \"#utility.yul\":10579:11010   */\n      pop\n      pop\n        /* \"#utility.yul\":10564:11010   */\n    tag_234:\n        /* \"#utility.yul\":10474:11017   */\n      pop\n      pop\n      pop\n      jump\t// out\n        /* \"#utility.yul\":11023:11140   */\n    tag_105:\n        /* \"#utility.yul\":11077:11085   */\n      0x00\n        /* \"#utility.yul\":11127:11132   */\n      dup3\n        /* \"#utility.yul\":11121:11125   */\n      dup3\n        /* \"#utility.yul\":11117:11133   */\n      shr\n        /* \"#utility.yul\":11096:11133   */\n      swap1\n      pop\n        /* \"#utility.yul\":11023:11140   */\n      swap3\n      swap2\n      pop\n      pop\n      jump\t// out\n        /* \"#utility.yul\":11146:11315   */\n    tag_106:\n        /* \"#utility.yul\":11190:11196   */\n      0x00\n        /* \"#utility.yul\":11223:11274   */\n      tag_242\n        /* \"#utility.yul\":11271:11272   */\n      0x00\n        /* \"#utility.yul\":11267:11273   */\n      not\n        /* \"#utility.yul\":11259:11264   */\n      dup5\n        /* \"#utility.yul\":11256:11257   */\n      0x08\n        /* \"#utility.yul\":11252:11265   */\n      mul\n        /* \"#utility.yul\":11223:11274   */\n      tag_105\n      jump\t// in\n    tag_242:\n        /* \"#utility.yul\":11219:11275   */\n      not\n        /* \"#utility.yul\":11304:11308   */\n      dup1\n        /* \"#utility.yul\":11298:11302   */\n      dup4\n        /* \"#utility.yul\":11294:11309   */\n      and\n        /* \"#utility.yul\":11284:11309   */\n      swap2\n      pop\n        /* \"#utility.yul\":11197:11315   */\n      pop\n        /* \"#utility.yul\":11146:11315   */\n      swap3\n      swap2\n      pop\n      pop\n      jump\t// out\n        /* \"#utility.yul\":11320:11615   */\n    tag_107:\n        /* \"#utility.yul\":11396:11400   */\n      0x00\n        /* \"#utility.yul\":11542:11571   */\n      tag_244\n        /* \"#utility.yul\":11567:11570   */\n      dup4\n        /* \"#utility.yul\":11561:11565   */\n      dup4\n        /* \"#utility.yul\":11542:11571   */\n      tag_106\n      jump\t// in\n    tag_244:\n        /* \"#utility.yul\":11534:11571   */\n      swap2\n      pop\n        /* \"#utility.yul\":11604:11607   */\n      dup3\n        /* \"#utility.yul\":11601:11602   */\n      0x02\n        /* \"#utility.yul\":11597:11608   */\n      mul\n        /* \"#utility.yul\":11591:11595   */\n      dup3\n        /* \"#utility.yul\":11588:11609   */\n      or\n        /* \"#utility.yul\":11580:11609   */\n      swap1\n      pop\n        /* \"#utility.yul\":11320:11615   */\n      swap3\n      swap2\n      pop\n      pop\n      jump\t// out\n        /* \"#utility.yul\":11620:13015   */\n    tag_49:\n        /* \"#utility.yul\":11737:11774   */\n      tag_246\n        /* \"#utility.yul\":11770:11773   */\n      dup3\n        /* \"#utility.yul\":11737:11774   */\n      tag_67\n      jump\t// in\n    tag_246:\n        /* \"#utility.yul\":11839:11857   */\n      0xffffffffffffffff\n        /* \"#utility.yul\":11831:11837   */\n      dup2\n        /* \"#utility.yul\":11828:11858   */\n      gt\n        /* \"#utility.yul\":11825:11881   */\n      iszero\n      tag_247\n      jumpi\n        /* \"#utility.yul\":11861:11879   */\n      tag_248\n      tag_80\n      jump\t// in\n    tag_248:\n        /* \"#utility.yul\":11825:11881   */\n    tag_247:\n        /* \"#utility.yul\":11905:11943   */\n      tag_249\n        /* \"#utility.yul\":11937:11941   */\n      dup3\n        /* \"#utility.yul\":11931:11942   */\n      sload\n        /* \"#utility.yul\":11905:11943   */\n      tag_34\n      jump\t// in\n    tag_249:\n        /* \"#utility.yul\":11990:12057   */\n      tag_250\n        /* \"#utility.yul\":12050:12056   */\n      dup3\n        /* \"#utility.yul\":12042:12048   */\n      dup3\n        /* \"#utility.yul\":12036:12040   */\n      dup6\n        /* \"#utility.yul\":11990:12057   */\n      tag_104\n      jump\t// in\n    tag_250:\n        /* \"#utility.yul\":12084:12085   */\n      0x00\n        /* \"#utility.yul\":12108:12112   */\n      0x20\n        /* \"#utility.yul\":12095:12112   */\n      swap1\n      pop\n        /* \"#utility.yul\":12140:12142   */\n      0x1f\n        /* \"#utility.yul\":12132:12138   */\n      dup4\n        /* \"#utility.yul\":12129:12143   */\n      gt\n        /* \"#utility.yul\":12157:12158   */\n      0x01\n        /* \"#utility.yul\":12152:12770   */\n      dup2\n      eq\n      tag_252\n      jumpi\n        /* \"#utility.yul\":12814:12815   */\n      0x00\n        /* \"#utility.yul\":12831:12837   */\n      dup5\n        /* \"#utility.yul\":12828:12905   */\n      iszero\n      tag_253\n      jumpi\n        /* \"#utility.yul\":12880:12889   */\n      dup3\n        /* \"#utility.yul\":12875:12878   */\n      dup8\n        /* \"#utility.yul\":12871:12890   */\n      add\n        /* \"#utility.yul\":12865:12891   */\n      mload\n        /* \"#utility.yul\":12856:12891   */\n      swap1\n      pop\n        /* \"#utility.yul\":12828:12905   */\n    tag_253:\n        /* \"#utility.yul\":12931:12998   */\n      tag_254\n        /* \"#utility.yul\":12991:12997   */\n      dup6\n        /* \"#utility.yul\":12984:12989   */\n      dup3\n        /* \"#utility.yul\":12931:12998   */\n      tag_107\n      jump\t// in\n    tag_254:\n        /* \"#utility.yul\":12925:12929   */\n      dup7\n        /* \"#utility.yul\":12918:12999   */\n      sstore\n        /* \"#utility.yul\":12787:13009   */\n      pop\n        /* \"#utility.yul\":12122:13009   */\n      jump(tag_251)\n        /* \"#utility.yul\":12152:12770   */\n    tag_252:\n        /* \"#utility.yul\":12204:12208   */\n      0x1f\n        /* \"#utility.yul\":12200:12209   */\n      not\n        /* \"#utility.yul\":12192:12198   */\n      dup5\n        /* \"#utility.yul\":12188:12210   */\n      and\n        /* \"#utility.yul\":12238:12275   */\n      tag_255\n        /* \"#utility.yul\":12270:12274   */\n      dup7\n        /* \"#utility.yul\":12238:12275   */\n      tag_93\n      jump\t// in\n    tag_255:\n        /* \"#utility.yul\":12297:12298   */\n      0x00\n        /* \"#utility.yul\":12311:12519   */\n    tag_256:\n        /* \"#utility.yul\":12325:12332   */\n      dup3\n        /* \"#utility.yul\":12322:12323   */\n      dup2\n        /* \"#utility.yul\":12319:12333   */\n      lt\n        /* \"#utility.yul\":12311:12519   */\n      iszero\n      tag_258\n      jumpi\n        /* \"#utility.yul\":12404:12413   */\n      dup5\n        /* \"#utility.yul\":12399:12402   */\n      dup10\n        /* \"#utility.yul\":12395:12414   */\n      add\n        /* \"#utility.yul\":12389:12415   */\n      mload\n        /* \"#utility.yul\":12381:12387   */\n      dup3\n        /* \"#utility.yul\":12374:12416   */\n      sstore\n        /* \"#utility.yul\":12455:12456   */\n      0x01\n        /* \"#utility.yul\":12447:12453   */\n      dup3\n        /* \"#utility.yul\":12443:12457   */\n      add\n        /* \"#utility.yul\":12433:12457   */\n      swap2\n      pop\n        /* \"#utility.yul\":12502:12504   */\n      0x20\n        /* \"#utility.yul\":12491:12500   */\n      dup6\n        /* \"#utility.yul\":12487:12505   */\n      add\n        /* \"#utility.yul\":12474:12505   */\n      swap5\n      pop\n        /* \"#utility.yul\":12348:12352   */\n      0x20\n        /* \"#utility.yul\":12345:12346   */\n      dup2\n        /* \"#utility.yul\":12341:12353   */\n      add\n        /* \"#utility.yul\":12336:12353   */\n      swap1\n      pop\n        /* \"#utility.yul\":12311:12519   */\n      jump(tag_256)\n    tag_258:\n        /* \"#utility.yul\":12547:12553   */\n      dup7\n        /* \"#utility.yul\":12538:12545   */\n      dup4\n        /* \"#utility.yul\":12535:12554   */\n      lt\n        /* \"#utility.yul\":12532:12711   */\n      iszero\n      tag_259\n      jumpi\n        /* \"#utility.yul\":12605:12614   */\n      dup5\n        /* \"#utility.yul\":12600:12603   */\n      dup10\n        /* \"#utility.yul\":12596:12615   */\n      add\n        /* \"#utility.yul\":12590:12616   */\n      mload\n        /* \"#utility.yul\":12648:12696   */\n      tag_260\n        /* \"#utility.yul\":12690:12694   */\n      0x1f\n        /* \"#utility.yul\":12682:12688   */\n      dup10\n        /* \"#utility.yul\":12678:12695   */\n      and\n        /* \"#utility.yul\":12667:12676   */\n      dup3\n        /* \"#utility.yul\":12648:12696   */\n      tag_106\n      jump\t// in\n    tag_260:\n        /* \"#utility.yul\":12640:12646   */\n      dup4\n        /* \"#utility.yul\":12633:12697   */\n      sstore\n        /* \"#utility.yul\":12555:12711   */\n      pop\n        /* \"#utility.yul\":12532:12711   */\n    tag_259:\n        /* \"#utility.yul\":12757:12758   */\n      0x01\n        /* \"#utility.yul\":12753:12754   */\n      0x02\n        /* \"#utility.yul\":12745:12751   */\n      dup9\n        /* \"#utility.yul\":12741:12755   */\n      mul\n        /* \"#utility.yul\":12737:12759   */\n      add\n        /* \"#utility.yul\":12731:12735   */\n      dup9\n        /* \"#utility.yul\":12724:12760   */\n      sstore\n        /* \"#utility.yul\":12159:12770   */\n      pop\n      pop\n      pop\n        /* \"#utility.yul\":12122:13009   */\n    tag_251:\n      pop\n        /* \"#utility.yul\":11712:13015   */\n      pop\n      pop\n      pop\n        /* \"#utility.yul\":11620:13015   */\n      pop\n      pop\n      jump\t// out\n\n    auxdata: 0xa26469706673582212203a9b3c3f3de296148395cd7467b40f816c67492b7d38b1a650d0b7688f4f581864736f6c634300081a0033\n}\n",
				"bytecode": {
					"linkReferences": {},
					"object": "6080604052348015600e575f80fd5b50610bb28061001c5f395ff3fe608060405234801561000f575f80fd5b5060043610610055575f3560e01c806332648e09146100595780635339c9951461008b5780635cd359d5146100a95780637521720b146100c5578063d0678947146100f5575b5f80fd5b610073600480360381019061006e91906104ec565b610127565b60405161008293929190610612565b60405180910390f35b610093610264565b6040516100a0919061064e565b60405180910390f35b6100c360048036038101906100be91906107e0565b610270565b005b6100df60048036038101906100da9190610860565b61038f565b6040516100ec919061089a565b60405180910390f35b61010f600480360381019061010a91906104ec565b6103ca565b60405161011e93929190610612565b60405180910390f35b60605f805f805f8673ffffffffffffffffffffffffffffffffffffffff1673ffffffffffffffffffffffffffffffffffffffff1681526020019081526020015f206040518060600160405290815f82018054610182906108e0565b80601f01602080910402602001604051908101604052809291908181526020018280546101ae906108e0565b80156101f95780601f106101d0576101008083540402835291602001916101f9565b820191905f5260205f20905b8154815290600101906020018083116101dc57829003601f168201915b5050505050815260200160018201548152602001600282015f9054906101000a900460ff1660038111156102305761022f61059f565b5b60038111156102425761024161059f565b5b815250509050805f015181602001518260400151935093509350509193909250565b5f600180549050905090565b604051806060016040528084815260200183815260200182600381111561029a5761029961059f565b5b8152505f808673ffffffffffffffffffffffffffffffffffffffff1673ffffffffffffffffffffffffffffffffffffffff1681526020019081526020015f205f820151815f0190816102ec9190610aad565b50602082015181600101556040820151816002015f6101000a81548160ff021916908360038111156103215761032061059f565b5b0217905550905050600184908060018154018082558091505060019003905f5260205f20015f9091909190916101000a81548173ffffffffffffffffffffffffffffffffffffffff021916908373ffffffffffffffffffffffffffffffffffffffff16021790555050505050565b6001818154811061039e575f80fd5b905f5260205f20015f915054906101000a900473ffffffffffffffffffffffffffffffffffffffff1681565b5f602052805f5260405f205f91509050805f0180546103e8906108e0565b80601f0160208091040260200160405190810160405280929190818152602001828054610414906108e0565b801561045f5780601f106104365761010080835404028352916020019161045f565b820191905f5260205f20905b81548152906001019060200180831161044257829003601f168201915b505050505090806001015490806002015f9054906101000a900460ff16905083565b5f604051905090565b5f80fd5b5f80fd5b5f73ffffffffffffffffffffffffffffffffffffffff82169050919050565b5f6104bb82610492565b9050919050565b6104cb816104b1565b81146104d5575f80fd5b50565b5f813590506104e6816104c2565b92915050565b5f602082840312156105015761050061048a565b5b5f61050e848285016104d8565b91505092915050565b5f81519050919050565b5f82825260208201905092915050565b8281835e5f83830152505050565b5f601f19601f8301169050919050565b5f61055982610517565b6105638185610521565b9350610573818560208601610531565b61057c8161053f565b840191505092915050565b5f819050919050565b61059981610587565b82525050565b7f4e487b71000000000000000000000000000000000000000000000000000000005f52602160045260245ffd5b600481106105dd576105dc61059f565b5b50565b5f8190506105ed826105cc565b919050565b5f6105fc826105e0565b9050919050565b61060c816105f2565b82525050565b5f6060820190508181035f83015261062a818661054f565b90506106396020830185610590565b6106466040830184610603565b949350505050565b5f6020820190506106615f830184610590565b92915050565b5f80fd5b5f80fd5b7f4e487b71000000000000000000000000000000000000000000000000000000005f52604160045260245ffd5b6106a58261053f565b810181811067ffffffffffffffff821117156106c4576106c361066f565b5b80604052505050565b5f6106d6610481565b90506106e2828261069c565b919050565b5f67ffffffffffffffff8211156107015761070061066f565b5b61070a8261053f565b9050602081019050919050565b828183375f83830152505050565b5f610737610732846106e7565b6106cd565b9050828152602081018484840111156107535761075261066b565b5b61075e848285610717565b509392505050565b5f82601f83011261077a57610779610667565b5b813561078a848260208601610725565b91505092915050565b61079c81610587565b81146107a6575f80fd5b50565b5f813590506107b781610793565b92915050565b600481106107c9575f80fd5b50565b5f813590506107da816107bd565b92915050565b5f805f80608085870312156107f8576107f761048a565b5b5f610805878288016104d8565b945050602085013567ffffffffffffffff8111156108265761082561048e565b5b61083287828801610766565b9350506040610843878288016107a9565b9250506060610854878288016107cc565b91505092959194509250565b5f602082840312156108755761087461048a565b5b5f610882848285016107a9565b91505092915050565b610894816104b1565b82525050565b5f6020820190506108ad5f83018461088b565b92915050565b7f4e487b71000000000000000000000000000000000000000000000000000000005f52602260045260245ffd5b5f60028204905060018216806108f757607f821691505b60208210810361090a576109096108b3565b5b50919050565b5f819050815f5260205f209050919050565b5f6020601f8301049050919050565b5f82821b905092915050565b5f6008830261096c7fffffffffffffffffffffffffffffffffffffffffffffffffffffffffffffffff82610931565b6109768683610931565b95508019841693508086168417925050509392505050565b5f819050919050565b5f6109b16109ac6109a784610587565b61098e565b610587565b9050919050565b5f819050919050565b6109ca83610997565b6109de6109d6826109b8565b84845461093d565b825550505050565b5f90565b6109f26109e6565b6109fd8184846109c1565b505050565b5b81811015610a2057610a155f826109ea565b600181019050610a03565b5050565b601f821115610a6557610a3681610910565b610a3f84610922565b81016020851015610a4e578190505b610a62610a5a85610922565b830182610a02565b50505b505050565b5f82821c905092915050565b5f610a855f1984600802610a6a565b1980831691505092915050565b5f610a9d8383610a76565b9150826002028217905092915050565b610ab682610517565b67ffffffffffffffff811115610acf57610ace61066f565b5b610ad982546108e0565b610ae4828285610a24565b5f60209050601f831160018114610b15575f8415610b03578287015190505b610b0d8582610a92565b865550610b74565b601f198416610b2386610910565b5f5b82811015610b4a57848901518255600182019150602085019450602081019050610b25565b86831015610b675784890151610b63601f891682610a76565b8355505b6001600288020188555050505b50505050505056fea26469706673582212203a9b3c3f3de296148395cd7467b40f816c67492b7d38b1a650d0b7688f4f581864736f6c634300081a0033",
					"opcodes": "PUSH1 0x80 PUSH1 0x40 MSTORE CALLVALUE DUP1 ISZERO PUSH1 0xE JUMPI PUSH0 DUP1 REVERT JUMPDEST POP PUSH2 0xBB2 DUP1 PUSH2 0x1C PUSH0 CODECOPY PUSH0 RETURN INVALID PUSH1 0x80 PUSH1 0x40 MSTORE CALLVALUE DUP1 ISZERO PUSH2 0xF JUMPI PUSH0 DUP1 REVERT JUMPDEST POP PUSH1 0x4 CALLDATASIZE LT PUSH2 0x55 JUMPI PUSH0 CALLDATALOAD PUSH1 0xE0 SHR DUP1 PUSH4 0x32648E09 EQ PUSH2 0x59 JUMPI DUP1 PUSH4 0x5339C995 EQ PUSH2 0x8B JUMPI DUP1 PUSH4 0x5CD359D5 EQ PUSH2 0xA9 JUMPI DUP1 PUSH4 0x7521720B EQ PUSH2 0xC5 JUMPI DUP1 PUSH4 0xD0678947 EQ PUSH2 0xF5 JUMPI JUMPDEST PUSH0 DUP1 REVERT JUMPDEST PUSH2 0x73 PUSH1 0x4 DUP1 CALLDATASIZE SUB DUP2 ADD SWAP1 PUSH2 0x6E SWAP2 SWAP1 PUSH2 0x4EC JUMP JUMPDEST PUSH2 0x127 JUMP JUMPDEST PUSH1 0x40 MLOAD PUSH2 0x82 SWAP4 SWAP3 SWAP2 SWAP1 PUSH2 0x612 JUMP JUMPDEST PUSH1 0x40 MLOAD DUP1 SWAP2 SUB SWAP1 RETURN JUMPDEST PUSH2 0x93 PUSH2 0x264 JUMP JUMPDEST PUSH1 0x40 MLOAD PUSH2 0xA0 SWAP2 SWAP1 PUSH2 0x64E JUMP JUMPDEST PUSH1 0x40 MLOAD DUP1 SWAP2 SUB SWAP1 RETURN JUMPDEST PUSH2 0xC3 PUSH1 0x4 DUP1 CALLDATASIZE SUB DUP2 ADD SWAP1 PUSH2 0xBE SWAP2 SWAP1 PUSH2 0x7E0 JUMP JUMPDEST PUSH2 0x270 JUMP JUMPDEST STOP JUMPDEST PUSH2 0xDF PUSH1 0x4 DUP1 CALLDATASIZE SUB DUP2 ADD SWAP1 PUSH2 0xDA SWAP2 SWAP1 PUSH2 0x860 JUMP JUMPDEST PUSH2 0x38F JUMP JUMPDEST PUSH1 0x40 MLOAD PUSH2 0xEC SWAP2 SWAP1 PUSH2 0x89A JUMP JUMPDEST PUSH1 0x40 MLOAD DUP1 SWAP2 SUB SWAP1 RETURN JUMPDEST PUSH2 0x10F PUSH1 0x4 DUP1 CALLDATASIZE SUB DUP2 ADD SWAP1 PUSH2 0x10A SWAP2 SWAP1 PUSH2 0x4EC JUMP JUMPDEST PUSH2 0x3CA JUMP JUMPDEST PUSH1 0x40 MLOAD PUSH2 0x11E SWAP4 SWAP3 SWAP2 SWAP1 PUSH2 0x612 JUMP JUMPDEST PUSH1 0x40 MLOAD DUP1 SWAP2 SUB SWAP1 RETURN JUMPDEST PUSH1 0x60 PUSH0 DUP1 PUSH0 DUP1 PUSH0 DUP7 PUSH20 0xFFFFFFFFFFFFFFFFFFFFFFFFFFFFFFFFFFFFFFFF AND PUSH20 0xFFFFFFFFFFFFFFFFFFFFFFFFFFFFFFFFFFFFFFFF AND DUP2 MSTORE PUSH1 0x20 ADD SWAP1 DUP2 MSTORE PUSH1 0x20 ADD PUSH0 KECCAK256 PUSH1 0x40 MLOAD DUP1 PUSH1 0x60 ADD PUSH1 0x40 MSTORE SWAP1 DUP2 PUSH0 DUP3 ADD DUP1 SLOAD PUSH2 0x182 SWAP1 PUSH2 0x8E0 JUMP JUMPDEST DUP1 PUSH1 0x1F ADD PUSH1 0x20 DUP1 SWAP2 DIV MUL PUSH1 0x20 ADD PUSH1 0x40 MLOAD SWAP1 DUP2 ADD PUSH1 0x40 MSTORE DUP1 SWAP3 SWAP2 SWAP1 DUP2 DUP2 MSTORE PUSH1 0x20 ADD DUP3 DUP1 SLOAD PUSH2 0x1AE SWAP1 PUSH2 0x8E0 JUMP JUMPDEST DUP1 ISZERO PUSH2 0x1F9 JUMPI DUP1 PUSH1 0x1F LT PUSH2 0x1D0 JUMPI PUSH2 0x100 DUP1 DUP4 SLOAD DIV MUL DUP4 MSTORE SWAP2 PUSH1 0x20 ADD SWAP2 PUSH2 0x1F9 JUMP JUMPDEST DUP3 ADD SWAP2 SWAP1 PUSH0 MSTORE PUSH1 0x20 PUSH0 KECCAK256 SWAP1 JUMPDEST DUP2 SLOAD DUP2 MSTORE SWAP1 PUSH1 0x1 ADD SWAP1 PUSH1 0x20 ADD DUP1 DUP4 GT PUSH2 0x1DC JUMPI DUP3 SWAP1 SUB PUSH1 0x1F AND DUP3 ADD SWAP2 JUMPDEST POP POP POP POP POP DUP2 MSTORE PUSH1 0x20 ADD PUSH1 0x1 DUP3 ADD SLOAD DUP2 MSTORE PUSH1 0x20 ADD PUSH1 0x2 DUP3 ADD PUSH0 SWAP1 SLOAD SWAP1 PUSH2 0x100 EXP SWAP1 DIV PUSH1 0xFF AND PUSH1 0x3 DUP2 GT ISZERO PUSH2 0x230 JUMPI PUSH2 0x22F PUSH2 0x59F JUMP JUMPDEST JUMPDEST PUSH1 0x3 DUP2 GT ISZERO PUSH2 0x242 JUMPI PUSH2 0x241 PUSH2 0x59F JUMP JUMPDEST JUMPDEST DUP2 MSTORE POP POP SWAP1 POP DUP1 PUSH0 ADD MLOAD DUP2 PUSH1 0x20 ADD MLOAD DUP3 PUSH1 0x40 ADD MLOAD SWAP4 POP SWAP4 POP SWAP4 POP POP SWAP2 SWAP4 SWAP1 SWAP3 POP JUMP JUMPDEST PUSH0 PUSH1 0x1 DUP1 SLOAD SWAP1 POP SWAP1 POP SWAP1 JUMP JUMPDEST PUSH1 0x40 MLOAD DUP1 PUSH1 0x60 ADD PUSH1 0x40 MSTORE DUP1 DUP5 DUP2 MSTORE PUSH1 0x20 ADD DUP4 DUP2 MSTORE PUSH1 0x20 ADD DUP3 PUSH1 0x3 DUP2 GT ISZERO PUSH2 0x29A JUMPI PUSH2 0x299 PUSH2 0x59F JUMP JUMPDEST JUMPDEST DUP2 MSTORE POP PUSH0 DUP1 DUP7 PUSH20 0xFFFFFFFFFFFFFFFFFFFFFFFFFFFFFFFFFFFFFFFF AND PUSH20 0xFFFFFFFFFFFFFFFFFFFFFFFFFFFFFFFFFFFFFFFF AND DUP2 MSTORE PUSH1 0x20 ADD SWAP1 DUP2 MSTORE PUSH1 0x20 ADD PUSH0 KECCAK256 PUSH0 DUP3 ADD MLOAD DUP2 PUSH0 ADD SWAP1 DUP2 PUSH2 0x2EC SWAP2 SWAP1 PUSH2 0xAAD JUMP JUMPDEST POP PUSH1 0x20 DUP3 ADD MLOAD DUP2 PUSH1 0x1 ADD SSTORE PUSH1 0x40 DUP3 ADD MLOAD DUP2 PUSH1 0x2 ADD PUSH0 PUSH2 0x100 EXP DUP2 SLOAD DUP2 PUSH1 0xFF MUL NOT AND SWAP1 DUP4 PUSH1 0x3 DUP2 GT ISZERO PUSH2 0x321 JUMPI PUSH2 0x320 PUSH2 0x59F JUMP JUMPDEST JUMPDEST MUL OR SWAP1 SSTORE POP SWAP1 POP POP PUSH1 0x1 DUP5 SWAP1 DUP1 PUSH1 0x1 DUP2 SLOAD ADD DUP1 DUP3 SSTORE DUP1 SWAP2 POP POP PUSH1 0x1 SWAP1 SUB SWAP1 PUSH0 MSTORE PUSH1 0x20 PUSH0 KECCAK256 ADD PUSH0 SWAP1 SWAP2 SWAP1 SWAP2 SWAP1 SWAP2 PUSH2 0x100 EXP DUP2 SLOAD DUP2 PUSH20 0xFFFFFFFFFFFFFFFFFFFFFFFFFFFFFFFFFFFFFFFF MUL NOT AND SWAP1 DUP4 PUSH20 0xFFFFFFFFFFFFFFFFFFFFFFFFFFFFFFFFFFFFFFFF AND MUL OR SWAP1 SSTORE POP POP POP POP POP JUMP JUMPDEST PUSH1 0x1 DUP2 DUP2 SLOAD DUP2 LT PUSH2 0x39E JUMPI PUSH0 DUP1 REVERT JUMPDEST SWAP1 PUSH0 MSTORE PUSH1 0x20 PUSH0 KECCAK256 ADD PUSH0 SWAP2 POP SLOAD SWAP1 PUSH2 0x100 EXP SWAP1 DIV PUSH20 0xFFFFFFFFFFFFFFFFFFFFFFFFFFFFFFFFFFFFFFFF AND DUP2 JUMP JUMPDEST PUSH0 PUSH1 0x20 MSTORE DUP1 PUSH0 MSTORE PUSH1 0x40 PUSH0 KECCAK256 PUSH0 SWAP2 POP SWAP1 POP DUP1 PUSH0 ADD DUP1 SLOAD PUSH2 0x3E8 SWAP1 PUSH2 0x8E0 JUMP JUMPDEST DUP1 PUSH1 0x1F ADD PUSH1 0x20 DUP1 SWAP2 DIV MUL PUSH1 0x20 ADD PUSH1 0x40 MLOAD SWAP1 DUP2 ADD PUSH1 0x40 MSTORE DUP1 SWAP3 SWAP2 SWAP1 DUP2 DUP2 MSTORE PUSH1 0x20 ADD DUP3 DUP1 SLOAD PUSH2 0x414 SWAP1 PUSH2 0x8E0 JUMP JUMPDEST DUP1 ISZERO PUSH2 0x45F JUMPI DUP1 PUSH1 0x1F LT PUSH2 0x436 JUMPI PUSH2 0x100 DUP1 DUP4 SLOAD DIV MUL DUP4 MSTORE SWAP2 PUSH1 0x20 ADD SWAP2 PUSH2 0x45F JUMP JUMPDEST DUP3 ADD SWAP2 SWAP1 PUSH0 MSTORE PUSH1 0x20 PUSH0 KECCAK256 SWAP1 JUMPDEST DUP2 SLOAD DUP2 MSTORE SWAP1 PUSH1 0x1 ADD SWAP1 PUSH1 0x20 ADD DUP1 DUP4 GT PUSH2 0x442 JUMPI DUP3 SWAP1 SUB PUSH1 0x1F AND DUP3 ADD SWAP2 JUMPDEST POP POP POP POP POP SWAP1 DUP1 PUSH1 0x1 ADD SLOAD SWAP1 DUP1 PUSH1 0x2 ADD PUSH0 SWAP1 SLOAD SWAP1 PUSH2 0x100 EXP SWAP1 DIV PUSH1 0xFF AND SWAP1 POP DUP4 JUMP JUMPDEST PUSH0 PUSH1 0x40 MLOAD SWAP1 POP SWAP1 JUMP JUMPDEST PUSH0 DUP1 REVERT JUMPDEST PUSH0 DUP1 REVERT JUMPDEST PUSH0 PUSH20 0xFFFFFFFFFFFFFFFFFFFFFFFFFFFFFFFFFFFFFFFF DUP3 AND SWAP1 POP SWAP2 SWAP1 POP JUMP JUMPDEST PUSH0 PUSH2 0x4BB DUP3 PUSH2 0x492 JUMP JUMPDEST SWAP1 POP SWAP2 SWAP1 POP JUMP JUMPDEST PUSH2 0x4CB DUP2 PUSH2 0x4B1 JUMP JUMPDEST DUP2 EQ PUSH2 0x4D5 JUMPI PUSH0 DUP1 REVERT JUMPDEST POP JUMP JUMPDEST PUSH0 DUP2 CALLDATALOAD SWAP1 POP PUSH2 0x4E6 DUP2 PUSH2 0x4C2 JUMP JUMPDEST SWAP3 SWAP2 POP POP JUMP JUMPDEST PUSH0 PUSH1 0x20 DUP3 DUP5 SUB SLT ISZERO PUSH2 0x501 JUMPI PUSH2 0x500 PUSH2 0x48A JUMP JUMPDEST JUMPDEST PUSH0 PUSH2 0x50E DUP5 DUP3 DUP6 ADD PUSH2 0x4D8 JUMP JUMPDEST SWAP2 POP POP SWAP3 SWAP2 POP POP JUMP JUMPDEST PUSH0 DUP2 MLOAD SWAP1 POP SWAP2 SWAP1 POP JUMP JUMPDEST PUSH0 DUP3 DUP3 MSTORE PUSH1 0x20 DUP3 ADD SWAP1 POP SWAP3 SWAP2 POP POP JUMP JUMPDEST DUP3 DUP2 DUP4 MCOPY PUSH0 DUP4 DUP4 ADD MSTORE POP POP POP JUMP JUMPDEST PUSH0 PUSH1 0x1F NOT PUSH1 0x1F DUP4 ADD AND SWAP1 POP SWAP2 SWAP1 POP JUMP JUMPDEST PUSH0 PUSH2 0x559 DUP3 PUSH2 0x517 JUMP JUMPDEST PUSH2 0x563 DUP2 DUP6 PUSH2 0x521 JUMP JUMPDEST SWAP4 POP PUSH2 0x573 DUP2 DUP6 PUSH1 0x20 DUP7 ADD PUSH2 0x531 JUMP JUMPDEST PUSH2 0x57C DUP2 PUSH2 0x53F JUMP JUMPDEST DUP5 ADD SWAP2 POP POP SWAP3 SWAP2 POP POP JUMP JUMPDEST PUSH0 DUP2 SWAP1 POP SWAP2 SWAP1 POP JUMP JUMPDEST PUSH2 0x599 DUP2 PUSH2 0x587 JUMP JUMPDEST DUP3 MSTORE POP POP JUMP JUMPDEST PUSH32 0x4E487B7100000000000000000000000000000000000000000000000000000000 PUSH0 MSTORE PUSH1 0x21 PUSH1 0x4 MSTORE PUSH1 0x24 PUSH0 REVERT JUMPDEST PUSH1 0x4 DUP2 LT PUSH2 0x5DD JUMPI PUSH2 0x5DC PUSH2 0x59F JUMP JUMPDEST JUMPDEST POP JUMP JUMPDEST PUSH0 DUP2 SWAP1 POP PUSH2 0x5ED DUP3 PUSH2 0x5CC JUMP JUMPDEST SWAP2 SWAP1 POP JUMP JUMPDEST PUSH0 PUSH2 0x5FC DUP3 PUSH2 0x5E0 JUMP JUMPDEST SWAP1 POP SWAP2 SWAP1 POP JUMP JUMPDEST PUSH2 0x60C DUP2 PUSH2 0x5F2 JUMP JUMPDEST DUP3 MSTORE POP POP JUMP JUMPDEST PUSH0 PUSH1 0x60 DUP3 ADD SWAP1 POP DUP2 DUP2 SUB PUSH0 DUP4 ADD MSTORE PUSH2 0x62A DUP2 DUP7 PUSH2 0x54F JUMP JUMPDEST SWAP1 POP PUSH2 0x639 PUSH1 0x20 DUP4 ADD DUP6 PUSH2 0x590 JUMP JUMPDEST PUSH2 0x646 PUSH1 0x40 DUP4 ADD DUP5 PUSH2 0x603 JUMP JUMPDEST SWAP5 SWAP4 POP POP POP POP JUMP JUMPDEST PUSH0 PUSH1 0x20 DUP3 ADD SWAP1 POP PUSH2 0x661 PUSH0 DUP4 ADD DUP5 PUSH2 0x590 JUMP JUMPDEST SWAP3 SWAP2 POP POP JUMP JUMPDEST PUSH0 DUP1 REVERT JUMPDEST PUSH0 DUP1 REVERT JUMPDEST PUSH32 0x4E487B7100000000000000000000000000000000000000000000000000000000 PUSH0 MSTORE PUSH1 0x41 PUSH1 0x4 MSTORE PUSH1 0x24 PUSH0 REVERT JUMPDEST PUSH2 0x6A5 DUP3 PUSH2 0x53F JUMP JUMPDEST DUP2 ADD DUP2 DUP2 LT PUSH8 0xFFFFFFFFFFFFFFFF DUP3 GT OR ISZERO PUSH2 0x6C4 JUMPI PUSH2 0x6C3 PUSH2 0x66F JUMP JUMPDEST JUMPDEST DUP1 PUSH1 0x40 MSTORE POP POP POP JUMP JUMPDEST PUSH0 PUSH2 0x6D6 PUSH2 0x481 JUMP JUMPDEST SWAP1 POP PUSH2 0x6E2 DUP3 DUP3 PUSH2 0x69C JUMP JUMPDEST SWAP2 SWAP1 POP JUMP JUMPDEST PUSH0 PUSH8 0xFFFFFFFFFFFFFFFF DUP3 GT ISZERO PUSH2 0x701 JUMPI PUSH2 0x700 PUSH2 0x66F JUMP JUMPDEST JUMPDEST PUSH2 0x70A DUP3 PUSH2 0x53F JUMP JUMPDEST SWAP1 POP PUSH1 0x20 DUP2 ADD SWAP1 POP SWAP2 SWAP1 POP JUMP JUMPDEST DUP3 DUP2 DUP4 CALLDATACOPY PUSH0 DUP4 DUP4 ADD MSTORE POP POP POP JUMP JUMPDEST PUSH0 PUSH2 0x737 PUSH2 0x732 DUP5 PUSH2 0x6E7 JUMP JUMPDEST PUSH2 0x6CD JUMP JUMPDEST SWAP1 POP DUP3 DUP2 MSTORE PUSH1 0x20 DUP2 ADD DUP5 DUP5 DUP5 ADD GT ISZERO PUSH2 0x753 JUMPI PUSH2 0x752 PUSH2 0x66B JUMP JUMPDEST JUMPDEST PUSH2 0x75E DUP5 DUP3 DUP6 PUSH2 0x717 JUMP JUMPDEST POP SWAP4 SWAP3 POP POP POP JUMP JUMPDEST PUSH0 DUP3 PUSH1 0x1F DUP4 ADD SLT PUSH2 0x77A JUMPI PUSH2 0x779 PUSH2 0x667 JUMP JUMPDEST JUMPDEST DUP2 CALLDATALOAD PUSH2 0x78A DUP5 DUP3 PUSH1 0x20 DUP7 ADD PUSH2 0x725 JUMP JUMPDEST SWAP2 POP POP SWAP3 SWAP2 POP POP JUMP JUMPDEST PUSH2 0x79C DUP2 PUSH2 0x587 JUMP JUMPDEST DUP2 EQ PUSH2 0x7A6 JUMPI PUSH0 DUP1 REVERT JUMPDEST POP JUMP JUMPDEST PUSH0 DUP2 CALLDATALOAD SWAP1 POP PUSH2 0x7B7 DUP2 PUSH2 0x793 JUMP JUMPDEST SWAP3 SWAP2 POP POP JUMP JUMPDEST PUSH1 0x4 DUP2 LT PUSH2 0x7C9 JUMPI PUSH0 DUP1 REVERT JUMPDEST POP JUMP JUMPDEST PUSH0 DUP2 CALLDATALOAD SWAP1 POP PUSH2 0x7DA DUP2 PUSH2 0x7BD JUMP JUMPDEST SWAP3 SWAP2 POP POP JUMP JUMPDEST PUSH0 DUP1 PUSH0 DUP1 PUSH1 0x80 DUP6 DUP8 SUB SLT ISZERO PUSH2 0x7F8 JUMPI PUSH2 0x7F7 PUSH2 0x48A JUMP JUMPDEST JUMPDEST PUSH0 PUSH2 0x805 DUP8 DUP3 DUP9 ADD PUSH2 0x4D8 JUMP JUMPDEST SWAP5 POP POP PUSH1 0x20 DUP6 ADD CALLDATALOAD PUSH8 0xFFFFFFFFFFFFFFFF DUP2 GT ISZERO PUSH2 0x826 JUMPI PUSH2 0x825 PUSH2 0x48E JUMP JUMPDEST JUMPDEST PUSH2 0x832 DUP8 DUP3 DUP9 ADD PUSH2 0x766 JUMP JUMPDEST SWAP4 POP POP PUSH1 0x40 PUSH2 0x843 DUP8 DUP3 DUP9 ADD PUSH2 0x7A9 JUMP JUMPDEST SWAP3 POP POP PUSH1 0x60 PUSH2 0x854 DUP8 DUP3 DUP9 ADD PUSH2 0x7CC JUMP JUMPDEST SWAP2 POP POP SWAP3 SWAP6 SWAP2 SWAP5 POP SWAP3 POP JUMP JUMPDEST PUSH0 PUSH1 0x20 DUP3 DUP5 SUB SLT ISZERO PUSH2 0x875 JUMPI PUSH2 0x874 PUSH2 0x48A JUMP JUMPDEST JUMPDEST PUSH0 PUSH2 0x882 DUP5 DUP3 DUP6 ADD PUSH2 0x7A9 JUMP JUMPDEST SWAP2 POP POP SWAP3 SWAP2 POP POP JUMP JUMPDEST PUSH2 0x894 DUP2 PUSH2 0x4B1 JUMP JUMPDEST DUP3 MSTORE POP POP JUMP JUMPDEST PUSH0 PUSH1 0x20 DUP3 ADD SWAP1 POP PUSH2 0x8AD PUSH0 DUP4 ADD DUP5 PUSH2 0x88B JUMP JUMPDEST SWAP3 SWAP2 POP POP JUMP JUMPDEST PUSH32 0x4E487B7100000000000000000000000000000000000000000000000000000000 PUSH0 MSTORE PUSH1 0x22 PUSH1 0x4 MSTORE PUSH1 0x24 PUSH0 REVERT JUMPDEST PUSH0 PUSH1 0x2 DUP3 DIV SWAP1 POP PUSH1 0x1 DUP3 AND DUP1 PUSH2 0x8F7 JUMPI PUSH1 0x7F DUP3 AND SWAP2 POP JUMPDEST PUSH1 0x20 DUP3 LT DUP2 SUB PUSH2 0x90A JUMPI PUSH2 0x909 PUSH2 0x8B3 JUMP JUMPDEST JUMPDEST POP SWAP2 SWAP1 POP JUMP JUMPDEST PUSH0 DUP2 SWAP1 POP DUP2 PUSH0 MSTORE PUSH1 0x20 PUSH0 KECCAK256 SWAP1 POP SWAP2 SWAP1 POP JUMP JUMPDEST PUSH0 PUSH1 0x20 PUSH1 0x1F DUP4 ADD DIV SWAP1 POP SWAP2 SWAP1 POP JUMP JUMPDEST PUSH0 DUP3 DUP3 SHL SWAP1 POP SWAP3 SWAP2 POP POP JUMP JUMPDEST PUSH0 PUSH1 0x8 DUP4 MUL PUSH2 0x96C PUSH32 0xFFFFFFFFFFFFFFFFFFFFFFFFFFFFFFFFFFFFFFFFFFFFFFFFFFFFFFFFFFFFFFFF DUP3 PUSH2 0x931 JUMP JUMPDEST PUSH2 0x976 DUP7 DUP4 PUSH2 0x931 JUMP JUMPDEST SWAP6 POP DUP1 NOT DUP5 AND SWAP4 POP DUP1 DUP7 AND DUP5 OR SWAP3 POP POP POP SWAP4 SWAP3 POP POP POP JUMP JUMPDEST PUSH0 DUP2 SWAP1 POP SWAP2 SWAP1 POP JUMP JUMPDEST PUSH0 PUSH2 0x9B1 PUSH2 0x9AC PUSH2 0x9A7 DUP5 PUSH2 0x587 JUMP JUMPDEST PUSH2 0x98E JUMP JUMPDEST PUSH2 0x587 JUMP JUMPDEST SWAP1 POP SWAP2 SWAP1 POP JUMP JUMPDEST PUSH0 DUP2 SWAP1 POP SWAP2 SWAP1 POP JUMP JUMPDEST PUSH2 0x9CA DUP4 PUSH2 0x997 JUMP JUMPDEST PUSH2 0x9DE PUSH2 0x9D6 DUP3 PUSH2 0x9B8 JUMP JUMPDEST DUP5 DUP5 SLOAD PUSH2 0x93D JUMP JUMPDEST DUP3 SSTORE POP POP POP POP JUMP JUMPDEST PUSH0 SWAP1 JUMP JUMPDEST PUSH2 0x9F2 PUSH2 0x9E6 JUMP JUMPDEST PUSH2 0x9FD DUP2 DUP5 DUP5 PUSH2 0x9C1 JUMP JUMPDEST POP POP POP JUMP JUMPDEST JUMPDEST DUP2 DUP2 LT ISZERO PUSH2 0xA20 JUMPI PUSH2 0xA15 PUSH0 DUP3 PUSH2 0x9EA JUMP JUMPDEST PUSH1 0x1 DUP2 ADD SWAP1 POP PUSH2 0xA03 JUMP JUMPDEST POP POP JUMP JUMPDEST PUSH1 0x1F DUP3 GT ISZERO PUSH2 0xA65 JUMPI PUSH2 0xA36 DUP2 PUSH2 0x910 JUMP JUMPDEST PUSH2 0xA3F DUP5 PUSH2 0x922 JUMP JUMPDEST DUP2 ADD PUSH1 0x20 DUP6 LT ISZERO PUSH2 0xA4E JUMPI DUP2 SWAP1 POP JUMPDEST PUSH2 0xA62 PUSH2 0xA5A DUP6 PUSH2 0x922 JUMP JUMPDEST DUP4 ADD DUP3 PUSH2 0xA02 JUMP JUMPDEST POP POP JUMPDEST POP POP POP JUMP JUMPDEST PUSH0 DUP3 DUP3 SHR SWAP1 POP SWAP3 SWAP2 POP POP JUMP JUMPDEST PUSH0 PUSH2 0xA85 PUSH0 NOT DUP5 PUSH1 0x8 MUL PUSH2 0xA6A JUMP JUMPDEST NOT DUP1 DUP4 AND SWAP2 POP POP SWAP3 SWAP2 POP POP JUMP JUMPDEST PUSH0 PUSH2 0xA9D DUP4 DUP4 PUSH2 0xA76 JUMP JUMPDEST SWAP2 POP DUP3 PUSH1 0x2 MUL DUP3 OR SWAP1 POP SWAP3 SWAP2 POP POP JUMP JUMPDEST PUSH2 0xAB6 DUP3 PUSH2 0x517 JUMP JUMPDEST PUSH8 0xFFFFFFFFFFFFFFFF DUP2 GT ISZERO PUSH2 0xACF JUMPI PUSH2 0xACE PUSH2 0x66F JUMP JUMPDEST JUMPDEST PUSH2 0xAD9 DUP3 SLOAD PUSH2 0x8E0 JUMP JUMPDEST PUSH2 0xAE4 DUP3 DUP3 DUP6 PUSH2 0xA24 JUMP JUMPDEST PUSH0 PUSH1 0x20 SWAP1 POP PUSH1 0x1F DUP4 GT PUSH1 0x1 DUP2 EQ PUSH2 0xB15 JUMPI PUSH0 DUP5 ISZERO PUSH2 0xB03 JUMPI DUP3 DUP8 ADD MLOAD SWAP1 POP JUMPDEST PUSH2 0xB0D DUP6 DUP3 PUSH2 0xA92 JUMP JUMPDEST DUP7 SSTORE POP PUSH2 0xB74 JUMP JUMPDEST PUSH1 0x1F NOT DUP5 AND PUSH2 0xB23 DUP7 PUSH2 0x910 JUMP JUMPDEST PUSH0 JUMPDEST DUP3 DUP2 LT ISZERO PUSH2 0xB4A JUMPI DUP5 DUP10 ADD MLOAD DUP3 SSTORE PUSH1 0x1 DUP3 ADD SWAP2 POP PUSH1 0x20 DUP6 ADD SWAP5 POP PUSH1 0x20 DUP2 ADD SWAP1 POP PUSH2 0xB25 JUMP JUMPDEST DUP7 DUP4 LT ISZERO PUSH2 0xB67 JUMPI DUP5 DUP10 ADD MLOAD PUSH2 0xB63 PUSH1 0x1F DUP10 AND DUP3 PUSH2 0xA76 JUMP JUMPDEST DUP4 SSTORE POP JUMPDEST PUSH1 0x1 PUSH1 0x2 DUP9 MUL ADD DUP9 SSTORE POP POP POP JUMPDEST POP POP POP POP POP POP JUMP INVALID LOG2 PUSH5 0x6970667358 0x22 SLT KECCAK256 GASPRICE SWAP12 EXTCODECOPY EXTCODEHASH RETURNDATASIZE 0xE2 SWAP7 EQ DUP4 SWAP6 0xCD PUSH21 0x67B40F816C67492B7D38B1A650D0B7688F4F581864 PUSH20 0x6F6C634300081A00330000000000000000000000 "
				},
				"gasEstimates": {
					"creation": {
						"codeDepositCost": "598800",
						"executionCost": "630",
						"totalCost": "599430"
					},
					"external": {
						"addEmployee(address,string,uint256,uint8)": "infinite",
						"employeeAddresses(uint256)": "4988",
						"employees(address)": "infinite",
						"getEmployee(address)": "infinite",
						"getTotalEmployees()": "2440"
					}
				},
				"methodIdentifiers": {
					"addEmployee(address,string,uint256,uint8)": "5cd359d5",
					"employeeAddresses(uint256)": "7521720b",
					"employees(address)": "d0678947",
					"getEmployee(address)": "32648e09",
					"getTotalEmployees()": "5339c995"
				}
			},
			"storageLayout": {
				"storage": [
					{
						"astId": 19,
						"contract": "contracts/EmployeeRegistry.sol:EmployeeRegistry",
						"label": "employees",
						"offset": 0,
						"slot": "0",
						"type": "t_mapping(t_address,t_struct(Employee)14_storage)"
					},
					{
						"astId": 22,
						"contract": "contracts/EmployeeRegistry.sol:EmployeeRegistry",
						"label": "employeeAddresses",
						"offset": 0,
						"slot": "1",
						"type": "t_array(t_address)dyn_storage"
					}
				],
				"types": {
					"t_address": {
						"encoding": "inplace",
						"label": "address",
						"numberOfBytes": "20"
					},
					"t_array(t_address)dyn_storage": {
						"base": "t_address",
						"encoding": "dynamic_array",
						"label": "address[]",
						"numberOfBytes": "32"
					},
					"t_enum(Department)6": {
						"encoding": "inplace",
						"label": "enum EmployeeRegistry.Department",
						"numberOfBytes": "1"
					},
					"t_mapping(t_address,t_struct(Employee)14_storage)": {
						"encoding": "mapping",
						"key": "t_address",
						"label": "mapping(address => struct EmployeeRegistry.Employee)",
						"numberOfBytes": "32",
						"value": "t_struct(Employee)14_storage"
					},
					"t_string_storage": {
						"encoding": "bytes",
						"label": "string",
						"numberOfBytes": "32"
					},
					"t_struct(Employee)14_storage": {
						"encoding": "inplace",
						"label": "struct EmployeeRegistry.Employee",
						"members": [
							{
								"astId": 8,
								"contract": "contracts/EmployeeRegistry.sol:EmployeeRegistry",
								"label": "name",
								"offset": 0,
								"slot": "0",
								"type": "t_string_storage"
							},
							{
								"astId": 10,
								"contract": "contracts/EmployeeRegistry.sol:EmployeeRegistry",
								"label": "age",
								"offset": 0,
								"slot": "1",
								"type": "t_uint256"
							},
							{
								"astId": 13,
								"contract": "contracts/EmployeeRegistry.sol:EmployeeRegistry",
								"label": "department",
								"offset": 0,
								"slot": "2",
								"type": "t_enum(Department)6"
							}
						],
						"numberOfBytes": "96"
					},
					"t_uint256": {
						"encoding": "inplace",
						"label": "uint256",
						"numberOfBytes": "32"
					}
				}
			},
			"userdoc": {
				"kind": "user",
				"methods": {},
				"version": 1
			}
		}
	}
}