{
	"contracts/StudentRecords.sol": {
		"StudentRecords": {
			"abi": [
				{
					"anonymous": false,
					"inputs": [
						{
							"indexed": false,
							"internalType": "uint256",
							"name": "id",
							"type": "uint256"
						},
						{
							"indexed": false,
							"internalType": "string",
							"name": "name",
							"type": "string"
						}
					],
					"name": "StudentAdded",
					"type": "event"
				},
				{
					"inputs": [
						{
							"internalType": "string",
							"name": "_name",
							"type": "string"
						},
						{
							"internalType": "uint8",
							"name": "_age",
							"type": "uint8"
						},
						{
							"internalType": "enum StudentRecords.Grade",
							"name": "_grade",
							"type": "uint8"
						},
						{
							"internalType": "address",
							"name": "_address",
							"type": "address"
						}
					],
					"name": "addStudent",
					"outputs": [],
					"stateMutability": "nonpayable",
					"type": "function"
				},
				{
					"inputs": [
						{
							"internalType": "uint256",
							"name": "_id",
							"type": "uint256"
						}
					],
					"name": "getStudent",
					"outputs": [
						{
							"internalType": "string",
							"name": "",
							"type": "string"
						},
						{
							"internalType": "uint8",
							"name": "",
							"type": "uint8"
						},
						{
							"internalType": "enum StudentRecords.Grade",
							"name": "",
							"type": "uint8"
						},
						{
							"internalType": "address",
							"name": "",
							"type": "address"
						}
					],
					"stateMutability": "view",
					"type": "function"
				}
			],
			"devdoc": {
				"kind": "dev",
				"methods": {},
				"version": 1
			},
			"evm": {
				"assembly": "    /* \"contracts/StudentRecords.sol\":113:1557  contract StudentRecords {... */\n  mstore(0x40, 0x80)\n  callvalue\n  dup1\n  iszero\n  tag_1\n  jumpi\n  0x00\n  dup1\n  revert\ntag_1:\n  pop\n  dataSize(sub_0)\n  dup1\n  dataOffset(sub_0)\n  0x00\n  codecopy\n  0x00\n  return\nstop\n\nsub_0: assembly {\n        /* \"contracts/StudentRecords.sol\":113:1557  contract StudentRecords {... */\n      mstore(0x40, 0x80)\n      callvalue\n      dup1\n      iszero\n      tag_1\n      jumpi\n      0x00\n      dup1\n      revert\n    tag_1:\n      pop\n      jumpi(tag_2, lt(calldatasize, 0x04))\n      shr(0xe0, calldataload(0x00))\n      dup1\n      0x326ab04a\n      eq\n      tag_3\n      jumpi\n      dup1\n      0x642f9163\n      eq\n      tag_4\n      jumpi\n    tag_2:\n      0x00\n      dup1\n      revert\n        /* \"contracts/StudentRecords.sol\":553:1254  function addStudent(string memory _name, uint8 _age, Grade _grade, address _address) public {... */\n    tag_3:\n      tag_5\n      0x04\n      dup1\n      calldatasize\n      sub\n      dup2\n      add\n      swap1\n      tag_6\n      swap2\n      swap1\n      tag_7\n      jump\t// in\n    tag_6:\n      tag_8\n      jump\t// in\n    tag_5:\n      stop\n        /* \"contracts/StudentRecords.sol\":1262:1554  function getStudent(uint256 _id) public view returns (string memory, uint8, Grade, address) {... */\n    tag_4:\n      tag_9\n      0x04\n      dup1\n      calldatasize\n      sub\n      dup2\n      add\n      swap1\n      tag_10\n      swap2\n      swap1\n      tag_11\n      jump\t// in\n    tag_10:\n      tag_12\n      jump\t// in\n    tag_9:\n      mload(0x40)\n      tag_13\n      swap5\n      swap4\n      swap3\n      swap2\n      swap1\n      tag_14\n      jump\t// in\n    tag_13:\n      mload(0x40)\n      dup1\n      swap2\n      sub\n      swap1\n      return\n        /* \"contracts/StudentRecords.sol\":553:1254  function addStudent(string memory _name, uint8 _age, Grade _grade, address _address) public {... */\n    tag_8:\n        /* \"contracts/StudentRecords.sol\":696:697  0 */\n      0x00\n        /* \"contracts/StudentRecords.sol\":680:685  _name */\n      dup5\n        /* \"contracts/StudentRecords.sol\":674:693  bytes(_name).length */\n      mload\n        /* \"contracts/StudentRecords.sol\":674:697  bytes(_name).length > 0 */\n      gt\n        /* \"contracts/StudentRecords.sol\":666:715  require(bytes(_name).length > 0, \"No name data.\") */\n      tag_16\n      jumpi\n      mload(0x40)\n      0x08c379a000000000000000000000000000000000000000000000000000000000\n      dup2\n      mstore\n      0x04\n      add\n      tag_17\n      swap1\n      tag_18\n      jump\t// in\n    tag_17:\n      mload(0x40)\n      dup1\n      swap2\n      sub\n      swap1\n      revert\n    tag_16:\n        /* \"contracts/StudentRecords.sol\":741:742  0 */\n      0x00\n        /* \"contracts/StudentRecords.sol\":734:738  _age */\n      dup4\n        /* \"contracts/StudentRecords.sol\":734:742  _age > 0 */\n      0xff\n      and\n      gt\n        /* \"contracts/StudentRecords.sol\":726:774  require(_age > 0, \"Age must be greater than 0.\") */\n      tag_19\n      jumpi\n      mload(0x40)\n      0x08c379a000000000000000000000000000000000000000000000000000000000\n      dup2\n      mstore\n      0x04\n      add\n      tag_20\n      swap1\n      tag_21\n      jump\t// in\n    tag_20:\n      mload(0x40)\n      dup1\n      swap2\n      sub\n      swap1\n      revert\n    tag_19:\n        /* \"contracts/StudentRecords.sol\":813:814  0 */\n      0x00\n        /* \"contracts/StudentRecords.sol\":793:815  _address != address(0) */\n      0xffffffffffffffffffffffffffffffffffffffff\n      and\n        /* \"contracts/StudentRecords.sol\":793:801  _address */\n      dup2\n        /* \"contracts/StudentRecords.sol\":793:815  _address != address(0) */\n      0xffffffffffffffffffffffffffffffffffffffff\n      and\n      sub\n        /* \"contracts/StudentRecords.sol\":785:840  require(_address != address(0), \"Invalid zero address\") */\n      tag_22\n      jumpi\n      mload(0x40)\n      0x08c379a000000000000000000000000000000000000000000000000000000000\n      dup2\n      mstore\n      0x04\n      add\n      tag_23\n      swap1\n      tag_24\n      jump\t// in\n    tag_23:\n      mload(0x40)\n      dup1\n      swap2\n      sub\n      swap1\n      revert\n    tag_22:\n        /* \"contracts/StudentRecords.sol\":882:900  Grade.Kindergarten */\n      0x00\n        /* \"contracts/StudentRecords.sol\":876:901  uint8(Grade.Kindergarten) */\n      0x04\n      dup2\n      gt\n      iszero\n      tag_25\n      jumpi\n      tag_26\n      tag_27\n      jump\t// in\n    tag_26:\n    tag_25:\n        /* \"contracts/StudentRecords.sol\":859:901  uint8(_grade) >= uint8(Grade.Kindergarten) */\n      0xff\n      and\n        /* \"contracts/StudentRecords.sol\":865:871  _grade */\n      dup3\n        /* \"contracts/StudentRecords.sol\":859:872  uint8(_grade) */\n      0x04\n      dup2\n      gt\n      iszero\n      tag_28\n      jumpi\n      tag_29\n      tag_27\n      jump\t// in\n    tag_29:\n    tag_28:\n        /* \"contracts/StudentRecords.sol\":859:901  uint8(_grade) >= uint8(Grade.Kindergarten) */\n      0xff\n      and\n      lt\n      iszero\n        /* \"contracts/StudentRecords.sol\":859:942  uint8(_grade) >= uint8(Grade.Kindergarten) && uint8(_grade) <= uint8(Grade.College) */\n      dup1\n      iszero\n      tag_30\n      jumpi\n      pop\n        /* \"contracts/StudentRecords.sol\":928:941  Grade.College */\n      0x04\n        /* \"contracts/StudentRecords.sol\":922:942  uint8(Grade.College) */\n      dup1\n      dup2\n      gt\n      iszero\n      tag_31\n      jumpi\n      tag_32\n      tag_27\n      jump\t// in\n    tag_32:\n    tag_31:\n        /* \"contracts/StudentRecords.sol\":905:942  uint8(_grade) <= uint8(Grade.College) */\n      0xff\n      and\n        /* \"contracts/StudentRecords.sol\":911:917  _grade */\n      dup3\n        /* \"contracts/StudentRecords.sol\":905:918  uint8(_grade) */\n      0x04\n      dup2\n      gt\n      iszero\n      tag_33\n      jumpi\n      tag_34\n      tag_27\n      jump\t// in\n    tag_34:\n    tag_33:\n        /* \"contracts/StudentRecords.sol\":905:942  uint8(_grade) <= uint8(Grade.College) */\n      0xff\n      and\n      gt\n      iszero\n        /* \"contracts/StudentRecords.sol\":859:942  uint8(_grade) >= uint8(Grade.Kindergarten) && uint8(_grade) <= uint8(Grade.College) */\n    tag_30:\n        /* \"contracts/StudentRecords.sol\":851:961  require(uint8(_grade) >= uint8(Grade.Kindergarten) && uint8(_grade) <= uint8(Grade.College), \"Invalid grade.\") */\n      tag_35\n      jumpi\n      mload(0x40)\n      0x08c379a000000000000000000000000000000000000000000000000000000000\n      dup2\n      mstore\n      0x04\n      add\n      tag_36\n      swap1\n      tag_37\n      jump\t// in\n    tag_36:\n      mload(0x40)\n      dup1\n      swap2\n      sub\n      swap1\n      revert\n    tag_35:\n        /* \"contracts/StudentRecords.sol\":974:988  studentCounter */\n      0x00\n      dup1\n        /* \"contracts/StudentRecords.sol\":974:990  studentCounter++ */\n      dup2\n      sload\n      dup1\n      swap3\n      swap2\n      swap1\n      tag_38\n      swap1\n      tag_39\n      jump\t// in\n    tag_38:\n      swap2\n      swap1\n      pop\n      sstore\n      pop\n        /* \"contracts/StudentRecords.sol\":1030:1193  Student({... */\n      mload(0x40)\n      dup1\n      0xa0\n      add\n      0x40\n      mstore\n      dup1\n        /* \"contracts/StudentRecords.sol\":1057:1071  studentCounter */\n      sload(0x00)\n        /* \"contracts/StudentRecords.sol\":1030:1193  Student({... */\n      dup2\n      mstore\n      0x20\n      add\n        /* \"contracts/StudentRecords.sol\":1092:1097  _name */\n      dup6\n        /* \"contracts/StudentRecords.sol\":1030:1193  Student({... */\n      dup2\n      mstore\n      0x20\n      add\n        /* \"contracts/StudentRecords.sol\":1117:1121  _age */\n      dup5\n        /* \"contracts/StudentRecords.sol\":1030:1193  Student({... */\n      0xff\n      and\n      dup2\n      mstore\n      0x20\n      add\n        /* \"contracts/StudentRecords.sol\":1143:1149  _grade */\n      dup4\n        /* \"contracts/StudentRecords.sol\":1030:1193  Student({... */\n      0x04\n      dup2\n      gt\n      iszero\n      tag_40\n      jumpi\n      tag_41\n      tag_27\n      jump\t// in\n    tag_41:\n    tag_40:\n      dup2\n      mstore\n      0x20\n      add\n        /* \"contracts/StudentRecords.sol\":1173:1181  _address */\n      dup3\n        /* \"contracts/StudentRecords.sol\":1030:1193  Student({... */\n      0xffffffffffffffffffffffffffffffffffffffff\n      and\n      dup2\n      mstore\n      pop\n        /* \"contracts/StudentRecords.sol\":1003:1011  students */\n      0x01\n        /* \"contracts/StudentRecords.sol\":1003:1027  students[studentCounter] */\n      0x00\n        /* \"contracts/StudentRecords.sol\":1012:1026  studentCounter */\n      dup1\n      sload\n        /* \"contracts/StudentRecords.sol\":1003:1027  students[studentCounter] */\n      dup2\n      mstore\n      0x20\n      add\n      swap1\n      dup2\n      mstore\n      0x20\n      add\n      0x00\n      keccak256\n        /* \"contracts/StudentRecords.sol\":1003:1193  students[studentCounter] = Student({... */\n      0x00\n      dup3\n      add\n      mload\n      dup2\n      0x00\n      add\n      sstore\n      0x20\n      dup3\n      add\n      mload\n      dup2\n      0x01\n      add\n      swap1\n      dup2\n      tag_42\n      swap2\n      swap1\n      tag_43\n      jump\t// in\n    tag_42:\n      pop\n      0x40\n      dup3\n      add\n      mload\n      dup2\n      0x02\n      add\n      exp(0x0100, 0x00)\n      dup2\n      sload\n      dup2\n      0xff\n      mul\n      not\n      and\n      swap1\n      dup4\n      0xff\n      and\n      mul\n      or\n      swap1\n      sstore\n      pop\n      0x60\n      dup3\n      add\n      mload\n      dup2\n      0x02\n      add\n      exp(0x0100, 0x01)\n      dup2\n      sload\n      dup2\n      0xff\n      mul\n      not\n      and\n      swap1\n      dup4\n      0x04\n      dup2\n      gt\n      iszero\n      tag_44\n      jumpi\n      tag_45\n      tag_27\n      jump\t// in\n    tag_45:\n    tag_44:\n      mul\n      or\n      swap1\n      sstore\n      pop\n      0x80\n      dup3\n      add\n      mload\n      dup2\n      0x02\n      add\n      exp(0x0100, 0x02)\n      dup2\n      sload\n      dup2\n      0xffffffffffffffffffffffffffffffffffffffff\n      mul\n      not\n      and\n      swap1\n      dup4\n      0xffffffffffffffffffffffffffffffffffffffff\n      and\n      mul\n      or\n      swap1\n      sstore\n      pop\n      swap1\n      pop\n      pop\n        /* \"contracts/StudentRecords.sol\":1211:1246  StudentAdded(studentCounter, _name) */\n      0x9682c9a3e9734a1f8d3a641838a5d7862f4eb29fcbf4bd04e0ccac28ffcfd227\n        /* \"contracts/StudentRecords.sol\":1224:1238  studentCounter */\n      sload(0x00)\n        /* \"contracts/StudentRecords.sol\":1240:1245  _name */\n      dup6\n        /* \"contracts/StudentRecords.sol\":1211:1246  StudentAdded(studentCounter, _name) */\n      mload(0x40)\n      tag_46\n      swap3\n      swap2\n      swap1\n      tag_47\n      jump\t// in\n    tag_46:\n      mload(0x40)\n      dup1\n      swap2\n      sub\n      swap1\n      log1\n        /* \"contracts/StudentRecords.sol\":553:1254  function addStudent(string memory _name, uint8 _age, Grade _grade, address _address) public {... */\n      pop\n      pop\n      pop\n      pop\n      jump\t// out\n        /* \"contracts/StudentRecords.sol\":1262:1554  function getStudent(uint256 _id) public view returns (string memory, uint8, Grade, address) {... */\n    tag_12:\n        /* \"contracts/StudentRecords.sol\":1316:1329  string memory */\n      0x60\n        /* \"contracts/StudentRecords.sol\":1331:1336  uint8 */\n      0x00\n        /* \"contracts/StudentRecords.sol\":1338:1343  Grade */\n      dup1\n        /* \"contracts/StudentRecords.sol\":1345:1352  address */\n      0x00\n        /* \"contracts/StudentRecords.sol\":1365:1388  Student storage student */\n      dup1\n        /* \"contracts/StudentRecords.sol\":1391:1399  students */\n      0x01\n        /* \"contracts/StudentRecords.sol\":1391:1404  students[_id] */\n      0x00\n        /* \"contracts/StudentRecords.sol\":1400:1403  _id */\n      dup8\n        /* \"contracts/StudentRecords.sol\":1391:1404  students[_id] */\n      dup2\n      mstore\n      0x20\n      add\n      swap1\n      dup2\n      mstore\n      0x20\n      add\n      0x00\n      keccak256\n        /* \"contracts/StudentRecords.sol\":1365:1404  Student storage student = students[_id] */\n      swap1\n      pop\n        /* \"contracts/StudentRecords.sol\":1439:1440  0 */\n      0x00\n        /* \"contracts/StudentRecords.sol\":1425:1432  student */\n      dup2\n        /* \"contracts/StudentRecords.sol\":1425:1435  student.id */\n      0x00\n      add\n      sload\n        /* \"contracts/StudentRecords.sol\":1425:1440  student.id != 0 */\n      sub\n        /* \"contracts/StudentRecords.sol\":1417:1467  require(student.id != 0, \"Student does not exist\") */\n      tag_49\n      jumpi\n      mload(0x40)\n      0x08c379a000000000000000000000000000000000000000000000000000000000\n      dup2\n      mstore\n      0x04\n      add\n      tag_50\n      swap1\n      tag_51\n      jump\t// in\n    tag_50:\n      mload(0x40)\n      dup1\n      swap2\n      sub\n      swap1\n      revert\n    tag_49:\n        /* \"contracts/StudentRecords.sol\":1488:1495  student */\n      dup1\n        /* \"contracts/StudentRecords.sol\":1488:1500  student.name */\n      0x01\n      add\n        /* \"contracts/StudentRecords.sol\":1502:1509  student */\n      dup2\n        /* \"contracts/StudentRecords.sol\":1502:1513  student.age */\n      0x02\n      add\n      0x00\n      swap1\n      sload\n      swap1\n      0x0100\n      exp\n      swap1\n      div\n      0xff\n      and\n        /* \"contracts/StudentRecords.sol\":1515:1522  student */\n      dup3\n        /* \"contracts/StudentRecords.sol\":1515:1528  student.grade */\n      0x02\n      add\n      0x01\n      swap1\n      sload\n      swap1\n      0x0100\n      exp\n      swap1\n      div\n      0xff\n      and\n        /* \"contracts/StudentRecords.sol\":1530:1537  student */\n      dup4\n        /* \"contracts/StudentRecords.sol\":1530:1545  student.Address */\n      0x02\n      add\n      0x02\n      swap1\n      sload\n      swap1\n      0x0100\n      exp\n      swap1\n      div\n      0xffffffffffffffffffffffffffffffffffffffff\n      and\n        /* \"contracts/StudentRecords.sol\":1480:1546  return (student.name, student.age, student.grade, student.Address) */\n      dup4\n      dup1\n      sload\n      tag_52\n      swap1\n      tag_53\n      jump\t// in\n    tag_52:\n      dup1\n      0x1f\n      add\n      0x20\n      dup1\n      swap2\n      div\n      mul\n      0x20\n      add\n      mload(0x40)\n      swap1\n      dup2\n      add\n      0x40\n      mstore\n      dup1\n      swap3\n      swap2\n      swap1\n      dup2\n      dup2\n      mstore\n      0x20\n      add\n      dup3\n      dup1\n      sload\n      tag_54\n      swap1\n      tag_53\n      jump\t// in\n    tag_54:\n      dup1\n      iszero\n      tag_55\n      jumpi\n      dup1\n      0x1f\n      lt\n      tag_56\n      jumpi\n      0x0100\n      dup1\n      dup4\n      sload\n      div\n      mul\n      dup4\n      mstore\n      swap2\n      0x20\n      add\n      swap2\n      jump(tag_55)\n    tag_56:\n      dup3\n      add\n      swap2\n      swap1\n      0x00\n      mstore\n      keccak256(0x00, 0x20)\n      swap1\n    tag_57:\n      dup2\n      sload\n      dup2\n      mstore\n      swap1\n      0x01\n      add\n      swap1\n      0x20\n      add\n      dup1\n      dup4\n      gt\n      tag_57\n      jumpi\n      dup3\n      swap1\n      sub\n      0x1f\n      and\n      dup3\n      add\n      swap2\n    tag_55:\n      pop\n      pop\n      pop\n      pop\n      pop\n      swap4\n      pop\n      swap5\n      pop\n      swap5\n      pop\n      swap5\n      pop\n      swap5\n      pop\n      pop\n        /* \"contracts/StudentRecords.sol\":1262:1554  function getStudent(uint256 _id) public view returns (string memory, uint8, Grade, address) {... */\n      swap2\n      swap4\n      pop\n      swap2\n      swap4\n      jump\t// out\n        /* \"#utility.yul\":7:82   */\n    tag_58:\n        /* \"#utility.yul\":40:46   */\n      0x00\n        /* \"#utility.yul\":73:75   */\n      0x40\n        /* \"#utility.yul\":67:76   */\n      mload\n        /* \"#utility.yul\":57:76   */\n      swap1\n      pop\n        /* \"#utility.yul\":7:82   */\n      swap1\n      jump\t// out\n        /* \"#utility.yul\":88:205   */\n    tag_59:\n        /* \"#utility.yul\":197:198   */\n      0x00\n        /* \"#utility.yul\":194:195   */\n      dup1\n        /* \"#utility.yul\":187:199   */\n      revert\n        /* \"#utility.yul\":211:328   */\n    tag_60:\n        /* \"#utility.yul\":320:321   */\n      0x00\n        /* \"#utility.yul\":317:318   */\n      dup1\n        /* \"#utility.yul\":310:322   */\n      revert\n        /* \"#utility.yul\":334:451   */\n    tag_61:\n        /* \"#utility.yul\":443:444   */\n      0x00\n        /* \"#utility.yul\":440:441   */\n      dup1\n        /* \"#utility.yul\":433:445   */\n      revert\n        /* \"#utility.yul\":457:574   */\n    tag_62:\n        /* \"#utility.yul\":566:567   */\n      0x00\n        /* \"#utility.yul\":563:564   */\n      dup1\n        /* \"#utility.yul\":556:568   */\n      revert\n        /* \"#utility.yul\":580:682   */\n    tag_63:\n        /* \"#utility.yul\":621:627   */\n      0x00\n        /* \"#utility.yul\":672:674   */\n      0x1f\n        /* \"#utility.yul\":668:675   */\n      not\n        /* \"#utility.yul\":663:665   */\n      0x1f\n        /* \"#utility.yul\":656:661   */\n      dup4\n        /* \"#utility.yul\":652:666   */\n      add\n        /* \"#utility.yul\":648:676   */\n      and\n        /* \"#utility.yul\":638:676   */\n      swap1\n      pop\n        /* \"#utility.yul\":580:682   */\n      swap2\n      swap1\n      pop\n      jump\t// out\n        /* \"#utility.yul\":688:868   */\n    tag_64:\n        /* \"#utility.yul\":736:813   */\n      0x4e487b7100000000000000000000000000000000000000000000000000000000\n        /* \"#utility.yul\":733:734   */\n      0x00\n        /* \"#utility.yul\":726:814   */\n      mstore\n        /* \"#utility.yul\":833:837   */\n      0x41\n        /* \"#utility.yul\":830:831   */\n      0x04\n        /* \"#utility.yul\":823:838   */\n      mstore\n        /* \"#utility.yul\":857:861   */\n      0x24\n        /* \"#utility.yul\":854:855   */\n      0x00\n        /* \"#utility.yul\":847:862   */\n      revert\n        /* \"#utility.yul\":874:1155   */\n    tag_65:\n        /* \"#utility.yul\":957:984   */\n      tag_130\n        /* \"#utility.yul\":979:983   */\n      dup3\n        /* \"#utility.yul\":957:984   */\n      tag_63\n      jump\t// in\n    tag_130:\n        /* \"#utility.yul\":949:955   */\n      dup2\n        /* \"#utility.yul\":945:985   */\n      add\n        /* \"#utility.yul\":1087:1093   */\n      dup2\n        /* \"#utility.yul\":1075:1085   */\n      dup2\n        /* \"#utility.yul\":1072:1094   */\n      lt\n        /* \"#utility.yul\":1051:1069   */\n      0xffffffffffffffff\n        /* \"#utility.yul\":1039:1049   */\n      dup3\n        /* \"#utility.yul\":1036:1070   */\n      gt\n        /* \"#utility.yul\":1033:1095   */\n      or\n        /* \"#utility.yul\":1030:1118   */\n      iszero\n      tag_131\n      jumpi\n        /* \"#utility.yul\":1098:1116   */\n      tag_132\n      tag_64\n      jump\t// in\n    tag_132:\n        /* \"#utility.yul\":1030:1118   */\n    tag_131:\n        /* \"#utility.yul\":1138:1148   */\n      dup1\n        /* \"#utility.yul\":1134:1136   */\n      0x40\n        /* \"#utility.yul\":1127:1149   */\n      mstore\n        /* \"#utility.yul\":917:1155   */\n      pop\n        /* \"#utility.yul\":874:1155   */\n      pop\n      pop\n      jump\t// out\n        /* \"#utility.yul\":1161:1290   */\n    tag_66:\n        /* \"#utility.yul\":1195:1201   */\n      0x00\n        /* \"#utility.yul\":1222:1242   */\n      tag_134\n      tag_58\n      jump\t// in\n    tag_134:\n        /* \"#utility.yul\":1212:1242   */\n      swap1\n      pop\n        /* \"#utility.yul\":1251:1284   */\n      tag_135\n        /* \"#utility.yul\":1279:1283   */\n      dup3\n        /* \"#utility.yul\":1271:1277   */\n      dup3\n        /* \"#utility.yul\":1251:1284   */\n      tag_65\n      jump\t// in\n    tag_135:\n        /* \"#utility.yul\":1161:1290   */\n      swap2\n      swap1\n      pop\n      jump\t// out\n        /* \"#utility.yul\":1296:1604   */\n    tag_67:\n        /* \"#utility.yul\":1358:1362   */\n      0x00\n        /* \"#utility.yul\":1448:1466   */\n      0xffffffffffffffff\n        /* \"#utility.yul\":1440:1446   */\n      dup3\n        /* \"#utility.yul\":1437:1467   */\n      gt\n        /* \"#utility.yul\":1434:1490   */\n      iszero\n      tag_137\n      jumpi\n        /* \"#utility.yul\":1470:1488   */\n      tag_138\n      tag_64\n      jump\t// in\n    tag_138:\n        /* \"#utility.yul\":1434:1490   */\n    tag_137:\n        /* \"#utility.yul\":1508:1537   */\n      tag_139\n        /* \"#utility.yul\":1530:1536   */\n      dup3\n        /* \"#utility.yul\":1508:1537   */\n      tag_63\n      jump\t// in\n    tag_139:\n        /* \"#utility.yul\":1500:1537   */\n      swap1\n      pop\n        /* \"#utility.yul\":1592:1596   */\n      0x20\n        /* \"#utility.yul\":1586:1590   */\n      dup2\n        /* \"#utility.yul\":1582:1597   */\n      add\n        /* \"#utility.yul\":1574:1597   */\n      swap1\n      pop\n        /* \"#utility.yul\":1296:1604   */\n      swap2\n      swap1\n      pop\n      jump\t// out\n        /* \"#utility.yul\":1610:1758   */\n    tag_68:\n        /* \"#utility.yul\":1708:1714   */\n      dup3\n        /* \"#utility.yul\":1703:1706   */\n      dup2\n        /* \"#utility.yul\":1698:1701   */\n      dup4\n        /* \"#utility.yul\":1685:1715   */\n      calldatacopy\n        /* \"#utility.yul\":1749:1750   */\n      0x00\n        /* \"#utility.yul\":1740:1746   */\n      dup4\n        /* \"#utility.yul\":1735:1738   */\n      dup4\n        /* \"#utility.yul\":1731:1747   */\n      add\n        /* \"#utility.yul\":1724:1751   */\n      mstore\n        /* \"#utility.yul\":1610:1758   */\n      pop\n      pop\n      pop\n      jump\t// out\n        /* \"#utility.yul\":1764:2189   */\n    tag_69:\n        /* \"#utility.yul\":1842:1847   */\n      0x00\n        /* \"#utility.yul\":1867:1933   */\n      tag_142\n        /* \"#utility.yul\":1883:1932   */\n      tag_143\n        /* \"#utility.yul\":1925:1931   */\n      dup5\n        /* \"#utility.yul\":1883:1932   */\n      tag_67\n      jump\t// in\n    tag_143:\n        /* \"#utility.yul\":1867:1933   */\n      tag_66\n      jump\t// in\n    tag_142:\n        /* \"#utility.yul\":1858:1933   */\n      swap1\n      pop\n        /* \"#utility.yul\":1956:1962   */\n      dup3\n        /* \"#utility.yul\":1949:1954   */\n      dup2\n        /* \"#utility.yul\":1942:1963   */\n      mstore\n        /* \"#utility.yul\":1994:1998   */\n      0x20\n        /* \"#utility.yul\":1987:1992   */\n      dup2\n        /* \"#utility.yul\":1983:1999   */\n      add\n        /* \"#utility.yul\":2032:2035   */\n      dup5\n        /* \"#utility.yul\":2023:2029   */\n      dup5\n        /* \"#utility.yul\":2018:2021   */\n      dup5\n        /* \"#utility.yul\":2014:2030   */\n      add\n        /* \"#utility.yul\":2011:2036   */\n      gt\n        /* \"#utility.yul\":2008:2120   */\n      iszero\n      tag_144\n      jumpi\n        /* \"#utility.yul\":2039:2118   */\n      tag_145\n      tag_62\n      jump\t// in\n    tag_145:\n        /* \"#utility.yul\":2008:2120   */\n    tag_144:\n        /* \"#utility.yul\":2129:2183   */\n      tag_146\n        /* \"#utility.yul\":2176:2182   */\n      dup5\n        /* \"#utility.yul\":2171:2174   */\n      dup3\n        /* \"#utility.yul\":2166:2169   */\n      dup6\n        /* \"#utility.yul\":2129:2183   */\n      tag_68\n      jump\t// in\n    tag_146:\n        /* \"#utility.yul\":1848:2189   */\n      pop\n        /* \"#utility.yul\":1764:2189   */\n      swap4\n      swap3\n      pop\n      pop\n      pop\n      jump\t// out\n        /* \"#utility.yul\":2209:2549   */\n    tag_70:\n        /* \"#utility.yul\":2265:2270   */\n      0x00\n        /* \"#utility.yul\":2314:2317   */\n      dup3\n        /* \"#utility.yul\":2307:2311   */\n      0x1f\n        /* \"#utility.yul\":2299:2305   */\n      dup4\n        /* \"#utility.yul\":2295:2312   */\n      add\n        /* \"#utility.yul\":2291:2318   */\n      slt\n        /* \"#utility.yul\":2281:2403   */\n      tag_148\n      jumpi\n        /* \"#utility.yul\":2322:2401   */\n      tag_149\n      tag_61\n      jump\t// in\n    tag_149:\n        /* \"#utility.yul\":2281:2403   */\n    tag_148:\n        /* \"#utility.yul\":2439:2445   */\n      dup2\n        /* \"#utility.yul\":2426:2446   */\n      calldataload\n        /* \"#utility.yul\":2464:2543   */\n      tag_150\n        /* \"#utility.yul\":2539:2542   */\n      dup5\n        /* \"#utility.yul\":2531:2537   */\n      dup3\n        /* \"#utility.yul\":2524:2528   */\n      0x20\n        /* \"#utility.yul\":2516:2522   */\n      dup7\n        /* \"#utility.yul\":2512:2529   */\n      add\n        /* \"#utility.yul\":2464:2543   */\n      tag_69\n      jump\t// in\n    tag_150:\n        /* \"#utility.yul\":2455:2543   */\n      swap2\n      pop\n        /* \"#utility.yul\":2271:2549   */\n      pop\n        /* \"#utility.yul\":2209:2549   */\n      swap3\n      swap2\n      pop\n      pop\n      jump\t// out\n        /* \"#utility.yul\":2555:2641   */\n    tag_71:\n        /* \"#utility.yul\":2590:2597   */\n      0x00\n        /* \"#utility.yul\":2630:2634   */\n      0xff\n        /* \"#utility.yul\":2623:2628   */\n      dup3\n        /* \"#utility.yul\":2619:2635   */\n      and\n        /* \"#utility.yul\":2608:2635   */\n      swap1\n      pop\n        /* \"#utility.yul\":2555:2641   */\n      swap2\n      swap1\n      pop\n      jump\t// out\n        /* \"#utility.yul\":2647:2765   */\n    tag_72:\n        /* \"#utility.yul\":2718:2740   */\n      tag_153\n        /* \"#utility.yul\":2734:2739   */\n      dup2\n        /* \"#utility.yul\":2718:2740   */\n      tag_71\n      jump\t// in\n    tag_153:\n        /* \"#utility.yul\":2711:2716   */\n      dup2\n        /* \"#utility.yul\":2708:2741   */\n      eq\n        /* \"#utility.yul\":2698:2759   */\n      tag_154\n      jumpi\n        /* \"#utility.yul\":2755:2756   */\n      0x00\n        /* \"#utility.yul\":2752:2753   */\n      dup1\n        /* \"#utility.yul\":2745:2757   */\n      revert\n        /* \"#utility.yul\":2698:2759   */\n    tag_154:\n        /* \"#utility.yul\":2647:2765   */\n      pop\n      jump\t// out\n        /* \"#utility.yul\":2771:2906   */\n    tag_73:\n        /* \"#utility.yul\":2815:2820   */\n      0x00\n        /* \"#utility.yul\":2853:2859   */\n      dup2\n        /* \"#utility.yul\":2840:2860   */\n      calldataload\n        /* \"#utility.yul\":2831:2860   */\n      swap1\n      pop\n        /* \"#utility.yul\":2869:2900   */\n      tag_156\n        /* \"#utility.yul\":2894:2899   */\n      dup2\n        /* \"#utility.yul\":2869:2900   */\n      tag_72\n      jump\t// in\n    tag_156:\n        /* \"#utility.yul\":2771:2906   */\n      swap3\n      swap2\n      pop\n      pop\n      jump\t// out\n        /* \"#utility.yul\":2912:3018   */\n    tag_74:\n        /* \"#utility.yul\":2992:2993   */\n      0x05\n        /* \"#utility.yul\":2985:2990   */\n      dup2\n        /* \"#utility.yul\":2982:2994   */\n      lt\n        /* \"#utility.yul\":2972:3012   */\n      tag_158\n      jumpi\n        /* \"#utility.yul\":3008:3009   */\n      0x00\n        /* \"#utility.yul\":3005:3006   */\n      dup1\n        /* \"#utility.yul\":2998:3010   */\n      revert\n        /* \"#utility.yul\":2972:3012   */\n    tag_158:\n        /* \"#utility.yul\":2912:3018   */\n      pop\n      jump\t// out\n        /* \"#utility.yul\":3024:3177   */\n    tag_75:\n        /* \"#utility.yul\":3077:3082   */\n      0x00\n        /* \"#utility.yul\":3115:3121   */\n      dup2\n        /* \"#utility.yul\":3102:3122   */\n      calldataload\n        /* \"#utility.yul\":3093:3122   */\n      swap1\n      pop\n        /* \"#utility.yul\":3131:3171   */\n      tag_160\n        /* \"#utility.yul\":3165:3170   */\n      dup2\n        /* \"#utility.yul\":3131:3171   */\n      tag_74\n      jump\t// in\n    tag_160:\n        /* \"#utility.yul\":3024:3177   */\n      swap3\n      swap2\n      pop\n      pop\n      jump\t// out\n        /* \"#utility.yul\":3183:3309   */\n    tag_76:\n        /* \"#utility.yul\":3220:3227   */\n      0x00\n        /* \"#utility.yul\":3260:3302   */\n      0xffffffffffffffffffffffffffffffffffffffff\n        /* \"#utility.yul\":3253:3258   */\n      dup3\n        /* \"#utility.yul\":3249:3303   */\n      and\n        /* \"#utility.yul\":3238:3303   */\n      swap1\n      pop\n        /* \"#utility.yul\":3183:3309   */\n      swap2\n      swap1\n      pop\n      jump\t// out\n        /* \"#utility.yul\":3315:3411   */\n    tag_77:\n        /* \"#utility.yul\":3352:3359   */\n      0x00\n        /* \"#utility.yul\":3381:3405   */\n      tag_163\n        /* \"#utility.yul\":3399:3404   */\n      dup3\n        /* \"#utility.yul\":3381:3405   */\n      tag_76\n      jump\t// in\n    tag_163:\n        /* \"#utility.yul\":3370:3405   */\n      swap1\n      pop\n        /* \"#utility.yul\":3315:3411   */\n      swap2\n      swap1\n      pop\n      jump\t// out\n        /* \"#utility.yul\":3417:3539   */\n    tag_78:\n        /* \"#utility.yul\":3490:3514   */\n      tag_165\n        /* \"#utility.yul\":3508:3513   */\n      dup2\n        /* \"#utility.yul\":3490:3514   */\n      tag_77\n      jump\t// in\n    tag_165:\n        /* \"#utility.yul\":3483:3488   */\n      dup2\n        /* \"#utility.yul\":3480:3515   */\n      eq\n        /* \"#utility.yul\":3470:3533   */\n      tag_166\n      jumpi\n        /* \"#utility.yul\":3529:3530   */\n      0x00\n        /* \"#utility.yul\":3526:3527   */\n      dup1\n        /* \"#utility.yul\":3519:3531   */\n      revert\n        /* \"#utility.yul\":3470:3533   */\n    tag_166:\n        /* \"#utility.yul\":3417:3539   */\n      pop\n      jump\t// out\n        /* \"#utility.yul\":3545:3684   */\n    tag_79:\n        /* \"#utility.yul\":3591:3596   */\n      0x00\n        /* \"#utility.yul\":3629:3635   */\n      dup2\n        /* \"#utility.yul\":3616:3636   */\n      calldataload\n        /* \"#utility.yul\":3607:3636   */\n      swap1\n      pop\n        /* \"#utility.yul\":3645:3678   */\n      tag_168\n        /* \"#utility.yul\":3672:3677   */\n      dup2\n        /* \"#utility.yul\":3645:3678   */\n      tag_78\n      jump\t// in\n    tag_168:\n        /* \"#utility.yul\":3545:3684   */\n      swap3\n      swap2\n      pop\n      pop\n      jump\t// out\n        /* \"#utility.yul\":3690:4645   */\n    tag_7:\n        /* \"#utility.yul\":3791:3797   */\n      0x00\n        /* \"#utility.yul\":3799:3805   */\n      dup1\n        /* \"#utility.yul\":3807:3813   */\n      0x00\n        /* \"#utility.yul\":3815:3821   */\n      dup1\n        /* \"#utility.yul\":3864:3867   */\n      0x80\n        /* \"#utility.yul\":3852:3861   */\n      dup6\n        /* \"#utility.yul\":3843:3850   */\n      dup8\n        /* \"#utility.yul\":3839:3862   */\n      sub\n        /* \"#utility.yul\":3835:3868   */\n      slt\n        /* \"#utility.yul\":3832:3952   */\n      iszero\n      tag_170\n      jumpi\n        /* \"#utility.yul\":3871:3950   */\n      tag_171\n      tag_59\n      jump\t// in\n    tag_171:\n        /* \"#utility.yul\":3832:3952   */\n    tag_170:\n        /* \"#utility.yul\":4019:4020   */\n      0x00\n        /* \"#utility.yul\":4008:4017   */\n      dup6\n        /* \"#utility.yul\":4004:4021   */\n      add\n        /* \"#utility.yul\":3991:4022   */\n      calldataload\n        /* \"#utility.yul\":4049:4067   */\n      0xffffffffffffffff\n        /* \"#utility.yul\":4041:4047   */\n      dup2\n        /* \"#utility.yul\":4038:4068   */\n      gt\n        /* \"#utility.yul\":4035:4152   */\n      iszero\n      tag_172\n      jumpi\n        /* \"#utility.yul\":4071:4150   */\n      tag_173\n      tag_60\n      jump\t// in\n    tag_173:\n        /* \"#utility.yul\":4035:4152   */\n    tag_172:\n        /* \"#utility.yul\":4176:4239   */\n      tag_174\n        /* \"#utility.yul\":4231:4238   */\n      dup8\n        /* \"#utility.yul\":4222:4228   */\n      dup3\n        /* \"#utility.yul\":4211:4220   */\n      dup9\n        /* \"#utility.yul\":4207:4229   */\n      add\n        /* \"#utility.yul\":4176:4239   */\n      tag_70\n      jump\t// in\n    tag_174:\n        /* \"#utility.yul\":4166:4239   */\n      swap5\n      pop\n        /* \"#utility.yul\":3962:4249   */\n      pop\n        /* \"#utility.yul\":4288:4290   */\n      0x20\n        /* \"#utility.yul\":4314:4365   */\n      tag_175\n        /* \"#utility.yul\":4357:4364   */\n      dup8\n        /* \"#utility.yul\":4348:4354   */\n      dup3\n        /* \"#utility.yul\":4337:4346   */\n      dup9\n        /* \"#utility.yul\":4333:4355   */\n      add\n        /* \"#utility.yul\":4314:4365   */\n      tag_73\n      jump\t// in\n    tag_175:\n        /* \"#utility.yul\":4304:4365   */\n      swap4\n      pop\n        /* \"#utility.yul\":4259:4375   */\n      pop\n        /* \"#utility.yul\":4414:4416   */\n      0x40\n        /* \"#utility.yul\":4440:4500   */\n      tag_176\n        /* \"#utility.yul\":4492:4499   */\n      dup8\n        /* \"#utility.yul\":4483:4489   */\n      dup3\n        /* \"#utility.yul\":4472:4481   */\n      dup9\n        /* \"#utility.yul\":4468:4490   */\n      add\n        /* \"#utility.yul\":4440:4500   */\n      tag_75\n      jump\t// in\n    tag_176:\n        /* \"#utility.yul\":4430:4500   */\n      swap3\n      pop\n        /* \"#utility.yul\":4385:4510   */\n      pop\n        /* \"#utility.yul\":4549:4551   */\n      0x60\n        /* \"#utility.yul\":4575:4628   */\n      tag_177\n        /* \"#utility.yul\":4620:4627   */\n      dup8\n        /* \"#utility.yul\":4611:4617   */\n      dup3\n        /* \"#utility.yul\":4600:4609   */\n      dup9\n        /* \"#utility.yul\":4596:4618   */\n      add\n        /* \"#utility.yul\":4575:4628   */\n      tag_79\n      jump\t// in\n    tag_177:\n        /* \"#utility.yul\":4565:4628   */\n      swap2\n      pop\n        /* \"#utility.yul\":4520:4638   */\n      pop\n        /* \"#utility.yul\":3690:4645   */\n      swap3\n      swap6\n      swap2\n      swap5\n      pop\n      swap3\n      pop\n      jump\t// out\n        /* \"#utility.yul\":4651:4728   */\n    tag_80:\n        /* \"#utility.yul\":4688:4695   */\n      0x00\n        /* \"#utility.yul\":4717:4722   */\n      dup2\n        /* \"#utility.yul\":4706:4722   */\n      swap1\n      pop\n        /* \"#utility.yul\":4651:4728   */\n      swap2\n      swap1\n      pop\n      jump\t// out\n        /* \"#utility.yul\":4734:4856   */\n    tag_81:\n        /* \"#utility.yul\":4807:4831   */\n      tag_180\n        /* \"#utility.yul\":4825:4830   */\n      dup2\n        /* \"#utility.yul\":4807:4831   */\n      tag_80\n      jump\t// in\n    tag_180:\n        /* \"#utility.yul\":4800:4805   */\n      dup2\n        /* \"#utility.yul\":4797:4832   */\n      eq\n        /* \"#utility.yul\":4787:4850   */\n      tag_181\n      jumpi\n        /* \"#utility.yul\":4846:4847   */\n      0x00\n        /* \"#utility.yul\":4843:4844   */\n      dup1\n        /* \"#utility.yul\":4836:4848   */\n      revert\n        /* \"#utility.yul\":4787:4850   */\n    tag_181:\n        /* \"#utility.yul\":4734:4856   */\n      pop\n      jump\t// out\n        /* \"#utility.yul\":4862:5001   */\n    tag_82:\n        /* \"#utility.yul\":4908:4913   */\n      0x00\n        /* \"#utility.yul\":4946:4952   */\n      dup2\n        /* \"#utility.yul\":4933:4953   */\n      calldataload\n        /* \"#utility.yul\":4924:4953   */\n      swap1\n      pop\n        /* \"#utility.yul\":4962:4995   */\n      tag_183\n        /* \"#utility.yul\":4989:4994   */\n      dup2\n        /* \"#utility.yul\":4962:4995   */\n      tag_81\n      jump\t// in\n    tag_183:\n        /* \"#utility.yul\":4862:5001   */\n      swap3\n      swap2\n      pop\n      pop\n      jump\t// out\n        /* \"#utility.yul\":5007:5336   */\n    tag_11:\n        /* \"#utility.yul\":5066:5072   */\n      0x00\n        /* \"#utility.yul\":5115:5117   */\n      0x20\n        /* \"#utility.yul\":5103:5112   */\n      dup3\n        /* \"#utility.yul\":5094:5101   */\n      dup5\n        /* \"#utility.yul\":5090:5113   */\n      sub\n        /* \"#utility.yul\":5086:5118   */\n      slt\n        /* \"#utility.yul\":5083:5202   */\n      iszero\n      tag_185\n      jumpi\n        /* \"#utility.yul\":5121:5200   */\n      tag_186\n      tag_59\n      jump\t// in\n    tag_186:\n        /* \"#utility.yul\":5083:5202   */\n    tag_185:\n        /* \"#utility.yul\":5241:5242   */\n      0x00\n        /* \"#utility.yul\":5266:5319   */\n      tag_187\n        /* \"#utility.yul\":5311:5318   */\n      dup5\n        /* \"#utility.yul\":5302:5308   */\n      dup3\n        /* \"#utility.yul\":5291:5300   */\n      dup6\n        /* \"#utility.yul\":5287:5309   */\n      add\n        /* \"#utility.yul\":5266:5319   */\n      tag_82\n      jump\t// in\n    tag_187:\n        /* \"#utility.yul\":5256:5319   */\n      swap2\n      pop\n        /* \"#utility.yul\":5212:5329   */\n      pop\n        /* \"#utility.yul\":5007:5336   */\n      swap3\n      swap2\n      pop\n      pop\n      jump\t// out\n        /* \"#utility.yul\":5342:5441   */\n    tag_83:\n        /* \"#utility.yul\":5394:5400   */\n      0x00\n        /* \"#utility.yul\":5428:5433   */\n      dup2\n        /* \"#utility.yul\":5422:5434   */\n      mload\n        /* \"#utility.yul\":5412:5434   */\n      swap1\n      pop\n        /* \"#utility.yul\":5342:5441   */\n      swap2\n      swap1\n      pop\n      jump\t// out\n        /* \"#utility.yul\":5447:5616   */\n    tag_84:\n        /* \"#utility.yul\":5531:5542   */\n      0x00\n        /* \"#utility.yul\":5565:5571   */\n      dup3\n        /* \"#utility.yul\":5560:5563   */\n      dup3\n        /* \"#utility.yul\":5553:5572   */\n      mstore\n        /* \"#utility.yul\":5605:5609   */\n      0x20\n        /* \"#utility.yul\":5600:5603   */\n      dup3\n        /* \"#utility.yul\":5596:5610   */\n      add\n        /* \"#utility.yul\":5581:5610   */\n      swap1\n      pop\n        /* \"#utility.yul\":5447:5616   */\n      swap3\n      swap2\n      pop\n      pop\n      jump\t// out\n        /* \"#utility.yul\":5622:5761   */\n    tag_85:\n        /* \"#utility.yul\":5711:5717   */\n      dup3\n        /* \"#utility.yul\":5706:5709   */\n      dup2\n        /* \"#utility.yul\":5701:5704   */\n      dup4\n        /* \"#utility.yul\":5695:5718   */\n      mcopy\n        /* \"#utility.yul\":5752:5753   */\n      0x00\n        /* \"#utility.yul\":5743:5749   */\n      dup4\n        /* \"#utility.yul\":5738:5741   */\n      dup4\n        /* \"#utility.yul\":5734:5750   */\n      add\n        /* \"#utility.yul\":5727:5754   */\n      mstore\n        /* \"#utility.yul\":5622:5761   */\n      pop\n      pop\n      pop\n      jump\t// out\n        /* \"#utility.yul\":5767:6144   */\n    tag_86:\n        /* \"#utility.yul\":5855:5858   */\n      0x00\n        /* \"#utility.yul\":5883:5922   */\n      tag_192\n        /* \"#utility.yul\":5916:5921   */\n      dup3\n        /* \"#utility.yul\":5883:5922   */\n      tag_83\n      jump\t// in\n    tag_192:\n        /* \"#utility.yul\":5938:6009   */\n      tag_193\n        /* \"#utility.yul\":6002:6008   */\n      dup2\n        /* \"#utility.yul\":5997:6000   */\n      dup6\n        /* \"#utility.yul\":5938:6009   */\n      tag_84\n      jump\t// in\n    tag_193:\n        /* \"#utility.yul\":5931:6009   */\n      swap4\n      pop\n        /* \"#utility.yul\":6018:6083   */\n      tag_194\n        /* \"#utility.yul\":6076:6082   */\n      dup2\n        /* \"#utility.yul\":6071:6074   */\n      dup6\n        /* \"#utility.yul\":6064:6068   */\n      0x20\n        /* \"#utility.yul\":6057:6062   */\n      dup7\n        /* \"#utility.yul\":6053:6069   */\n      add\n        /* \"#utility.yul\":6018:6083   */\n      tag_85\n      jump\t// in\n    tag_194:\n        /* \"#utility.yul\":6108:6137   */\n      tag_195\n        /* \"#utility.yul\":6130:6136   */\n      dup2\n        /* \"#utility.yul\":6108:6137   */\n      tag_63\n      jump\t// in\n    tag_195:\n        /* \"#utility.yul\":6103:6106   */\n      dup5\n        /* \"#utility.yul\":6099:6138   */\n      add\n        /* \"#utility.yul\":6092:6138   */\n      swap2\n      pop\n        /* \"#utility.yul\":5859:6144   */\n      pop\n        /* \"#utility.yul\":5767:6144   */\n      swap3\n      swap2\n      pop\n      pop\n      jump\t// out\n        /* \"#utility.yul\":6150:6262   */\n    tag_87:\n        /* \"#utility.yul\":6233:6255   */\n      tag_197\n        /* \"#utility.yul\":6249:6254   */\n      dup2\n        /* \"#utility.yul\":6233:6255   */\n      tag_71\n      jump\t// in\n    tag_197:\n        /* \"#utility.yul\":6228:6231   */\n      dup3\n        /* \"#utility.yul\":6221:6256   */\n      mstore\n        /* \"#utility.yul\":6150:6262   */\n      pop\n      pop\n      jump\t// out\n        /* \"#utility.yul\":6268:6448   */\n    tag_27:\n        /* \"#utility.yul\":6316:6393   */\n      0x4e487b7100000000000000000000000000000000000000000000000000000000\n        /* \"#utility.yul\":6313:6314   */\n      0x00\n        /* \"#utility.yul\":6306:6394   */\n      mstore\n        /* \"#utility.yul\":6413:6417   */\n      0x21\n        /* \"#utility.yul\":6410:6411   */\n      0x04\n        /* \"#utility.yul\":6403:6418   */\n      mstore\n        /* \"#utility.yul\":6437:6441   */\n      0x24\n        /* \"#utility.yul\":6434:6435   */\n      0x00\n        /* \"#utility.yul\":6427:6442   */\n      revert\n        /* \"#utility.yul\":6454:6566   */\n    tag_88:\n        /* \"#utility.yul\":6534:6535   */\n      0x05\n        /* \"#utility.yul\":6527:6532   */\n      dup2\n        /* \"#utility.yul\":6524:6536   */\n      lt\n        /* \"#utility.yul\":6514:6560   */\n      tag_200\n      jumpi\n        /* \"#utility.yul\":6540:6558   */\n      tag_201\n      tag_27\n      jump\t// in\n    tag_201:\n        /* \"#utility.yul\":6514:6560   */\n    tag_200:\n        /* \"#utility.yul\":6454:6566   */\n      pop\n      jump\t// out\n        /* \"#utility.yul\":6572:6697   */\n    tag_89:\n        /* \"#utility.yul\":6616:6623   */\n      0x00\n        /* \"#utility.yul\":6645:6650   */\n      dup2\n        /* \"#utility.yul\":6634:6650   */\n      swap1\n      pop\n        /* \"#utility.yul\":6651:6691   */\n      tag_203\n        /* \"#utility.yul\":6685:6690   */\n      dup3\n        /* \"#utility.yul\":6651:6691   */\n      tag_88\n      jump\t// in\n    tag_203:\n        /* \"#utility.yul\":6572:6697   */\n      swap2\n      swap1\n      pop\n      jump\t// out\n        /* \"#utility.yul\":6703:6828   */\n    tag_90:\n        /* \"#utility.yul\":6758:6767   */\n      0x00\n        /* \"#utility.yul\":6791:6822   */\n      tag_205\n        /* \"#utility.yul\":6816:6821   */\n      dup3\n        /* \"#utility.yul\":6791:6822   */\n      tag_89\n      jump\t// in\n    tag_205:\n        /* \"#utility.yul\":6778:6822   */\n      swap1\n      pop\n        /* \"#utility.yul\":6703:6828   */\n      swap2\n      swap1\n      pop\n      jump\t// out\n        /* \"#utility.yul\":6834:6975   */\n    tag_91:\n        /* \"#utility.yul\":6926:6968   */\n      tag_207\n        /* \"#utility.yul\":6962:6967   */\n      dup2\n        /* \"#utility.yul\":6926:6968   */\n      tag_90\n      jump\t// in\n    tag_207:\n        /* \"#utility.yul\":6921:6924   */\n      dup3\n        /* \"#utility.yul\":6914:6969   */\n      mstore\n        /* \"#utility.yul\":6834:6975   */\n      pop\n      pop\n      jump\t// out\n        /* \"#utility.yul\":6981:7099   */\n    tag_92:\n        /* \"#utility.yul\":7068:7092   */\n      tag_209\n        /* \"#utility.yul\":7086:7091   */\n      dup2\n        /* \"#utility.yul\":7068:7092   */\n      tag_77\n      jump\t// in\n    tag_209:\n        /* \"#utility.yul\":7063:7066   */\n      dup3\n        /* \"#utility.yul\":7056:7093   */\n      mstore\n        /* \"#utility.yul\":6981:7099   */\n      pop\n      pop\n      jump\t// out\n        /* \"#utility.yul\":7105:7751   */\n    tag_14:\n        /* \"#utility.yul\":7303:7307   */\n      0x00\n        /* \"#utility.yul\":7341:7344   */\n      0x80\n        /* \"#utility.yul\":7330:7339   */\n      dup3\n        /* \"#utility.yul\":7326:7345   */\n      add\n        /* \"#utility.yul\":7318:7345   */\n      swap1\n      pop\n        /* \"#utility.yul\":7391:7400   */\n      dup2\n        /* \"#utility.yul\":7385:7389   */\n      dup2\n        /* \"#utility.yul\":7381:7401   */\n      sub\n        /* \"#utility.yul\":7377:7378   */\n      0x00\n        /* \"#utility.yul\":7366:7375   */\n      dup4\n        /* \"#utility.yul\":7362:7379   */\n      add\n        /* \"#utility.yul\":7355:7402   */\n      mstore\n        /* \"#utility.yul\":7419:7497   */\n      tag_211\n        /* \"#utility.yul\":7492:7496   */\n      dup2\n        /* \"#utility.yul\":7483:7489   */\n      dup8\n        /* \"#utility.yul\":7419:7497   */\n      tag_86\n      jump\t// in\n    tag_211:\n        /* \"#utility.yul\":7411:7497   */\n      swap1\n      pop\n        /* \"#utility.yul\":7507:7575   */\n      tag_212\n        /* \"#utility.yul\":7571:7573   */\n      0x20\n        /* \"#utility.yul\":7560:7569   */\n      dup4\n        /* \"#utility.yul\":7556:7574   */\n      add\n        /* \"#utility.yul\":7547:7553   */\n      dup7\n        /* \"#utility.yul\":7507:7575   */\n      tag_87\n      jump\t// in\n    tag_212:\n        /* \"#utility.yul\":7585:7662   */\n      tag_213\n        /* \"#utility.yul\":7658:7660   */\n      0x40\n        /* \"#utility.yul\":7647:7656   */\n      dup4\n        /* \"#utility.yul\":7643:7661   */\n      add\n        /* \"#utility.yul\":7634:7640   */\n      dup6\n        /* \"#utility.yul\":7585:7662   */\n      tag_91\n      jump\t// in\n    tag_213:\n        /* \"#utility.yul\":7672:7744   */\n      tag_214\n        /* \"#utility.yul\":7740:7742   */\n      0x60\n        /* \"#utility.yul\":7729:7738   */\n      dup4\n        /* \"#utility.yul\":7725:7743   */\n      add\n        /* \"#utility.yul\":7716:7722   */\n      dup5\n        /* \"#utility.yul\":7672:7744   */\n      tag_92\n      jump\t// in\n    tag_214:\n        /* \"#utility.yul\":7105:7751   */\n      swap6\n      swap5\n      pop\n      pop\n      pop\n      pop\n      pop\n      jump\t// out\n        /* \"#utility.yul\":7757:7920   */\n    tag_93:\n        /* \"#utility.yul\":7897:7912   */\n      0x4e6f206e616d6520646174612e00000000000000000000000000000000000000\n        /* \"#utility.yul\":7893:7894   */\n      0x00\n        /* \"#utility.yul\":7885:7891   */\n      dup3\n        /* \"#utility.yul\":7881:7895   */\n      add\n        /* \"#utility.yul\":7874:7913   */\n      mstore\n        /* \"#utility.yul\":7757:7920   */\n      pop\n      jump\t// out\n        /* \"#utility.yul\":7926:8292   */\n    tag_94:\n        /* \"#utility.yul\":8068:8071   */\n      0x00\n        /* \"#utility.yul\":8089:8156   */\n      tag_217\n        /* \"#utility.yul\":8153:8155   */\n      0x0d\n        /* \"#utility.yul\":8148:8151   */\n      dup4\n        /* \"#utility.yul\":8089:8156   */\n      tag_84\n      jump\t// in\n    tag_217:\n        /* \"#utility.yul\":8082:8156   */\n      swap2\n      pop\n        /* \"#utility.yul\":8165:8258   */\n      tag_218\n        /* \"#utility.yul\":8254:8257   */\n      dup3\n        /* \"#utility.yul\":8165:8258   */\n      tag_93\n      jump\t// in\n    tag_218:\n        /* \"#utility.yul\":8283:8285   */\n      0x20\n        /* \"#utility.yul\":8278:8281   */\n      dup3\n        /* \"#utility.yul\":8274:8286   */\n      add\n        /* \"#utility.yul\":8267:8286   */\n      swap1\n      pop\n        /* \"#utility.yul\":7926:8292   */\n      swap2\n      swap1\n      pop\n      jump\t// out\n        /* \"#utility.yul\":8298:8717   */\n    tag_18:\n        /* \"#utility.yul\":8464:8468   */\n      0x00\n        /* \"#utility.yul\":8502:8504   */\n      0x20\n        /* \"#utility.yul\":8491:8500   */\n      dup3\n        /* \"#utility.yul\":8487:8505   */\n      add\n        /* \"#utility.yul\":8479:8505   */\n      swap1\n      pop\n        /* \"#utility.yul\":8551:8560   */\n      dup2\n        /* \"#utility.yul\":8545:8549   */\n      dup2\n        /* \"#utility.yul\":8541:8561   */\n      sub\n        /* \"#utility.yul\":8537:8538   */\n      0x00\n        /* \"#utility.yul\":8526:8535   */\n      dup4\n        /* \"#utility.yul\":8522:8539   */\n      add\n        /* \"#utility.yul\":8515:8562   */\n      mstore\n        /* \"#utility.yul\":8579:8710   */\n      tag_220\n        /* \"#utility.yul\":8705:8709   */\n      dup2\n        /* \"#utility.yul\":8579:8710   */\n      tag_94\n      jump\t// in\n    tag_220:\n        /* \"#utility.yul\":8571:8710   */\n      swap1\n      pop\n        /* \"#utility.yul\":8298:8717   */\n      swap2\n      swap1\n      pop\n      jump\t// out\n        /* \"#utility.yul\":8723:8900   */\n    tag_95:\n        /* \"#utility.yul\":8863:8892   */\n      0x416765206d7573742062652067726561746572207468616e20302e0000000000\n        /* \"#utility.yul\":8859:8860   */\n      0x00\n        /* \"#utility.yul\":8851:8857   */\n      dup3\n        /* \"#utility.yul\":8847:8861   */\n      add\n        /* \"#utility.yul\":8840:8893   */\n      mstore\n        /* \"#utility.yul\":8723:8900   */\n      pop\n      jump\t// out\n        /* \"#utility.yul\":8906:9272   */\n    tag_96:\n        /* \"#utility.yul\":9048:9051   */\n      0x00\n        /* \"#utility.yul\":9069:9136   */\n      tag_223\n        /* \"#utility.yul\":9133:9135   */\n      0x1b\n        /* \"#utility.yul\":9128:9131   */\n      dup4\n        /* \"#utility.yul\":9069:9136   */\n      tag_84\n      jump\t// in\n    tag_223:\n        /* \"#utility.yul\":9062:9136   */\n      swap2\n      pop\n        /* \"#utility.yul\":9145:9238   */\n      tag_224\n        /* \"#utility.yul\":9234:9237   */\n      dup3\n        /* \"#utility.yul\":9145:9238   */\n      tag_95\n      jump\t// in\n    tag_224:\n        /* \"#utility.yul\":9263:9265   */\n      0x20\n        /* \"#utility.yul\":9258:9261   */\n      dup3\n        /* \"#utility.yul\":9254:9266   */\n      add\n        /* \"#utility.yul\":9247:9266   */\n      swap1\n      pop\n        /* \"#utility.yul\":8906:9272   */\n      swap2\n      swap1\n      pop\n      jump\t// out\n        /* \"#utility.yul\":9278:9697   */\n    tag_21:\n        /* \"#utility.yul\":9444:9448   */\n      0x00\n        /* \"#utility.yul\":9482:9484   */\n      0x20\n        /* \"#utility.yul\":9471:9480   */\n      dup3\n        /* \"#utility.yul\":9467:9485   */\n      add\n        /* \"#utility.yul\":9459:9485   */\n      swap1\n      pop\n        /* \"#utility.yul\":9531:9540   */\n      dup2\n        /* \"#utility.yul\":9525:9529   */\n      dup2\n        /* \"#utility.yul\":9521:9541   */\n      sub\n        /* \"#utility.yul\":9517:9518   */\n      0x00\n        /* \"#utility.yul\":9506:9515   */\n      dup4\n        /* \"#utility.yul\":9502:9519   */\n      add\n        /* \"#utility.yul\":9495:9542   */\n      mstore\n        /* \"#utility.yul\":9559:9690   */\n      tag_226\n        /* \"#utility.yul\":9685:9689   */\n      dup2\n        /* \"#utility.yul\":9559:9690   */\n      tag_96\n      jump\t// in\n    tag_226:\n        /* \"#utility.yul\":9551:9690   */\n      swap1\n      pop\n        /* \"#utility.yul\":9278:9697   */\n      swap2\n      swap1\n      pop\n      jump\t// out\n        /* \"#utility.yul\":9703:9873   */\n    tag_97:\n        /* \"#utility.yul\":9843:9865   */\n      0x496e76616c6964207a65726f2061646472657373000000000000000000000000\n        /* \"#utility.yul\":9839:9840   */\n      0x00\n        /* \"#utility.yul\":9831:9837   */\n      dup3\n        /* \"#utility.yul\":9827:9841   */\n      add\n        /* \"#utility.yul\":9820:9866   */\n      mstore\n        /* \"#utility.yul\":9703:9873   */\n      pop\n      jump\t// out\n        /* \"#utility.yul\":9879:10245   */\n    tag_98:\n        /* \"#utility.yul\":10021:10024   */\n      0x00\n        /* \"#utility.yul\":10042:10109   */\n      tag_229\n        /* \"#utility.yul\":10106:10108   */\n      0x14\n        /* \"#utility.yul\":10101:10104   */\n      dup4\n        /* \"#utility.yul\":10042:10109   */\n      tag_84\n      jump\t// in\n    tag_229:\n        /* \"#utility.yul\":10035:10109   */\n      swap2\n      pop\n        /* \"#utility.yul\":10118:10211   */\n      tag_230\n        /* \"#utility.yul\":10207:10210   */\n      dup3\n        /* \"#utility.yul\":10118:10211   */\n      tag_97\n      jump\t// in\n    tag_230:\n        /* \"#utility.yul\":10236:10238   */\n      0x20\n        /* \"#utility.yul\":10231:10234   */\n      dup3\n        /* \"#utility.yul\":10227:10239   */\n      add\n        /* \"#utility.yul\":10220:10239   */\n      swap1\n      pop\n        /* \"#utility.yul\":9879:10245   */\n      swap2\n      swap1\n      pop\n      jump\t// out\n        /* \"#utility.yul\":10251:10670   */\n    tag_24:\n        /* \"#utility.yul\":10417:10421   */\n      0x00\n        /* \"#utility.yul\":10455:10457   */\n      0x20\n        /* \"#utility.yul\":10444:10453   */\n      dup3\n        /* \"#utility.yul\":10440:10458   */\n      add\n        /* \"#utility.yul\":10432:10458   */\n      swap1\n      pop\n        /* \"#utility.yul\":10504:10513   */\n      dup2\n        /* \"#utility.yul\":10498:10502   */\n      dup2\n        /* \"#utility.yul\":10494:10514   */\n      sub\n        /* \"#utility.yul\":10490:10491   */\n      0x00\n        /* \"#utility.yul\":10479:10488   */\n      dup4\n        /* \"#utility.yul\":10475:10492   */\n      add\n        /* \"#utility.yul\":10468:10515   */\n      mstore\n        /* \"#utility.yul\":10532:10663   */\n      tag_232\n        /* \"#utility.yul\":10658:10662   */\n      dup2\n        /* \"#utility.yul\":10532:10663   */\n      tag_98\n      jump\t// in\n    tag_232:\n        /* \"#utility.yul\":10524:10663   */\n      swap1\n      pop\n        /* \"#utility.yul\":10251:10670   */\n      swap2\n      swap1\n      pop\n      jump\t// out\n        /* \"#utility.yul\":10676:10840   */\n    tag_99:\n        /* \"#utility.yul\":10816:10832   */\n      0x496e76616c69642067726164652e000000000000000000000000000000000000\n        /* \"#utility.yul\":10812:10813   */\n      0x00\n        /* \"#utility.yul\":10804:10810   */\n      dup3\n        /* \"#utility.yul\":10800:10814   */\n      add\n        /* \"#utility.yul\":10793:10833   */\n      mstore\n        /* \"#utility.yul\":10676:10840   */\n      pop\n      jump\t// out\n        /* \"#utility.yul\":10846:11212   */\n    tag_100:\n        /* \"#utility.yul\":10988:10991   */\n      0x00\n        /* \"#utility.yul\":11009:11076   */\n      tag_235\n        /* \"#utility.yul\":11073:11075   */\n      0x0e\n        /* \"#utility.yul\":11068:11071   */\n      dup4\n        /* \"#utility.yul\":11009:11076   */\n      tag_84\n      jump\t// in\n    tag_235:\n        /* \"#utility.yul\":11002:11076   */\n      swap2\n      pop\n        /* \"#utility.yul\":11085:11178   */\n      tag_236\n        /* \"#utility.yul\":11174:11177   */\n      dup3\n        /* \"#utility.yul\":11085:11178   */\n      tag_99\n      jump\t// in\n    tag_236:\n        /* \"#utility.yul\":11203:11205   */\n      0x20\n        /* \"#utility.yul\":11198:11201   */\n      dup3\n        /* \"#utility.yul\":11194:11206   */\n      add\n        /* \"#utility.yul\":11187:11206   */\n      swap1\n      pop\n        /* \"#utility.yul\":10846:11212   */\n      swap2\n      swap1\n      pop\n      jump\t// out\n        /* \"#utility.yul\":11218:11637   */\n    tag_37:\n        /* \"#utility.yul\":11384:11388   */\n      0x00\n        /* \"#utility.yul\":11422:11424   */\n      0x20\n        /* \"#utility.yul\":11411:11420   */\n      dup3\n        /* \"#utility.yul\":11407:11425   */\n      add\n        /* \"#utility.yul\":11399:11425   */\n      swap1\n      pop\n        /* \"#utility.yul\":11471:11480   */\n      dup2\n        /* \"#utility.yul\":11465:11469   */\n      dup2\n        /* \"#utility.yul\":11461:11481   */\n      sub\n        /* \"#utility.yul\":11457:11458   */\n      0x00\n        /* \"#utility.yul\":11446:11455   */\n      dup4\n        /* \"#utility.yul\":11442:11459   */\n      add\n        /* \"#utility.yul\":11435:11482   */\n      mstore\n        /* \"#utility.yul\":11499:11630   */\n      tag_238\n        /* \"#utility.yul\":11625:11629   */\n      dup2\n        /* \"#utility.yul\":11499:11630   */\n      tag_100\n      jump\t// in\n    tag_238:\n        /* \"#utility.yul\":11491:11630   */\n      swap1\n      pop\n        /* \"#utility.yul\":11218:11637   */\n      swap2\n      swap1\n      pop\n      jump\t// out\n        /* \"#utility.yul\":11643:11823   */\n    tag_101:\n        /* \"#utility.yul\":11691:11768   */\n      0x4e487b7100000000000000000000000000000000000000000000000000000000\n        /* \"#utility.yul\":11688:11689   */\n      0x00\n        /* \"#utility.yul\":11681:11769   */\n      mstore\n        /* \"#utility.yul\":11788:11792   */\n      0x11\n        /* \"#utility.yul\":11785:11786   */\n      0x04\n        /* \"#utility.yul\":11778:11793   */\n      mstore\n        /* \"#utility.yul\":11812:11816   */\n      0x24\n        /* \"#utility.yul\":11809:11810   */\n      0x00\n        /* \"#utility.yul\":11802:11817   */\n      revert\n        /* \"#utility.yul\":11829:12062   */\n    tag_39:\n        /* \"#utility.yul\":11868:11871   */\n      0x00\n        /* \"#utility.yul\":11891:11915   */\n      tag_241\n        /* \"#utility.yul\":11909:11914   */\n      dup3\n        /* \"#utility.yul\":11891:11915   */\n      tag_80\n      jump\t// in\n    tag_241:\n        /* \"#utility.yul\":11882:11915   */\n      swap2\n      pop\n        /* \"#utility.yul\":11937:12003   */\n      0xffffffffffffffffffffffffffffffffffffffffffffffffffffffffffffffff\n        /* \"#utility.yul\":11930:11935   */\n      dup3\n        /* \"#utility.yul\":11927:12004   */\n      sub\n        /* \"#utility.yul\":11924:12027   */\n      tag_242\n      jumpi\n        /* \"#utility.yul\":12007:12025   */\n      tag_243\n      tag_101\n      jump\t// in\n    tag_243:\n        /* \"#utility.yul\":11924:12027   */\n    tag_242:\n        /* \"#utility.yul\":12054:12055   */\n      0x01\n        /* \"#utility.yul\":12047:12052   */\n      dup3\n        /* \"#utility.yul\":12043:12056   */\n      add\n        /* \"#utility.yul\":12036:12056   */\n      swap1\n      pop\n        /* \"#utility.yul\":11829:12062   */\n      swap2\n      swap1\n      pop\n      jump\t// out\n        /* \"#utility.yul\":12068:12248   */\n    tag_102:\n        /* \"#utility.yul\":12116:12193   */\n      0x4e487b7100000000000000000000000000000000000000000000000000000000\n        /* \"#utility.yul\":12113:12114   */\n      0x00\n        /* \"#utility.yul\":12106:12194   */\n      mstore\n        /* \"#utility.yul\":12213:12217   */\n      0x22\n        /* \"#utility.yul\":12210:12211   */\n      0x04\n        /* \"#utility.yul\":12203:12218   */\n      mstore\n        /* \"#utility.yul\":12237:12241   */\n      0x24\n        /* \"#utility.yul\":12234:12235   */\n      0x00\n        /* \"#utility.yul\":12227:12242   */\n      revert\n        /* \"#utility.yul\":12254:12574   */\n    tag_53:\n        /* \"#utility.yul\":12298:12304   */\n      0x00\n        /* \"#utility.yul\":12335:12336   */\n      0x02\n        /* \"#utility.yul\":12329:12333   */\n      dup3\n        /* \"#utility.yul\":12325:12337   */\n      div\n        /* \"#utility.yul\":12315:12337   */\n      swap1\n      pop\n        /* \"#utility.yul\":12382:12383   */\n      0x01\n        /* \"#utility.yul\":12376:12380   */\n      dup3\n        /* \"#utility.yul\":12372:12384   */\n      and\n        /* \"#utility.yul\":12403:12421   */\n      dup1\n        /* \"#utility.yul\":12393:12474   */\n      tag_246\n      jumpi\n        /* \"#utility.yul\":12459:12463   */\n      0x7f\n        /* \"#utility.yul\":12451:12457   */\n      dup3\n        /* \"#utility.yul\":12447:12464   */\n      and\n        /* \"#utility.yul\":12437:12464   */\n      swap2\n      pop\n        /* \"#utility.yul\":12393:12474   */\n    tag_246:\n        /* \"#utility.yul\":12521:12523   */\n      0x20\n        /* \"#utility.yul\":12513:12519   */\n      dup3\n        /* \"#utility.yul\":12510:12524   */\n      lt\n        /* \"#utility.yul\":12490:12508   */\n      dup2\n        /* \"#utility.yul\":12487:12525   */\n      sub\n        /* \"#utility.yul\":12484:12568   */\n      tag_247\n      jumpi\n        /* \"#utility.yul\":12540:12558   */\n      tag_248\n      tag_102\n      jump\t// in\n    tag_248:\n        /* \"#utility.yul\":12484:12568   */\n    tag_247:\n        /* \"#utility.yul\":12305:12574   */\n      pop\n        /* \"#utility.yul\":12254:12574   */\n      swap2\n      swap1\n      pop\n      jump\t// out\n        /* \"#utility.yul\":12580:12721   */\n    tag_103:\n        /* \"#utility.yul\":12629:12633   */\n      0x00\n        /* \"#utility.yul\":12652:12655   */\n      dup2\n        /* \"#utility.yul\":12644:12655   */\n      swap1\n      pop\n        /* \"#utility.yul\":12675:12678   */\n      dup2\n        /* \"#utility.yul\":12672:12673   */\n      0x00\n        /* \"#utility.yul\":12665:12679   */\n      mstore\n        /* \"#utility.yul\":12709:12713   */\n      0x20\n        /* \"#utility.yul\":12706:12707   */\n      0x00\n        /* \"#utility.yul\":12696:12714   */\n      keccak256\n        /* \"#utility.yul\":12688:12714   */\n      swap1\n      pop\n        /* \"#utility.yul\":12580:12721   */\n      swap2\n      swap1\n      pop\n      jump\t// out\n        /* \"#utility.yul\":12727:12820   */\n    tag_104:\n        /* \"#utility.yul\":12764:12770   */\n      0x00\n        /* \"#utility.yul\":12811:12813   */\n      0x20\n        /* \"#utility.yul\":12806:12808   */\n      0x1f\n        /* \"#utility.yul\":12799:12804   */\n      dup4\n        /* \"#utility.yul\":12795:12809   */\n      add\n        /* \"#utility.yul\":12791:12814   */\n      div\n        /* \"#utility.yul\":12781:12814   */\n      swap1\n      pop\n        /* \"#utility.yul\":12727:12820   */\n      swap2\n      swap1\n      pop\n      jump\t// out\n        /* \"#utility.yul\":12826:12933   */\n    tag_105:\n        /* \"#utility.yul\":12870:12878   */\n      0x00\n        /* \"#utility.yul\":12920:12925   */\n      dup3\n        /* \"#utility.yul\":12914:12918   */\n      dup3\n        /* \"#utility.yul\":12910:12926   */\n      shl\n        /* \"#utility.yul\":12889:12926   */\n      swap1\n      pop\n        /* \"#utility.yul\":12826:12933   */\n      swap3\n      swap2\n      pop\n      pop\n      jump\t// out\n        /* \"#utility.yul\":12939:13332   */\n    tag_106:\n        /* \"#utility.yul\":13008:13014   */\n      0x00\n        /* \"#utility.yul\":13058:13059   */\n      0x08\n        /* \"#utility.yul\":13046:13056   */\n      dup4\n        /* \"#utility.yul\":13042:13060   */\n      mul\n        /* \"#utility.yul\":13081:13178   */\n      tag_253\n        /* \"#utility.yul\":13111:13177   */\n      0xffffffffffffffffffffffffffffffffffffffffffffffffffffffffffffffff\n        /* \"#utility.yul\":13100:13109   */\n      dup3\n        /* \"#utility.yul\":13081:13178   */\n      tag_105\n      jump\t// in\n    tag_253:\n        /* \"#utility.yul\":13199:13238   */\n      tag_254\n        /* \"#utility.yul\":13229:13237   */\n      dup7\n        /* \"#utility.yul\":13218:13227   */\n      dup4\n        /* \"#utility.yul\":13199:13238   */\n      tag_105\n      jump\t// in\n    tag_254:\n        /* \"#utility.yul\":13187:13238   */\n      swap6\n      pop\n        /* \"#utility.yul\":13271:13275   */\n      dup1\n        /* \"#utility.yul\":13267:13276   */\n      not\n        /* \"#utility.yul\":13260:13265   */\n      dup5\n        /* \"#utility.yul\":13256:13277   */\n      and\n        /* \"#utility.yul\":13247:13277   */\n      swap4\n      pop\n        /* \"#utility.yul\":13320:13324   */\n      dup1\n        /* \"#utility.yul\":13310:13318   */\n      dup7\n        /* \"#utility.yul\":13306:13325   */\n      and\n        /* \"#utility.yul\":13299:13304   */\n      dup5\n        /* \"#utility.yul\":13296:13326   */\n      or\n        /* \"#utility.yul\":13286:13326   */\n      swap3\n      pop\n        /* \"#utility.yul\":13015:13332   */\n      pop\n      pop\n        /* \"#utility.yul\":12939:13332   */\n      swap4\n      swap3\n      pop\n      pop\n      pop\n      jump\t// out\n        /* \"#utility.yul\":13338:13398   */\n    tag_107:\n        /* \"#utility.yul\":13366:13369   */\n      0x00\n        /* \"#utility.yul\":13387:13392   */\n      dup2\n        /* \"#utility.yul\":13380:13392   */\n      swap1\n      pop\n        /* \"#utility.yul\":13338:13398   */\n      swap2\n      swap1\n      pop\n      jump\t// out\n        /* \"#utility.yul\":13404:13546   */\n    tag_108:\n        /* \"#utility.yul\":13454:13463   */\n      0x00\n        /* \"#utility.yul\":13487:13540   */\n      tag_257\n        /* \"#utility.yul\":13505:13539   */\n      tag_258\n        /* \"#utility.yul\":13514:13538   */\n      tag_259\n        /* \"#utility.yul\":13532:13537   */\n      dup5\n        /* \"#utility.yul\":13514:13538   */\n      tag_80\n      jump\t// in\n    tag_259:\n        /* \"#utility.yul\":13505:13539   */\n      tag_107\n      jump\t// in\n    tag_258:\n        /* \"#utility.yul\":13487:13540   */\n      tag_80\n      jump\t// in\n    tag_257:\n        /* \"#utility.yul\":13474:13540   */\n      swap1\n      pop\n        /* \"#utility.yul\":13404:13546   */\n      swap2\n      swap1\n      pop\n      jump\t// out\n        /* \"#utility.yul\":13552:13627   */\n    tag_109:\n        /* \"#utility.yul\":13595:13598   */\n      0x00\n        /* \"#utility.yul\":13616:13621   */\n      dup2\n        /* \"#utility.yul\":13609:13621   */\n      swap1\n      pop\n        /* \"#utility.yul\":13552:13627   */\n      swap2\n      swap1\n      pop\n      jump\t// out\n        /* \"#utility.yul\":13633:13902   */\n    tag_110:\n        /* \"#utility.yul\":13743:13782   */\n      tag_262\n        /* \"#utility.yul\":13774:13781   */\n      dup4\n        /* \"#utility.yul\":13743:13782   */\n      tag_108\n      jump\t// in\n    tag_262:\n        /* \"#utility.yul\":13804:13895   */\n      tag_263\n        /* \"#utility.yul\":13853:13894   */\n      tag_264\n        /* \"#utility.yul\":13877:13893   */\n      dup3\n        /* \"#utility.yul\":13853:13894   */\n      tag_109\n      jump\t// in\n    tag_264:\n        /* \"#utility.yul\":13845:13851   */\n      dup5\n        /* \"#utility.yul\":13838:13842   */\n      dup5\n        /* \"#utility.yul\":13832:13843   */\n      sload\n        /* \"#utility.yul\":13804:13895   */\n      tag_106\n      jump\t// in\n    tag_263:\n        /* \"#utility.yul\":13798:13802   */\n      dup3\n        /* \"#utility.yul\":13791:13896   */\n      sstore\n        /* \"#utility.yul\":13709:13902   */\n      pop\n        /* \"#utility.yul\":13633:13902   */\n      pop\n      pop\n      pop\n      jump\t// out\n        /* \"#utility.yul\":13908:13981   */\n    tag_111:\n        /* \"#utility.yul\":13953:13956   */\n      0x00\n        /* \"#utility.yul\":13908:13981   */\n      swap1\n      jump\t// out\n        /* \"#utility.yul\":13987:14176   */\n    tag_112:\n        /* \"#utility.yul\":14064:14096   */\n      tag_267\n      tag_111\n      jump\t// in\n    tag_267:\n        /* \"#utility.yul\":14105:14170   */\n      tag_268\n        /* \"#utility.yul\":14163:14169   */\n      dup2\n        /* \"#utility.yul\":14155:14161   */\n      dup5\n        /* \"#utility.yul\":14149:14153   */\n      dup5\n        /* \"#utility.yul\":14105:14170   */\n      tag_110\n      jump\t// in\n    tag_268:\n        /* \"#utility.yul\":14040:14176   */\n      pop\n        /* \"#utility.yul\":13987:14176   */\n      pop\n      pop\n      jump\t// out\n        /* \"#utility.yul\":14182:14368   */\n    tag_113:\n        /* \"#utility.yul\":14242:14362   */\n    tag_270:\n        /* \"#utility.yul\":14259:14262   */\n      dup2\n        /* \"#utility.yul\":14252:14257   */\n      dup2\n        /* \"#utility.yul\":14249:14263   */\n      lt\n        /* \"#utility.yul\":14242:14362   */\n      iszero\n      tag_272\n      jumpi\n        /* \"#utility.yul\":14313:14352   */\n      tag_273\n        /* \"#utility.yul\":14350:14351   */\n      0x00\n        /* \"#utility.yul\":14343:14348   */\n      dup3\n        /* \"#utility.yul\":14313:14352   */\n      tag_112\n      jump\t// in\n    tag_273:\n        /* \"#utility.yul\":14286:14287   */\n      0x01\n        /* \"#utility.yul\":14279:14284   */\n      dup2\n        /* \"#utility.yul\":14275:14288   */\n      add\n        /* \"#utility.yul\":14266:14288   */\n      swap1\n      pop\n        /* \"#utility.yul\":14242:14362   */\n      jump(tag_270)\n    tag_272:\n        /* \"#utility.yul\":14182:14368   */\n      pop\n      pop\n      jump\t// out\n        /* \"#utility.yul\":14374:14917   */\n    tag_114:\n        /* \"#utility.yul\":14475:14477   */\n      0x1f\n        /* \"#utility.yul\":14470:14473   */\n      dup3\n        /* \"#utility.yul\":14467:14478   */\n      gt\n        /* \"#utility.yul\":14464:14910   */\n      iszero\n      tag_275\n      jumpi\n        /* \"#utility.yul\":14509:14547   */\n      tag_276\n        /* \"#utility.yul\":14541:14546   */\n      dup2\n        /* \"#utility.yul\":14509:14547   */\n      tag_103\n      jump\t// in\n    tag_276:\n        /* \"#utility.yul\":14593:14622   */\n      tag_277\n        /* \"#utility.yul\":14611:14621   */\n      dup5\n        /* \"#utility.yul\":14593:14622   */\n      tag_104\n      jump\t// in\n    tag_277:\n        /* \"#utility.yul\":14583:14591   */\n      dup2\n        /* \"#utility.yul\":14579:14623   */\n      add\n        /* \"#utility.yul\":14776:14778   */\n      0x20\n        /* \"#utility.yul\":14764:14774   */\n      dup6\n        /* \"#utility.yul\":14761:14779   */\n      lt\n        /* \"#utility.yul\":14758:14807   */\n      iszero\n      tag_278\n      jumpi\n        /* \"#utility.yul\":14797:14805   */\n      dup2\n        /* \"#utility.yul\":14782:14805   */\n      swap1\n      pop\n        /* \"#utility.yul\":14758:14807   */\n    tag_278:\n        /* \"#utility.yul\":14820:14900   */\n      tag_279\n        /* \"#utility.yul\":14876:14898   */\n      tag_280\n        /* \"#utility.yul\":14894:14897   */\n      dup6\n        /* \"#utility.yul\":14876:14898   */\n      tag_104\n      jump\t// in\n    tag_280:\n        /* \"#utility.yul\":14866:14874   */\n      dup4\n        /* \"#utility.yul\":14862:14899   */\n      add\n        /* \"#utility.yul\":14849:14860   */\n      dup3\n        /* \"#utility.yul\":14820:14900   */\n      tag_113\n      jump\t// in\n    tag_279:\n        /* \"#utility.yul\":14479:14910   */\n      pop\n      pop\n        /* \"#utility.yul\":14464:14910   */\n    tag_275:\n        /* \"#utility.yul\":14374:14917   */\n      pop\n      pop\n      pop\n      jump\t// out\n        /* \"#utility.yul\":14923:15040   */\n    tag_115:\n        /* \"#utility.yul\":14977:14985   */\n      0x00\n        /* \"#utility.yul\":15027:15032   */\n      dup3\n        /* \"#utility.yul\":15021:15025   */\n      dup3\n        /* \"#utility.yul\":15017:15033   */\n      shr\n        /* \"#utility.yul\":14996:15033   */\n      swap1\n      pop\n        /* \"#utility.yul\":14923:15040   */\n      swap3\n      swap2\n      pop\n      pop\n      jump\t// out\n        /* \"#utility.yul\":15046:15215   */\n    tag_116:\n        /* \"#utility.yul\":15090:15096   */\n      0x00\n        /* \"#utility.yul\":15123:15174   */\n      tag_283\n        /* \"#utility.yul\":15171:15172   */\n      0x00\n        /* \"#utility.yul\":15167:15173   */\n      not\n        /* \"#utility.yul\":15159:15164   */\n      dup5\n        /* \"#utility.yul\":15156:15157   */\n      0x08\n        /* \"#utility.yul\":15152:15165   */\n      mul\n        /* \"#utility.yul\":15123:15174   */\n      tag_115\n      jump\t// in\n    tag_283:\n        /* \"#utility.yul\":15119:15175   */\n      not\n        /* \"#utility.yul\":15204:15208   */\n      dup1\n        /* \"#utility.yul\":15198:15202   */\n      dup4\n        /* \"#utility.yul\":15194:15209   */\n      and\n        /* \"#utility.yul\":15184:15209   */\n      swap2\n      pop\n        /* \"#utility.yul\":15097:15215   */\n      pop\n        /* \"#utility.yul\":15046:15215   */\n      swap3\n      swap2\n      pop\n      pop\n      jump\t// out\n        /* \"#utility.yul\":15220:15515   */\n    tag_117:\n        /* \"#utility.yul\":15296:15300   */\n      0x00\n        /* \"#utility.yul\":15442:15471   */\n      tag_285\n        /* \"#utility.yul\":15467:15470   */\n      dup4\n        /* \"#utility.yul\":15461:15465   */\n      dup4\n        /* \"#utility.yul\":15442:15471   */\n      tag_116\n      jump\t// in\n    tag_285:\n        /* \"#utility.yul\":15434:15471   */\n      swap2\n      pop\n        /* \"#utility.yul\":15504:15507   */\n      dup3\n        /* \"#utility.yul\":15501:15502   */\n      0x02\n        /* \"#utility.yul\":15497:15508   */\n      mul\n        /* \"#utility.yul\":15491:15495   */\n      dup3\n        /* \"#utility.yul\":15488:15509   */\n      or\n        /* \"#utility.yul\":15480:15509   */\n      swap1\n      pop\n        /* \"#utility.yul\":15220:15515   */\n      swap3\n      swap2\n      pop\n      pop\n      jump\t// out\n        /* \"#utility.yul\":15520:16915   */\n    tag_43:\n        /* \"#utility.yul\":15637:15674   */\n      tag_287\n        /* \"#utility.yul\":15670:15673   */\n      dup3\n        /* \"#utility.yul\":15637:15674   */\n      tag_83\n      jump\t// in\n    tag_287:\n        /* \"#utility.yul\":15739:15757   */\n      0xffffffffffffffff\n        /* \"#utility.yul\":15731:15737   */\n      dup2\n        /* \"#utility.yul\":15728:15758   */\n      gt\n        /* \"#utility.yul\":15725:15781   */\n      iszero\n      tag_288\n      jumpi\n        /* \"#utility.yul\":15761:15779   */\n      tag_289\n      tag_64\n      jump\t// in\n    tag_289:\n        /* \"#utility.yul\":15725:15781   */\n    tag_288:\n        /* \"#utility.yul\":15805:15843   */\n      tag_290\n        /* \"#utility.yul\":15837:15841   */\n      dup3\n        /* \"#utility.yul\":15831:15842   */\n      sload\n        /* \"#utility.yul\":15805:15843   */\n      tag_53\n      jump\t// in\n    tag_290:\n        /* \"#utility.yul\":15890:15957   */\n      tag_291\n        /* \"#utility.yul\":15950:15956   */\n      dup3\n        /* \"#utility.yul\":15942:15948   */\n      dup3\n        /* \"#utility.yul\":15936:15940   */\n      dup6\n        /* \"#utility.yul\":15890:15957   */\n      tag_114\n      jump\t// in\n    tag_291:\n        /* \"#utility.yul\":15984:15985   */\n      0x00\n        /* \"#utility.yul\":16008:16012   */\n      0x20\n        /* \"#utility.yul\":15995:16012   */\n      swap1\n      pop\n        /* \"#utility.yul\":16040:16042   */\n      0x1f\n        /* \"#utility.yul\":16032:16038   */\n      dup4\n        /* \"#utility.yul\":16029:16043   */\n      gt\n        /* \"#utility.yul\":16057:16058   */\n      0x01\n        /* \"#utility.yul\":16052:16670   */\n      dup2\n      eq\n      tag_293\n      jumpi\n        /* \"#utility.yul\":16714:16715   */\n      0x00\n        /* \"#utility.yul\":16731:16737   */\n      dup5\n        /* \"#utility.yul\":16728:16805   */\n      iszero\n      tag_294\n      jumpi\n        /* \"#utility.yul\":16780:16789   */\n      dup3\n        /* \"#utility.yul\":16775:16778   */\n      dup8\n        /* \"#utility.yul\":16771:16790   */\n      add\n        /* \"#utility.yul\":16765:16791   */\n      mload\n        /* \"#utility.yul\":16756:16791   */\n      swap1\n      pop\n        /* \"#utility.yul\":16728:16805   */\n    tag_294:\n        /* \"#utility.yul\":16831:16898   */\n      tag_295\n        /* \"#utility.yul\":16891:16897   */\n      dup6\n        /* \"#utility.yul\":16884:16889   */\n      dup3\n        /* \"#utility.yul\":16831:16898   */\n      tag_117\n      jump\t// in\n    tag_295:\n        /* \"#utility.yul\":16825:16829   */\n      dup7\n        /* \"#utility.yul\":16818:16899   */\n      sstore\n        /* \"#utility.yul\":16687:16909   */\n      pop\n        /* \"#utility.yul\":16022:16909   */\n      jump(tag_292)\n        /* \"#utility.yul\":16052:16670   */\n    tag_293:\n        /* \"#utility.yul\":16104:16108   */\n      0x1f\n        /* \"#utility.yul\":16100:16109   */\n      not\n        /* \"#utility.yul\":16092:16098   */\n      dup5\n        /* \"#utility.yul\":16088:16110   */\n      and\n        /* \"#utility.yul\":16138:16175   */\n      tag_296\n        /* \"#utility.yul\":16170:16174   */\n      dup7\n        /* \"#utility.yul\":16138:16175   */\n      tag_103\n      jump\t// in\n    tag_296:\n        /* \"#utility.yul\":16197:16198   */\n      0x00\n        /* \"#utility.yul\":16211:16419   */\n    tag_297:\n        /* \"#utility.yul\":16225:16232   */\n      dup3\n        /* \"#utility.yul\":16222:16223   */\n      dup2\n        /* \"#utility.yul\":16219:16233   */\n      lt\n        /* \"#utility.yul\":16211:16419   */\n      iszero\n      tag_299\n      jumpi\n        /* \"#utility.yul\":16304:16313   */\n      dup5\n        /* \"#utility.yul\":16299:16302   */\n      dup10\n        /* \"#utility.yul\":16295:16314   */\n      add\n        /* \"#utility.yul\":16289:16315   */\n      mload\n        /* \"#utility.yul\":16281:16287   */\n      dup3\n        /* \"#utility.yul\":16274:16316   */\n      sstore\n        /* \"#utility.yul\":16355:16356   */\n      0x01\n        /* \"#utility.yul\":16347:16353   */\n      dup3\n        /* \"#utility.yul\":16343:16357   */\n      add\n        /* \"#utility.yul\":16333:16357   */\n      swap2\n      pop\n        /* \"#utility.yul\":16402:16404   */\n      0x20\n        /* \"#utility.yul\":16391:16400   */\n      dup6\n        /* \"#utility.yul\":16387:16405   */\n      add\n        /* \"#utility.yul\":16374:16405   */\n      swap5\n      pop\n        /* \"#utility.yul\":16248:16252   */\n      0x20\n        /* \"#utility.yul\":16245:16246   */\n      dup2\n        /* \"#utility.yul\":16241:16253   */\n      add\n        /* \"#utility.yul\":16236:16253   */\n      swap1\n      pop\n        /* \"#utility.yul\":16211:16419   */\n      jump(tag_297)\n    tag_299:\n        /* \"#utility.yul\":16447:16453   */\n      dup7\n        /* \"#utility.yul\":16438:16445   */\n      dup4\n        /* \"#utility.yul\":16435:16454   */\n      lt\n        /* \"#utility.yul\":16432:16611   */\n      iszero\n      tag_300\n      jumpi\n        /* \"#utility.yul\":16505:16514   */\n      dup5\n        /* \"#utility.yul\":16500:16503   */\n      dup10\n        /* \"#utility.yul\":16496:16515   */\n      add\n        /* \"#utility.yul\":16490:16516   */\n      mload\n        /* \"#utility.yul\":16548:16596   */\n      tag_301\n        /* \"#utility.yul\":16590:16594   */\n      0x1f\n        /* \"#utility.yul\":16582:16588   */\n      dup10\n        /* \"#utility.yul\":16578:16595   */\n      and\n        /* \"#utility.yul\":16567:16576   */\n      dup3\n        /* \"#utility.yul\":16548:16596   */\n      tag_116\n      jump\t// in\n    tag_301:\n        /* \"#utility.yul\":16540:16546   */\n      dup4\n        /* \"#utility.yul\":16533:16597   */\n      sstore\n        /* \"#utility.yul\":16455:16611   */\n      pop\n        /* \"#utility.yul\":16432:16611   */\n    tag_300:\n        /* \"#utility.yul\":16657:16658   */\n      0x01\n        /* \"#utility.yul\":16653:16654   */\n      0x02\n        /* \"#utility.yul\":16645:16651   */\n      dup9\n        /* \"#utility.yul\":16641:16655   */\n      mul\n        /* \"#utility.yul\":16637:16659   */\n      add\n        /* \"#utility.yul\":16631:16635   */\n      dup9\n        /* \"#utility.yul\":16624:16660   */\n      sstore\n        /* \"#utility.yul\":16059:16670   */\n      pop\n      pop\n      pop\n        /* \"#utility.yul\":16022:16909   */\n    tag_292:\n      pop\n        /* \"#utility.yul\":15612:16915   */\n      pop\n      pop\n      pop\n        /* \"#utility.yul\":15520:16915   */\n      pop\n      pop\n      jump\t// out\n        /* \"#utility.yul\":16921:17039   */\n    tag_118:\n        /* \"#utility.yul\":17008:17032   */\n      tag_303\n        /* \"#utility.yul\":17026:17031   */\n      dup2\n        /* \"#utility.yul\":17008:17032   */\n      tag_80\n      jump\t// in\n    tag_303:\n        /* \"#utility.yul\":17003:17006   */\n      dup3\n        /* \"#utility.yul\":16996:17033   */\n      mstore\n        /* \"#utility.yul\":16921:17039   */\n      pop\n      pop\n      jump\t// out\n        /* \"#utility.yul\":17045:17468   */\n    tag_47:\n        /* \"#utility.yul\":17186:17190   */\n      0x00\n        /* \"#utility.yul\":17224:17226   */\n      0x40\n        /* \"#utility.yul\":17213:17222   */\n      dup3\n        /* \"#utility.yul\":17209:17227   */\n      add\n        /* \"#utility.yul\":17201:17227   */\n      swap1\n      pop\n        /* \"#utility.yul\":17237:17308   */\n      tag_305\n        /* \"#utility.yul\":17305:17306   */\n      0x00\n        /* \"#utility.yul\":17294:17303   */\n      dup4\n        /* \"#utility.yul\":17290:17307   */\n      add\n        /* \"#utility.yul\":17281:17287   */\n      dup6\n        /* \"#utility.yul\":17237:17308   */\n      tag_118\n      jump\t// in\n    tag_305:\n        /* \"#utility.yul\":17355:17364   */\n      dup2\n        /* \"#utility.yul\":17349:17353   */\n      dup2\n        /* \"#utility.yul\":17345:17365   */\n      sub\n        /* \"#utility.yul\":17340:17342   */\n      0x20\n        /* \"#utility.yul\":17329:17338   */\n      dup4\n        /* \"#utility.yul\":17325:17343   */\n      add\n        /* \"#utility.yul\":17318:17366   */\n      mstore\n        /* \"#utility.yul\":17383:17461   */\n      tag_306\n        /* \"#utility.yul\":17456:17460   */\n      dup2\n        /* \"#utility.yul\":17447:17453   */\n      dup5\n        /* \"#utility.yul\":17383:17461   */\n      tag_86\n      jump\t// in\n    tag_306:\n        /* \"#utility.yul\":17375:17461   */\n      swap1\n      pop\n        /* \"#utility.yul\":17045:17468   */\n      swap4\n      swap3\n      pop\n      pop\n      pop\n      jump\t// out\n        /* \"#utility.yul\":17474:17646   */\n    tag_119:\n        /* \"#utility.yul\":17614:17638   */\n      0x53747564656e7420646f6573206e6f7420657869737400000000000000000000\n        /* \"#utility.yul\":17610:17611   */\n      0x00\n        /* \"#utility.yul\":17602:17608   */\n      dup3\n        /* \"#utility.yul\":17598:17612   */\n      add\n        /* \"#utility.yul\":17591:17639   */\n      mstore\n        /* \"#utility.yul\":17474:17646   */\n      pop\n      jump\t// out\n        /* \"#utility.yul\":17652:18018   */\n    tag_120:\n        /* \"#utility.yul\":17794:17797   */\n      0x00\n        /* \"#utility.yul\":17815:17882   */\n      tag_309\n        /* \"#utility.yul\":17879:17881   */\n      0x16\n        /* \"#utility.yul\":17874:17877   */\n      dup4\n        /* \"#utility.yul\":17815:17882   */\n      tag_84\n      jump\t// in\n    tag_309:\n        /* \"#utility.yul\":17808:17882   */\n      swap2\n      pop\n        /* \"#utility.yul\":17891:17984   */\n      tag_310\n        /* \"#utility.yul\":17980:17983   */\n      dup3\n        /* \"#utility.yul\":17891:17984   */\n      tag_119\n      jump\t// in\n    tag_310:\n        /* \"#utility.yul\":18009:18011   */\n      0x20\n        /* \"#utility.yul\":18004:18007   */\n      dup3\n        /* \"#utility.yul\":18000:18012   */\n      add\n        /* \"#utility.yul\":17993:18012   */\n      swap1\n      pop\n        /* \"#utility.yul\":17652:18018   */\n      swap2\n      swap1\n      pop\n      jump\t// out\n        /* \"#utility.yul\":18024:18443   */\n    tag_51:\n        /* \"#utility.yul\":18190:18194   */\n      0x00\n        /* \"#utility.yul\":18228:18230   */\n      0x20\n        /* \"#utility.yul\":18217:18226   */\n      dup3\n        /* \"#utility.yul\":18213:18231   */\n      add\n        /* \"#utility.yul\":18205:18231   */\n      swap1\n      pop\n        /* \"#utility.yul\":18277:18286   */\n      dup2\n        /* \"#utility.yul\":18271:18275   */\n      dup2\n        /* \"#utility.yul\":18267:18287   */\n      sub\n        /* \"#utility.yul\":18263:18264   */\n      0x00\n        /* \"#utility.yul\":18252:18261   */\n      dup4\n        /* \"#utility.yul\":18248:18265   */\n      add\n        /* \"#utility.yul\":18241:18288   */\n      mstore\n        /* \"#utility.yul\":18305:18436   */\n      tag_312\n        /* \"#utility.yul\":18431:18435   */\n      dup2\n        /* \"#utility.yul\":18305:18436   */\n      tag_120\n      jump\t// in\n    tag_312:\n        /* \"#utility.yul\":18297:18436   */\n      swap1\n      pop\n        /* \"#utility.yul\":18024:18443   */\n      swap2\n      swap1\n      pop\n      jump\t// out\n\n    auxdata: 0xa26469706673582212201b9db7fad40a703328dadf4c309e6833a21c772355284a5aeedd9e61297cf88164736f6c634300081a0033\n}\n",
				"bytecode": {
					"linkReferences": {},
					"object": "6080604052348015600e575f80fd5b50610ea88061001c5f395ff3fe608060405234801561000f575f80fd5b5060043610610034575f3560e01c8063326ab04a14610038578063642f916314610054575b5f80fd5b610052600480360381019061004d91906106d7565b610087565b005b61006e6004803603810190610069919061078a565b610393565b60405161007e94939291906108a6565b60405180910390f35b5f8451116100ca576040517f08c379a00000000000000000000000000000000000000000000000000000000081526004016100c19061093a565b60405180910390fd5b5f8360ff161161010f576040517f08c379a0000000000000000000000000000000000000000000000000000000008152600401610106906109a2565b60405180910390fd5b5f73ffffffffffffffffffffffffffffffffffffffff168173ffffffffffffffffffffffffffffffffffffffff160361017d576040517f08c379a000000000000000000000000000000000000000000000000000000000815260040161017490610a0a565b60405180910390fd5b5f60048111156101905761018f610824565b5b60ff168260048111156101a6576101a5610824565b5b60ff16101580156101e157506004808111156101c5576101c4610824565b5b60ff168260048111156101db576101da610824565b5b60ff1611155b610220576040517f08c379a000000000000000000000000000000000000000000000000000000000815260040161021790610a72565b60405180910390fd5b5f8081548092919061023190610abd565b91905055506040518060a001604052805f5481526020018581526020018460ff16815260200183600481111561026a57610269610824565b5b81526020018273ffffffffffffffffffffffffffffffffffffffff1681525060015f805481526020019081526020015f205f820151815f015560208201518160010190816102b89190610cfe565b506040820151816002015f6101000a81548160ff021916908360ff16021790555060608201518160020160016101000a81548160ff0219169083600481111561030457610303610824565b5b021790555060808201518160020160026101000a81548173ffffffffffffffffffffffffffffffffffffffff021916908373ffffffffffffffffffffffffffffffffffffffff1602179055509050507f9682c9a3e9734a1f8d3a641838a5d7862f4eb29fcbf4bd04e0ccac28ffcfd2275f5485604051610385929190610ddc565b60405180910390a150505050565b60605f805f8060015f8781526020019081526020015f2090505f815f0154036103f1576040517f08c379a00000000000000000000000000000000000000000000000000000000081526004016103e890610e54565b60405180910390fd5b80600101816002015f9054906101000a900460ff168260020160019054906101000a900460ff168360020160029054906101000a900473ffffffffffffffffffffffffffffffffffffffff1683805461044990610b31565b80601f016020809104026020016040519081016040528092919081815260200182805461047590610b31565b80156104c05780601f10610497576101008083540402835291602001916104c0565b820191905f5260205f20905b8154815290600101906020018083116104a357829003601f168201915b505050505093509450945094509450509193509193565b5f604051905090565b5f80fd5b5f80fd5b5f80fd5b5f80fd5b5f601f19601f8301169050919050565b7f4e487b71000000000000000000000000000000000000000000000000000000005f52604160045260245ffd5b610536826104f0565b810181811067ffffffffffffffff8211171561055557610554610500565b5b80604052505050565b5f6105676104d7565b9050610573828261052d565b919050565b5f67ffffffffffffffff82111561059257610591610500565b5b61059b826104f0565b9050602081019050919050565b828183375f83830152505050565b5f6105c86105c384610578565b61055e565b9050828152602081018484840111156105e4576105e36104ec565b5b6105ef8482856105a8565b509392505050565b5f82601f83011261060b5761060a6104e8565b5b813561061b8482602086016105b6565b91505092915050565b5f60ff82169050919050565b61063981610624565b8114610643575f80fd5b50565b5f8135905061065481610630565b92915050565b60058110610666575f80fd5b50565b5f813590506106778161065a565b92915050565b5f73ffffffffffffffffffffffffffffffffffffffff82169050919050565b5f6106a68261067d565b9050919050565b6106b68161069c565b81146106c0575f80fd5b50565b5f813590506106d1816106ad565b92915050565b5f805f80608085870312156106ef576106ee6104e0565b5b5f85013567ffffffffffffffff81111561070c5761070b6104e4565b5b610718878288016105f7565b945050602061072987828801610646565b935050604061073a87828801610669565b925050606061074b878288016106c3565b91505092959194509250565b5f819050919050565b61076981610757565b8114610773575f80fd5b50565b5f8135905061078481610760565b92915050565b5f6020828403121561079f5761079e6104e0565b5b5f6107ac84828501610776565b91505092915050565b5f81519050919050565b5f82825260208201905092915050565b8281835e5f83830152505050565b5f6107e7826107b5565b6107f181856107bf565b93506108018185602086016107cf565b61080a816104f0565b840191505092915050565b61081e81610624565b82525050565b7f4e487b71000000000000000000000000000000000000000000000000000000005f52602160045260245ffd5b6005811061086257610861610824565b5b50565b5f81905061087282610851565b919050565b5f61088182610865565b9050919050565b61089181610877565b82525050565b6108a08161069c565b82525050565b5f6080820190508181035f8301526108be81876107dd565b90506108cd6020830186610815565b6108da6040830185610888565b6108e76060830184610897565b95945050505050565b7f4e6f206e616d6520646174612e000000000000000000000000000000000000005f82015250565b5f610924600d836107bf565b915061092f826108f0565b602082019050919050565b5f6020820190508181035f83015261095181610918565b9050919050565b7f416765206d7573742062652067726561746572207468616e20302e00000000005f82015250565b5f61098c601b836107bf565b915061099782610958565b602082019050919050565b5f6020820190508181035f8301526109b981610980565b9050919050565b7f496e76616c6964207a65726f20616464726573730000000000000000000000005f82015250565b5f6109f46014836107bf565b91506109ff826109c0565b602082019050919050565b5f6020820190508181035f830152610a21816109e8565b9050919050565b7f496e76616c69642067726164652e0000000000000000000000000000000000005f82015250565b5f610a5c600e836107bf565b9150610a6782610a28565b602082019050919050565b5f6020820190508181035f830152610a8981610a50565b9050919050565b7f4e487b71000000000000000000000000000000000000000000000000000000005f52601160045260245ffd5b5f610ac782610757565b91507fffffffffffffffffffffffffffffffffffffffffffffffffffffffffffffffff8203610af957610af8610a90565b5b600182019050919050565b7f4e487b71000000000000000000000000000000000000000000000000000000005f52602260045260245ffd5b5f6002820490506001821680610b4857607f821691505b602082108103610b5b57610b5a610b04565b5b50919050565b5f819050815f5260205f209050919050565b5f6020601f8301049050919050565b5f82821b905092915050565b5f60088302610bbd7fffffffffffffffffffffffffffffffffffffffffffffffffffffffffffffffff82610b82565b610bc78683610b82565b95508019841693508086168417925050509392505050565b5f819050919050565b5f610c02610bfd610bf884610757565b610bdf565b610757565b9050919050565b5f819050919050565b610c1b83610be8565b610c2f610c2782610c09565b848454610b8e565b825550505050565b5f90565b610c43610c37565b610c4e818484610c12565b505050565b5b81811015610c7157610c665f82610c3b565b600181019050610c54565b5050565b601f821115610cb657610c8781610b61565b610c9084610b73565b81016020851015610c9f578190505b610cb3610cab85610b73565b830182610c53565b50505b505050565b5f82821c905092915050565b5f610cd65f1984600802610cbb565b1980831691505092915050565b5f610cee8383610cc7565b9150826002028217905092915050565b610d07826107b5565b67ffffffffffffffff811115610d2057610d1f610500565b5b610d2a8254610b31565b610d35828285610c75565b5f60209050601f831160018114610d66575f8415610d54578287015190505b610d5e8582610ce3565b865550610dc5565b601f198416610d7486610b61565b5f5b82811015610d9b57848901518255600182019150602085019450602081019050610d76565b86831015610db85784890151610db4601f891682610cc7565b8355505b6001600288020188555050505b505050505050565b610dd681610757565b82525050565b5f604082019050610def5f830185610dcd565b8181036020830152610e0181846107dd565b90509392505050565b7f53747564656e7420646f6573206e6f74206578697374000000000000000000005f82015250565b5f610e3e6016836107bf565b9150610e4982610e0a565b602082019050919050565b5f6020820190508181035f830152610e6b81610e32565b905091905056fea26469706673582212201b9db7fad40a703328dadf4c309e6833a21c772355284a5aeedd9e61297cf88164736f6c634300081a0033",
					"opcodes": "PUSH1 0x80 PUSH1 0x40 MSTORE CALLVALUE DUP1 ISZERO PUSH1 0xE JUMPI PUSH0 DUP1 REVERT JUMPDEST POP PUSH2 0xEA8 DUP1 PUSH2 0x1C PUSH0 CODECOPY PUSH0 RETURN INVALID PUSH1 0x80 PUSH1 0x40 MSTORE CALLVALUE DUP1 ISZERO PUSH2 0xF JUMPI PUSH0 DUP1 REVERT JUMPDEST POP PUSH1 0x4 CALLDATASIZE LT PUSH2 0x34 JUMPI PUSH0 CALLDATALOAD PUSH1 0xE0 SHR DUP1 PUSH4 0x326AB04A EQ PUSH2 0x38 JUMPI DUP1 PUSH4 0x642F9163 EQ PUSH2 0x54 JUMPI JUMPDEST PUSH0 DUP1 REVERT JUMPDEST PUSH2 0x52 PUSH1 0x4 DUP1 CALLDATASIZE SUB DUP2 ADD SWAP1 PUSH2 0x4D SWAP2 SWAP1 PUSH2 0x6D7 JUMP JUMPDEST PUSH2 0x87 JUMP JUMPDEST STOP JUMPDEST PUSH2 0x6E PUSH1 0x4 DUP1 CALLDATASIZE SUB DUP2 ADD SWAP1 PUSH2 0x69 SWAP2 SWAP1 PUSH2 0x78A JUMP JUMPDEST PUSH2 0x393 JUMP JUMPDEST PUSH1 0x40 MLOAD PUSH2 0x7E SWAP5 SWAP4 SWAP3 SWAP2 SWAP1 PUSH2 0x8A6 JUMP JUMPDEST PUSH1 0x40 MLOAD DUP1 SWAP2 SUB SWAP1 RETURN JUMPDEST PUSH0 DUP5 MLOAD GT PUSH2 0xCA JUMPI PUSH1 0x40 MLOAD PUSH32 0x8C379A000000000000000000000000000000000000000000000000000000000 DUP2 MSTORE PUSH1 0x4 ADD PUSH2 0xC1 SWAP1 PUSH2 0x93A JUMP JUMPDEST PUSH1 0x40 MLOAD DUP1 SWAP2 SUB SWAP1 REVERT JUMPDEST PUSH0 DUP4 PUSH1 0xFF AND GT PUSH2 0x10F JUMPI PUSH1 0x40 MLOAD PUSH32 0x8C379A000000000000000000000000000000000000000000000000000000000 DUP2 MSTORE PUSH1 0x4 ADD PUSH2 0x106 SWAP1 PUSH2 0x9A2 JUMP JUMPDEST PUSH1 0x40 MLOAD DUP1 SWAP2 SUB SWAP1 REVERT JUMPDEST PUSH0 PUSH20 0xFFFFFFFFFFFFFFFFFFFFFFFFFFFFFFFFFFFFFFFF AND DUP2 PUSH20 0xFFFFFFFFFFFFFFFFFFFFFFFFFFFFFFFFFFFFFFFF AND SUB PUSH2 0x17D JUMPI PUSH1 0x40 MLOAD PUSH32 0x8C379A000000000000000000000000000000000000000000000000000000000 DUP2 MSTORE PUSH1 0x4 ADD PUSH2 0x174 SWAP1 PUSH2 0xA0A JUMP JUMPDEST PUSH1 0x40 MLOAD DUP1 SWAP2 SUB SWAP1 REVERT JUMPDEST PUSH0 PUSH1 0x4 DUP2 GT ISZERO PUSH2 0x190 JUMPI PUSH2 0x18F PUSH2 0x824 JUMP JUMPDEST JUMPDEST PUSH1 0xFF AND DUP3 PUSH1 0x4 DUP2 GT ISZERO PUSH2 0x1A6 JUMPI PUSH2 0x1A5 PUSH2 0x824 JUMP JUMPDEST JUMPDEST PUSH1 0xFF AND LT ISZERO DUP1 ISZERO PUSH2 0x1E1 JUMPI POP PUSH1 0x4 DUP1 DUP2 GT ISZERO PUSH2 0x1C5 JUMPI PUSH2 0x1C4 PUSH2 0x824 JUMP JUMPDEST JUMPDEST PUSH1 0xFF AND DUP3 PUSH1 0x4 DUP2 GT ISZERO PUSH2 0x1DB JUMPI PUSH2 0x1DA PUSH2 0x824 JUMP JUMPDEST JUMPDEST PUSH1 0xFF AND GT ISZERO JUMPDEST PUSH2 0x220 JUMPI PUSH1 0x40 MLOAD PUSH32 0x8C379A000000000000000000000000000000000000000000000000000000000 DUP2 MSTORE PUSH1 0x4 ADD PUSH2 0x217 SWAP1 PUSH2 0xA72 JUMP JUMPDEST PUSH1 0x40 MLOAD DUP1 SWAP2 SUB SWAP1 REVERT JUMPDEST PUSH0 DUP1 DUP2 SLOAD DUP1 SWAP3 SWAP2 SWAP1 PUSH2 0x231 SWAP1 PUSH2 0xABD JUMP JUMPDEST SWAP2 SWAP1 POP SSTORE POP PUSH1 0x40 MLOAD DUP1 PUSH1 0xA0 ADD PUSH1 0x40 MSTORE DUP1 PUSH0 SLOAD DUP2 MSTORE PUSH1 0x20 ADD DUP6 DUP2 MSTORE PUSH1 0x20 ADD DUP5 PUSH1 0xFF AND DUP2 MSTORE PUSH1 0x20 ADD DUP4 PUSH1 0x4 DUP2 GT ISZERO PUSH2 0x26A JUMPI PUSH2 0x269 PUSH2 0x824 JUMP JUMPDEST JUMPDEST DUP2 MSTORE PUSH1 0x20 ADD DUP3 PUSH20 0xFFFFFFFFFFFFFFFFFFFFFFFFFFFFFFFFFFFFFFFF AND DUP2 MSTORE POP PUSH1 0x1 PUSH0 DUP1 SLOAD DUP2 MSTORE PUSH1 0x20 ADD SWAP1 DUP2 MSTORE PUSH1 0x20 ADD PUSH0 KECCAK256 PUSH0 DUP3 ADD MLOAD DUP2 PUSH0 ADD SSTORE PUSH1 0x20 DUP3 ADD MLOAD DUP2 PUSH1 0x1 ADD SWAP1 DUP2 PUSH2 0x2B8 SWAP2 SWAP1 PUSH2 0xCFE JUMP JUMPDEST POP PUSH1 0x40 DUP3 ADD MLOAD DUP2 PUSH1 0x2 ADD PUSH0 PUSH2 0x100 EXP DUP2 SLOAD DUP2 PUSH1 0xFF MUL NOT AND SWAP1 DUP4 PUSH1 0xFF AND MUL OR SWAP1 SSTORE POP PUSH1 0x60 DUP3 ADD MLOAD DUP2 PUSH1 0x2 ADD PUSH1 0x1 PUSH2 0x100 EXP DUP2 SLOAD DUP2 PUSH1 0xFF MUL NOT AND SWAP1 DUP4 PUSH1 0x4 DUP2 GT ISZERO PUSH2 0x304 JUMPI PUSH2 0x303 PUSH2 0x824 JUMP JUMPDEST JUMPDEST MUL OR SWAP1 SSTORE POP PUSH1 0x80 DUP3 ADD MLOAD DUP2 PUSH1 0x2 ADD PUSH1 0x2 PUSH2 0x100 EXP DUP2 SLOAD DUP2 PUSH20 0xFFFFFFFFFFFFFFFFFFFFFFFFFFFFFFFFFFFFFFFF MUL NOT AND SWAP1 DUP4 PUSH20 0xFFFFFFFFFFFFFFFFFFFFFFFFFFFFFFFFFFFFFFFF AND MUL OR SWAP1 SSTORE POP SWAP1 POP POP PUSH32 0x9682C9A3E9734A1F8D3A641838A5D7862F4EB29FCBF4BD04E0CCAC28FFCFD227 PUSH0 SLOAD DUP6 PUSH1 0x40 MLOAD PUSH2 0x385 SWAP3 SWAP2 SWAP1 PUSH2 0xDDC JUMP JUMPDEST PUSH1 0x40 MLOAD DUP1 SWAP2 SUB SWAP1 LOG1 POP POP POP POP JUMP JUMPDEST PUSH1 0x60 PUSH0 DUP1 PUSH0 DUP1 PUSH1 0x1 PUSH0 DUP8 DUP2 MSTORE PUSH1 0x20 ADD SWAP1 DUP2 MSTORE PUSH1 0x20 ADD PUSH0 KECCAK256 SWAP1 POP PUSH0 DUP2 PUSH0 ADD SLOAD SUB PUSH2 0x3F1 JUMPI PUSH1 0x40 MLOAD PUSH32 0x8C379A000000000000000000000000000000000000000000000000000000000 DUP2 MSTORE PUSH1 0x4 ADD PUSH2 0x3E8 SWAP1 PUSH2 0xE54 JUMP JUMPDEST PUSH1 0x40 MLOAD DUP1 SWAP2 SUB SWAP1 REVERT JUMPDEST DUP1 PUSH1 0x1 ADD DUP2 PUSH1 0x2 ADD PUSH0 SWAP1 SLOAD SWAP1 PUSH2 0x100 EXP SWAP1 DIV PUSH1 0xFF AND DUP3 PUSH1 0x2 ADD PUSH1 0x1 SWAP1 SLOAD SWAP1 PUSH2 0x100 EXP SWAP1 DIV PUSH1 0xFF AND DUP4 PUSH1 0x2 ADD PUSH1 0x2 SWAP1 SLOAD SWAP1 PUSH2 0x100 EXP SWAP1 DIV PUSH20 0xFFFFFFFFFFFFFFFFFFFFFFFFFFFFFFFFFFFFFFFF AND DUP4 DUP1 SLOAD PUSH2 0x449 SWAP1 PUSH2 0xB31 JUMP JUMPDEST DUP1 PUSH1 0x1F ADD PUSH1 0x20 DUP1 SWAP2 DIV MUL PUSH1 0x20 ADD PUSH1 0x40 MLOAD SWAP1 DUP2 ADD PUSH1 0x40 MSTORE DUP1 SWAP3 SWAP2 SWAP1 DUP2 DUP2 MSTORE PUSH1 0x20 ADD DUP3 DUP1 SLOAD PUSH2 0x475 SWAP1 PUSH2 0xB31 JUMP JUMPDEST DUP1 ISZERO PUSH2 0x4C0 JUMPI DUP1 PUSH1 0x1F LT PUSH2 0x497 JUMPI PUSH2 0x100 DUP1 DUP4 SLOAD DIV MUL DUP4 MSTORE SWAP2 PUSH1 0x20 ADD SWAP2 PUSH2 0x4C0 JUMP JUMPDEST DUP3 ADD SWAP2 SWAP1 PUSH0 MSTORE PUSH1 0x20 PUSH0 KECCAK256 SWAP1 JUMPDEST DUP2 SLOAD DUP2 MSTORE SWAP1 PUSH1 0x1 ADD SWAP1 PUSH1 0x20 ADD DUP1 DUP4 GT PUSH2 0x4A3 JUMPI DUP3 SWAP1 SUB PUSH1 0x1F AND DUP3 ADD SWAP2 JUMPDEST POP POP POP POP POP SWAP4 POP SWAP5 POP SWAP5 POP SWAP5 POP SWAP5 POP POP SWAP2 SWAP4 POP SWAP2 SWAP4 JUMP JUMPDEST PUSH0 PUSH1 0x40 MLOAD SWAP1 POP SWAP1 JUMP JUMPDEST PUSH0 DUP1 REVERT JUMPDEST PUSH0 DUP1 REVERT JUMPDEST PUSH0 DUP1 REVERT JUMPDEST PUSH0 DUP1 REVERT JUMPDEST PUSH0 PUSH1 0x1F NOT PUSH1 0x1F DUP4 ADD AND SWAP1 POP SWAP2 SWAP1 POP JUMP JUMPDEST PUSH32 0x4E487B7100000000000000000000000000000000000000000000000000000000 PUSH0 MSTORE PUSH1 0x41 PUSH1 0x4 MSTORE PUSH1 0x24 PUSH0 REVERT JUMPDEST PUSH2 0x536 DUP3 PUSH2 0x4F0 JUMP JUMPDEST DUP2 ADD DUP2 DUP2 LT PUSH8 0xFFFFFFFFFFFFFFFF DUP3 GT OR ISZERO PUSH2 0x555 JUMPI PUSH2 0x554 PUSH2 0x500 JUMP JUMPDEST JUMPDEST DUP1 PUSH1 0x40 MSTORE POP POP POP JUMP JUMPDEST PUSH0 PUSH2 0x567 PUSH2 0x4D7 JUMP JUMPDEST SWAP1 POP PUSH2 0x573 DUP3 DUP3 PUSH2 0x52D JUMP JUMPDEST SWAP2 SWAP1 POP JUMP JUMPDEST PUSH0 PUSH8 0xFFFFFFFFFFFFFFFF DUP3 GT ISZERO PUSH2 0x592 JUMPI PUSH2 0x591 PUSH2 0x500 JUMP JUMPDEST JUMPDEST PUSH2 0x59B DUP3 PUSH2 0x4F0 JUMP JUMPDEST SWAP1 POP PUSH1 0x20 DUP2 ADD SWAP1 POP SWAP2 SWAP1 POP JUMP JUMPDEST DUP3 DUP2 DUP4 CALLDATACOPY PUSH0 DUP4 DUP4 ADD MSTORE POP POP POP JUMP JUMPDEST PUSH0 PUSH2 0x5C8 PUSH2 0x5C3 DUP5 PUSH2 0x578 JUMP JUMPDEST PUSH2 0x55E JUMP JUMPDEST SWAP1 POP DUP3 DUP2 MSTORE PUSH1 0x20 DUP2 ADD DUP5 DUP5 DUP5 ADD GT ISZERO PUSH2 0x5E4 JUMPI PUSH2 0x5E3 PUSH2 0x4EC JUMP JUMPDEST JUMPDEST PUSH2 0x5EF DUP5 DUP3 DUP6 PUSH2 0x5A8 JUMP JUMPDEST POP SWAP4 SWAP3 POP POP POP JUMP JUMPDEST PUSH0 DUP3 PUSH1 0x1F DUP4 ADD SLT PUSH2 0x60B JUMPI PUSH2 0x60A PUSH2 0x4E8 JUMP JUMPDEST JUMPDEST DUP2 CALLDATALOAD PUSH2 0x61B DUP5 DUP3 PUSH1 0x20 DUP7 ADD PUSH2 0x5B6 JUMP JUMPDEST SWAP2 POP POP SWAP3 SWAP2 POP POP JUMP JUMPDEST PUSH0 PUSH1 0xFF DUP3 AND SWAP1 POP SWAP2 SWAP1 POP JUMP JUMPDEST PUSH2 0x639 DUP2 PUSH2 0x624 JUMP JUMPDEST DUP2 EQ PUSH2 0x643 JUMPI PUSH0 DUP1 REVERT JUMPDEST POP JUMP JUMPDEST PUSH0 DUP2 CALLDATALOAD SWAP1 POP PUSH2 0x654 DUP2 PUSH2 0x630 JUMP JUMPDEST SWAP3 SWAP2 POP POP JUMP JUMPDEST PUSH1 0x5 DUP2 LT PUSH2 0x666 JUMPI PUSH0 DUP1 REVERT JUMPDEST POP JUMP JUMPDEST PUSH0 DUP2 CALLDATALOAD SWAP1 POP PUSH2 0x677 DUP2 PUSH2 0x65A JUMP JUMPDEST SWAP3 SWAP2 POP POP JUMP JUMPDEST PUSH0 PUSH20 0xFFFFFFFFFFFFFFFFFFFFFFFFFFFFFFFFFFFFFFFF DUP3 AND SWAP1 POP SWAP2 SWAP1 POP JUMP JUMPDEST PUSH0 PUSH2 0x6A6 DUP3 PUSH2 0x67D JUMP JUMPDEST SWAP1 POP SWAP2 SWAP1 POP JUMP JUMPDEST PUSH2 0x6B6 DUP2 PUSH2 0x69C JUMP JUMPDEST DUP2 EQ PUSH2 0x6C0 JUMPI PUSH0 DUP1 REVERT JUMPDEST POP JUMP JUMPDEST PUSH0 DUP2 CALLDATALOAD SWAP1 POP PUSH2 0x6D1 DUP2 PUSH2 0x6AD JUMP JUMPDEST SWAP3 SWAP2 POP POP JUMP JUMPDEST PUSH0 DUP1 PUSH0 DUP1 PUSH1 0x80 DUP6 DUP8 SUB SLT ISZERO PUSH2 0x6EF JUMPI PUSH2 0x6EE PUSH2 0x4E0 JUMP JUMPDEST JUMPDEST PUSH0 DUP6 ADD CALLDATALOAD PUSH8 0xFFFFFFFFFFFFFFFF DUP2 GT ISZERO PUSH2 0x70C JUMPI PUSH2 0x70B PUSH2 0x4E4 JUMP JUMPDEST JUMPDEST PUSH2 0x718 DUP8 DUP3 DUP9 ADD PUSH2 0x5F7 JUMP JUMPDEST SWAP5 POP POP PUSH1 0x20 PUSH2 0x729 DUP8 DUP3 DUP9 ADD PUSH2 0x646 JUMP JUMPDEST SWAP4 POP POP PUSH1 0x40 PUSH2 0x73A DUP8 DUP3 DUP9 ADD PUSH2 0x669 JUMP JUMPDEST SWAP3 POP POP PUSH1 0x60 PUSH2 0x74B DUP8 DUP3 DUP9 ADD PUSH2 0x6C3 JUMP JUMPDEST SWAP2 POP POP SWAP3 SWAP6 SWAP2 SWAP5 POP SWAP3 POP JUMP JUMPDEST PUSH0 DUP2 SWAP1 POP SWAP2 SWAP1 POP JUMP JUMPDEST PUSH2 0x769 DUP2 PUSH2 0x757 JUMP JUMPDEST DUP2 EQ PUSH2 0x773 JUMPI PUSH0 DUP1 REVERT JUMPDEST POP JUMP JUMPDEST PUSH0 DUP2 CALLDATALOAD SWAP1 POP PUSH2 0x784 DUP2 PUSH2 0x760 JUMP JUMPDEST SWAP3 SWAP2 POP POP JUMP JUMPDEST PUSH0 PUSH1 0x20 DUP3 DUP5 SUB SLT ISZERO PUSH2 0x79F JUMPI PUSH2 0x79E PUSH2 0x4E0 JUMP JUMPDEST JUMPDEST PUSH0 PUSH2 0x7AC DUP5 DUP3 DUP6 ADD PUSH2 0x776 JUMP JUMPDEST SWAP2 POP POP SWAP3 SWAP2 POP POP JUMP JUMPDEST PUSH0 DUP2 MLOAD SWAP1 POP SWAP2 SWAP1 POP JUMP JUMPDEST PUSH0 DUP3 DUP3 MSTORE PUSH1 0x20 DUP3 ADD SWAP1 POP SWAP3 SWAP2 POP POP JUMP JUMPDEST DUP3 DUP2 DUP4 MCOPY PUSH0 DUP4 DUP4 ADD MSTORE POP POP POP JUMP JUMPDEST PUSH0 PUSH2 0x7E7 DUP3 PUSH2 0x7B5 JUMP JUMPDEST PUSH2 0x7F1 DUP2 DUP6 PUSH2 0x7BF JUMP JUMPDEST SWAP4 POP PUSH2 0x801 DUP2 DUP6 PUSH1 0x20 DUP7 ADD PUSH2 0x7CF JUMP JUMPDEST PUSH2 0x80A DUP2 PUSH2 0x4F0 JUMP JUMPDEST DUP5 ADD SWAP2 POP POP SWAP3 SWAP2 POP POP JUMP JUMPDEST PUSH2 0x81E DUP2 PUSH2 0x624 JUMP JUMPDEST DUP3 MSTORE POP POP JUMP JUMPDEST PUSH32 0x4E487B7100000000000000000000000000000000000000000000000000000000 PUSH0 MSTORE PUSH1 0x21 PUSH1 0x4 MSTORE PUSH1 0x24 PUSH0 REVERT JUMPDEST PUSH1 0x5 DUP2 LT PUSH2 0x862 JUMPI PUSH2 0x861 PUSH2 0x824 JUMP JUMPDEST JUMPDEST POP JUMP JUMPDEST PUSH0 DUP2 SWAP1 POP PUSH2 0x872 DUP3 PUSH2 0x851 JUMP JUMPDEST SWAP2 SWAP1 POP JUMP JUMPDEST PUSH0 PUSH2 0x881 DUP3 PUSH2 0x865 JUMP JUMPDEST SWAP1 POP SWAP2 SWAP1 POP JUMP JUMPDEST PUSH2 0x891 DUP2 PUSH2 0x877 JUMP JUMPDEST DUP3 MSTORE POP POP JUMP JUMPDEST PUSH2 0x8A0 DUP2 PUSH2 0x69C JUMP JUMPDEST DUP3 MSTORE POP POP JUMP JUMPDEST PUSH0 PUSH1 0x80 DUP3 ADD SWAP1 POP DUP2 DUP2 SUB PUSH0 DUP4 ADD MSTORE PUSH2 0x8BE DUP2 DUP8 PUSH2 0x7DD JUMP JUMPDEST SWAP1 POP PUSH2 0x8CD PUSH1 0x20 DUP4 ADD DUP7 PUSH2 0x815 JUMP JUMPDEST PUSH2 0x8DA PUSH1 0x40 DUP4 ADD DUP6 PUSH2 0x888 JUMP JUMPDEST PUSH2 0x8E7 PUSH1 0x60 DUP4 ADD DUP5 PUSH2 0x897 JUMP JUMPDEST SWAP6 SWAP5 POP POP POP POP POP JUMP JUMPDEST PUSH32 0x4E6F206E616D6520646174612E00000000000000000000000000000000000000 PUSH0 DUP3 ADD MSTORE POP JUMP JUMPDEST PUSH0 PUSH2 0x924 PUSH1 0xD DUP4 PUSH2 0x7BF JUMP JUMPDEST SWAP2 POP PUSH2 0x92F DUP3 PUSH2 0x8F0 JUMP JUMPDEST PUSH1 0x20 DUP3 ADD SWAP1 POP SWAP2 SWAP1 POP JUMP JUMPDEST PUSH0 PUSH1 0x20 DUP3 ADD SWAP1 POP DUP2 DUP2 SUB PUSH0 DUP4 ADD MSTORE PUSH2 0x951 DUP2 PUSH2 0x918 JUMP JUMPDEST SWAP1 POP SWAP2 SWAP1 POP JUMP JUMPDEST PUSH32 0x416765206D7573742062652067726561746572207468616E20302E0000000000 PUSH0 DUP3 ADD MSTORE POP JUMP JUMPDEST PUSH0 PUSH2 0x98C PUSH1 0x1B DUP4 PUSH2 0x7BF JUMP JUMPDEST SWAP2 POP PUSH2 0x997 DUP3 PUSH2 0x958 JUMP JUMPDEST PUSH1 0x20 DUP3 ADD SWAP1 POP SWAP2 SWAP1 POP JUMP JUMPDEST PUSH0 PUSH1 0x20 DUP3 ADD SWAP1 POP DUP2 DUP2 SUB PUSH0 DUP4 ADD MSTORE PUSH2 0x9B9 DUP2 PUSH2 0x980 JUMP JUMPDEST SWAP1 POP SWAP2 SWAP1 POP JUMP JUMPDEST PUSH32 0x496E76616C6964207A65726F2061646472657373000000000000000000000000 PUSH0 DUP3 ADD MSTORE POP JUMP JUMPDEST PUSH0 PUSH2 0x9F4 PUSH1 0x14 DUP4 PUSH2 0x7BF JUMP JUMPDEST SWAP2 POP PUSH2 0x9FF DUP3 PUSH2 0x9C0 JUMP JUMPDEST PUSH1 0x20 DUP3 ADD SWAP1 POP SWAP2 SWAP1 POP JUMP JUMPDEST PUSH0 PUSH1 0x20 DUP3 ADD SWAP1 POP DUP2 DUP2 SUB PUSH0 DUP4 ADD MSTORE PUSH2 0xA21 DUP2 PUSH2 0x9E8 JUMP JUMPDEST SWAP1 POP SWAP2 SWAP1 POP JUMP JUMPDEST PUSH32 0x496E76616C69642067726164652E000000000000000000000000000000000000 PUSH0 DUP3 ADD MSTORE POP JUMP JUMPDEST PUSH0 PUSH2 0xA5C PUSH1 0xE DUP4 PUSH2 0x7BF JUMP JUMPDEST SWAP2 POP PUSH2 0xA67 DUP3 PUSH2 0xA28 JUMP JUMPDEST PUSH1 0x20 DUP3 ADD SWAP1 POP SWAP2 SWAP1 POP JUMP JUMPDEST PUSH0 PUSH1 0x20 DUP3 ADD SWAP1 POP DUP2 DUP2 SUB PUSH0 DUP4 ADD MSTORE PUSH2 0xA89 DUP2 PUSH2 0xA50 JUMP JUMPDEST SWAP1 POP SWAP2 SWAP1 POP JUMP JUMPDEST PUSH32 0x4E487B7100000000000000000000000000000000000000000000000000000000 PUSH0 MSTORE PUSH1 0x11 PUSH1 0x4 MSTORE PUSH1 0x24 PUSH0 REVERT JUMPDEST PUSH0 PUSH2 0xAC7 DUP3 PUSH2 0x757 JUMP JUMPDEST SWAP2 POP PUSH32 0xFFFFFFFFFFFFFFFFFFFFFFFFFFFFFFFFFFFFFFFFFFFFFFFFFFFFFFFFFFFFFFFF DUP3 SUB PUSH2 0xAF9 JUMPI PUSH2 0xAF8 PUSH2 0xA90 JUMP JUMPDEST JUMPDEST PUSH1 0x1 DUP3 ADD SWAP1 POP SWAP2 SWAP1 POP JUMP JUMPDEST PUSH32 0x4E487B7100000000000000000000000000000000000000000000000000000000 PUSH0 MSTORE PUSH1 0x22 PUSH1 0x4 MSTORE PUSH1 0x24 PUSH0 REVERT JUMPDEST PUSH0 PUSH1 0x2 DUP3 DIV SWAP1 POP PUSH1 0x1 DUP3 AND DUP1 PUSH2 0xB48 JUMPI PUSH1 0x7F DUP3 AND SWAP2 POP JUMPDEST PUSH1 0x20 DUP3 LT DUP2 SUB PUSH2 0xB5B JUMPI PUSH2 0xB5A PUSH2 0xB04 JUMP JUMPDEST JUMPDEST POP SWAP2 SWAP1 POP JUMP JUMPDEST PUSH0 DUP2 SWAP1 POP DUP2 PUSH0 MSTORE PUSH1 0x20 PUSH0 KECCAK256 SWAP1 POP SWAP2 SWAP1 POP JUMP JUMPDEST PUSH0 PUSH1 0x20 PUSH1 0x1F DUP4 ADD DIV SWAP1 POP SWAP2 SWAP1 POP JUMP JUMPDEST PUSH0 DUP3 DUP3 SHL SWAP1 POP SWAP3 SWAP2 POP POP JUMP JUMPDEST PUSH0 PUSH1 0x8 DUP4 MUL PUSH2 0xBBD PUSH32 0xFFFFFFFFFFFFFFFFFFFFFFFFFFFFFFFFFFFFFFFFFFFFFFFFFFFFFFFFFFFFFFFF DUP3 PUSH2 0xB82 JUMP JUMPDEST PUSH2 0xBC7 DUP7 DUP4 PUSH2 0xB82 JUMP JUMPDEST SWAP6 POP DUP1 NOT DUP5 AND SWAP4 POP DUP1 DUP7 AND DUP5 OR SWAP3 POP POP POP SWAP4 SWAP3 POP POP POP JUMP JUMPDEST PUSH0 DUP2 SWAP1 POP SWAP2 SWAP1 POP JUMP JUMPDEST PUSH0 PUSH2 0xC02 PUSH2 0xBFD PUSH2 0xBF8 DUP5 PUSH2 0x757 JUMP JUMPDEST PUSH2 0xBDF JUMP JUMPDEST PUSH2 0x757 JUMP JUMPDEST SWAP1 POP SWAP2 SWAP1 POP JUMP JUMPDEST PUSH0 DUP2 SWAP1 POP SWAP2 SWAP1 POP JUMP JUMPDEST PUSH2 0xC1B DUP4 PUSH2 0xBE8 JUMP JUMPDEST PUSH2 0xC2F PUSH2 0xC27 DUP3 PUSH2 0xC09 JUMP JUMPDEST DUP5 DUP5 SLOAD PUSH2 0xB8E JUMP JUMPDEST DUP3 SSTORE POP POP POP POP JUMP JUMPDEST PUSH0 SWAP1 JUMP JUMPDEST PUSH2 0xC43 PUSH2 0xC37 JUMP JUMPDEST PUSH2 0xC4E DUP2 DUP5 DUP5 PUSH2 0xC12 JUMP JUMPDEST POP POP POP JUMP JUMPDEST JUMPDEST DUP2 DUP2 LT ISZERO PUSH2 0xC71 JUMPI PUSH2 0xC66 PUSH0 DUP3 PUSH2 0xC3B JUMP JUMPDEST PUSH1 0x1 DUP2 ADD SWAP1 POP PUSH2 0xC54 JUMP JUMPDEST POP POP JUMP JUMPDEST PUSH1 0x1F DUP3 GT ISZERO PUSH2 0xCB6 JUMPI PUSH2 0xC87 DUP2 PUSH2 0xB61 JUMP JUMPDEST PUSH2 0xC90 DUP5 PUSH2 0xB73 JUMP JUMPDEST DUP2 ADD PUSH1 0x20 DUP6 LT ISZERO PUSH2 0xC9F JUMPI DUP2 SWAP1 POP JUMPDEST PUSH2 0xCB3 PUSH2 0xCAB DUP6 PUSH2 0xB73 JUMP JUMPDEST DUP4 ADD DUP3 PUSH2 0xC53 JUMP JUMPDEST POP POP JUMPDEST POP POP POP JUMP JUMPDEST PUSH0 DUP3 DUP3 SHR SWAP1 POP SWAP3 SWAP2 POP POP JUMP JUMPDEST PUSH0 PUSH2 0xCD6 PUSH0 NOT DUP5 PUSH1 0x8 MUL PUSH2 0xCBB JUMP JUMPDEST NOT DUP1 DUP4 AND SWAP2 POP POP SWAP3 SWAP2 POP POP JUMP JUMPDEST PUSH0 PUSH2 0xCEE DUP4 DUP4 PUSH2 0xCC7 JUMP JUMPDEST SWAP2 POP DUP3 PUSH1 0x2 MUL DUP3 OR SWAP1 POP SWAP3 SWAP2 POP POP JUMP JUMPDEST PUSH2 0xD07 DUP3 PUSH2 0x7B5 JUMP JUMPDEST PUSH8 0xFFFFFFFFFFFFFFFF DUP2 GT ISZERO PUSH2 0xD20 JUMPI PUSH2 0xD1F PUSH2 0x500 JUMP JUMPDEST JUMPDEST PUSH2 0xD2A DUP3 SLOAD PUSH2 0xB31 JUMP JUMPDEST PUSH2 0xD35 DUP3 DUP3 DUP6 PUSH2 0xC75 JUMP JUMPDEST PUSH0 PUSH1 0x20 SWAP1 POP PUSH1 0x1F DUP4 GT PUSH1 0x1 DUP2 EQ PUSH2 0xD66 JUMPI PUSH0 DUP5 ISZERO PUSH2 0xD54 JUMPI DUP3 DUP8 ADD MLOAD SWAP1 POP JUMPDEST PUSH2 0xD5E DUP6 DUP3 PUSH2 0xCE3 JUMP JUMPDEST DUP7 SSTORE POP PUSH2 0xDC5 JUMP JUMPDEST PUSH1 0x1F NOT DUP5 AND PUSH2 0xD74 DUP7 PUSH2 0xB61 JUMP JUMPDEST PUSH0 JUMPDEST DUP3 DUP2 LT ISZERO PUSH2 0xD9B JUMPI DUP5 DUP10 ADD MLOAD DUP3 SSTORE PUSH1 0x1 DUP3 ADD SWAP2 POP PUSH1 0x20 DUP6 ADD SWAP5 POP PUSH1 0x20 DUP2 ADD SWAP1 POP PUSH2 0xD76 JUMP JUMPDEST DUP7 DUP4 LT ISZERO PUSH2 0xDB8 JUMPI DUP5 DUP10 ADD MLOAD PUSH2 0xDB4 PUSH1 0x1F DUP10 AND DUP3 PUSH2 0xCC7 JUMP JUMPDEST DUP4 SSTORE POP JUMPDEST PUSH1 0x1 PUSH1 0x2 DUP9 MUL ADD DUP9 SSTORE POP POP POP JUMPDEST POP POP POP POP POP POP JUMP JUMPDEST PUSH2 0xDD6 DUP2 PUSH2 0x757 JUMP JUMPDEST DUP3 MSTORE POP POP JUMP JUMPDEST PUSH0 PUSH1 0x40 DUP3 ADD SWAP1 POP PUSH2 0xDEF PUSH0 DUP4 ADD DUP6 PUSH2 0xDCD JUMP JUMPDEST DUP2 DUP2 SUB PUSH1 0x20 DUP4 ADD MSTORE PUSH2 0xE01 DUP2 DUP5 PUSH2 0x7DD JUMP JUMPDEST SWAP1 POP SWAP4 SWAP3 POP POP POP JUMP JUMPDEST PUSH32 0x53747564656E7420646F6573206E6F7420657869737400000000000000000000 PUSH0 DUP3 ADD MSTORE POP JUMP JUMPDEST PUSH0 PUSH2 0xE3E PUSH1 0x16 DUP4 PUSH2 0x7BF JUMP JUMPDEST SWAP2 POP PUSH2 0xE49 DUP3 PUSH2 0xE0A JUMP JUMPDEST PUSH1 0x20 DUP3 ADD SWAP1 POP SWAP2 SWAP1 POP JUMP JUMPDEST PUSH0 PUSH1 0x20 DUP3 ADD SWAP1 POP DUP2 DUP2 SUB PUSH0 DUP4 ADD MSTORE PUSH2 0xE6B DUP2 PUSH2 0xE32 JUMP JUMPDEST SWAP1 POP SWAP2 SWAP1 POP JUMP INVALID LOG2 PUSH5 0x6970667358 0x22 SLT KECCAK256 SHL SWAP14 0xB7 STATICCALL 0xD4 EXP PUSH17 0x3328DADF4C309E6833A21C772355284A5A 0xEE 0xDD SWAP15 PUSH2 0x297C 0xF8 DUP2 PUSH5 0x736F6C6343 STOP ADDMOD BYTE STOP CALLER "
				},
				"gasEstimates": {
					"creation": {
						"codeDepositCost": "750400",
						"executionCost": "784",
						"totalCost": "751184"
					},
					"external": {
						"addStudent(string,uint8,uint8,address)": "infinite",
						"getStudent(uint256)": "infinite"
					}
				},
				"methodIdentifiers": {
					"addStudent(string,uint8,uint8,address)": "326ab04a",
					"getStudent(uint256)": "642f9163"
				}
			},
			"storageLayout": {
				"storage": [
					{
						"astId": 21,
						"contract": "contracts/StudentRecords.sol:StudentRecords",
						"label": "studentCounter",
						"offset": 0,
						"slot": "0",
						"type": "t_uint256"
					},
					{
						"astId": 26,
						"contract": "contracts/StudentRecords.sol:StudentRecords",
						"label": "students",
						"offset": 0,
						"slot": "1",
						"type": "t_mapping(t_uint256,t_struct(Student)19_storage)"
					}
				],
				"types": {
					"t_address": {
						"encoding": "inplace",
						"label": "address",
						"numberOfBytes": "20"
					},
					"t_enum(Grade)7": {
						"encoding": "inplace",
						"label": "enum StudentRecords.Grade",
						"numberOfBytes": "1"
					},
					"t_mapping(t_uint256,t_struct(Student)19_storage)": {
						"encoding": "mapping",
						"key": "t_uint256",
						"label": "mapping(uint256 => struct StudentRecords.Student)",
						"numberOfBytes": "32",
						"value": "t_struct(Student)19_storage"
					},
					"t_string_storage": {
						"encoding": "bytes",
						"label": "string",
						"numberOfBytes": "32"
					},
					"t_struct(Student)19_storage": {
						"encoding": "inplace",
						"label": "struct StudentRecords.Student",
						"members": [
							{
								"astId": 9,
								"contract": "contracts/StudentRecords.sol:StudentRecords",
								"label": "id",
								"offset": 0,
								"slot": "0",
								"type": "t_uint256"
							},
							{
								"astId": 11,
								"contract": "contracts/StudentRecords.sol:StudentRecords",
								"label": "name",
								"offset": 0,
								"slot": "1",
								"type": "t_string_storage"
							},
							{
								"astId": 13,
								"contract": "contracts/StudentRecords.sol:StudentRecords",
								"label": "age",
								"offset": 0,
								"slot": "2",
								"type": "t_uint8"
							},
							{
								"astId": 16,
								"contract": "contracts/StudentRecords.sol:StudentRecords",
								"label": "grade",
								"offset": 1,
								"slot": "2",
								"type": "t_enum(Grade)7"
							},
							{
								"astId": 18,
								"contract": "contracts/StudentRecords.sol:StudentRecords",
								"label": "Address",
								"offset": 2,
								"slot": "2",
								"type": "t_address"
							}
						],
						"numberOfBytes": "96"
					},
					"t_uint256": {
						"encoding": "inplace",
						"label": "uint256",
						"numberOfBytes": "32"
					},
					"t_uint8": {
						"encoding": "inplace",
						"label": "uint8",
						"numberOfBytes": "1"
					}
				}
			},
			"userdoc": {
				"kind": "user",
				"methods": {},
				"version": 1
			}
		}
	}
}