{
	"data": {
		"bytecode": {
			"linkReferences": {},
			"object": "6080604052348015600e575f80fd5b506106528061001c5f395ff3fe608060405234801561000f575f80fd5b5060043610610060575f3560e01c80633f3f789914610064578063502df5e0146100945780639eb4547b146100c4578063a293d1e8146100f4578063d05c78da14610124578063e6cb901314610154575b5f80fd5b61007e6004803603810190610079919061033d565b610184565b60405161008b919061038a565b60405180910390f35b6100ae60048036038101906100a9919061033d565b610199565b6040516100bb919061038a565b60405180910390f35b6100de60048036038101906100d9919061033d565b6101ae565b6040516100eb919061038a565b60405180910390f35b61010e6004803603810190610109919061033d565b6101c3565b60405161011b919061038a565b60405180910390f35b61013e6004803603810190610139919061033d565b61021b565b60405161014b919061038a565b60405180910390f35b61016e6004803603810190610169919061033d565b61029d565b60405161017b919061038a565b60405180910390f35b5f818361019191906103d0565b905092915050565b5f81836101a69190610403565b905092915050565b5f81836101bb9190610444565b905092915050565b5f81831015610207576040517f08c379a00000000000000000000000000000000000000000000000000000000081526004016101fe906104d1565b60405180910390fd5b81836102139190610444565b905092915050565b5f8083148061022957505f82145b15610236575f9050610297565b5f82846102439190610403565b9050828482610252919061051c565b14610292576040517f08c379a000000000000000000000000000000000000000000000000000000000815260040161028990610596565b60405180910390fd5b809150505b92915050565b5f8082846102ab91906103d0565b90508381101580156102bd5750828110155b6102fc576040517f08c379a00000000000000000000000000000000000000000000000000000000081526004016102f3906105fe565b60405180910390fd5b8091505092915050565b5f80fd5b5f819050919050565b61031c8161030a565b8114610326575f80fd5b50565b5f8135905061033781610313565b92915050565b5f806040838503121561035357610352610306565b5b5f61036085828601610329565b925050602061037185828601610329565b9150509250929050565b6103848161030a565b82525050565b5f60208201905061039d5f83018461037b565b92915050565b7f4e487b71000000000000000000000000000000000000000000000000000000005f52601160045260245ffd5b5f6103da8261030a565b91506103e58361030a565b92508282019050808211156103fd576103fc6103a3565b5b92915050565b5f61040d8261030a565b91506104188361030a565b92508282026104268161030a565b9150828204841483151761043d5761043c6103a3565b5b5092915050565b5f61044e8261030a565b91506104598361030a565b9250828203905081811115610471576104706103a3565b5b92915050565b5f82825260208201905092915050565b7f53616665207375627472616374696f6e20756e646572666c6f770000000000005f82015250565b5f6104bb601a83610477565b91506104c682610487565b602082019050919050565b5f6020820190508181035f8301526104e8816104af565b9050919050565b7f4e487b71000000000000000000000000000000000000000000000000000000005f52601260045260245ffd5b5f6105268261030a565b91506105318361030a565b925082610541576105406104ef565b5b828204905092915050565b7f53616665206d756c7469706c69636174696f6e206f766572666c6f77000000005f82015250565b5f610580601c83610477565b915061058b8261054c565b602082019050919050565b5f6020820190508181035f8301526105ad81610574565b9050919050565b7f53616665206164646974696f6e206f766572666c6f77000000000000000000005f82015250565b5f6105e8601683610477565b91506105f3826105b4565b602082019050919050565b5f6020820190508181035f830152610615816105dc565b905091905056fea2646970667358221220d50d372d0e7ca2eebfb82b5595f51031c02021cc14bb8b27d16e3a8744dc192464736f6c634300081a0033",
			"opcodes": "PUSH1 0x80 PUSH1 0x40 MSTORE CALLVALUE DUP1 ISZERO PUSH1 0xE JUMPI PUSH0 DUP1 REVERT JUMPDEST POP PUSH2 0x652 DUP1 PUSH2 0x1C PUSH0 CODECOPY PUSH0 RETURN INVALID PUSH1 0x80 PUSH1 0x40 MSTORE CALLVALUE DUP1 ISZERO PUSH2 0xF JUMPI PUSH0 DUP1 REVERT JUMPDEST POP PUSH1 0x4 CALLDATASIZE LT PUSH2 0x60 JUMPI PUSH0 CALLDATALOAD PUSH1 0xE0 SHR DUP1 PUSH4 0x3F3F7899 EQ PUSH2 0x64 JUMPI DUP1 PUSH4 0x502DF5E0 EQ PUSH2 0x94 JUMPI DUP1 PUSH4 0x9EB4547B EQ PUSH2 0xC4 JUMPI DUP1 PUSH4 0xA293D1E8 EQ PUSH2 0xF4 JUMPI DUP1 PUSH4 0xD05C78DA EQ PUSH2 0x124 JUMPI DUP1 PUSH4 0xE6CB9013 EQ PUSH2 0x154 JUMPI JUMPDEST PUSH0 DUP1 REVERT JUMPDEST PUSH2 0x7E PUSH1 0x4 DUP1 CALLDATASIZE SUB DUP2 ADD SWAP1 PUSH2 0x79 SWAP2 SWAP1 PUSH2 0x33D JUMP JUMPDEST PUSH2 0x184 JUMP JUMPDEST PUSH1 0x40 MLOAD PUSH2 0x8B SWAP2 SWAP1 PUSH2 0x38A JUMP JUMPDEST PUSH1 0x40 MLOAD DUP1 SWAP2 SUB SWAP1 RETURN JUMPDEST PUSH2 0xAE PUSH1 0x4 DUP1 CALLDATASIZE SUB DUP2 ADD SWAP1 PUSH2 0xA9 SWAP2 SWAP1 PUSH2 0x33D JUMP JUMPDEST PUSH2 0x199 JUMP JUMPDEST PUSH1 0x40 MLOAD PUSH2 0xBB SWAP2 SWAP1 PUSH2 0x38A JUMP JUMPDEST PUSH1 0x40 MLOAD DUP1 SWAP2 SUB SWAP1 RETURN JUMPDEST PUSH2 0xDE PUSH1 0x4 DUP1 CALLDATASIZE SUB DUP2 ADD SWAP1 PUSH2 0xD9 SWAP2 SWAP1 PUSH2 0x33D JUMP JUMPDEST PUSH2 0x1AE JUMP JUMPDEST PUSH1 0x40 MLOAD PUSH2 0xEB SWAP2 SWAP1 PUSH2 0x38A JUMP JUMPDEST PUSH1 0x40 MLOAD DUP1 SWAP2 SUB SWAP1 RETURN JUMPDEST PUSH2 0x10E PUSH1 0x4 DUP1 CALLDATASIZE SUB DUP2 ADD SWAP1 PUSH2 0x109 SWAP2 SWAP1 PUSH2 0x33D JUMP JUMPDEST PUSH2 0x1C3 JUMP JUMPDEST PUSH1 0x40 MLOAD PUSH2 0x11B SWAP2 SWAP1 PUSH2 0x38A JUMP JUMPDEST PUSH1 0x40 MLOAD DUP1 SWAP2 SUB SWAP1 RETURN JUMPDEST PUSH2 0x13E PUSH1 0x4 DUP1 CALLDATASIZE SUB DUP2 ADD SWAP1 PUSH2 0x139 SWAP2 SWAP1 PUSH2 0x33D JUMP JUMPDEST PUSH2 0x21B JUMP JUMPDEST PUSH1 0x40 MLOAD PUSH2 0x14B SWAP2 SWAP1 PUSH2 0x38A JUMP JUMPDEST PUSH1 0x40 MLOAD DUP1 SWAP2 SUB SWAP1 RETURN JUMPDEST PUSH2 0x16E PUSH1 0x4 DUP1 CALLDATASIZE SUB DUP2 ADD SWAP1 PUSH2 0x169 SWAP2 SWAP1 PUSH2 0x33D JUMP JUMPDEST PUSH2 0x29D JUMP JUMPDEST PUSH1 0x40 MLOAD PUSH2 0x17B SWAP2 SWAP1 PUSH2 0x38A JUMP JUMPDEST PUSH1 0x40 MLOAD DUP1 SWAP2 SUB SWAP1 RETURN JUMPDEST PUSH0 DUP2 DUP4 PUSH2 0x191 SWAP2 SWAP1 PUSH2 0x3D0 JUMP JUMPDEST SWAP1 POP SWAP3 SWAP2 POP POP JUMP JUMPDEST PUSH0 DUP2 DUP4 PUSH2 0x1A6 SWAP2 SWAP1 PUSH2 0x403 JUMP JUMPDEST SWAP1 POP SWAP3 SWAP2 POP POP JUMP JUMPDEST PUSH0 DUP2 DUP4 PUSH2 0x1BB SWAP2 SWAP1 PUSH2 0x444 JUMP JUMPDEST SWAP1 POP SWAP3 SWAP2 POP POP JUMP JUMPDEST PUSH0 DUP2 DUP4 LT ISZERO PUSH2 0x207 JUMPI PUSH1 0x40 MLOAD PUSH32 0x8C379A000000000000000000000000000000000000000000000000000000000 DUP2 MSTORE PUSH1 0x4 ADD PUSH2 0x1FE SWAP1 PUSH2 0x4D1 JUMP JUMPDEST PUSH1 0x40 MLOAD DUP1 SWAP2 SUB SWAP1 REVERT JUMPDEST DUP2 DUP4 PUSH2 0x213 SWAP2 SWAP1 PUSH2 0x444 JUMP JUMPDEST SWAP1 POP SWAP3 SWAP2 POP POP JUMP JUMPDEST PUSH0 DUP1 DUP4 EQ DUP1 PUSH2 0x229 JUMPI POP PUSH0 DUP3 EQ JUMPDEST ISZERO PUSH2 0x236 JUMPI PUSH0 SWAP1 POP PUSH2 0x297 JUMP JUMPDEST PUSH0 DUP3 DUP5 PUSH2 0x243 SWAP2 SWAP1 PUSH2 0x403 JUMP JUMPDEST SWAP1 POP DUP3 DUP5 DUP3 PUSH2 0x252 SWAP2 SWAP1 PUSH2 0x51C JUMP JUMPDEST EQ PUSH2 0x292 JUMPI PUSH1 0x40 MLOAD PUSH32 0x8C379A000000000000000000000000000000000000000000000000000000000 DUP2 MSTORE PUSH1 0x4 ADD PUSH2 0x289 SWAP1 PUSH2 0x596 JUMP JUMPDEST PUSH1 0x40 MLOAD DUP1 SWAP2 SUB SWAP1 REVERT JUMPDEST DUP1 SWAP2 POP POP JUMPDEST SWAP3 SWAP2 POP POP JUMP JUMPDEST PUSH0 DUP1 DUP3 DUP5 PUSH2 0x2AB SWAP2 SWAP1 PUSH2 0x3D0 JUMP JUMPDEST SWAP1 POP DUP4 DUP2 LT ISZERO DUP1 ISZERO PUSH2 0x2BD JUMPI POP DUP3 DUP2 LT ISZERO JUMPDEST PUSH2 0x2FC JUMPI PUSH1 0x40 MLOAD PUSH32 0x8C379A000000000000000000000000000000000000000000000000000000000 DUP2 MSTORE PUSH1 0x4 ADD PUSH2 0x2F3 SWAP1 PUSH2 0x5FE JUMP JUMPDEST PUSH1 0x40 MLOAD DUP1 SWAP2 SUB SWAP1 REVERT JUMPDEST DUP1 SWAP2 POP POP SWAP3 SWAP2 POP POP JUMP JUMPDEST PUSH0 DUP1 REVERT JUMPDEST PUSH0 DUP2 SWAP1 POP SWAP2 SWAP1 POP JUMP JUMPDEST PUSH2 0x31C DUP2 PUSH2 0x30A JUMP JUMPDEST DUP2 EQ PUSH2 0x326 JUMPI PUSH0 DUP1 REVERT JUMPDEST POP JUMP JUMPDEST PUSH0 DUP2 CALLDATALOAD SWAP1 POP PUSH2 0x337 DUP2 PUSH2 0x313 JUMP JUMPDEST SWAP3 SWAP2 POP POP JUMP JUMPDEST PUSH0 DUP1 PUSH1 0x40 DUP4 DUP6 SUB SLT ISZERO PUSH2 0x353 JUMPI PUSH2 0x352 PUSH2 0x306 JUMP JUMPDEST JUMPDEST PUSH0 PUSH2 0x360 DUP6 DUP3 DUP7 ADD PUSH2 0x329 JUMP JUMPDEST SWAP3 POP POP PUSH1 0x20 PUSH2 0x371 DUP6 DUP3 DUP7 ADD PUSH2 0x329 JUMP JUMPDEST SWAP2 POP POP SWAP3 POP SWAP3 SWAP1 POP JUMP JUMPDEST PUSH2 0x384 DUP2 PUSH2 0x30A JUMP JUMPDEST DUP3 MSTORE POP POP JUMP JUMPDEST PUSH0 PUSH1 0x20 DUP3 ADD SWAP1 POP PUSH2 0x39D PUSH0 DUP4 ADD DUP5 PUSH2 0x37B JUMP JUMPDEST SWAP3 SWAP2 POP POP JUMP JUMPDEST PUSH32 0x4E487B7100000000000000000000000000000000000000000000000000000000 PUSH0 MSTORE PUSH1 0x11 PUSH1 0x4 MSTORE PUSH1 0x24 PUSH0 REVERT JUMPDEST PUSH0 PUSH2 0x3DA DUP3 PUSH2 0x30A JUMP JUMPDEST SWAP2 POP PUSH2 0x3E5 DUP4 PUSH2 0x30A JUMP JUMPDEST SWAP3 POP DUP3 DUP3 ADD SWAP1 POP DUP1 DUP3 GT ISZERO PUSH2 0x3FD JUMPI PUSH2 0x3FC PUSH2 0x3A3 JUMP JUMPDEST JUMPDEST SWAP3 SWAP2 POP POP JUMP JUMPDEST PUSH0 PUSH2 0x40D DUP3 PUSH2 0x30A JUMP JUMPDEST SWAP2 POP PUSH2 0x418 DUP4 PUSH2 0x30A JUMP JUMPDEST SWAP3 POP DUP3 DUP3 MUL PUSH2 0x426 DUP2 PUSH2 0x30A JUMP JUMPDEST SWAP2 POP DUP3 DUP3 DIV DUP5 EQ DUP4 ISZERO OR PUSH2 0x43D JUMPI PUSH2 0x43C PUSH2 0x3A3 JUMP JUMPDEST JUMPDEST POP SWAP3 SWAP2 POP POP JUMP JUMPDEST PUSH0 PUSH2 0x44E DUP3 PUSH2 0x30A JUMP JUMPDEST SWAP2 POP PUSH2 0x459 DUP4 PUSH2 0x30A JUMP JUMPDEST SWAP3 POP DUP3 DUP3 SUB SWAP1 POP DUP2 DUP2 GT ISZERO PUSH2 0x471 JUMPI PUSH2 0x470 PUSH2 0x3A3 JUMP JUMPDEST JUMPDEST SWAP3 SWAP2 POP POP JUMP JUMPDEST PUSH0 DUP3 DUP3 MSTORE PUSH1 0x20 DUP3 ADD SWAP1 POP SWAP3 SWAP2 POP POP JUMP JUMPDEST PUSH32 0x53616665207375627472616374696F6E20756E646572666C6F77000000000000 PUSH0 DUP3 ADD MSTORE POP JUMP JUMPDEST PUSH0 PUSH2 0x4BB PUSH1 0x1A DUP4 PUSH2 0x477 JUMP JUMPDEST SWAP2 POP PUSH2 0x4C6 DUP3 PUSH2 0x487 JUMP JUMPDEST PUSH1 0x20 DUP3 ADD SWAP1 POP SWAP2 SWAP1 POP JUMP JUMPDEST PUSH0 PUSH1 0x20 DUP3 ADD SWAP1 POP DUP2 DUP2 SUB PUSH0 DUP4 ADD MSTORE PUSH2 0x4E8 DUP2 PUSH2 0x4AF JUMP JUMPDEST SWAP1 POP SWAP2 SWAP1 POP JUMP JUMPDEST PUSH32 0x4E487B7100000000000000000000000000000000000000000000000000000000 PUSH0 MSTORE PUSH1 0x12 PUSH1 0x4 MSTORE PUSH1 0x24 PUSH0 REVERT JUMPDEST PUSH0 PUSH2 0x526 DUP3 PUSH2 0x30A JUMP JUMPDEST SWAP2 POP PUSH2 0x531 DUP4 PUSH2 0x30A JUMP JUMPDEST SWAP3 POP DUP3 PUSH2 0x541 JUMPI PUSH2 0x540 PUSH2 0x4EF JUMP JUMPDEST JUMPDEST DUP3 DUP3 DIV SWAP1 POP SWAP3 SWAP2 POP POP JUMP JUMPDEST PUSH32 0x53616665206D756C7469706C69636174696F6E206F766572666C6F7700000000 PUSH0 DUP3 ADD MSTORE POP JUMP JUMPDEST PUSH0 PUSH2 0x580 PUSH1 0x1C DUP4 PUSH2 0x477 JUMP JUMPDEST SWAP2 POP PUSH2 0x58B DUP3 PUSH2 0x54C JUMP JUMPDEST PUSH1 0x20 DUP3 ADD SWAP1 POP SWAP2 SWAP1 POP JUMP JUMPDEST PUSH0 PUSH1 0x20 DUP3 ADD SWAP1 POP DUP2 DUP2 SUB PUSH0 DUP4 ADD MSTORE PUSH2 0x5AD DUP2 PUSH2 0x574 JUMP JUMPDEST SWAP1 POP SWAP2 SWAP1 POP JUMP JUMPDEST PUSH32 0x53616665206164646974696F6E206F766572666C6F7700000000000000000000 PUSH0 DUP3 ADD MSTORE POP JUMP JUMPDEST PUSH0 PUSH2 0x5E8 PUSH1 0x16 DUP4 PUSH2 0x477 JUMP JUMPDEST SWAP2 POP PUSH2 0x5F3 DUP3 PUSH2 0x5B4 JUMP JUMPDEST PUSH1 0x20 DUP3 ADD SWAP1 POP SWAP2 SWAP1 POP JUMP JUMPDEST PUSH0 PUSH1 0x20 DUP3 ADD SWAP1 POP DUP2 DUP2 SUB PUSH0 DUP4 ADD MSTORE PUSH2 0x615 DUP2 PUSH2 0x5DC JUMP JUMPDEST SWAP1 POP SWAP2 SWAP1 POP JUMP INVALID LOG2 PUSH5 0x6970667358 0x22 SLT KECCAK256 0xD5 0xD CALLDATACOPY 0x2D 0xE PUSH29 0xA2EEBFB82B5595F51031C02021CC14BB8B27D16E3A8744DC192464736F PUSH13 0x634300081A0033000000000000 "
		},
		"gasEstimates": {
			"creation": {
				"codeDepositCost": "323600",
				"executionCost": "360",
				"totalCost": "323960"
			},
			"external": {
				"safeAdd(uint256,uint256)": "infinite",
				"safeMul(uint256,uint256)": "infinite",
				"safeSub(uint256,uint256)": "infinite",
				"unsafeAdd(uint256,uint256)": "infinite",
				"unsafeMul(uint256,uint256)": "infinite",
				"unsafeSub(uint256,uint256)": "infinite"
			}
		},
		"methodIdentifiers": {
			"safeAdd(uint256,uint256)": "e6cb9013",
			"safeMul(uint256,uint256)": "d05c78da",
			"safeSub(uint256,uint256)": "a293d1e8",
			"unsafeAdd(uint256,uint256)": "3f3f7899",
			"unsafeMul(uint256,uint256)": "502df5e0",
			"unsafeSub(uint256,uint256)": "9eb4547b"
		}
	},
	"abi": [
		{
			"inputs": [
				{
					"internalType": "uint256",
					"name": "a",
					"type": "uint256"
				},
				{
					"internalType": "uint256",
					"name": "b",
					"type": "uint256"
				}
			],
			"name": "safeAdd",
			"outputs": [
				{
					"internalType": "uint256",
					"name": "",
					"type": "uint256"
				}
			],
			"stateMutability": "pure",
			"type": "function"
		},
		{
			"inputs": [
				{
					"internalType": "uint256",
					"name": "a",
					"type": "uint256"
				},
				{
					"internalType": "uint256",
					"name": "b",
					"type": "uint256"
				}
			],
			"name": "safeMul",
			"outputs": [
				{
					"internalType": "uint256",
					"name": "",
					"type": "uint256"
				}
			],
			"stateMutability": "pure",
			"type": "function"
		},
		{
			"inputs": [
				{
					"internalType": "uint256",
					"name": "a",
					"type": "uint256"
				},
				{
					"internalType": "uint256",
					"name": "b",
					"type": "uint256"
				}
			],
			"name": "safeSub",
			"outputs": [
				{
					"internalType": "uint256",
					"name": "",
					"type": "uint256"
				}
			],
			"stateMutability": "pure",
			"type": "function"
		},
		{
			"inputs": [
				{
					"internalType": "uint256",
					"name": "a",
					"type": "uint256"
				},
				{
					"internalType": "uint256",
					"name": "b",
					"type": "uint256"
				}
			],
			"name": "unsafeAdd",
			"outputs": [
				{
					"internalType": "uint256",
					"name": "",
					"type": "uint256"
				}
			],
			"stateMutability": "pure",
			"type": "function"
		},
		{
			"inputs": [
				{
					"internalType": "uint256",
					"name": "a",
					"type": "uint256"
				},
				{
					"internalType": "uint256",
					"name": "b",
					"type": "uint256"
				}
			],
			"name": "unsafeMul",
			"outputs": [
				{
					"internalType": "uint256",
					"name": "",
					"type": "uint256"
				}
			],
			"stateMutability": "pure",
			"type": "function"
		},
		{
			"inputs": [
				{
					"internalType": "uint256",
					"name": "a",
					"type": "uint256"
				},
				{
					"internalType": "uint256",
					"name": "b",
					"type": "uint256"
				}
			],
			"name": "unsafeSub",
			"outputs": [
				{
					"internalType": "uint256",
					"name": "",
					"type": "uint256"
				}
			],
			"stateMutability": "pure",
			"type": "function"
		}
	]
}