{
	"data": {
		"bytecode": {
			"linkReferences": {},
			"object": "6080604052348015600e575f80fd5b50610d9f8061001c5f395ff3fe608060405234801561000f575f80fd5b506004361061004a575f3560e01c806316b583561461004e57806322428baa1461006a5780632fea7b8114610086578063f653b81e146100b8575b5f80fd5b61006860048036038101906100639190610741565b6100ea565b005b610084600480360381019061007f9190610741565b61015b565b005b6100a0600480360381019061009b9190610823565b6102b6565b6040516100af939291906108bd565b60405180910390f35b6100d260048036038101906100cd9190610823565b610490565b6040516100e1939291906108bd565b60405180910390f35b5f805f3373ffffffffffffffffffffffffffffffffffffffff1673ffffffffffffffffffffffffffffffffffffffff1681526020019081526020015f20905083815f0190816101399190610afa565b50828160010181905550818160020190816101549190610afa565b5050505050565b5f83511161019e576040517f08c379a000000000000000000000000000000000000000000000000000000000815260040161019590610c13565b60405180910390fd5b5f82116101e0576040517f08c379a00000000000000000000000000000000000000000000000000000000081526004016101d790610c7b565b60405180910390fd5b5f815111610223576040517f08c379a000000000000000000000000000000000000000000000000000000000815260040161021a90610ce3565b60405180910390fd5b6040518060600160405280848152602001838152602001828152505f803373ffffffffffffffffffffffffffffffffffffffff1673ffffffffffffffffffffffffffffffffffffffff1681526020019081526020015f205f820151815f01908161028d9190610afa565b506020820151816001015560408201518160020190816102ad9190610afa565b50905050505050565b60605f60605f805f8673ffffffffffffffffffffffffffffffffffffffff1673ffffffffffffffffffffffffffffffffffffffff1681526020019081526020015f206040518060600160405290815f820180546103129061092d565b80601f016020809104026020016040519081016040528092919081815260200182805461033e9061092d565b80156103895780601f1061036057610100808354040283529160200191610389565b820191905f5260205f20905b81548152906001019060200180831161036c57829003601f168201915b50505050508152602001600182015481526020016002820180546103ac9061092d565b80601f01602080910402602001604051908101604052809291908181526020018280546103d89061092d565b80156104235780601f106103fa57610100808354040283529160200191610423565b820191905f5260205f20905b81548152906001019060200180831161040657829003601f168201915b50505050508152505090505f815f01515111610474576040517f08c379a000000000000000000000000000000000000000000000000000000000815260040161046b90610d4b565b60405180910390fd5b805f015181602001518260400151935093509350509193909250565b5f602052805f5260405f205f91509050805f0180546104ae9061092d565b80601f01602080910402602001604051908101604052809291908181526020018280546104da9061092d565b80156105255780601f106104fc57610100808354040283529160200191610525565b820191905f5260205f20905b81548152906001019060200180831161050857829003601f168201915b5050505050908060010154908060020180546105409061092d565b80601f016020809104026020016040519081016040528092919081815260200182805461056c9061092d565b80156105b75780601f1061058e576101008083540402835291602001916105b7565b820191905f5260205f20905b81548152906001019060200180831161059a57829003601f168201915b5050505050905083565b5f604051905090565b5f80fd5b5f80fd5b5f80fd5b5f80fd5b5f601f19601f8301169050919050565b7f4e487b71000000000000000000000000000000000000000000000000000000005f52604160045260245ffd5b610620826105da565b810181811067ffffffffffffffff8211171561063f5761063e6105ea565b5b80604052505050565b5f6106516105c1565b905061065d8282610617565b919050565b5f67ffffffffffffffff82111561067c5761067b6105ea565b5b610685826105da565b9050602081019050919050565b828183375f83830152505050565b5f6106b26106ad84610662565b610648565b9050828152602081018484840111156106ce576106cd6105d6565b5b6106d9848285610692565b509392505050565b5f82601f8301126106f5576106f46105d2565b5b81356107058482602086016106a0565b91505092915050565b5f819050919050565b6107208161070e565b811461072a575f80fd5b50565b5f8135905061073b81610717565b92915050565b5f805f60608486031215610758576107576105ca565b5b5f84013567ffffffffffffffff811115610775576107746105ce565b5b610781868287016106e1565b93505060206107928682870161072d565b925050604084013567ffffffffffffffff8111156107b3576107b26105ce565b5b6107bf868287016106e1565b9150509250925092565b5f73ffffffffffffffffffffffffffffffffffffffff82169050919050565b5f6107f2826107c9565b9050919050565b610802816107e8565b811461080c575f80fd5b50565b5f8135905061081d816107f9565b92915050565b5f60208284031215610838576108376105ca565b5b5f6108458482850161080f565b91505092915050565b5f81519050919050565b5f82825260208201905092915050565b8281835e5f83830152505050565b5f6108808261084e565b61088a8185610858565b935061089a818560208601610868565b6108a3816105da565b840191505092915050565b6108b78161070e565b82525050565b5f6060820190508181035f8301526108d58186610876565b90506108e460208301856108ae565b81810360408301526108f68184610876565b9050949350505050565b7f4e487b71000000000000000000000000000000000000000000000000000000005f52602260045260245ffd5b5f600282049050600182168061094457607f821691505b60208210810361095757610956610900565b5b50919050565b5f819050815f5260205f209050919050565b5f6020601f8301049050919050565b5f82821b905092915050565b5f600883026109b97fffffffffffffffffffffffffffffffffffffffffffffffffffffffffffffffff8261097e565b6109c3868361097e565b95508019841693508086168417925050509392505050565b5f819050919050565b5f6109fe6109f96109f48461070e565b6109db565b61070e565b9050919050565b5f819050919050565b610a17836109e4565b610a2b610a2382610a05565b84845461098a565b825550505050565b5f90565b610a3f610a33565b610a4a818484610a0e565b505050565b5b81811015610a6d57610a625f82610a37565b600181019050610a50565b5050565b601f821115610ab257610a838161095d565b610a8c8461096f565b81016020851015610a9b578190505b610aaf610aa78561096f565b830182610a4f565b50505b505050565b5f82821c905092915050565b5f610ad25f1984600802610ab7565b1980831691505092915050565b5f610aea8383610ac3565b9150826002028217905092915050565b610b038261084e565b67ffffffffffffffff811115610b1c57610b1b6105ea565b5b610b26825461092d565b610b31828285610a71565b5f60209050601f831160018114610b62575f8415610b50578287015190505b610b5a8582610adf565b865550610bc1565b601f198416610b708661095d565b5f5b82811015610b9757848901518255600182019150602085019450602081019050610b72565b86831015610bb45784890151610bb0601f891682610ac3565b8355505b6001600288020188555050505b505050505050565b7f4e616d65206d757374206e6f7420626520656d707479000000000000000000005f82015250565b5f610bfd601683610858565b9150610c0882610bc9565b602082019050919050565b5f6020820190508181035f830152610c2a81610bf1565b9050919050565b7f416765206d7573742062652067726561746572207468616e207a65726f0000005f82015250565b5f610c65601d83610858565b9150610c7082610c31565b602082019050919050565b5f6020820190508181035f830152610c9281610c59565b9050919050565b7f456d61696c206d757374206e6f7420626520656d7074790000000000000000005f82015250565b5f610ccd601783610858565b9150610cd882610c99565b602082019050919050565b5f6020820190508181035f830152610cfa81610cc1565b9050919050565b7f4964656e74697479206e6f7420666f756e6400000000000000000000000000005f82015250565b5f610d35601283610858565b9150610d4082610d01565b602082019050919050565b5f6020820190508181035f830152610d6281610d29565b905091905056fea264697066735822122031856dbe520f0b9e91cba524e036a5966880c4db61e85e75c970492964b84ecb64736f6c634300081a0033",
			"opcodes": "PUSH1 0x80 PUSH1 0x40 MSTORE CALLVALUE DUP1 ISZERO PUSH1 0xE JUMPI PUSH0 DUP1 REVERT JUMPDEST POP PUSH2 0xD9F DUP1 PUSH2 0x1C PUSH0 CODECOPY PUSH0 RETURN INVALID PUSH1 0x80 PUSH1 0x40 MSTORE CALLVALUE DUP1 ISZERO PUSH2 0xF JUMPI PUSH0 DUP1 REVERT JUMPDEST POP PUSH1 0x4 CALLDATASIZE LT PUSH2 0x4A JUMPI PUSH0 CALLDATALOAD PUSH1 0xE0 SHR DUP1 PUSH4 0x16B58356 EQ PUSH2 0x4E JUMPI DUP1 PUSH4 0x22428BAA EQ PUSH2 0x6A JUMPI DUP1 PUSH4 0x2FEA7B81 EQ PUSH2 0x86 JUMPI DUP1 PUSH4 0xF653B81E EQ PUSH2 0xB8 JUMPI JUMPDEST PUSH0 DUP1 REVERT JUMPDEST PUSH2 0x68 PUSH1 0x4 DUP1 CALLDATASIZE SUB DUP2 ADD SWAP1 PUSH2 0x63 SWAP2 SWAP1 PUSH2 0x741 JUMP JUMPDEST PUSH2 0xEA JUMP JUMPDEST STOP JUMPDEST PUSH2 0x84 PUSH1 0x4 DUP1 CALLDATASIZE SUB DUP2 ADD SWAP1 PUSH2 0x7F SWAP2 SWAP1 PUSH2 0x741 JUMP JUMPDEST PUSH2 0x15B JUMP JUMPDEST STOP JUMPDEST PUSH2 0xA0 PUSH1 0x4 DUP1 CALLDATASIZE SUB DUP2 ADD SWAP1 PUSH2 0x9B SWAP2 SWAP1 PUSH2 0x823 JUMP JUMPDEST PUSH2 0x2B6 JUMP JUMPDEST PUSH1 0x40 MLOAD PUSH2 0xAF SWAP4 SWAP3 SWAP2 SWAP1 PUSH2 0x8BD JUMP JUMPDEST PUSH1 0x40 MLOAD DUP1 SWAP2 SUB SWAP1 RETURN JUMPDEST PUSH2 0xD2 PUSH1 0x4 DUP1 CALLDATASIZE SUB DUP2 ADD SWAP1 PUSH2 0xCD SWAP2 SWAP1 PUSH2 0x823 JUMP JUMPDEST PUSH2 0x490 JUMP JUMPDEST PUSH1 0x40 MLOAD PUSH2 0xE1 SWAP4 SWAP3 SWAP2 SWAP1 PUSH2 0x8BD JUMP JUMPDEST PUSH1 0x40 MLOAD DUP1 SWAP2 SUB SWAP1 RETURN JUMPDEST PUSH0 DUP1 PUSH0 CALLER PUSH20 0xFFFFFFFFFFFFFFFFFFFFFFFFFFFFFFFFFFFFFFFF AND PUSH20 0xFFFFFFFFFFFFFFFFFFFFFFFFFFFFFFFFFFFFFFFF AND DUP2 MSTORE PUSH1 0x20 ADD SWAP1 DUP2 MSTORE PUSH1 0x20 ADD PUSH0 KECCAK256 SWAP1 POP DUP4 DUP2 PUSH0 ADD SWAP1 DUP2 PUSH2 0x139 SWAP2 SWAP1 PUSH2 0xAFA JUMP JUMPDEST POP DUP3 DUP2 PUSH1 0x1 ADD DUP2 SWAP1 SSTORE POP DUP2 DUP2 PUSH1 0x2 ADD SWAP1 DUP2 PUSH2 0x154 SWAP2 SWAP1 PUSH2 0xAFA JUMP JUMPDEST POP POP POP POP POP JUMP JUMPDEST PUSH0 DUP4 MLOAD GT PUSH2 0x19E JUMPI PUSH1 0x40 MLOAD PUSH32 0x8C379A000000000000000000000000000000000000000000000000000000000 DUP2 MSTORE PUSH1 0x4 ADD PUSH2 0x195 SWAP1 PUSH2 0xC13 JUMP JUMPDEST PUSH1 0x40 MLOAD DUP1 SWAP2 SUB SWAP1 REVERT JUMPDEST PUSH0 DUP3 GT PUSH2 0x1E0 JUMPI PUSH1 0x40 MLOAD PUSH32 0x8C379A000000000000000000000000000000000000000000000000000000000 DUP2 MSTORE PUSH1 0x4 ADD PUSH2 0x1D7 SWAP1 PUSH2 0xC7B JUMP JUMPDEST PUSH1 0x40 MLOAD DUP1 SWAP2 SUB SWAP1 REVERT JUMPDEST PUSH0 DUP2 MLOAD GT PUSH2 0x223 JUMPI PUSH1 0x40 MLOAD PUSH32 0x8C379A000000000000000000000000000000000000000000000000000000000 DUP2 MSTORE PUSH1 0x4 ADD PUSH2 0x21A SWAP1 PUSH2 0xCE3 JUMP JUMPDEST PUSH1 0x40 MLOAD DUP1 SWAP2 SUB SWAP1 REVERT JUMPDEST PUSH1 0x40 MLOAD DUP1 PUSH1 0x60 ADD PUSH1 0x40 MSTORE DUP1 DUP5 DUP2 MSTORE PUSH1 0x20 ADD DUP4 DUP2 MSTORE PUSH1 0x20 ADD DUP3 DUP2 MSTORE POP PUSH0 DUP1 CALLER PUSH20 0xFFFFFFFFFFFFFFFFFFFFFFFFFFFFFFFFFFFFFFFF AND PUSH20 0xFFFFFFFFFFFFFFFFFFFFFFFFFFFFFFFFFFFFFFFF AND DUP2 MSTORE PUSH1 0x20 ADD SWAP1 DUP2 MSTORE PUSH1 0x20 ADD PUSH0 KECCAK256 PUSH0 DUP3 ADD MLOAD DUP2 PUSH0 ADD SWAP1 DUP2 PUSH2 0x28D SWAP2 SWAP1 PUSH2 0xAFA JUMP JUMPDEST POP PUSH1 0x20 DUP3 ADD MLOAD DUP2 PUSH1 0x1 ADD SSTORE PUSH1 0x40 DUP3 ADD MLOAD DUP2 PUSH1 0x2 ADD SWAP1 DUP2 PUSH2 0x2AD SWAP2 SWAP1 PUSH2 0xAFA JUMP JUMPDEST POP SWAP1 POP POP POP POP POP JUMP JUMPDEST PUSH1 0x60 PUSH0 PUSH1 0x60 PUSH0 DUP1 PUSH0 DUP7 PUSH20 0xFFFFFFFFFFFFFFFFFFFFFFFFFFFFFFFFFFFFFFFF AND PUSH20 0xFFFFFFFFFFFFFFFFFFFFFFFFFFFFFFFFFFFFFFFF AND DUP2 MSTORE PUSH1 0x20 ADD SWAP1 DUP2 MSTORE PUSH1 0x20 ADD PUSH0 KECCAK256 PUSH1 0x40 MLOAD DUP1 PUSH1 0x60 ADD PUSH1 0x40 MSTORE SWAP1 DUP2 PUSH0 DUP3 ADD DUP1 SLOAD PUSH2 0x312 SWAP1 PUSH2 0x92D JUMP JUMPDEST DUP1 PUSH1 0x1F ADD PUSH1 0x20 DUP1 SWAP2 DIV MUL PUSH1 0x20 ADD PUSH1 0x40 MLOAD SWAP1 DUP2 ADD PUSH1 0x40 MSTORE DUP1 SWAP3 SWAP2 SWAP1 DUP2 DUP2 MSTORE PUSH1 0x20 ADD DUP3 DUP1 SLOAD PUSH2 0x33E SWAP1 PUSH2 0x92D JUMP JUMPDEST DUP1 ISZERO PUSH2 0x389 JUMPI DUP1 PUSH1 0x1F LT PUSH2 0x360 JUMPI PUSH2 0x100 DUP1 DUP4 SLOAD DIV MUL DUP4 MSTORE SWAP2 PUSH1 0x20 ADD SWAP2 PUSH2 0x389 JUMP JUMPDEST DUP3 ADD SWAP2 SWAP1 PUSH0 MSTORE PUSH1 0x20 PUSH0 KECCAK256 SWAP1 JUMPDEST DUP2 SLOAD DUP2 MSTORE SWAP1 PUSH1 0x1 ADD SWAP1 PUSH1 0x20 ADD DUP1 DUP4 GT PUSH2 0x36C JUMPI DUP3 SWAP1 SUB PUSH1 0x1F AND DUP3 ADD SWAP2 JUMPDEST POP POP POP POP POP DUP2 MSTORE PUSH1 0x20 ADD PUSH1 0x1 DUP3 ADD SLOAD DUP2 MSTORE PUSH1 0x20 ADD PUSH1 0x2 DUP3 ADD DUP1 SLOAD PUSH2 0x3AC SWAP1 PUSH2 0x92D JUMP JUMPDEST DUP1 PUSH1 0x1F ADD PUSH1 0x20 DUP1 SWAP2 DIV MUL PUSH1 0x20 ADD PUSH1 0x40 MLOAD SWAP1 DUP2 ADD PUSH1 0x40 MSTORE DUP1 SWAP3 SWAP2 SWAP1 DUP2 DUP2 MSTORE PUSH1 0x20 ADD DUP3 DUP1 SLOAD PUSH2 0x3D8 SWAP1 PUSH2 0x92D JUMP JUMPDEST DUP1 ISZERO PUSH2 0x423 JUMPI DUP1 PUSH1 0x1F LT PUSH2 0x3FA JUMPI PUSH2 0x100 DUP1 DUP4 SLOAD DIV MUL DUP4 MSTORE SWAP2 PUSH1 0x20 ADD SWAP2 PUSH2 0x423 JUMP JUMPDEST DUP3 ADD SWAP2 SWAP1 PUSH0 MSTORE PUSH1 0x20 PUSH0 KECCAK256 SWAP1 JUMPDEST DUP2 SLOAD DUP2 MSTORE SWAP1 PUSH1 0x1 ADD SWAP1 PUSH1 0x20 ADD DUP1 DUP4 GT PUSH2 0x406 JUMPI DUP3 SWAP1 SUB PUSH1 0x1F AND DUP3 ADD SWAP2 JUMPDEST POP POP POP POP POP DUP2 MSTORE POP POP SWAP1 POP PUSH0 DUP2 PUSH0 ADD MLOAD MLOAD GT PUSH2 0x474 JUMPI PUSH1 0x40 MLOAD PUSH32 0x8C379A000000000000000000000000000000000000000000000000000000000 DUP2 MSTORE PUSH1 0x4 ADD PUSH2 0x46B SWAP1 PUSH2 0xD4B JUMP JUMPDEST PUSH1 0x40 MLOAD DUP1 SWAP2 SUB SWAP1 REVERT JUMPDEST DUP1 PUSH0 ADD MLOAD DUP2 PUSH1 0x20 ADD MLOAD DUP3 PUSH1 0x40 ADD MLOAD SWAP4 POP SWAP4 POP SWAP4 POP POP SWAP2 SWAP4 SWAP1 SWAP3 POP JUMP JUMPDEST PUSH0 PUSH1 0x20 MSTORE DUP1 PUSH0 MSTORE PUSH1 0x40 PUSH0 KECCAK256 PUSH0 SWAP2 POP SWAP1 POP DUP1 PUSH0 ADD DUP1 SLOAD PUSH2 0x4AE SWAP1 PUSH2 0x92D JUMP JUMPDEST DUP1 PUSH1 0x1F ADD PUSH1 0x20 DUP1 SWAP2 DIV MUL PUSH1 0x20 ADD PUSH1 0x40 MLOAD SWAP1 DUP2 ADD PUSH1 0x40 MSTORE DUP1 SWAP3 SWAP2 SWAP1 DUP2 DUP2 MSTORE PUSH1 0x20 ADD DUP3 DUP1 SLOAD PUSH2 0x4DA SWAP1 PUSH2 0x92D JUMP JUMPDEST DUP1 ISZERO PUSH2 0x525 JUMPI DUP1 PUSH1 0x1F LT PUSH2 0x4FC JUMPI PUSH2 0x100 DUP1 DUP4 SLOAD DIV MUL DUP4 MSTORE SWAP2 PUSH1 0x20 ADD SWAP2 PUSH2 0x525 JUMP JUMPDEST DUP3 ADD SWAP2 SWAP1 PUSH0 MSTORE PUSH1 0x20 PUSH0 KECCAK256 SWAP1 JUMPDEST DUP2 SLOAD DUP2 MSTORE SWAP1 PUSH1 0x1 ADD SWAP1 PUSH1 0x20 ADD DUP1 DUP4 GT PUSH2 0x508 JUMPI DUP3 SWAP1 SUB PUSH1 0x1F AND DUP3 ADD SWAP2 JUMPDEST POP POP POP POP POP SWAP1 DUP1 PUSH1 0x1 ADD SLOAD SWAP1 DUP1 PUSH1 0x2 ADD DUP1 SLOAD PUSH2 0x540 SWAP1 PUSH2 0x92D JUMP JUMPDEST DUP1 PUSH1 0x1F ADD PUSH1 0x20 DUP1 SWAP2 DIV MUL PUSH1 0x20 ADD PUSH1 0x40 MLOAD SWAP1 DUP2 ADD PUSH1 0x40 MSTORE DUP1 SWAP3 SWAP2 SWAP1 DUP2 DUP2 MSTORE PUSH1 0x20 ADD DUP3 DUP1 SLOAD PUSH2 0x56C SWAP1 PUSH2 0x92D JUMP JUMPDEST DUP1 ISZERO PUSH2 0x5B7 JUMPI DUP1 PUSH1 0x1F LT PUSH2 0x58E JUMPI PUSH2 0x100 DUP1 DUP4 SLOAD DIV MUL DUP4 MSTORE SWAP2 PUSH1 0x20 ADD SWAP2 PUSH2 0x5B7 JUMP JUMPDEST DUP3 ADD SWAP2 SWAP1 PUSH0 MSTORE PUSH1 0x20 PUSH0 KECCAK256 SWAP1 JUMPDEST DUP2 SLOAD DUP2 MSTORE SWAP1 PUSH1 0x1 ADD SWAP1 PUSH1 0x20 ADD DUP1 DUP4 GT PUSH2 0x59A JUMPI DUP3 SWAP1 SUB PUSH1 0x1F AND DUP3 ADD SWAP2 JUMPDEST POP POP POP POP POP SWAP1 POP DUP4 JUMP JUMPDEST PUSH0 PUSH1 0x40 MLOAD SWAP1 POP SWAP1 JUMP JUMPDEST PUSH0 DUP1 REVERT JUMPDEST PUSH0 DUP1 REVERT JUMPDEST PUSH0 DUP1 REVERT JUMPDEST PUSH0 DUP1 REVERT JUMPDEST PUSH0 PUSH1 0x1F NOT PUSH1 0x1F DUP4 ADD AND SWAP1 POP SWAP2 SWAP1 POP JUMP JUMPDEST PUSH32 0x4E487B7100000000000000000000000000000000000000000000000000000000 PUSH0 MSTORE PUSH1 0x41 PUSH1 0x4 MSTORE PUSH1 0x24 PUSH0 REVERT JUMPDEST PUSH2 0x620 DUP3 PUSH2 0x5DA JUMP JUMPDEST DUP2 ADD DUP2 DUP2 LT PUSH8 0xFFFFFFFFFFFFFFFF DUP3 GT OR ISZERO PUSH2 0x63F JUMPI PUSH2 0x63E PUSH2 0x5EA JUMP JUMPDEST JUMPDEST DUP1 PUSH1 0x40 MSTORE POP POP POP JUMP JUMPDEST PUSH0 PUSH2 0x651 PUSH2 0x5C1 JUMP JUMPDEST SWAP1 POP PUSH2 0x65D DUP3 DUP3 PUSH2 0x617 JUMP JUMPDEST SWAP2 SWAP1 POP JUMP JUMPDEST PUSH0 PUSH8 0xFFFFFFFFFFFFFFFF DUP3 GT ISZERO PUSH2 0x67C JUMPI PUSH2 0x67B PUSH2 0x5EA JUMP JUMPDEST JUMPDEST PUSH2 0x685 DUP3 PUSH2 0x5DA JUMP JUMPDEST SWAP1 POP PUSH1 0x20 DUP2 ADD SWAP1 POP SWAP2 SWAP1 POP JUMP JUMPDEST DUP3 DUP2 DUP4 CALLDATACOPY PUSH0 DUP4 DUP4 ADD MSTORE POP POP POP JUMP JUMPDEST PUSH0 PUSH2 0x6B2 PUSH2 0x6AD DUP5 PUSH2 0x662 JUMP JUMPDEST PUSH2 0x648 JUMP JUMPDEST SWAP1 POP DUP3 DUP2 MSTORE PUSH1 0x20 DUP2 ADD DUP5 DUP5 DUP5 ADD GT ISZERO PUSH2 0x6CE JUMPI PUSH2 0x6CD PUSH2 0x5D6 JUMP JUMPDEST JUMPDEST PUSH2 0x6D9 DUP5 DUP3 DUP6 PUSH2 0x692 JUMP JUMPDEST POP SWAP4 SWAP3 POP POP POP JUMP JUMPDEST PUSH0 DUP3 PUSH1 0x1F DUP4 ADD SLT PUSH2 0x6F5 JUMPI PUSH2 0x6F4 PUSH2 0x5D2 JUMP JUMPDEST JUMPDEST DUP2 CALLDATALOAD PUSH2 0x705 DUP5 DUP3 PUSH1 0x20 DUP7 ADD PUSH2 0x6A0 JUMP JUMPDEST SWAP2 POP POP SWAP3 SWAP2 POP POP JUMP JUMPDEST PUSH0 DUP2 SWAP1 POP SWAP2 SWAP1 POP JUMP JUMPDEST PUSH2 0x720 DUP2 PUSH2 0x70E JUMP JUMPDEST DUP2 EQ PUSH2 0x72A JUMPI PUSH0 DUP1 REVERT JUMPDEST POP JUMP JUMPDEST PUSH0 DUP2 CALLDATALOAD SWAP1 POP PUSH2 0x73B DUP2 PUSH2 0x717 JUMP JUMPDEST SWAP3 SWAP2 POP POP JUMP JUMPDEST PUSH0 DUP1 PUSH0 PUSH1 0x60 DUP5 DUP7 SUB SLT ISZERO PUSH2 0x758 JUMPI PUSH2 0x757 PUSH2 0x5CA JUMP JUMPDEST JUMPDEST PUSH0 DUP5 ADD CALLDATALOAD PUSH8 0xFFFFFFFFFFFFFFFF DUP2 GT ISZERO PUSH2 0x775 JUMPI PUSH2 0x774 PUSH2 0x5CE JUMP JUMPDEST JUMPDEST PUSH2 0x781 DUP7 DUP3 DUP8 ADD PUSH2 0x6E1 JUMP JUMPDEST SWAP4 POP POP PUSH1 0x20 PUSH2 0x792 DUP7 DUP3 DUP8 ADD PUSH2 0x72D JUMP JUMPDEST SWAP3 POP POP PUSH1 0x40 DUP5 ADD CALLDATALOAD PUSH8 0xFFFFFFFFFFFFFFFF DUP2 GT ISZERO PUSH2 0x7B3 JUMPI PUSH2 0x7B2 PUSH2 0x5CE JUMP JUMPDEST JUMPDEST PUSH2 0x7BF DUP7 DUP3 DUP8 ADD PUSH2 0x6E1 JUMP JUMPDEST SWAP2 POP POP SWAP3 POP SWAP3 POP SWAP3 JUMP JUMPDEST PUSH0 PUSH20 0xFFFFFFFFFFFFFFFFFFFFFFFFFFFFFFFFFFFFFFFF DUP3 AND SWAP1 POP SWAP2 SWAP1 POP JUMP JUMPDEST PUSH0 PUSH2 0x7F2 DUP3 PUSH2 0x7C9 JUMP JUMPDEST SWAP1 POP SWAP2 SWAP1 POP JUMP JUMPDEST PUSH2 0x802 DUP2 PUSH2 0x7E8 JUMP JUMPDEST DUP2 EQ PUSH2 0x80C JUMPI PUSH0 DUP1 REVERT JUMPDEST POP JUMP JUMPDEST PUSH0 DUP2 CALLDATALOAD SWAP1 POP PUSH2 0x81D DUP2 PUSH2 0x7F9 JUMP JUMPDEST SWAP3 SWAP2 POP POP JUMP JUMPDEST PUSH0 PUSH1 0x20 DUP3 DUP5 SUB SLT ISZERO PUSH2 0x838 JUMPI PUSH2 0x837 PUSH2 0x5CA JUMP JUMPDEST JUMPDEST PUSH0 PUSH2 0x845 DUP5 DUP3 DUP6 ADD PUSH2 0x80F JUMP JUMPDEST SWAP2 POP POP SWAP3 SWAP2 POP POP JUMP JUMPDEST PUSH0 DUP2 MLOAD SWAP1 POP SWAP2 SWAP1 POP JUMP JUMPDEST PUSH0 DUP3 DUP3 MSTORE PUSH1 0x20 DUP3 ADD SWAP1 POP SWAP3 SWAP2 POP POP JUMP JUMPDEST DUP3 DUP2 DUP4 MCOPY PUSH0 DUP4 DUP4 ADD MSTORE POP POP POP JUMP JUMPDEST PUSH0 PUSH2 0x880 DUP3 PUSH2 0x84E JUMP JUMPDEST PUSH2 0x88A DUP2 DUP6 PUSH2 0x858 JUMP JUMPDEST SWAP4 POP PUSH2 0x89A DUP2 DUP6 PUSH1 0x20 DUP7 ADD PUSH2 0x868 JUMP JUMPDEST PUSH2 0x8A3 DUP2 PUSH2 0x5DA JUMP JUMPDEST DUP5 ADD SWAP2 POP POP SWAP3 SWAP2 POP POP JUMP JUMPDEST PUSH2 0x8B7 DUP2 PUSH2 0x70E JUMP JUMPDEST DUP3 MSTORE POP POP JUMP JUMPDEST PUSH0 PUSH1 0x60 DUP3 ADD SWAP1 POP DUP2 DUP2 SUB PUSH0 DUP4 ADD MSTORE PUSH2 0x8D5 DUP2 DUP7 PUSH2 0x876 JUMP JUMPDEST SWAP1 POP PUSH2 0x8E4 PUSH1 0x20 DUP4 ADD DUP6 PUSH2 0x8AE JUMP JUMPDEST DUP2 DUP2 SUB PUSH1 0x40 DUP4 ADD MSTORE PUSH2 0x8F6 DUP2 DUP5 PUSH2 0x876 JUMP JUMPDEST SWAP1 POP SWAP5 SWAP4 POP POP POP POP JUMP JUMPDEST PUSH32 0x4E487B7100000000000000000000000000000000000000000000000000000000 PUSH0 MSTORE PUSH1 0x22 PUSH1 0x4 MSTORE PUSH1 0x24 PUSH0 REVERT JUMPDEST PUSH0 PUSH1 0x2 DUP3 DIV SWAP1 POP PUSH1 0x1 DUP3 AND DUP1 PUSH2 0x944 JUMPI PUSH1 0x7F DUP3 AND SWAP2 POP JUMPDEST PUSH1 0x20 DUP3 LT DUP2 SUB PUSH2 0x957 JUMPI PUSH2 0x956 PUSH2 0x900 JUMP JUMPDEST JUMPDEST POP SWAP2 SWAP1 POP JUMP JUMPDEST PUSH0 DUP2 SWAP1 POP DUP2 PUSH0 MSTORE PUSH1 0x20 PUSH0 KECCAK256 SWAP1 POP SWAP2 SWAP1 POP JUMP JUMPDEST PUSH0 PUSH1 0x20 PUSH1 0x1F DUP4 ADD DIV SWAP1 POP SWAP2 SWAP1 POP JUMP JUMPDEST PUSH0 DUP3 DUP3 SHL SWAP1 POP SWAP3 SWAP2 POP POP JUMP JUMPDEST PUSH0 PUSH1 0x8 DUP4 MUL PUSH2 0x9B9 PUSH32 0xFFFFFFFFFFFFFFFFFFFFFFFFFFFFFFFFFFFFFFFFFFFFFFFFFFFFFFFFFFFFFFFF DUP3 PUSH2 0x97E JUMP JUMPDEST PUSH2 0x9C3 DUP7 DUP4 PUSH2 0x97E JUMP JUMPDEST SWAP6 POP DUP1 NOT DUP5 AND SWAP4 POP DUP1 DUP7 AND DUP5 OR SWAP3 POP POP POP SWAP4 SWAP3 POP POP POP JUMP JUMPDEST PUSH0 DUP2 SWAP1 POP SWAP2 SWAP1 POP JUMP JUMPDEST PUSH0 PUSH2 0x9FE PUSH2 0x9F9 PUSH2 0x9F4 DUP5 PUSH2 0x70E JUMP JUMPDEST PUSH2 0x9DB JUMP JUMPDEST PUSH2 0x70E JUMP JUMPDEST SWAP1 POP SWAP2 SWAP1 POP JUMP JUMPDEST PUSH0 DUP2 SWAP1 POP SWAP2 SWAP1 POP JUMP JUMPDEST PUSH2 0xA17 DUP4 PUSH2 0x9E4 JUMP JUMPDEST PUSH2 0xA2B PUSH2 0xA23 DUP3 PUSH2 0xA05 JUMP JUMPDEST DUP5 DUP5 SLOAD PUSH2 0x98A JUMP JUMPDEST DUP3 SSTORE POP POP POP POP JUMP JUMPDEST PUSH0 SWAP1 JUMP JUMPDEST PUSH2 0xA3F PUSH2 0xA33 JUMP JUMPDEST PUSH2 0xA4A DUP2 DUP5 DUP5 PUSH2 0xA0E JUMP JUMPDEST POP POP POP JUMP JUMPDEST JUMPDEST DUP2 DUP2 LT ISZERO PUSH2 0xA6D JUMPI PUSH2 0xA62 PUSH0 DUP3 PUSH2 0xA37 JUMP JUMPDEST PUSH1 0x1 DUP2 ADD SWAP1 POP PUSH2 0xA50 JUMP JUMPDEST POP POP JUMP JUMPDEST PUSH1 0x1F DUP3 GT ISZERO PUSH2 0xAB2 JUMPI PUSH2 0xA83 DUP2 PUSH2 0x95D JUMP JUMPDEST PUSH2 0xA8C DUP5 PUSH2 0x96F JUMP JUMPDEST DUP2 ADD PUSH1 0x20 DUP6 LT ISZERO PUSH2 0xA9B JUMPI DUP2 SWAP1 POP JUMPDEST PUSH2 0xAAF PUSH2 0xAA7 DUP6 PUSH2 0x96F JUMP JUMPDEST DUP4 ADD DUP3 PUSH2 0xA4F JUMP JUMPDEST POP POP JUMPDEST POP POP POP JUMP JUMPDEST PUSH0 DUP3 DUP3 SHR SWAP1 POP SWAP3 SWAP2 POP POP JUMP JUMPDEST PUSH0 PUSH2 0xAD2 PUSH0 NOT DUP5 PUSH1 0x8 MUL PUSH2 0xAB7 JUMP JUMPDEST NOT DUP1 DUP4 AND SWAP2 POP POP SWAP3 SWAP2 POP POP JUMP JUMPDEST PUSH0 PUSH2 0xAEA DUP4 DUP4 PUSH2 0xAC3 JUMP JUMPDEST SWAP2 POP DUP3 PUSH1 0x2 MUL DUP3 OR SWAP1 POP SWAP3 SWAP2 POP POP JUMP JUMPDEST PUSH2 0xB03 DUP3 PUSH2 0x84E JUMP JUMPDEST PUSH8 0xFFFFFFFFFFFFFFFF DUP2 GT ISZERO PUSH2 0xB1C JUMPI PUSH2 0xB1B PUSH2 0x5EA JUMP JUMPDEST JUMPDEST PUSH2 0xB26 DUP3 SLOAD PUSH2 0x92D JUMP JUMPDEST PUSH2 0xB31 DUP3 DUP3 DUP6 PUSH2 0xA71 JUMP JUMPDEST PUSH0 PUSH1 0x20 SWAP1 POP PUSH1 0x1F DUP4 GT PUSH1 0x1 DUP2 EQ PUSH2 0xB62 JUMPI PUSH0 DUP5 ISZERO PUSH2 0xB50 JUMPI DUP3 DUP8 ADD MLOAD SWAP1 POP JUMPDEST PUSH2 0xB5A DUP6 DUP3 PUSH2 0xADF JUMP JUMPDEST DUP7 SSTORE POP PUSH2 0xBC1 JUMP JUMPDEST PUSH1 0x1F NOT DUP5 AND PUSH2 0xB70 DUP7 PUSH2 0x95D JUMP JUMPDEST PUSH0 JUMPDEST DUP3 DUP2 LT ISZERO PUSH2 0xB97 JUMPI DUP5 DUP10 ADD MLOAD DUP3 SSTORE PUSH1 0x1 DUP3 ADD SWAP2 POP PUSH1 0x20 DUP6 ADD SWAP5 POP PUSH1 0x20 DUP2 ADD SWAP1 POP PUSH2 0xB72 JUMP JUMPDEST DUP7 DUP4 LT ISZERO PUSH2 0xBB4 JUMPI DUP5 DUP10 ADD MLOAD PUSH2 0xBB0 PUSH1 0x1F DUP10 AND DUP3 PUSH2 0xAC3 JUMP JUMPDEST DUP4 SSTORE POP JUMPDEST PUSH1 0x1 PUSH1 0x2 DUP9 MUL ADD DUP9 SSTORE POP POP POP JUMPDEST POP POP POP POP POP POP JUMP JUMPDEST PUSH32 0x4E616D65206D757374206E6F7420626520656D70747900000000000000000000 PUSH0 DUP3 ADD MSTORE POP JUMP JUMPDEST PUSH0 PUSH2 0xBFD PUSH1 0x16 DUP4 PUSH2 0x858 JUMP JUMPDEST SWAP2 POP PUSH2 0xC08 DUP3 PUSH2 0xBC9 JUMP JUMPDEST PUSH1 0x20 DUP3 ADD SWAP1 POP SWAP2 SWAP1 POP JUMP JUMPDEST PUSH0 PUSH1 0x20 DUP3 ADD SWAP1 POP DUP2 DUP2 SUB PUSH0 DUP4 ADD MSTORE PUSH2 0xC2A DUP2 PUSH2 0xBF1 JUMP JUMPDEST SWAP1 POP SWAP2 SWAP1 POP JUMP JUMPDEST PUSH32 0x416765206D7573742062652067726561746572207468616E207A65726F000000 PUSH0 DUP3 ADD MSTORE POP JUMP JUMPDEST PUSH0 PUSH2 0xC65 PUSH1 0x1D DUP4 PUSH2 0x858 JUMP JUMPDEST SWAP2 POP PUSH2 0xC70 DUP3 PUSH2 0xC31 JUMP JUMPDEST PUSH1 0x20 DUP3 ADD SWAP1 POP SWAP2 SWAP1 POP JUMP JUMPDEST PUSH0 PUSH1 0x20 DUP3 ADD SWAP1 POP DUP2 DUP2 SUB PUSH0 DUP4 ADD MSTORE PUSH2 0xC92 DUP2 PUSH2 0xC59 JUMP JUMPDEST SWAP1 POP SWAP2 SWAP1 POP JUMP JUMPDEST PUSH32 0x456D61696C206D757374206E6F7420626520656D707479000000000000000000 PUSH0 DUP3 ADD MSTORE POP JUMP JUMPDEST PUSH0 PUSH2 0xCCD PUSH1 0x17 DUP4 PUSH2 0x858 JUMP JUMPDEST SWAP2 POP PUSH2 0xCD8 DUP3 PUSH2 0xC99 JUMP JUMPDEST PUSH1 0x20 DUP3 ADD SWAP1 POP SWAP2 SWAP1 POP JUMP JUMPDEST PUSH0 PUSH1 0x20 DUP3 ADD SWAP1 POP DUP2 DUP2 SUB PUSH0 DUP4 ADD MSTORE PUSH2 0xCFA DUP2 PUSH2 0xCC1 JUMP JUMPDEST SWAP1 POP SWAP2 SWAP1 POP JUMP JUMPDEST PUSH32 0x4964656E74697479206E6F7420666F756E640000000000000000000000000000 PUSH0 DUP3 ADD MSTORE POP JUMP JUMPDEST PUSH0 PUSH2 0xD35 PUSH1 0x12 DUP4 PUSH2 0x858 JUMP JUMPDEST SWAP2 POP PUSH2 0xD40 DUP3 PUSH2 0xD01 JUMP JUMPDEST PUSH1 0x20 DUP3 ADD SWAP1 POP SWAP2 SWAP1 POP JUMP JUMPDEST PUSH0 PUSH1 0x20 DUP3 ADD SWAP1 POP DUP2 DUP2 SUB PUSH0 DUP4 ADD MSTORE PUSH2 0xD62 DUP2 PUSH2 0xD29 JUMP JUMPDEST SWAP1 POP SWAP2 SWAP1 POP JUMP INVALID LOG2 PUSH5 0x6970667358 0x22 SLT KECCAK256 BALANCE DUP6 PUSH14 0xBE520F0B9E91CBA524E036A59668 DUP1 0xC4 0xDB PUSH2 0xE85E PUSH22 0xC970492964B84ECB64736F6C634300081A0033000000 "
		},
		"gasEstimates": {
			"creation": {
				"codeDepositCost": "697400",
				"executionCost": "726",
				"totalCost": "698126"
			},
			"external": {
				"getIdentity(address)": "infinite",
				"identities(address)": "infinite",
				"registerIdentity(string,uint256,string)": "infinite",
				"updateIdentity(string,uint256,string)": "infinite"
			}
		},
		"methodIdentifiers": {
			"getIdentity(address)": "2fea7b81",
			"identities(address)": "f653b81e",
			"registerIdentity(string,uint256,string)": "22428baa",
			"updateIdentity(string,uint256,string)": "16b58356"
		}
	},
	"abi": [
		{
			"inputs": [
				{
					"internalType": "address",
					"name": "_address",
					"type": "address"
				}
			],
			"name": "getIdentity",
			"outputs": [
				{
					"internalType": "string",
					"name": "",
					"type": "string"
				},
				{
					"internalType": "uint256",
					"name": "",
					"type": "uint256"
				},
				{
					"internalType": "string",
					"name": "",
					"type": "string"
				}
			],
			"stateMutability": "view",
			"type": "function"
		},
		{
			"inputs": [
				{
					"internalType": "address",
					"name": "",
					"type": "address"
				}
			],
			"name": "identities",
			"outputs": [
				{
					"internalType": "string",
					"name": "name",
					"type": "string"
				},
				{
					"internalType": "uint256",
					"name": "age",
					"type": "uint256"
				},
				{
					"internalType": "string",
					"name": "email",
					"type": "string"
				}
			],
			"stateMutability": "view",
			"type": "function"
		},
		{
			"inputs": [
				{
					"internalType": "string",
					"name": "_name",
					"type": "string"
				},
				{
					"internalType": "uint256",
					"name": "_age",
					"type": "uint256"
				},
				{
					"internalType": "string",
					"name": "_email",
					"type": "string"
				}
			],
			"name": "registerIdentity",
			"outputs": [],
			"stateMutability": "nonpayable",
			"type": "function"
		},
		{
			"inputs": [
				{
					"internalType": "string",
					"name": "_name",
					"type": "string"
				},
				{
					"internalType": "uint256",
					"name": "_age",
					"type": "uint256"
				},
				{
					"internalType": "string",
					"name": "_email",
					"type": "string"
				}
			],
			"name": "updateIdentity",
			"outputs": [],
			"stateMutability": "nonpayable",
			"type": "function"
		}
	]
}