{
	"data": {
		"bytecode": {
			"linkReferences": {},
			"object": "6080604052348015600e575f80fd5b506110258061001c5f395ff3fe608060405260043610610033575f3560e01c80638642269e14610037578063b15247d914610053578063b9db15b41461007b575b5f80fd5b610051600480360381019061004c9190610697565b6100ba565b005b34801561005e575f80fd5b50610079600480360381019061007491906107fe565b61035a565b005b348015610086575f80fd5b506100a1600480360381019061009c9190610697565b61051d565b6040516100b19493929190610920565b60405180910390f35b5f805f8381526020019081526020015f2090505f815f015403610112576040517f08c379a0000000000000000000000000000000000000000000000000000000008152600401610109906109b4565b60405180910390fd5b8060030160149054906101000a900460ff1615610164576040517f08c379a000000000000000000000000000000000000000000000000000000000815260040161015b90610a1c565b60405180910390fd5b806003015f9054906101000a900473ffffffffffffffffffffffffffffffffffffffff1673ffffffffffffffffffffffffffffffffffffffff163373ffffffffffffffffffffffffffffffffffffffff16036101f5576040517f08c379a00000000000000000000000000000000000000000000000000000000081526004016101ec90610aaa565b60405180910390fd5b7f9ad4ecfaf27ea0cbeebee0ed92fe15c8a84975f1e3d45ccfc526d7751dcf98ff815f015433604051610229929190610ac8565b60405180910390a160018160030160146101000a81548160ff0219169083151502179055505f816003015f9054906101000a900473ffffffffffffffffffffffffffffffffffffffff1673ffffffffffffffffffffffffffffffffffffffff163460405161029690610b1c565b5f6040518083038185875af1925050503d805f81146102d0576040519150601f19603f3d011682016040523d82523d5f602084013e6102d5565b606091505b5050905080610319576040517f08c379a000000000000000000000000000000000000000000000000000000000815260040161031090610b7a565b60405180910390fd5b7f9ad4ecfaf27ea0cbeebee0ed92fe15c8a84975f1e3d45ccfc526d7751dcf98ff825f01543360405161034d929190610ac8565b60405180910390a1505050565b5f82511161039d576040517f08c379a000000000000000000000000000000000000000000000000000000000815260040161039490610be2565b60405180910390fd5b5f81116103df576040517f08c379a00000000000000000000000000000000000000000000000000000000081526004016103d690610c4a565b60405180910390fd5b60015f8154809291906103f190610c95565b91905055506040518060a0016040528060015481526020018381526020018281526020013373ffffffffffffffffffffffffffffffffffffffff1681526020015f15158152505f8060015481526020019081526020015f205f820151815f015560208201518160010190816104669190610ed6565b50604082015181600201556060820151816003015f6101000a81548173ffffffffffffffffffffffffffffffffffffffff021916908373ffffffffffffffffffffffffffffffffffffffff16021790555060808201518160030160146101000a81548160ff0219169083151502179055509050507f52402cafb2ecec722b103e8f203f83362148c168659dc96678c2c6850d12dd9f6001548383336040516105119493929190610fa5565b60405180910390a15050565b60605f805f805f808781526020019081526020015f2090505f815f01540361057a576040517f08c379a0000000000000000000000000000000000000000000000000000000008152600401610571906109b4565b60405180910390fd5b806001018160020154826003015f9054906101000a900473ffffffffffffffffffffffffffffffffffffffff168360030160149054906101000a900460ff168380546105c590610d09565b80601f01602080910402602001604051908101604052809291908181526020018280546105f190610d09565b801561063c5780601f106106135761010080835404028352916020019161063c565b820191905f5260205f20905b81548152906001019060200180831161061f57829003601f168201915b505050505093509450945094509450509193509193565b5f604051905090565b5f80fd5b5f80fd5b5f819050919050565b61067681610664565b8114610680575f80fd5b50565b5f813590506106918161066d565b92915050565b5f602082840312156106ac576106ab61065c565b5b5f6106b984828501610683565b91505092915050565b5f80fd5b5f80fd5b5f601f19601f8301169050919050565b7f4e487b71000000000000000000000000000000000000000000000000000000005f52604160045260245ffd5b610710826106ca565b810181811067ffffffffffffffff8211171561072f5761072e6106da565b5b80604052505050565b5f610741610653565b905061074d8282610707565b919050565b5f67ffffffffffffffff82111561076c5761076b6106da565b5b610775826106ca565b9050602081019050919050565b828183375f83830152505050565b5f6107a261079d84610752565b610738565b9050828152602081018484840111156107be576107bd6106c6565b5b6107c9848285610782565b509392505050565b5f82601f8301126107e5576107e46106c2565b5b81356107f5848260208601610790565b91505092915050565b5f80604083850312156108145761081361065c565b5b5f83013567ffffffffffffffff81111561083157610830610660565b5b61083d858286016107d1565b925050602061084e85828601610683565b9150509250929050565b5f81519050919050565b5f82825260208201905092915050565b8281835e5f83830152505050565b5f61088a82610858565b6108948185610862565b93506108a4818560208601610872565b6108ad816106ca565b840191505092915050565b6108c181610664565b82525050565b5f73ffffffffffffffffffffffffffffffffffffffff82169050919050565b5f6108f0826108c7565b9050919050565b610900816108e6565b82525050565b5f8115159050919050565b61091a81610906565b82525050565b5f6080820190508181035f8301526109388187610880565b905061094760208301866108b8565b61095460408301856108f7565b6109616060830184610911565b95945050505050565b7f50726f6475637420646f6573206e6f74206578697374000000000000000000005f82015250565b5f61099e601683610862565b91506109a98261096a565b602082019050919050565b5f6020820190508181035f8301526109cb81610992565b9050919050565b7f50726f6475637420686173206265656e20736f6c642e000000000000000000005f82015250565b5f610a06601683610862565b9150610a11826109d2565b602082019050919050565b5f6020820190508181035f830152610a33816109fa565b9050919050565b7f53656c6c65722063616e6e6f7420627579207468656972206f776e2070726f645f8201527f7563742e00000000000000000000000000000000000000000000000000000000602082015250565b5f610a94602483610862565b9150610a9f82610a3a565b604082019050919050565b5f6020820190508181035f830152610ac181610a88565b9050919050565b5f604082019050610adb5f8301856108b8565b610ae860208301846108f7565b9392505050565b5f81905092915050565b50565b5f610b075f83610aef565b9150610b1282610af9565b5f82019050919050565b5f610b2682610afc565b9150819050919050565b7f5472616e73666572206661696c656400000000000000000000000000000000005f82015250565b5f610b64600f83610862565b9150610b6f82610b30565b602082019050919050565b5f6020820190508181035f830152610b9181610b58565b9050919050565b7f4e6f206e616d6520646174612e000000000000000000000000000000000000005f82015250565b5f610bcc600d83610862565b9150610bd782610b98565b602082019050919050565b5f6020820190508181035f830152610bf981610bc0565b9050919050565b7f5072696365206d7573742062652067726561746572207468616e20302e0000005f82015250565b5f610c34601d83610862565b9150610c3f82610c00565b602082019050919050565b5f6020820190508181035f830152610c6181610c28565b9050919050565b7f4e487b71000000000000000000000000000000000000000000000000000000005f52601160045260245ffd5b5f610c9f82610664565b91507fffffffffffffffffffffffffffffffffffffffffffffffffffffffffffffffff8203610cd157610cd0610c68565b5b600182019050919050565b7f4e487b71000000000000000000000000000000000000000000000000000000005f52602260045260245ffd5b5f6002820490506001821680610d2057607f821691505b602082108103610d3357610d32610cdc565b5b50919050565b5f819050815f5260205f209050919050565b5f6020601f8301049050919050565b5f82821b905092915050565b5f60088302610d957fffffffffffffffffffffffffffffffffffffffffffffffffffffffffffffffff82610d5a565b610d9f8683610d5a565b95508019841693508086168417925050509392505050565b5f819050919050565b5f610dda610dd5610dd084610664565b610db7565b610664565b9050919050565b5f819050919050565b610df383610dc0565b610e07610dff82610de1565b848454610d66565b825550505050565b5f90565b610e1b610e0f565b610e26818484610dea565b505050565b5b81811015610e4957610e3e5f82610e13565b600181019050610e2c565b5050565b601f821115610e8e57610e5f81610d39565b610e6884610d4b565b81016020851015610e77578190505b610e8b610e8385610d4b565b830182610e2b565b50505b505050565b5f82821c905092915050565b5f610eae5f1984600802610e93565b1980831691505092915050565b5f610ec68383610e9f565b9150826002028217905092915050565b610edf82610858565b67ffffffffffffffff811115610ef857610ef76106da565b5b610f028254610d09565b610f0d828285610e4d565b5f60209050601f831160018114610f3e575f8415610f2c578287015190505b610f368582610ebb565b865550610f9d565b601f198416610f4c86610d39565b5f5b82811015610f7357848901518255600182019150602085019450602081019050610f4e565b86831015610f905784890151610f8c601f891682610e9f565b8355505b6001600288020188555050505b505050505050565b5f608082019050610fb85f8301876108b8565b8181036020830152610fca8186610880565b9050610fd960408301856108b8565b610fe660608301846108f7565b9594505050505056fea264697066735822122006b9dc4b53e3edd49a7ffb40c249e4a684f705d1ef14651696cd5b829ad4c35764736f6c634300081a0033",
			"opcodes": "PUSH1 0x80 PUSH1 0x40 MSTORE CALLVALUE DUP1 ISZERO PUSH1 0xE JUMPI PUSH0 DUP1 REVERT JUMPDEST POP PUSH2 0x1025 DUP1 PUSH2 0x1C PUSH0 CODECOPY PUSH0 RETURN INVALID PUSH1 0x80 PUSH1 0x40 MSTORE PUSH1 0x4 CALLDATASIZE LT PUSH2 0x33 JUMPI PUSH0 CALLDATALOAD PUSH1 0xE0 SHR DUP1 PUSH4 0x8642269E EQ PUSH2 0x37 JUMPI DUP1 PUSH4 0xB15247D9 EQ PUSH2 0x53 JUMPI DUP1 PUSH4 0xB9DB15B4 EQ PUSH2 0x7B JUMPI JUMPDEST PUSH0 DUP1 REVERT JUMPDEST PUSH2 0x51 PUSH1 0x4 DUP1 CALLDATASIZE SUB DUP2 ADD SWAP1 PUSH2 0x4C SWAP2 SWAP1 PUSH2 0x697 JUMP JUMPDEST PUSH2 0xBA JUMP JUMPDEST STOP JUMPDEST CALLVALUE DUP1 ISZERO PUSH2 0x5E JUMPI PUSH0 DUP1 REVERT JUMPDEST POP PUSH2 0x79 PUSH1 0x4 DUP1 CALLDATASIZE SUB DUP2 ADD SWAP1 PUSH2 0x74 SWAP2 SWAP1 PUSH2 0x7FE JUMP JUMPDEST PUSH2 0x35A JUMP JUMPDEST STOP JUMPDEST CALLVALUE DUP1 ISZERO PUSH2 0x86 JUMPI PUSH0 DUP1 REVERT JUMPDEST POP PUSH2 0xA1 PUSH1 0x4 DUP1 CALLDATASIZE SUB DUP2 ADD SWAP1 PUSH2 0x9C SWAP2 SWAP1 PUSH2 0x697 JUMP JUMPDEST PUSH2 0x51D JUMP JUMPDEST PUSH1 0x40 MLOAD PUSH2 0xB1 SWAP5 SWAP4 SWAP3 SWAP2 SWAP1 PUSH2 0x920 JUMP JUMPDEST PUSH1 0x40 MLOAD DUP1 SWAP2 SUB SWAP1 RETURN JUMPDEST PUSH0 DUP1 PUSH0 DUP4 DUP2 MSTORE PUSH1 0x20 ADD SWAP1 DUP2 MSTORE PUSH1 0x20 ADD PUSH0 KECCAK256 SWAP1 POP PUSH0 DUP2 PUSH0 ADD SLOAD SUB PUSH2 0x112 JUMPI PUSH1 0x40 MLOAD PUSH32 0x8C379A000000000000000000000000000000000000000000000000000000000 DUP2 MSTORE PUSH1 0x4 ADD PUSH2 0x109 SWAP1 PUSH2 0x9B4 JUMP JUMPDEST PUSH1 0x40 MLOAD DUP1 SWAP2 SUB SWAP1 REVERT JUMPDEST DUP1 PUSH1 0x3 ADD PUSH1 0x14 SWAP1 SLOAD SWAP1 PUSH2 0x100 EXP SWAP1 DIV PUSH1 0xFF AND ISZERO PUSH2 0x164 JUMPI PUSH1 0x40 MLOAD PUSH32 0x8C379A000000000000000000000000000000000000000000000000000000000 DUP2 MSTORE PUSH1 0x4 ADD PUSH2 0x15B SWAP1 PUSH2 0xA1C JUMP JUMPDEST PUSH1 0x40 MLOAD DUP1 SWAP2 SUB SWAP1 REVERT JUMPDEST DUP1 PUSH1 0x3 ADD PUSH0 SWAP1 SLOAD SWAP1 PUSH2 0x100 EXP SWAP1 DIV PUSH20 0xFFFFFFFFFFFFFFFFFFFFFFFFFFFFFFFFFFFFFFFF AND PUSH20 0xFFFFFFFFFFFFFFFFFFFFFFFFFFFFFFFFFFFFFFFF AND CALLER PUSH20 0xFFFFFFFFFFFFFFFFFFFFFFFFFFFFFFFFFFFFFFFF AND SUB PUSH2 0x1F5 JUMPI PUSH1 0x40 MLOAD PUSH32 0x8C379A000000000000000000000000000000000000000000000000000000000 DUP2 MSTORE PUSH1 0x4 ADD PUSH2 0x1EC SWAP1 PUSH2 0xAAA JUMP JUMPDEST PUSH1 0x40 MLOAD DUP1 SWAP2 SUB SWAP1 REVERT JUMPDEST PUSH32 0x9AD4ECFAF27EA0CBEEBEE0ED92FE15C8A84975F1E3D45CCFC526D7751DCF98FF DUP2 PUSH0 ADD SLOAD CALLER PUSH1 0x40 MLOAD PUSH2 0x229 SWAP3 SWAP2 SWAP1 PUSH2 0xAC8 JUMP JUMPDEST PUSH1 0x40 MLOAD DUP1 SWAP2 SUB SWAP1 LOG1 PUSH1 0x1 DUP2 PUSH1 0x3 ADD PUSH1 0x14 PUSH2 0x100 EXP DUP2 SLOAD DUP2 PUSH1 0xFF MUL NOT AND SWAP1 DUP4 ISZERO ISZERO MUL OR SWAP1 SSTORE POP PUSH0 DUP2 PUSH1 0x3 ADD PUSH0 SWAP1 SLOAD SWAP1 PUSH2 0x100 EXP SWAP1 DIV PUSH20 0xFFFFFFFFFFFFFFFFFFFFFFFFFFFFFFFFFFFFFFFF AND PUSH20 0xFFFFFFFFFFFFFFFFFFFFFFFFFFFFFFFFFFFFFFFF AND CALLVALUE PUSH1 0x40 MLOAD PUSH2 0x296 SWAP1 PUSH2 0xB1C JUMP JUMPDEST PUSH0 PUSH1 0x40 MLOAD DUP1 DUP4 SUB DUP2 DUP6 DUP8 GAS CALL SWAP3 POP POP POP RETURNDATASIZE DUP1 PUSH0 DUP2 EQ PUSH2 0x2D0 JUMPI PUSH1 0x40 MLOAD SWAP2 POP PUSH1 0x1F NOT PUSH1 0x3F RETURNDATASIZE ADD AND DUP3 ADD PUSH1 0x40 MSTORE RETURNDATASIZE DUP3 MSTORE RETURNDATASIZE PUSH0 PUSH1 0x20 DUP5 ADD RETURNDATACOPY PUSH2 0x2D5 JUMP JUMPDEST PUSH1 0x60 SWAP2 POP JUMPDEST POP POP SWAP1 POP DUP1 PUSH2 0x319 JUMPI PUSH1 0x40 MLOAD PUSH32 0x8C379A000000000000000000000000000000000000000000000000000000000 DUP2 MSTORE PUSH1 0x4 ADD PUSH2 0x310 SWAP1 PUSH2 0xB7A JUMP JUMPDEST PUSH1 0x40 MLOAD DUP1 SWAP2 SUB SWAP1 REVERT JUMPDEST PUSH32 0x9AD4ECFAF27EA0CBEEBEE0ED92FE15C8A84975F1E3D45CCFC526D7751DCF98FF DUP3 PUSH0 ADD SLOAD CALLER PUSH1 0x40 MLOAD PUSH2 0x34D SWAP3 SWAP2 SWAP1 PUSH2 0xAC8 JUMP JUMPDEST PUSH1 0x40 MLOAD DUP1 SWAP2 SUB SWAP1 LOG1 POP POP POP JUMP JUMPDEST PUSH0 DUP3 MLOAD GT PUSH2 0x39D JUMPI PUSH1 0x40 MLOAD PUSH32 0x8C379A000000000000000000000000000000000000000000000000000000000 DUP2 MSTORE PUSH1 0x4 ADD PUSH2 0x394 SWAP1 PUSH2 0xBE2 JUMP JUMPDEST PUSH1 0x40 MLOAD DUP1 SWAP2 SUB SWAP1 REVERT JUMPDEST PUSH0 DUP2 GT PUSH2 0x3DF JUMPI PUSH1 0x40 MLOAD PUSH32 0x8C379A000000000000000000000000000000000000000000000000000000000 DUP2 MSTORE PUSH1 0x4 ADD PUSH2 0x3D6 SWAP1 PUSH2 0xC4A JUMP JUMPDEST PUSH1 0x40 MLOAD DUP1 SWAP2 SUB SWAP1 REVERT JUMPDEST PUSH1 0x1 PUSH0 DUP2 SLOAD DUP1 SWAP3 SWAP2 SWAP1 PUSH2 0x3F1 SWAP1 PUSH2 0xC95 JUMP JUMPDEST SWAP2 SWAP1 POP SSTORE POP PUSH1 0x40 MLOAD DUP1 PUSH1 0xA0 ADD PUSH1 0x40 MSTORE DUP1 PUSH1 0x1 SLOAD DUP2 MSTORE PUSH1 0x20 ADD DUP4 DUP2 MSTORE PUSH1 0x20 ADD DUP3 DUP2 MSTORE PUSH1 0x20 ADD CALLER PUSH20 0xFFFFFFFFFFFFFFFFFFFFFFFFFFFFFFFFFFFFFFFF AND DUP2 MSTORE PUSH1 0x20 ADD PUSH0 ISZERO ISZERO DUP2 MSTORE POP PUSH0 DUP1 PUSH1 0x1 SLOAD DUP2 MSTORE PUSH1 0x20 ADD SWAP1 DUP2 MSTORE PUSH1 0x20 ADD PUSH0 KECCAK256 PUSH0 DUP3 ADD MLOAD DUP2 PUSH0 ADD SSTORE PUSH1 0x20 DUP3 ADD MLOAD DUP2 PUSH1 0x1 ADD SWAP1 DUP2 PUSH2 0x466 SWAP2 SWAP1 PUSH2 0xED6 JUMP JUMPDEST POP PUSH1 0x40 DUP3 ADD MLOAD DUP2 PUSH1 0x2 ADD SSTORE PUSH1 0x60 DUP3 ADD MLOAD DUP2 PUSH1 0x3 ADD PUSH0 PUSH2 0x100 EXP DUP2 SLOAD DUP2 PUSH20 0xFFFFFFFFFFFFFFFFFFFFFFFFFFFFFFFFFFFFFFFF MUL NOT AND SWAP1 DUP4 PUSH20 0xFFFFFFFFFFFFFFFFFFFFFFFFFFFFFFFFFFFFFFFF AND MUL OR SWAP1 SSTORE POP PUSH1 0x80 DUP3 ADD MLOAD DUP2 PUSH1 0x3 ADD PUSH1 0x14 PUSH2 0x100 EXP DUP2 SLOAD DUP2 PUSH1 0xFF MUL NOT AND SWAP1 DUP4 ISZERO ISZERO MUL OR SWAP1 SSTORE POP SWAP1 POP POP PUSH32 0x52402CAFB2ECEC722B103E8F203F83362148C168659DC96678C2C6850D12DD9F PUSH1 0x1 SLOAD DUP4 DUP4 CALLER PUSH1 0x40 MLOAD PUSH2 0x511 SWAP5 SWAP4 SWAP3 SWAP2 SWAP1 PUSH2 0xFA5 JUMP JUMPDEST PUSH1 0x40 MLOAD DUP1 SWAP2 SUB SWAP1 LOG1 POP POP JUMP JUMPDEST PUSH1 0x60 PUSH0 DUP1 PUSH0 DUP1 PUSH0 DUP1 DUP8 DUP2 MSTORE PUSH1 0x20 ADD SWAP1 DUP2 MSTORE PUSH1 0x20 ADD PUSH0 KECCAK256 SWAP1 POP PUSH0 DUP2 PUSH0 ADD SLOAD SUB PUSH2 0x57A JUMPI PUSH1 0x40 MLOAD PUSH32 0x8C379A000000000000000000000000000000000000000000000000000000000 DUP2 MSTORE PUSH1 0x4 ADD PUSH2 0x571 SWAP1 PUSH2 0x9B4 JUMP JUMPDEST PUSH1 0x40 MLOAD DUP1 SWAP2 SUB SWAP1 REVERT JUMPDEST DUP1 PUSH1 0x1 ADD DUP2 PUSH1 0x2 ADD SLOAD DUP3 PUSH1 0x3 ADD PUSH0 SWAP1 SLOAD SWAP1 PUSH2 0x100 EXP SWAP1 DIV PUSH20 0xFFFFFFFFFFFFFFFFFFFFFFFFFFFFFFFFFFFFFFFF AND DUP4 PUSH1 0x3 ADD PUSH1 0x14 SWAP1 SLOAD SWAP1 PUSH2 0x100 EXP SWAP1 DIV PUSH1 0xFF AND DUP4 DUP1 SLOAD PUSH2 0x5C5 SWAP1 PUSH2 0xD09 JUMP JUMPDEST DUP1 PUSH1 0x1F ADD PUSH1 0x20 DUP1 SWAP2 DIV MUL PUSH1 0x20 ADD PUSH1 0x40 MLOAD SWAP1 DUP2 ADD PUSH1 0x40 MSTORE DUP1 SWAP3 SWAP2 SWAP1 DUP2 DUP2 MSTORE PUSH1 0x20 ADD DUP3 DUP1 SLOAD PUSH2 0x5F1 SWAP1 PUSH2 0xD09 JUMP JUMPDEST DUP1 ISZERO PUSH2 0x63C JUMPI DUP1 PUSH1 0x1F LT PUSH2 0x613 JUMPI PUSH2 0x100 DUP1 DUP4 SLOAD DIV MUL DUP4 MSTORE SWAP2 PUSH1 0x20 ADD SWAP2 PUSH2 0x63C JUMP JUMPDEST DUP3 ADD SWAP2 SWAP1 PUSH0 MSTORE PUSH1 0x20 PUSH0 KECCAK256 SWAP1 JUMPDEST DUP2 SLOAD DUP2 MSTORE SWAP1 PUSH1 0x1 ADD SWAP1 PUSH1 0x20 ADD DUP1 DUP4 GT PUSH2 0x61F JUMPI DUP3 SWAP1 SUB PUSH1 0x1F AND DUP3 ADD SWAP2 JUMPDEST POP POP POP POP POP SWAP4 POP SWAP5 POP SWAP5 POP SWAP5 POP SWAP5 POP POP SWAP2 SWAP4 POP SWAP2 SWAP4 JUMP JUMPDEST PUSH0 PUSH1 0x40 MLOAD SWAP1 POP SWAP1 JUMP JUMPDEST PUSH0 DUP1 REVERT JUMPDEST PUSH0 DUP1 REVERT JUMPDEST PUSH0 DUP2 SWAP1 POP SWAP2 SWAP1 POP JUMP JUMPDEST PUSH2 0x676 DUP2 PUSH2 0x664 JUMP JUMPDEST DUP2 EQ PUSH2 0x680 JUMPI PUSH0 DUP1 REVERT JUMPDEST POP JUMP JUMPDEST PUSH0 DUP2 CALLDATALOAD SWAP1 POP PUSH2 0x691 DUP2 PUSH2 0x66D JUMP JUMPDEST SWAP3 SWAP2 POP POP JUMP JUMPDEST PUSH0 PUSH1 0x20 DUP3 DUP5 SUB SLT ISZERO PUSH2 0x6AC JUMPI PUSH2 0x6AB PUSH2 0x65C JUMP JUMPDEST JUMPDEST PUSH0 PUSH2 0x6B9 DUP5 DUP3 DUP6 ADD PUSH2 0x683 JUMP JUMPDEST SWAP2 POP POP SWAP3 SWAP2 POP POP JUMP JUMPDEST PUSH0 DUP1 REVERT JUMPDEST PUSH0 DUP1 REVERT JUMPDEST PUSH0 PUSH1 0x1F NOT PUSH1 0x1F DUP4 ADD AND SWAP1 POP SWAP2 SWAP1 POP JUMP JUMPDEST PUSH32 0x4E487B7100000000000000000000000000000000000000000000000000000000 PUSH0 MSTORE PUSH1 0x41 PUSH1 0x4 MSTORE PUSH1 0x24 PUSH0 REVERT JUMPDEST PUSH2 0x710 DUP3 PUSH2 0x6CA JUMP JUMPDEST DUP2 ADD DUP2 DUP2 LT PUSH8 0xFFFFFFFFFFFFFFFF DUP3 GT OR ISZERO PUSH2 0x72F JUMPI PUSH2 0x72E PUSH2 0x6DA JUMP JUMPDEST JUMPDEST DUP1 PUSH1 0x40 MSTORE POP POP POP JUMP JUMPDEST PUSH0 PUSH2 0x741 PUSH2 0x653 JUMP JUMPDEST SWAP1 POP PUSH2 0x74D DUP3 DUP3 PUSH2 0x707 JUMP JUMPDEST SWAP2 SWAP1 POP JUMP JUMPDEST PUSH0 PUSH8 0xFFFFFFFFFFFFFFFF DUP3 GT ISZERO PUSH2 0x76C JUMPI PUSH2 0x76B PUSH2 0x6DA JUMP JUMPDEST JUMPDEST PUSH2 0x775 DUP3 PUSH2 0x6CA JUMP JUMPDEST SWAP1 POP PUSH1 0x20 DUP2 ADD SWAP1 POP SWAP2 SWAP1 POP JUMP JUMPDEST DUP3 DUP2 DUP4 CALLDATACOPY PUSH0 DUP4 DUP4 ADD MSTORE POP POP POP JUMP JUMPDEST PUSH0 PUSH2 0x7A2 PUSH2 0x79D DUP5 PUSH2 0x752 JUMP JUMPDEST PUSH2 0x738 JUMP JUMPDEST SWAP1 POP DUP3 DUP2 MSTORE PUSH1 0x20 DUP2 ADD DUP5 DUP5 DUP5 ADD GT ISZERO PUSH2 0x7BE JUMPI PUSH2 0x7BD PUSH2 0x6C6 JUMP JUMPDEST JUMPDEST PUSH2 0x7C9 DUP5 DUP3 DUP6 PUSH2 0x782 JUMP JUMPDEST POP SWAP4 SWAP3 POP POP POP JUMP JUMPDEST PUSH0 DUP3 PUSH1 0x1F DUP4 ADD SLT PUSH2 0x7E5 JUMPI PUSH2 0x7E4 PUSH2 0x6C2 JUMP JUMPDEST JUMPDEST DUP2 CALLDATALOAD PUSH2 0x7F5 DUP5 DUP3 PUSH1 0x20 DUP7 ADD PUSH2 0x790 JUMP JUMPDEST SWAP2 POP POP SWAP3 SWAP2 POP POP JUMP JUMPDEST PUSH0 DUP1 PUSH1 0x40 DUP4 DUP6 SUB SLT ISZERO PUSH2 0x814 JUMPI PUSH2 0x813 PUSH2 0x65C JUMP JUMPDEST JUMPDEST PUSH0 DUP4 ADD CALLDATALOAD PUSH8 0xFFFFFFFFFFFFFFFF DUP2 GT ISZERO PUSH2 0x831 JUMPI PUSH2 0x830 PUSH2 0x660 JUMP JUMPDEST JUMPDEST PUSH2 0x83D DUP6 DUP3 DUP7 ADD PUSH2 0x7D1 JUMP JUMPDEST SWAP3 POP POP PUSH1 0x20 PUSH2 0x84E DUP6 DUP3 DUP7 ADD PUSH2 0x683 JUMP JUMPDEST SWAP2 POP POP SWAP3 POP SWAP3 SWAP1 POP JUMP JUMPDEST PUSH0 DUP2 MLOAD SWAP1 POP SWAP2 SWAP1 POP JUMP JUMPDEST PUSH0 DUP3 DUP3 MSTORE PUSH1 0x20 DUP3 ADD SWAP1 POP SWAP3 SWAP2 POP POP JUMP JUMPDEST DUP3 DUP2 DUP4 MCOPY PUSH0 DUP4 DUP4 ADD MSTORE POP POP POP JUMP JUMPDEST PUSH0 PUSH2 0x88A DUP3 PUSH2 0x858 JUMP JUMPDEST PUSH2 0x894 DUP2 DUP6 PUSH2 0x862 JUMP JUMPDEST SWAP4 POP PUSH2 0x8A4 DUP2 DUP6 PUSH1 0x20 DUP7 ADD PUSH2 0x872 JUMP JUMPDEST PUSH2 0x8AD DUP2 PUSH2 0x6CA JUMP JUMPDEST DUP5 ADD SWAP2 POP POP SWAP3 SWAP2 POP POP JUMP JUMPDEST PUSH2 0x8C1 DUP2 PUSH2 0x664 JUMP JUMPDEST DUP3 MSTORE POP POP JUMP JUMPDEST PUSH0 PUSH20 0xFFFFFFFFFFFFFFFFFFFFFFFFFFFFFFFFFFFFFFFF DUP3 AND SWAP1 POP SWAP2 SWAP1 POP JUMP JUMPDEST PUSH0 PUSH2 0x8F0 DUP3 PUSH2 0x8C7 JUMP JUMPDEST SWAP1 POP SWAP2 SWAP1 POP JUMP JUMPDEST PUSH2 0x900 DUP2 PUSH2 0x8E6 JUMP JUMPDEST DUP3 MSTORE POP POP JUMP JUMPDEST PUSH0 DUP2 ISZERO ISZERO SWAP1 POP SWAP2 SWAP1 POP JUMP JUMPDEST PUSH2 0x91A DUP2 PUSH2 0x906 JUMP JUMPDEST DUP3 MSTORE POP POP JUMP JUMPDEST PUSH0 PUSH1 0x80 DUP3 ADD SWAP1 POP DUP2 DUP2 SUB PUSH0 DUP4 ADD MSTORE PUSH2 0x938 DUP2 DUP8 PUSH2 0x880 JUMP JUMPDEST SWAP1 POP PUSH2 0x947 PUSH1 0x20 DUP4 ADD DUP7 PUSH2 0x8B8 JUMP JUMPDEST PUSH2 0x954 PUSH1 0x40 DUP4 ADD DUP6 PUSH2 0x8F7 JUMP JUMPDEST PUSH2 0x961 PUSH1 0x60 DUP4 ADD DUP5 PUSH2 0x911 JUMP JUMPDEST SWAP6 SWAP5 POP POP POP POP POP JUMP JUMPDEST PUSH32 0x50726F6475637420646F6573206E6F7420657869737400000000000000000000 PUSH0 DUP3 ADD MSTORE POP JUMP JUMPDEST PUSH0 PUSH2 0x99E PUSH1 0x16 DUP4 PUSH2 0x862 JUMP JUMPDEST SWAP2 POP PUSH2 0x9A9 DUP3 PUSH2 0x96A JUMP JUMPDEST PUSH1 0x20 DUP3 ADD SWAP1 POP SWAP2 SWAP1 POP JUMP JUMPDEST PUSH0 PUSH1 0x20 DUP3 ADD SWAP1 POP DUP2 DUP2 SUB PUSH0 DUP4 ADD MSTORE PUSH2 0x9CB DUP2 PUSH2 0x992 JUMP JUMPDEST SWAP1 POP SWAP2 SWAP1 POP JUMP JUMPDEST PUSH32 0x50726F6475637420686173206265656E20736F6C642E00000000000000000000 PUSH0 DUP3 ADD MSTORE POP JUMP JUMPDEST PUSH0 PUSH2 0xA06 PUSH1 0x16 DUP4 PUSH2 0x862 JUMP JUMPDEST SWAP2 POP PUSH2 0xA11 DUP3 PUSH2 0x9D2 JUMP JUMPDEST PUSH1 0x20 DUP3 ADD SWAP1 POP SWAP2 SWAP1 POP JUMP JUMPDEST PUSH0 PUSH1 0x20 DUP3 ADD SWAP1 POP DUP2 DUP2 SUB PUSH0 DUP4 ADD MSTORE PUSH2 0xA33 DUP2 PUSH2 0x9FA JUMP JUMPDEST SWAP1 POP SWAP2 SWAP1 POP JUMP JUMPDEST PUSH32 0x53656C6C65722063616E6E6F7420627579207468656972206F776E2070726F64 PUSH0 DUP3 ADD MSTORE PUSH32 0x7563742E00000000000000000000000000000000000000000000000000000000 PUSH1 0x20 DUP3 ADD MSTORE POP JUMP JUMPDEST PUSH0 PUSH2 0xA94 PUSH1 0x24 DUP4 PUSH2 0x862 JUMP JUMPDEST SWAP2 POP PUSH2 0xA9F DUP3 PUSH2 0xA3A JUMP JUMPDEST PUSH1 0x40 DUP3 ADD SWAP1 POP SWAP2 SWAP1 POP JUMP JUMPDEST PUSH0 PUSH1 0x20 DUP3 ADD SWAP1 POP DUP2 DUP2 SUB PUSH0 DUP4 ADD MSTORE PUSH2 0xAC1 DUP2 PUSH2 0xA88 JUMP JUMPDEST SWAP1 POP SWAP2 SWAP1 POP JUMP JUMPDEST PUSH0 PUSH1 0x40 DUP3 ADD SWAP1 POP PUSH2 0xADB PUSH0 DUP4 ADD DUP6 PUSH2 0x8B8 JUMP JUMPDEST PUSH2 0xAE8 PUSH1 0x20 DUP4 ADD DUP5 PUSH2 0x8F7 JUMP JUMPDEST SWAP4 SWAP3 POP POP POP JUMP JUMPDEST PUSH0 DUP2 SWAP1 POP SWAP3 SWAP2 POP POP JUMP JUMPDEST POP JUMP JUMPDEST PUSH0 PUSH2 0xB07 PUSH0 DUP4 PUSH2 0xAEF JUMP JUMPDEST SWAP2 POP PUSH2 0xB12 DUP3 PUSH2 0xAF9 JUMP JUMPDEST PUSH0 DUP3 ADD SWAP1 POP SWAP2 SWAP1 POP JUMP JUMPDEST PUSH0 PUSH2 0xB26 DUP3 PUSH2 0xAFC JUMP JUMPDEST SWAP2 POP DUP2 SWAP1 POP SWAP2 SWAP1 POP JUMP JUMPDEST PUSH32 0x5472616E73666572206661696C65640000000000000000000000000000000000 PUSH0 DUP3 ADD MSTORE POP JUMP JUMPDEST PUSH0 PUSH2 0xB64 PUSH1 0xF DUP4 PUSH2 0x862 JUMP JUMPDEST SWAP2 POP PUSH2 0xB6F DUP3 PUSH2 0xB30 JUMP JUMPDEST PUSH1 0x20 DUP3 ADD SWAP1 POP SWAP2 SWAP1 POP JUMP JUMPDEST PUSH0 PUSH1 0x20 DUP3 ADD SWAP1 POP DUP2 DUP2 SUB PUSH0 DUP4 ADD MSTORE PUSH2 0xB91 DUP2 PUSH2 0xB58 JUMP JUMPDEST SWAP1 POP SWAP2 SWAP1 POP JUMP JUMPDEST PUSH32 0x4E6F206E616D6520646174612E00000000000000000000000000000000000000 PUSH0 DUP3 ADD MSTORE POP JUMP JUMPDEST PUSH0 PUSH2 0xBCC PUSH1 0xD DUP4 PUSH2 0x862 JUMP JUMPDEST SWAP2 POP PUSH2 0xBD7 DUP3 PUSH2 0xB98 JUMP JUMPDEST PUSH1 0x20 DUP3 ADD SWAP1 POP SWAP2 SWAP1 POP JUMP JUMPDEST PUSH0 PUSH1 0x20 DUP3 ADD SWAP1 POP DUP2 DUP2 SUB PUSH0 DUP4 ADD MSTORE PUSH2 0xBF9 DUP2 PUSH2 0xBC0 JUMP JUMPDEST SWAP1 POP SWAP2 SWAP1 POP JUMP JUMPDEST PUSH32 0x5072696365206D7573742062652067726561746572207468616E20302E000000 PUSH0 DUP3 ADD MSTORE POP JUMP JUMPDEST PUSH0 PUSH2 0xC34 PUSH1 0x1D DUP4 PUSH2 0x862 JUMP JUMPDEST SWAP2 POP PUSH2 0xC3F DUP3 PUSH2 0xC00 JUMP JUMPDEST PUSH1 0x20 DUP3 ADD SWAP1 POP SWAP2 SWAP1 POP JUMP JUMPDEST PUSH0 PUSH1 0x20 DUP3 ADD SWAP1 POP DUP2 DUP2 SUB PUSH0 DUP4 ADD MSTORE PUSH2 0xC61 DUP2 PUSH2 0xC28 JUMP JUMPDEST SWAP1 POP SWAP2 SWAP1 POP JUMP JUMPDEST PUSH32 0x4E487B7100000000000000000000000000000000000000000000000000000000 PUSH0 MSTORE PUSH1 0x11 PUSH1 0x4 MSTORE PUSH1 0x24 PUSH0 REVERT JUMPDEST PUSH0 PUSH2 0xC9F DUP3 PUSH2 0x664 JUMP JUMPDEST SWAP2 POP PUSH32 0xFFFFFFFFFFFFFFFFFFFFFFFFFFFFFFFFFFFFFFFFFFFFFFFFFFFFFFFFFFFFFFFF DUP3 SUB PUSH2 0xCD1 JUMPI PUSH2 0xCD0 PUSH2 0xC68 JUMP JUMPDEST JUMPDEST PUSH1 0x1 DUP3 ADD SWAP1 POP SWAP2 SWAP1 POP JUMP JUMPDEST PUSH32 0x4E487B7100000000000000000000000000000000000000000000000000000000 PUSH0 MSTORE PUSH1 0x22 PUSH1 0x4 MSTORE PUSH1 0x24 PUSH0 REVERT JUMPDEST PUSH0 PUSH1 0x2 DUP3 DIV SWAP1 POP PUSH1 0x1 DUP3 AND DUP1 PUSH2 0xD20 JUMPI PUSH1 0x7F DUP3 AND SWAP2 POP JUMPDEST PUSH1 0x20 DUP3 LT DUP2 SUB PUSH2 0xD33 JUMPI PUSH2 0xD32 PUSH2 0xCDC JUMP JUMPDEST JUMPDEST POP SWAP2 SWAP1 POP JUMP JUMPDEST PUSH0 DUP2 SWAP1 POP DUP2 PUSH0 MSTORE PUSH1 0x20 PUSH0 KECCAK256 SWAP1 POP SWAP2 SWAP1 POP JUMP JUMPDEST PUSH0 PUSH1 0x20 PUSH1 0x1F DUP4 ADD DIV SWAP1 POP SWAP2 SWAP1 POP JUMP JUMPDEST PUSH0 DUP3 DUP3 SHL SWAP1 POP SWAP3 SWAP2 POP POP JUMP JUMPDEST PUSH0 PUSH1 0x8 DUP4 MUL PUSH2 0xD95 PUSH32 0xFFFFFFFFFFFFFFFFFFFFFFFFFFFFFFFFFFFFFFFFFFFFFFFFFFFFFFFFFFFFFFFF DUP3 PUSH2 0xD5A JUMP JUMPDEST PUSH2 0xD9F DUP7 DUP4 PUSH2 0xD5A JUMP JUMPDEST SWAP6 POP DUP1 NOT DUP5 AND SWAP4 POP DUP1 DUP7 AND DUP5 OR SWAP3 POP POP POP SWAP4 SWAP3 POP POP POP JUMP JUMPDEST PUSH0 DUP2 SWAP1 POP SWAP2 SWAP1 POP JUMP JUMPDEST PUSH0 PUSH2 0xDDA PUSH2 0xDD5 PUSH2 0xDD0 DUP5 PUSH2 0x664 JUMP JUMPDEST PUSH2 0xDB7 JUMP JUMPDEST PUSH2 0x664 JUMP JUMPDEST SWAP1 POP SWAP2 SWAP1 POP JUMP JUMPDEST PUSH0 DUP2 SWAP1 POP SWAP2 SWAP1 POP JUMP JUMPDEST PUSH2 0xDF3 DUP4 PUSH2 0xDC0 JUMP JUMPDEST PUSH2 0xE07 PUSH2 0xDFF DUP3 PUSH2 0xDE1 JUMP JUMPDEST DUP5 DUP5 SLOAD PUSH2 0xD66 JUMP JUMPDEST DUP3 SSTORE POP POP POP POP JUMP JUMPDEST PUSH0 SWAP1 JUMP JUMPDEST PUSH2 0xE1B PUSH2 0xE0F JUMP JUMPDEST PUSH2 0xE26 DUP2 DUP5 DUP5 PUSH2 0xDEA JUMP JUMPDEST POP POP POP JUMP JUMPDEST JUMPDEST DUP2 DUP2 LT ISZERO PUSH2 0xE49 JUMPI PUSH2 0xE3E PUSH0 DUP3 PUSH2 0xE13 JUMP JUMPDEST PUSH1 0x1 DUP2 ADD SWAP1 POP PUSH2 0xE2C JUMP JUMPDEST POP POP JUMP JUMPDEST PUSH1 0x1F DUP3 GT ISZERO PUSH2 0xE8E JUMPI PUSH2 0xE5F DUP2 PUSH2 0xD39 JUMP JUMPDEST PUSH2 0xE68 DUP5 PUSH2 0xD4B JUMP JUMPDEST DUP2 ADD PUSH1 0x20 DUP6 LT ISZERO PUSH2 0xE77 JUMPI DUP2 SWAP1 POP JUMPDEST PUSH2 0xE8B PUSH2 0xE83 DUP6 PUSH2 0xD4B JUMP JUMPDEST DUP4 ADD DUP3 PUSH2 0xE2B JUMP JUMPDEST POP POP JUMPDEST POP POP POP JUMP JUMPDEST PUSH0 DUP3 DUP3 SHR SWAP1 POP SWAP3 SWAP2 POP POP JUMP JUMPDEST PUSH0 PUSH2 0xEAE PUSH0 NOT DUP5 PUSH1 0x8 MUL PUSH2 0xE93 JUMP JUMPDEST NOT DUP1 DUP4 AND SWAP2 POP POP SWAP3 SWAP2 POP POP JUMP JUMPDEST PUSH0 PUSH2 0xEC6 DUP4 DUP4 PUSH2 0xE9F JUMP JUMPDEST SWAP2 POP DUP3 PUSH1 0x2 MUL DUP3 OR SWAP1 POP SWAP3 SWAP2 POP POP JUMP JUMPDEST PUSH2 0xEDF DUP3 PUSH2 0x858 JUMP JUMPDEST PUSH8 0xFFFFFFFFFFFFFFFF DUP2 GT ISZERO PUSH2 0xEF8 JUMPI PUSH2 0xEF7 PUSH2 0x6DA JUMP JUMPDEST JUMPDEST PUSH2 0xF02 DUP3 SLOAD PUSH2 0xD09 JUMP JUMPDEST PUSH2 0xF0D DUP3 DUP3 DUP6 PUSH2 0xE4D JUMP JUMPDEST PUSH0 PUSH1 0x20 SWAP1 POP PUSH1 0x1F DUP4 GT PUSH1 0x1 DUP2 EQ PUSH2 0xF3E JUMPI PUSH0 DUP5 ISZERO PUSH2 0xF2C JUMPI DUP3 DUP8 ADD MLOAD SWAP1 POP JUMPDEST PUSH2 0xF36 DUP6 DUP3 PUSH2 0xEBB JUMP JUMPDEST DUP7 SSTORE POP PUSH2 0xF9D JUMP JUMPDEST PUSH1 0x1F NOT DUP5 AND PUSH2 0xF4C DUP7 PUSH2 0xD39 JUMP JUMPDEST PUSH0 JUMPDEST DUP3 DUP2 LT ISZERO PUSH2 0xF73 JUMPI DUP5 DUP10 ADD MLOAD DUP3 SSTORE PUSH1 0x1 DUP3 ADD SWAP2 POP PUSH1 0x20 DUP6 ADD SWAP5 POP PUSH1 0x20 DUP2 ADD SWAP1 POP PUSH2 0xF4E JUMP JUMPDEST DUP7 DUP4 LT ISZERO PUSH2 0xF90 JUMPI DUP5 DUP10 ADD MLOAD PUSH2 0xF8C PUSH1 0x1F DUP10 AND DUP3 PUSH2 0xE9F JUMP JUMPDEST DUP4 SSTORE POP JUMPDEST PUSH1 0x1 PUSH1 0x2 DUP9 MUL ADD DUP9 SSTORE POP POP POP JUMPDEST POP POP POP POP POP POP JUMP JUMPDEST PUSH0 PUSH1 0x80 DUP3 ADD SWAP1 POP PUSH2 0xFB8 PUSH0 DUP4 ADD DUP8 PUSH2 0x8B8 JUMP JUMPDEST DUP2 DUP2 SUB PUSH1 0x20 DUP4 ADD MSTORE PUSH2 0xFCA DUP2 DUP7 PUSH2 0x880 JUMP JUMPDEST SWAP1 POP PUSH2 0xFD9 PUSH1 0x40 DUP4 ADD DUP6 PUSH2 0x8B8 JUMP JUMPDEST PUSH2 0xFE6 PUSH1 0x60 DUP4 ADD DUP5 PUSH2 0x8F7 JUMP JUMPDEST SWAP6 SWAP5 POP POP POP POP POP JUMP INVALID LOG2 PUSH5 0x6970667358 0x22 SLT KECCAK256 MOD 0xB9 0xDC 0x4B MSTORE8 0xE3 0xED 0xD4 SWAP11 PUSH32 0xFB40C249E4A684F705D1EF14651696CD5B829AD4C35764736F6C634300081A00 CALLER "
		},
		"gasEstimates": {
			"creation": {
				"codeDepositCost": "826600",
				"executionCost": "862",
				"totalCost": "827462"
			},
			"external": {
				"addProduct(string,uint256)": "infinite",
				"buyProduct(uint256)": "infinite",
				"getProduct(uint256)": "infinite"
			}
		},
		"methodIdentifiers": {
			"addProduct(string,uint256)": "b15247d9",
			"buyProduct(uint256)": "8642269e",
			"getProduct(uint256)": "b9db15b4"
		}
	},
	"abi": [
		{
			"anonymous": false,
			"inputs": [
				{
					"indexed": false,
					"internalType": "uint256",
					"name": "productId",
					"type": "uint256"
				},
				{
					"indexed": false,
					"internalType": "string",
					"name": "name",
					"type": "string"
				},
				{
					"indexed": false,
					"internalType": "uint256",
					"name": "price",
					"type": "uint256"
				},
				{
					"indexed": false,
					"internalType": "address",
					"name": "seller",
					"type": "address"
				}
			],
			"name": "ProductAdded",
			"type": "event"
		},
		{
			"anonymous": false,
			"inputs": [
				{
					"indexed": false,
					"internalType": "uint256",
					"name": "productId",
					"type": "uint256"
				},
				{
					"indexed": false,
					"internalType": "address",
					"name": "buyer",
					"type": "address"
				}
			],
			"name": "ProductPurchased",
			"type": "event"
		},
		{
			"inputs": [
				{
					"internalType": "string",
					"name": "_name",
					"type": "string"
				},
				{
					"internalType": "uint256",
					"name": "_price",
					"type": "uint256"
				}
			],
			"name": "addProduct",
			"outputs": [],
			"stateMutability": "nonpayable",
			"type": "function"
		},
		{
			"inputs": [
				{
					"internalType": "uint256",
					"name": "_productId",
					"type": "uint256"
				}
			],
			"name": "buyProduct",
			"outputs": [],
			"stateMutability": "payable",
			"type": "function"
		},
		{
			"inputs": [
				{
					"internalType": "uint256",
					"name": "_productId",
					"type": "uint256"
				}
			],
			"name": "getProduct",
			"outputs": [
				{
					"internalType": "string",
					"name": "",
					"type": "string"
				},
				{
					"internalType": "uint256",
					"name": "",
					"type": "uint256"
				},
				{
					"internalType": "address",
					"name": "",
					"type": "address"
				},
				{
					"internalType": "bool",
					"name": "",
					"type": "bool"
				}
			],
			"stateMutability": "view",
			"type": "function"
		}
	]
}