{
	"data": {
		"bytecode": {
			"linkReferences": {},
			"object": "608060405234801561000f575f80fd5b50604051610dc9380380610dc983398181016040528101906100319190610221565b825f908161003f91906104ad565b50816001908161004f91906104ad565b50806002819055508060035f3373ffffffffffffffffffffffffffffffffffffffff1673ffffffffffffffffffffffffffffffffffffffff1681526020019081526020015f208190555050505061057c565b5f604051905090565b5f80fd5b5f80fd5b5f80fd5b5f80fd5b5f601f19601f8301169050919050565b7f4e487b71000000000000000000000000000000000000000000000000000000005f52604160045260245ffd5b610100826100ba565b810181811067ffffffffffffffff8211171561011f5761011e6100ca565b5b80604052505050565b5f6101316100a1565b905061013d82826100f7565b919050565b5f67ffffffffffffffff82111561015c5761015b6100ca565b5b610165826100ba565b9050602081019050919050565b8281835e5f83830152505050565b5f61019261018d84610142565b610128565b9050828152602081018484840111156101ae576101ad6100b6565b5b6101b9848285610172565b509392505050565b5f82601f8301126101d5576101d46100b2565b5b81516101e5848260208601610180565b91505092915050565b5f819050919050565b610200816101ee565b811461020a575f80fd5b50565b5f8151905061021b816101f7565b92915050565b5f805f60608486031215610238576102376100aa565b5b5f84015167ffffffffffffffff811115610255576102546100ae565b5b610261868287016101c1565b935050602084015167ffffffffffffffff811115610282576102816100ae565b5b61028e868287016101c1565b925050604061029f8682870161020d565b9150509250925092565b5f81519050919050565b7f4e487b71000000000000000000000000000000000000000000000000000000005f52602260045260245ffd5b5f60028204905060018216806102f757607f821691505b60208210810361030a576103096102b3565b5b50919050565b5f819050815f5260205f209050919050565b5f6020601f8301049050919050565b5f82821b905092915050565b5f6008830261036c7fffffffffffffffffffffffffffffffffffffffffffffffffffffffffffffffff82610331565b6103768683610331565b95508019841693508086168417925050509392505050565b5f819050919050565b5f6103b16103ac6103a7846101ee565b61038e565b6101ee565b9050919050565b5f819050919050565b6103ca83610397565b6103de6103d6826103b8565b84845461033d565b825550505050565b5f90565b6103f26103e6565b6103fd8184846103c1565b505050565b5b81811015610420576104155f826103ea565b600181019050610403565b5050565b601f8211156104655761043681610310565b61043f84610322565b8101602085101561044e578190505b61046261045a85610322565b830182610402565b50505b505050565b5f82821c905092915050565b5f6104855f198460080261046a565b1980831691505092915050565b5f61049d8383610476565b9150826002028217905092915050565b6104b6826102a9565b67ffffffffffffffff8111156104cf576104ce6100ca565b5b6104d982546102e0565b6104e4828285610424565b5f60209050601f831160018114610515575f8415610503578287015190505b61050d8582610492565b865550610574565b601f19841661052386610310565b5f5b8281101561054a57848901518255600182019150602085019450602081019050610525565b868310156105675784890151610563601f891682610476565b8355505b6001600288020188555050505b505050505050565b610840806105895f395ff3fe608060405234801561000f575f80fd5b5060043610610060575f3560e01c806306fdde031461006457806318160ddd1461008257806327e235e3146100a057806370a08231146100d057806395d89b4114610100578063a9059cbb1461011e575b5f80fd5b61006c61014e565b60405161007991906104d5565b60405180910390f35b61008a6101d9565b604051610097919061050d565b60405180910390f35b6100ba60048036038101906100b59190610584565b6101df565b6040516100c7919061050d565b60405180910390f35b6100ea60048036038101906100e59190610584565b6101f4565b6040516100f7919061050d565b60405180910390f35b61010861023a565b60405161011591906104d5565b60405180910390f35b610138600480360381019061013391906105d9565b6102c6565b6040516101459190610631565b60405180910390f35b5f805461015a90610677565b80601f016020809104026020016040519081016040528092919081815260200182805461018690610677565b80156101d15780601f106101a8576101008083540402835291602001916101d1565b820191905f5260205f20905b8154815290600101906020018083116101b457829003601f168201915b505050505081565b60025481565b6003602052805f5260405f205f915090505481565b5f60035f8373ffffffffffffffffffffffffffffffffffffffff1673ffffffffffffffffffffffffffffffffffffffff1681526020019081526020015f20549050919050565b6001805461024790610677565b80601f016020809104026020016040519081016040528092919081815260200182805461027390610677565b80156102be5780601f10610295576101008083540402835291602001916102be565b820191905f5260205f20905b8154815290600101906020018083116102a157829003601f168201915b505050505081565b5f8073ffffffffffffffffffffffffffffffffffffffff168373ffffffffffffffffffffffffffffffffffffffff1603610335576040517f08c379a000000000000000000000000000000000000000000000000000000000815260040161032c906106f1565b60405180910390fd5b8160035f3373ffffffffffffffffffffffffffffffffffffffff1673ffffffffffffffffffffffffffffffffffffffff1681526020019081526020015f205410156103b5576040517f08c379a00000000000000000000000000000000000000000000000000000000081526004016103ac90610759565b60405180910390fd5b8160035f3373ffffffffffffffffffffffffffffffffffffffff1673ffffffffffffffffffffffffffffffffffffffff1681526020019081526020015f205f82825461040191906107a4565b925050819055508160035f8573ffffffffffffffffffffffffffffffffffffffff1673ffffffffffffffffffffffffffffffffffffffff1681526020019081526020015f205f82825461045491906107d7565b925050819055506001905092915050565b5f81519050919050565b5f82825260208201905092915050565b8281835e5f83830152505050565b5f601f19601f8301169050919050565b5f6104a782610465565b6104b1818561046f565b93506104c181856020860161047f565b6104ca8161048d565b840191505092915050565b5f6020820190508181035f8301526104ed818461049d565b905092915050565b5f819050919050565b610507816104f5565b82525050565b5f6020820190506105205f8301846104fe565b92915050565b5f80fd5b5f73ffffffffffffffffffffffffffffffffffffffff82169050919050565b5f6105538261052a565b9050919050565b61056381610549565b811461056d575f80fd5b50565b5f8135905061057e8161055a565b92915050565b5f6020828403121561059957610598610526565b5b5f6105a684828501610570565b91505092915050565b6105b8816104f5565b81146105c2575f80fd5b50565b5f813590506105d3816105af565b92915050565b5f80604083850312156105ef576105ee610526565b5b5f6105fc85828601610570565b925050602061060d858286016105c5565b9150509250929050565b5f8115159050919050565b61062b81610617565b82525050565b5f6020820190506106445f830184610622565b92915050565b7f4e487b71000000000000000000000000000000000000000000000000000000005f52602260045260245ffd5b5f600282049050600182168061068e57607f821691505b6020821081036106a1576106a061064a565b5b50919050565b7f496e76616c696420726563697069656e742061646472657373000000000000005f82015250565b5f6106db60198361046f565b91506106e6826106a7565b602082019050919050565b5f6020820190508181035f830152610708816106cf565b9050919050565b7f496e73756666696369656e742062616c616e63650000000000000000000000005f82015250565b5f61074360148361046f565b915061074e8261070f565b602082019050919050565b5f6020820190508181035f83015261077081610737565b9050919050565b7f4e487b71000000000000000000000000000000000000000000000000000000005f52601160045260245ffd5b5f6107ae826104f5565b91506107b9836104f5565b92508282039050818111156107d1576107d0610777565b5b92915050565b5f6107e1826104f5565b91506107ec836104f5565b925082820190508082111561080457610803610777565b5b9291505056fea2646970667358221220318ca70d8f7880a2b786c3872a0d4940282b3ce2262d5d26795e38a0674755f464736f6c634300081a0033",
			"opcodes": "PUSH1 0x80 PUSH1 0x40 MSTORE CALLVALUE DUP1 ISZERO PUSH2 0xF JUMPI PUSH0 DUP1 REVERT JUMPDEST POP PUSH1 0x40 MLOAD PUSH2 0xDC9 CODESIZE SUB DUP1 PUSH2 0xDC9 DUP4 CODECOPY DUP2 DUP2 ADD PUSH1 0x40 MSTORE DUP2 ADD SWAP1 PUSH2 0x31 SWAP2 SWAP1 PUSH2 0x221 JUMP JUMPDEST DUP3 PUSH0 SWAP1 DUP2 PUSH2 0x3F SWAP2 SWAP1 PUSH2 0x4AD JUMP JUMPDEST POP DUP2 PUSH1 0x1 SWAP1 DUP2 PUSH2 0x4F SWAP2 SWAP1 PUSH2 0x4AD JUMP JUMPDEST POP DUP1 PUSH1 0x2 DUP2 SWAP1 SSTORE POP DUP1 PUSH1 0x3 PUSH0 CALLER PUSH20 0xFFFFFFFFFFFFFFFFFFFFFFFFFFFFFFFFFFFFFFFF AND PUSH20 0xFFFFFFFFFFFFFFFFFFFFFFFFFFFFFFFFFFFFFFFF AND DUP2 MSTORE PUSH1 0x20 ADD SWAP1 DUP2 MSTORE PUSH1 0x20 ADD PUSH0 KECCAK256 DUP2 SWAP1 SSTORE POP POP POP POP PUSH2 0x57C JUMP JUMPDEST PUSH0 PUSH1 0x40 MLOAD SWAP1 POP SWAP1 JUMP JUMPDEST PUSH0 DUP1 REVERT JUMPDEST PUSH0 DUP1 REVERT JUMPDEST PUSH0 DUP1 REVERT JUMPDEST PUSH0 DUP1 REVERT JUMPDEST PUSH0 PUSH1 0x1F NOT PUSH1 0x1F DUP4 ADD AND SWAP1 POP SWAP2 SWAP1 POP JUMP JUMPDEST PUSH32 0x4E487B7100000000000000000000000000000000000000000000000000000000 PUSH0 MSTORE PUSH1 0x41 PUSH1 0x4 MSTORE PUSH1 0x24 PUSH0 REVERT JUMPDEST PUSH2 0x100 DUP3 PUSH2 0xBA JUMP JUMPDEST DUP2 ADD DUP2 DUP2 LT PUSH8 0xFFFFFFFFFFFFFFFF DUP3 GT OR ISZERO PUSH2 0x11F JUMPI PUSH2 0x11E PUSH2 0xCA JUMP JUMPDEST JUMPDEST DUP1 PUSH1 0x40 MSTORE POP POP POP JUMP JUMPDEST PUSH0 PUSH2 0x131 PUSH2 0xA1 JUMP JUMPDEST SWAP1 POP PUSH2 0x13D DUP3 DUP3 PUSH2 0xF7 JUMP JUMPDEST SWAP2 SWAP1 POP JUMP JUMPDEST PUSH0 PUSH8 0xFFFFFFFFFFFFFFFF DUP3 GT ISZERO PUSH2 0x15C JUMPI PUSH2 0x15B PUSH2 0xCA JUMP JUMPDEST JUMPDEST PUSH2 0x165 DUP3 PUSH2 0xBA JUMP JUMPDEST SWAP1 POP PUSH1 0x20 DUP2 ADD SWAP1 POP SWAP2 SWAP1 POP JUMP JUMPDEST DUP3 DUP2 DUP4 MCOPY PUSH0 DUP4 DUP4 ADD MSTORE POP POP POP JUMP JUMPDEST PUSH0 PUSH2 0x192 PUSH2 0x18D DUP5 PUSH2 0x142 JUMP JUMPDEST PUSH2 0x128 JUMP JUMPDEST SWAP1 POP DUP3 DUP2 MSTORE PUSH1 0x20 DUP2 ADD DUP5 DUP5 DUP5 ADD GT ISZERO PUSH2 0x1AE JUMPI PUSH2 0x1AD PUSH2 0xB6 JUMP JUMPDEST JUMPDEST PUSH2 0x1B9 DUP5 DUP3 DUP6 PUSH2 0x172 JUMP JUMPDEST POP SWAP4 SWAP3 POP POP POP JUMP JUMPDEST PUSH0 DUP3 PUSH1 0x1F DUP4 ADD SLT PUSH2 0x1D5 JUMPI PUSH2 0x1D4 PUSH2 0xB2 JUMP JUMPDEST JUMPDEST DUP2 MLOAD PUSH2 0x1E5 DUP5 DUP3 PUSH1 0x20 DUP7 ADD PUSH2 0x180 JUMP JUMPDEST SWAP2 POP POP SWAP3 SWAP2 POP POP JUMP JUMPDEST PUSH0 DUP2 SWAP1 POP SWAP2 SWAP1 POP JUMP JUMPDEST PUSH2 0x200 DUP2 PUSH2 0x1EE JUMP JUMPDEST DUP2 EQ PUSH2 0x20A JUMPI PUSH0 DUP1 REVERT JUMPDEST POP JUMP JUMPDEST PUSH0 DUP2 MLOAD SWAP1 POP PUSH2 0x21B DUP2 PUSH2 0x1F7 JUMP JUMPDEST SWAP3 SWAP2 POP POP JUMP JUMPDEST PUSH0 DUP1 PUSH0 PUSH1 0x60 DUP5 DUP7 SUB SLT ISZERO PUSH2 0x238 JUMPI PUSH2 0x237 PUSH2 0xAA JUMP JUMPDEST JUMPDEST PUSH0 DUP5 ADD MLOAD PUSH8 0xFFFFFFFFFFFFFFFF DUP2 GT ISZERO PUSH2 0x255 JUMPI PUSH2 0x254 PUSH2 0xAE JUMP JUMPDEST JUMPDEST PUSH2 0x261 DUP7 DUP3 DUP8 ADD PUSH2 0x1C1 JUMP JUMPDEST SWAP4 POP POP PUSH1 0x20 DUP5 ADD MLOAD PUSH8 0xFFFFFFFFFFFFFFFF DUP2 GT ISZERO PUSH2 0x282 JUMPI PUSH2 0x281 PUSH2 0xAE JUMP JUMPDEST JUMPDEST PUSH2 0x28E DUP7 DUP3 DUP8 ADD PUSH2 0x1C1 JUMP JUMPDEST SWAP3 POP POP PUSH1 0x40 PUSH2 0x29F DUP7 DUP3 DUP8 ADD PUSH2 0x20D JUMP JUMPDEST SWAP2 POP POP SWAP3 POP SWAP3 POP SWAP3 JUMP JUMPDEST PUSH0 DUP2 MLOAD SWAP1 POP SWAP2 SWAP1 POP JUMP JUMPDEST PUSH32 0x4E487B7100000000000000000000000000000000000000000000000000000000 PUSH0 MSTORE PUSH1 0x22 PUSH1 0x4 MSTORE PUSH1 0x24 PUSH0 REVERT JUMPDEST PUSH0 PUSH1 0x2 DUP3 DIV SWAP1 POP PUSH1 0x1 DUP3 AND DUP1 PUSH2 0x2F7 JUMPI PUSH1 0x7F DUP3 AND SWAP2 POP JUMPDEST PUSH1 0x20 DUP3 LT DUP2 SUB PUSH2 0x30A JUMPI PUSH2 0x309 PUSH2 0x2B3 JUMP JUMPDEST JUMPDEST POP SWAP2 SWAP1 POP JUMP JUMPDEST PUSH0 DUP2 SWAP1 POP DUP2 PUSH0 MSTORE PUSH1 0x20 PUSH0 KECCAK256 SWAP1 POP SWAP2 SWAP1 POP JUMP JUMPDEST PUSH0 PUSH1 0x20 PUSH1 0x1F DUP4 ADD DIV SWAP1 POP SWAP2 SWAP1 POP JUMP JUMPDEST PUSH0 DUP3 DUP3 SHL SWAP1 POP SWAP3 SWAP2 POP POP JUMP JUMPDEST PUSH0 PUSH1 0x8 DUP4 MUL PUSH2 0x36C PUSH32 0xFFFFFFFFFFFFFFFFFFFFFFFFFFFFFFFFFFFFFFFFFFFFFFFFFFFFFFFFFFFFFFFF DUP3 PUSH2 0x331 JUMP JUMPDEST PUSH2 0x376 DUP7 DUP4 PUSH2 0x331 JUMP JUMPDEST SWAP6 POP DUP1 NOT DUP5 AND SWAP4 POP DUP1 DUP7 AND DUP5 OR SWAP3 POP POP POP SWAP4 SWAP3 POP POP POP JUMP JUMPDEST PUSH0 DUP2 SWAP1 POP SWAP2 SWAP1 POP JUMP JUMPDEST PUSH0 PUSH2 0x3B1 PUSH2 0x3AC PUSH2 0x3A7 DUP5 PUSH2 0x1EE JUMP JUMPDEST PUSH2 0x38E JUMP JUMPDEST PUSH2 0x1EE JUMP JUMPDEST SWAP1 POP SWAP2 SWAP1 POP JUMP JUMPDEST PUSH0 DUP2 SWAP1 POP SWAP2 SWAP1 POP JUMP JUMPDEST PUSH2 0x3CA DUP4 PUSH2 0x397 JUMP JUMPDEST PUSH2 0x3DE PUSH2 0x3D6 DUP3 PUSH2 0x3B8 JUMP JUMPDEST DUP5 DUP5 SLOAD PUSH2 0x33D JUMP JUMPDEST DUP3 SSTORE POP POP POP POP JUMP JUMPDEST PUSH0 SWAP1 JUMP JUMPDEST PUSH2 0x3F2 PUSH2 0x3E6 JUMP JUMPDEST PUSH2 0x3FD DUP2 DUP5 DUP5 PUSH2 0x3C1 JUMP JUMPDEST POP POP POP JUMP JUMPDEST JUMPDEST DUP2 DUP2 LT ISZERO PUSH2 0x420 JUMPI PUSH2 0x415 PUSH0 DUP3 PUSH2 0x3EA JUMP JUMPDEST PUSH1 0x1 DUP2 ADD SWAP1 POP PUSH2 0x403 JUMP JUMPDEST POP POP JUMP JUMPDEST PUSH1 0x1F DUP3 GT ISZERO PUSH2 0x465 JUMPI PUSH2 0x436 DUP2 PUSH2 0x310 JUMP JUMPDEST PUSH2 0x43F DUP5 PUSH2 0x322 JUMP JUMPDEST DUP2 ADD PUSH1 0x20 DUP6 LT ISZERO PUSH2 0x44E JUMPI DUP2 SWAP1 POP JUMPDEST PUSH2 0x462 PUSH2 0x45A DUP6 PUSH2 0x322 JUMP JUMPDEST DUP4 ADD DUP3 PUSH2 0x402 JUMP JUMPDEST POP POP JUMPDEST POP POP POP JUMP JUMPDEST PUSH0 DUP3 DUP3 SHR SWAP1 POP SWAP3 SWAP2 POP POP JUMP JUMPDEST PUSH0 PUSH2 0x485 PUSH0 NOT DUP5 PUSH1 0x8 MUL PUSH2 0x46A JUMP JUMPDEST NOT DUP1 DUP4 AND SWAP2 POP POP SWAP3 SWAP2 POP POP JUMP JUMPDEST PUSH0 PUSH2 0x49D DUP4 DUP4 PUSH2 0x476 JUMP JUMPDEST SWAP2 POP DUP3 PUSH1 0x2 MUL DUP3 OR SWAP1 POP SWAP3 SWAP2 POP POP JUMP JUMPDEST PUSH2 0x4B6 DUP3 PUSH2 0x2A9 JUMP JUMPDEST PUSH8 0xFFFFFFFFFFFFFFFF DUP2 GT ISZERO PUSH2 0x4CF JUMPI PUSH2 0x4CE PUSH2 0xCA JUMP JUMPDEST JUMPDEST PUSH2 0x4D9 DUP3 SLOAD PUSH2 0x2E0 JUMP JUMPDEST PUSH2 0x4E4 DUP3 DUP3 DUP6 PUSH2 0x424 JUMP JUMPDEST PUSH0 PUSH1 0x20 SWAP1 POP PUSH1 0x1F DUP4 GT PUSH1 0x1 DUP2 EQ PUSH2 0x515 JUMPI PUSH0 DUP5 ISZERO PUSH2 0x503 JUMPI DUP3 DUP8 ADD MLOAD SWAP1 POP JUMPDEST PUSH2 0x50D DUP6 DUP3 PUSH2 0x492 JUMP JUMPDEST DUP7 SSTORE POP PUSH2 0x574 JUMP JUMPDEST PUSH1 0x1F NOT DUP5 AND PUSH2 0x523 DUP7 PUSH2 0x310 JUMP JUMPDEST PUSH0 JUMPDEST DUP3 DUP2 LT ISZERO PUSH2 0x54A JUMPI DUP5 DUP10 ADD MLOAD DUP3 SSTORE PUSH1 0x1 DUP3 ADD SWAP2 POP PUSH1 0x20 DUP6 ADD SWAP5 POP PUSH1 0x20 DUP2 ADD SWAP1 POP PUSH2 0x525 JUMP JUMPDEST DUP7 DUP4 LT ISZERO PUSH2 0x567 JUMPI DUP5 DUP10 ADD MLOAD PUSH2 0x563 PUSH1 0x1F DUP10 AND DUP3 PUSH2 0x476 JUMP JUMPDEST DUP4 SSTORE POP JUMPDEST PUSH1 0x1 PUSH1 0x2 DUP9 MUL ADD DUP9 SSTORE POP POP POP JUMPDEST POP POP POP POP POP POP JUMP JUMPDEST PUSH2 0x840 DUP1 PUSH2 0x589 PUSH0 CODECOPY PUSH0 RETURN INVALID PUSH1 0x80 PUSH1 0x40 MSTORE CALLVALUE DUP1 ISZERO PUSH2 0xF JUMPI PUSH0 DUP1 REVERT JUMPDEST POP PUSH1 0x4 CALLDATASIZE LT PUSH2 0x60 JUMPI PUSH0 CALLDATALOAD PUSH1 0xE0 SHR DUP1 PUSH4 0x6FDDE03 EQ PUSH2 0x64 JUMPI DUP1 PUSH4 0x18160DDD EQ PUSH2 0x82 JUMPI DUP1 PUSH4 0x27E235E3 EQ PUSH2 0xA0 JUMPI DUP1 PUSH4 0x70A08231 EQ PUSH2 0xD0 JUMPI DUP1 PUSH4 0x95D89B41 EQ PUSH2 0x100 JUMPI DUP1 PUSH4 0xA9059CBB EQ PUSH2 0x11E JUMPI JUMPDEST PUSH0 DUP1 REVERT JUMPDEST PUSH2 0x6C PUSH2 0x14E JUMP JUMPDEST PUSH1 0x40 MLOAD PUSH2 0x79 SWAP2 SWAP1 PUSH2 0x4D5 JUMP JUMPDEST PUSH1 0x40 MLOAD DUP1 SWAP2 SUB SWAP1 RETURN JUMPDEST PUSH2 0x8A PUSH2 0x1D9 JUMP JUMPDEST PUSH1 0x40 MLOAD PUSH2 0x97 SWAP2 SWAP1 PUSH2 0x50D JUMP JUMPDEST PUSH1 0x40 MLOAD DUP1 SWAP2 SUB SWAP1 RETURN JUMPDEST PUSH2 0xBA PUSH1 0x4 DUP1 CALLDATASIZE SUB DUP2 ADD SWAP1 PUSH2 0xB5 SWAP2 SWAP1 PUSH2 0x584 JUMP JUMPDEST PUSH2 0x1DF JUMP JUMPDEST PUSH1 0x40 MLOAD PUSH2 0xC7 SWAP2 SWAP1 PUSH2 0x50D JUMP JUMPDEST PUSH1 0x40 MLOAD DUP1 SWAP2 SUB SWAP1 RETURN JUMPDEST PUSH2 0xEA PUSH1 0x4 DUP1 CALLDATASIZE SUB DUP2 ADD SWAP1 PUSH2 0xE5 SWAP2 SWAP1 PUSH2 0x584 JUMP JUMPDEST PUSH2 0x1F4 JUMP JUMPDEST PUSH1 0x40 MLOAD PUSH2 0xF7 SWAP2 SWAP1 PUSH2 0x50D JUMP JUMPDEST PUSH1 0x40 MLOAD DUP1 SWAP2 SUB SWAP1 RETURN JUMPDEST PUSH2 0x108 PUSH2 0x23A JUMP JUMPDEST PUSH1 0x40 MLOAD PUSH2 0x115 SWAP2 SWAP1 PUSH2 0x4D5 JUMP JUMPDEST PUSH1 0x40 MLOAD DUP1 SWAP2 SUB SWAP1 RETURN JUMPDEST PUSH2 0x138 PUSH1 0x4 DUP1 CALLDATASIZE SUB DUP2 ADD SWAP1 PUSH2 0x133 SWAP2 SWAP1 PUSH2 0x5D9 JUMP JUMPDEST PUSH2 0x2C6 JUMP JUMPDEST PUSH1 0x40 MLOAD PUSH2 0x145 SWAP2 SWAP1 PUSH2 0x631 JUMP JUMPDEST PUSH1 0x40 MLOAD DUP1 SWAP2 SUB SWAP1 RETURN JUMPDEST PUSH0 DUP1 SLOAD PUSH2 0x15A SWAP1 PUSH2 0x677 JUMP JUMPDEST DUP1 PUSH1 0x1F ADD PUSH1 0x20 DUP1 SWAP2 DIV MUL PUSH1 0x20 ADD PUSH1 0x40 MLOAD SWAP1 DUP2 ADD PUSH1 0x40 MSTORE DUP1 SWAP3 SWAP2 SWAP1 DUP2 DUP2 MSTORE PUSH1 0x20 ADD DUP3 DUP1 SLOAD PUSH2 0x186 SWAP1 PUSH2 0x677 JUMP JUMPDEST DUP1 ISZERO PUSH2 0x1D1 JUMPI DUP1 PUSH1 0x1F LT PUSH2 0x1A8 JUMPI PUSH2 0x100 DUP1 DUP4 SLOAD DIV MUL DUP4 MSTORE SWAP2 PUSH1 0x20 ADD SWAP2 PUSH2 0x1D1 JUMP JUMPDEST DUP3 ADD SWAP2 SWAP1 PUSH0 MSTORE PUSH1 0x20 PUSH0 KECCAK256 SWAP1 JUMPDEST DUP2 SLOAD DUP2 MSTORE SWAP1 PUSH1 0x1 ADD SWAP1 PUSH1 0x20 ADD DUP1 DUP4 GT PUSH2 0x1B4 JUMPI DUP3 SWAP1 SUB PUSH1 0x1F AND DUP3 ADD SWAP2 JUMPDEST POP POP POP POP POP DUP2 JUMP JUMPDEST PUSH1 0x2 SLOAD DUP2 JUMP JUMPDEST PUSH1 0x3 PUSH1 0x20 MSTORE DUP1 PUSH0 MSTORE PUSH1 0x40 PUSH0 KECCAK256 PUSH0 SWAP2 POP SWAP1 POP SLOAD DUP2 JUMP JUMPDEST PUSH0 PUSH1 0x3 PUSH0 DUP4 PUSH20 0xFFFFFFFFFFFFFFFFFFFFFFFFFFFFFFFFFFFFFFFF AND PUSH20 0xFFFFFFFFFFFFFFFFFFFFFFFFFFFFFFFFFFFFFFFF AND DUP2 MSTORE PUSH1 0x20 ADD SWAP1 DUP2 MSTORE PUSH1 0x20 ADD PUSH0 KECCAK256 SLOAD SWAP1 POP SWAP2 SWAP1 POP JUMP JUMPDEST PUSH1 0x1 DUP1 SLOAD PUSH2 0x247 SWAP1 PUSH2 0x677 JUMP JUMPDEST DUP1 PUSH1 0x1F ADD PUSH1 0x20 DUP1 SWAP2 DIV MUL PUSH1 0x20 ADD PUSH1 0x40 MLOAD SWAP1 DUP2 ADD PUSH1 0x40 MSTORE DUP1 SWAP3 SWAP2 SWAP1 DUP2 DUP2 MSTORE PUSH1 0x20 ADD DUP3 DUP1 SLOAD PUSH2 0x273 SWAP1 PUSH2 0x677 JUMP JUMPDEST DUP1 ISZERO PUSH2 0x2BE JUMPI DUP1 PUSH1 0x1F LT PUSH2 0x295 JUMPI PUSH2 0x100 DUP1 DUP4 SLOAD DIV MUL DUP4 MSTORE SWAP2 PUSH1 0x20 ADD SWAP2 PUSH2 0x2BE JUMP JUMPDEST DUP3 ADD SWAP2 SWAP1 PUSH0 MSTORE PUSH1 0x20 PUSH0 KECCAK256 SWAP1 JUMPDEST DUP2 SLOAD DUP2 MSTORE SWAP1 PUSH1 0x1 ADD SWAP1 PUSH1 0x20 ADD DUP1 DUP4 GT PUSH2 0x2A1 JUMPI DUP3 SWAP1 SUB PUSH1 0x1F AND DUP3 ADD SWAP2 JUMPDEST POP POP POP POP POP DUP2 JUMP JUMPDEST PUSH0 DUP1 PUSH20 0xFFFFFFFFFFFFFFFFFFFFFFFFFFFFFFFFFFFFFFFF AND DUP4 PUSH20 0xFFFFFFFFFFFFFFFFFFFFFFFFFFFFFFFFFFFFFFFF AND SUB PUSH2 0x335 JUMPI PUSH1 0x40 MLOAD PUSH32 0x8C379A000000000000000000000000000000000000000000000000000000000 DUP2 MSTORE PUSH1 0x4 ADD PUSH2 0x32C SWAP1 PUSH2 0x6F1 JUMP JUMPDEST PUSH1 0x40 MLOAD DUP1 SWAP2 SUB SWAP1 REVERT JUMPDEST DUP2 PUSH1 0x3 PUSH0 CALLER PUSH20 0xFFFFFFFFFFFFFFFFFFFFFFFFFFFFFFFFFFFFFFFF AND PUSH20 0xFFFFFFFFFFFFFFFFFFFFFFFFFFFFFFFFFFFFFFFF AND DUP2 MSTORE PUSH1 0x20 ADD SWAP1 DUP2 MSTORE PUSH1 0x20 ADD PUSH0 KECCAK256 SLOAD LT ISZERO PUSH2 0x3B5 JUMPI PUSH1 0x40 MLOAD PUSH32 0x8C379A000000000000000000000000000000000000000000000000000000000 DUP2 MSTORE PUSH1 0x4 ADD PUSH2 0x3AC SWAP1 PUSH2 0x759 JUMP JUMPDEST PUSH1 0x40 MLOAD DUP1 SWAP2 SUB SWAP1 REVERT JUMPDEST DUP2 PUSH1 0x3 PUSH0 CALLER PUSH20 0xFFFFFFFFFFFFFFFFFFFFFFFFFFFFFFFFFFFFFFFF AND PUSH20 0xFFFFFFFFFFFFFFFFFFFFFFFFFFFFFFFFFFFFFFFF AND DUP2 MSTORE PUSH1 0x20 ADD SWAP1 DUP2 MSTORE PUSH1 0x20 ADD PUSH0 KECCAK256 PUSH0 DUP3 DUP3 SLOAD PUSH2 0x401 SWAP2 SWAP1 PUSH2 0x7A4 JUMP JUMPDEST SWAP3 POP POP DUP2 SWAP1 SSTORE POP DUP2 PUSH1 0x3 PUSH0 DUP6 PUSH20 0xFFFFFFFFFFFFFFFFFFFFFFFFFFFFFFFFFFFFFFFF AND PUSH20 0xFFFFFFFFFFFFFFFFFFFFFFFFFFFFFFFFFFFFFFFF AND DUP2 MSTORE PUSH1 0x20 ADD SWAP1 DUP2 MSTORE PUSH1 0x20 ADD PUSH0 KECCAK256 PUSH0 DUP3 DUP3 SLOAD PUSH2 0x454 SWAP2 SWAP1 PUSH2 0x7D7 JUMP JUMPDEST SWAP3 POP POP DUP2 SWAP1 SSTORE POP PUSH1 0x1 SWAP1 POP SWAP3 SWAP2 POP POP JUMP JUMPDEST PUSH0 DUP2 MLOAD SWAP1 POP SWAP2 SWAP1 POP JUMP JUMPDEST PUSH0 DUP3 DUP3 MSTORE PUSH1 0x20 DUP3 ADD SWAP1 POP SWAP3 SWAP2 POP POP JUMP JUMPDEST DUP3 DUP2 DUP4 MCOPY PUSH0 DUP4 DUP4 ADD MSTORE POP POP POP JUMP JUMPDEST PUSH0 PUSH1 0x1F NOT PUSH1 0x1F DUP4 ADD AND SWAP1 POP SWAP2 SWAP1 POP JUMP JUMPDEST PUSH0 PUSH2 0x4A7 DUP3 PUSH2 0x465 JUMP JUMPDEST PUSH2 0x4B1 DUP2 DUP6 PUSH2 0x46F JUMP JUMPDEST SWAP4 POP PUSH2 0x4C1 DUP2 DUP6 PUSH1 0x20 DUP7 ADD PUSH2 0x47F JUMP JUMPDEST PUSH2 0x4CA DUP2 PUSH2 0x48D JUMP JUMPDEST DUP5 ADD SWAP2 POP POP SWAP3 SWAP2 POP POP JUMP JUMPDEST PUSH0 PUSH1 0x20 DUP3 ADD SWAP1 POP DUP2 DUP2 SUB PUSH0 DUP4 ADD MSTORE PUSH2 0x4ED DUP2 DUP5 PUSH2 0x49D JUMP JUMPDEST SWAP1 POP SWAP3 SWAP2 POP POP JUMP JUMPDEST PUSH0 DUP2 SWAP1 POP SWAP2 SWAP1 POP JUMP JUMPDEST PUSH2 0x507 DUP2 PUSH2 0x4F5 JUMP JUMPDEST DUP3 MSTORE POP POP JUMP JUMPDEST PUSH0 PUSH1 0x20 DUP3 ADD SWAP1 POP PUSH2 0x520 PUSH0 DUP4 ADD DUP5 PUSH2 0x4FE JUMP JUMPDEST SWAP3 SWAP2 POP POP JUMP JUMPDEST PUSH0 DUP1 REVERT JUMPDEST PUSH0 PUSH20 0xFFFFFFFFFFFFFFFFFFFFFFFFFFFFFFFFFFFFFFFF DUP3 AND SWAP1 POP SWAP2 SWAP1 POP JUMP JUMPDEST PUSH0 PUSH2 0x553 DUP3 PUSH2 0x52A JUMP JUMPDEST SWAP1 POP SWAP2 SWAP1 POP JUMP JUMPDEST PUSH2 0x563 DUP2 PUSH2 0x549 JUMP JUMPDEST DUP2 EQ PUSH2 0x56D JUMPI PUSH0 DUP1 REVERT JUMPDEST POP JUMP JUMPDEST PUSH0 DUP2 CALLDATALOAD SWAP1 POP PUSH2 0x57E DUP2 PUSH2 0x55A JUMP JUMPDEST SWAP3 SWAP2 POP POP JUMP JUMPDEST PUSH0 PUSH1 0x20 DUP3 DUP5 SUB SLT ISZERO PUSH2 0x599 JUMPI PUSH2 0x598 PUSH2 0x526 JUMP JUMPDEST JUMPDEST PUSH0 PUSH2 0x5A6 DUP5 DUP3 DUP6 ADD PUSH2 0x570 JUMP JUMPDEST SWAP2 POP POP SWAP3 SWAP2 POP POP JUMP JUMPDEST PUSH2 0x5B8 DUP2 PUSH2 0x4F5 JUMP JUMPDEST DUP2 EQ PUSH2 0x5C2 JUMPI PUSH0 DUP1 REVERT JUMPDEST POP JUMP JUMPDEST PUSH0 DUP2 CALLDATALOAD SWAP1 POP PUSH2 0x5D3 DUP2 PUSH2 0x5AF JUMP JUMPDEST SWAP3 SWAP2 POP POP JUMP JUMPDEST PUSH0 DUP1 PUSH1 0x40 DUP4 DUP6 SUB SLT ISZERO PUSH2 0x5EF JUMPI PUSH2 0x5EE PUSH2 0x526 JUMP JUMPDEST JUMPDEST PUSH0 PUSH2 0x5FC DUP6 DUP3 DUP7 ADD PUSH2 0x570 JUMP JUMPDEST SWAP3 POP POP PUSH1 0x20 PUSH2 0x60D DUP6 DUP3 DUP7 ADD PUSH2 0x5C5 JUMP JUMPDEST SWAP2 POP POP SWAP3 POP SWAP3 SWAP1 POP JUMP JUMPDEST PUSH0 DUP2 ISZERO ISZERO SWAP1 POP SWAP2 SWAP1 POP JUMP JUMPDEST PUSH2 0x62B DUP2 PUSH2 0x617 JUMP JUMPDEST DUP3 MSTORE POP POP JUMP JUMPDEST PUSH0 PUSH1 0x20 DUP3 ADD SWAP1 POP PUSH2 0x644 PUSH0 DUP4 ADD DUP5 PUSH2 0x622 JUMP JUMPDEST SWAP3 SWAP2 POP POP JUMP JUMPDEST PUSH32 0x4E487B7100000000000000000000000000000000000000000000000000000000 PUSH0 MSTORE PUSH1 0x22 PUSH1 0x4 MSTORE PUSH1 0x24 PUSH0 REVERT JUMPDEST PUSH0 PUSH1 0x2 DUP3 DIV SWAP1 POP PUSH1 0x1 DUP3 AND DUP1 PUSH2 0x68E JUMPI PUSH1 0x7F DUP3 AND SWAP2 POP JUMPDEST PUSH1 0x20 DUP3 LT DUP2 SUB PUSH2 0x6A1 JUMPI PUSH2 0x6A0 PUSH2 0x64A JUMP JUMPDEST JUMPDEST POP SWAP2 SWAP1 POP JUMP JUMPDEST PUSH32 0x496E76616C696420726563697069656E74206164647265737300000000000000 PUSH0 DUP3 ADD MSTORE POP JUMP JUMPDEST PUSH0 PUSH2 0x6DB PUSH1 0x19 DUP4 PUSH2 0x46F JUMP JUMPDEST SWAP2 POP PUSH2 0x6E6 DUP3 PUSH2 0x6A7 JUMP JUMPDEST PUSH1 0x20 DUP3 ADD SWAP1 POP SWAP2 SWAP1 POP JUMP JUMPDEST PUSH0 PUSH1 0x20 DUP3 ADD SWAP1 POP DUP2 DUP2 SUB PUSH0 DUP4 ADD MSTORE PUSH2 0x708 DUP2 PUSH2 0x6CF JUMP JUMPDEST SWAP1 POP SWAP2 SWAP1 POP JUMP JUMPDEST PUSH32 0x496E73756666696369656E742062616C616E6365000000000000000000000000 PUSH0 DUP3 ADD MSTORE POP JUMP JUMPDEST PUSH0 PUSH2 0x743 PUSH1 0x14 DUP4 PUSH2 0x46F JUMP JUMPDEST SWAP2 POP PUSH2 0x74E DUP3 PUSH2 0x70F JUMP JUMPDEST PUSH1 0x20 DUP3 ADD SWAP1 POP SWAP2 SWAP1 POP JUMP JUMPDEST PUSH0 PUSH1 0x20 DUP3 ADD SWAP1 POP DUP2 DUP2 SUB PUSH0 DUP4 ADD MSTORE PUSH2 0x770 DUP2 PUSH2 0x737 JUMP JUMPDEST SWAP1 POP SWAP2 SWAP1 POP JUMP JUMPDEST PUSH32 0x4E487B7100000000000000000000000000000000000000000000000000000000 PUSH0 MSTORE PUSH1 0x11 PUSH1 0x4 MSTORE PUSH1 0x24 PUSH0 REVERT JUMPDEST PUSH0 PUSH2 0x7AE DUP3 PUSH2 0x4F5 JUMP JUMPDEST SWAP2 POP PUSH2 0x7B9 DUP4 PUSH2 0x4F5 JUMP JUMPDEST SWAP3 POP DUP3 DUP3 SUB SWAP1 POP DUP2 DUP2 GT ISZERO PUSH2 0x7D1 JUMPI PUSH2 0x7D0 PUSH2 0x777 JUMP JUMPDEST JUMPDEST SWAP3 SWAP2 POP POP JUMP JUMPDEST PUSH0 PUSH2 0x7E1 DUP3 PUSH2 0x4F5 JUMP JUMPDEST SWAP2 POP PUSH2 0x7EC DUP4 PUSH2 0x4F5 JUMP JUMPDEST SWAP3 POP DUP3 DUP3 ADD SWAP1 POP DUP1 DUP3 GT ISZERO PUSH2 0x804 JUMPI PUSH2 0x803 PUSH2 0x777 JUMP JUMPDEST JUMPDEST SWAP3 SWAP2 POP POP JUMP INVALID LOG2 PUSH5 0x6970667358 0x22 SLT KECCAK256 BALANCE DUP13 0xA7 0xD DUP16 PUSH25 0x80A2B786C3872A0D4940282B3CE2262D5D26795E38A0674755 DELEGATECALL PUSH5 0x736F6C6343 STOP ADDMOD BYTE STOP CALLER "
		},
		"gasEstimates": {
			"creation": {
				"codeDepositCost": "422400",
				"executionCost": "infinite",
				"totalCost": "infinite"
			},
			"external": {
				"balanceOf(address)": "2873",
				"balances(address)": "2824",
				"name()": "infinite",
				"symbol()": "infinite",
				"totalSupply()": "2425",
				"transfer(address,uint256)": "infinite"
			}
		},
		"methodIdentifiers": {
			"balanceOf(address)": "70a08231",
			"balances(address)": "27e235e3",
			"name()": "06fdde03",
			"symbol()": "95d89b41",
			"totalSupply()": "18160ddd",
			"transfer(address,uint256)": "a9059cbb"
		}
	},
	"abi": [
		{
			"inputs": [
				{
					"internalType": "string",
					"name": "_name",
					"type": "string"
				},
				{
					"internalType": "string",
					"name": "_symbol",
					"type": "string"
				},
				{
					"internalType": "uint256",
					"name": "_initialSupply",
					"type": "uint256"
				}
			],
			"stateMutability": "nonpayable",
			"type": "constructor"
		},
		{
			"anonymous": false,
			"inputs": [
				{
					"indexed": true,
					"internalType": "address",
					"name": "_from",
					"type": "address"
				},
				{
					"indexed": true,
					"internalType": "address",
					"name": "_to",
					"type": "address"
				},
				{
					"indexed": false,
					"internalType": "uint256",
					"name": "_value",
					"type": "uint256"
				}
			],
			"name": "Transfer",
			"type": "event"
		},
		{
			"inputs": [
				{
					"internalType": "address",
					"name": "_owner",
					"type": "address"
				}
			],
			"name": "balanceOf",
			"outputs": [
				{
					"internalType": "uint256",
					"name": "",
					"type": "uint256"
				}
			],
			"stateMutability": "view",
			"type": "function"
		},
		{
			"inputs": [
				{
					"internalType": "address",
					"name": "",
					"type": "address"
				}
			],
			"name": "balances",
			"outputs": [
				{
					"internalType": "uint256",
					"name": "",
					"type": "uint256"
				}
			],
			"stateMutability": "view",
			"type": "function"
		},
		{
			"inputs": [],
			"name": "name",
			"outputs": [
				{
					"internalType": "string",
					"name": "",
					"type": "string"
				}
			],
			"stateMutability": "view",
			"type": "function"
		},
		{
			"inputs": [],
			"name": "symbol",
			"outputs": [
				{
					"internalType": "string",
					"name": "",
					"type": "string"
				}
			],
			"stateMutability": "view",
			"type": "function"
		},
		{
			"inputs": [],
			"name": "totalSupply",
			"outputs": [
				{
					"internalType": "uint256",
					"name": "",
					"type": "uint256"
				}
			],
			"stateMutability": "view",
			"type": "function"
		},
		{
			"inputs": [
				{
					"internalType": "address",
					"name": "_to",
					"type": "address"
				},
				{
					"internalType": "uint256",
					"name": "_value",
					"type": "uint256"
				}
			],
			"name": "transfer",
			"outputs": [
				{
					"internalType": "bool",
					"name": "",
					"type": "bool"
				}
			],
			"stateMutability": "nonpayable",
			"type": "function"
		}
	]
}